:100000000C9497010C94BF010C94BF010C94BF0198
:100010000C94BF010C94BF010C94BF010C94960E7C
:100020000C94BF010C94BF010C94BF010C94BF0150
:100030000C94BF010C94BF010C94BF010C94BF0140
:100040000C944C0E0C94BF010C943E0F0C94180FA2
:100050000C94BF010C94BF010C94BF010C94BF0120
:100060000C94700F0C94BF0133202D2052656C6FDF
:1000700067696F0032202D204D61726361646F7279
:100080000031202D20457374617469737469636154
:10009000730053656C6563696F6E6520756D6120D3
:1000A0006F7063616F3A001F1C1F1E1F1E1F1F1EF3
:1000B0001F1E496E696369616E646F2067726176A5
:1000C0006163616F206465206461646F732E2E2EFE
:1000D0000053697374656D6120696E696369616459
:1000E0006F0020202000486F72613A200044617444
:1000F000613A20004D61726361646F722073616CBC
:10010000766F212020003D3D3D3D3D3D3D3D3D3D47
:100110003D3D3D3D3D3D3D3D3D3D3D3D3D002500A1
:100120004C3A20002500553A20004300543A200064
:10013000486F72613A2000446174613A20003D3D8D
:100140003D204D41524341444F522053414C564F64
:10015000203D3D3D0054656D70657261747572613E
:100160002061626169786F20646F20696465616CE9
:1001700021200054656D7065726174757261206133
:1001800063696D6120646F20696465616C21200082
:100190004C756D696E6F7369646164652061636934
:1001A0006D6120646F20746F6C65726176656C217F
:1001B0002000556D696461646520756D20706F75F0
:1001C000636F20616C7461212000556D6964616406
:1001D0006520756D20706F75636F2062616978614D
:1001E0002120005761726E696E673A200054656D78
:1001F0007065726174757261206D7569746F2062CB
:100200006169786121200054656D70657261747553
:10021000726120616C74612120004C756D696E6F94
:100220007369646164652065786365737369766179
:10023000212000556D6964616465206D7569746F76
:1002400020616C7461212000556D696461646520D2
:100250006D7569746F2062616978612120005B436C
:1002600052495449434F5D2000342D566F6C7461E0
:10027000720025202020202020202020004C3A0041
:100280002520004320553A00543A0034202D2056B2
:100290006F6C7461720052454C4F47494F20415476
:1002A00055414C0034202D20566F6C746172004310
:1002B0006C69717565203220702F206D61726361E9
:1002C00072004553544154495354494341533A00F1
:1002D00000000000240027002A000000000800029F
:1002E00001000003040700000000000000000000FF
:1002F000000023002600290000000000250028003F
:100300002B00020404040404040404020202020296
:1003100002030303030303010204081020408001C9
:100320000204081020010204081020008F1011247C
:100330001FBECFEFD8E0DEBFCDBF11E0A0E0B1E03F
:10034000E6E3FAE302C005900D92A037B107D9F7B2
:1003500023E0A0E7B1E001C01D92A73AB207E1F7A0
:1003600011E0C7E9D1E004C02197FE010E94EE1B15
:10037000C639D107C9F70E9461110C94191D0C945C
:1003800000000895089596E0899FD0011124AC5E85
:10039000BC4F90967C936E935F9791E091969C935F
:1003A0009197E0918103F0918203909180039923CA
:1003B00039F0309751F0811108C0809130030994D1
:1003C000309719F05C968C91FACF0895CF92DF9216
:1003D000EF92FF92CF93DF93B0918A03A0E0811157
:1003E000AB2F80918B0390E0880F991FAC01425195
:1003F0005D4FC0909003D0909103E0909203F090F5
:10040000930330E020E0FA01C591D491E881B9016D
:1004100090E080E0EB23EA130AC02F5F3F4F6C159A
:100420007D058E059F0578F36FEF7FEFCB01DF91A0
:10043000CF91FF90EF90DF90CF900895833081F0BF
:1004400028F4813099F08230A9F008958730A9F01E
:100450008830C9F08430B1F4809180008F7D03C072
:10046000809180008F7780938000089584B58F7786
:1004700084BD089584B58F7DFBCF8091B0008F77C8
:100480008093B00008958091B0008F7DF9CFCF9315
:10049000DF93282F30E0F901E652FD4F8491F901F6
:1004A000E95EFC4FD491F901ED5FFC4FC491CC2380
:1004B000A1F081110E941E02EC2FF0E0EE0FFF1F51
:1004C000E251FD4FA591B491EC91ED2381E090E0D4
:1004D00009F480E0DF91CF91089580E090E0FACFB9
:1004E0001F93CF93DF93282F30E0F901E652FD4FA1
:1004F0008491F901E95EFC4FD491F901ED5FFC4F65
:10050000C491CC23A9F0162F81110E941E02EC2F5A
:10051000F0E0EE0FFF1FE850FD4FA591B4918FB7AB
:10052000F894EC91111108C0D095DE23DC938FBFB5
:10053000DF91CF911F910895DE2BF8CFCF93DF93FA
:1005400090E0FC01E95EFC4F24918D5F9C4FFC0123
:1005500084918823C9F090E0880F991FFC01E05333
:10056000FD4FA591B491FC01E850FD4FC591D49188
:1005700061110DC09FB7F8948C91209582238C93C4
:100580008881282328839FBFDF91CF91089562300F
:1005900051F49FB7F8943C91822F809583238C93DC
:1005A000E8812E2BEFCF8FB7F894EC912E2B2C9364
:1005B0008FBFEACF4F925F926F927F928F929F92FE
:1005C000AF92BF92CF92DF92EF92FF920F931F9361
:1005D000CF938C014A015B01809100018F3099F02B
:1005E0008F3F09F451C0CF911F910F91FF90EF9071
:1005F000DF90CF90BF90AF909F908F907F906F9043
:100600005F904F900895E2E0F3E0C491C7FDEBCF17
:1006100061E08FE00E949E02CC2319F0C23009F005
:10062000E7C0712C612C60E472E48FE090E0A301DC
:1006300098010E946C1A69017A0181E0C81AD108F8
:10064000E108F108C23009F08EC092E08FEFC816C1
:10065000D104E104F10489F084F060E970ED83E0F5
:1006600090E0A30198010E946C1A69017A0181E06F
:10067000C81AD108E108F10893E08091B100887FA1
:10068000892B8093B10092C08FE080930001E2E05B
:10069000F3E0C491CF3F09F4A6CFC13021F150F06F
:1006A000C23009F43EC0C7FD9ECF61E08FE00E94DA
:1006B0009E02B4CF14BC15BC84B5826084BD85B5E0
:1006C000816085BDE2E1F3E0E491F0E0EE0FFF1F11
:1006D000E850FD4F85919491E6E2F3E0E491E093D8
:1006E000E601C0E095CF10928000109281008091C9
:1006F0008100886080938100809181008160809377
:100700008100E2E1F3E0E491F0E0EE0FFF1FE8503A
:10071000FD4F85919491E6E2F3E0E491E093E501E9
:1007200077CF1092B0001092B1008091B00082603B
:100730008093B0008091B10081608093B100E2E1CC
:10074000F3E0E491F0E0EE0FFF1FE850FD4F8591DC
:1007500094919093E4018093E301E6E2F3E0E49165
:10076000E093E20155CF8FEFC816D104E104F10404
:10077000A9F0A4F068E478EE81E090E0A30198018C
:100780000E946C1A69017A0181E0C81AD108E10857
:10079000F10894E0C11171CF93E003C092E0C11160
:1007A0006CCF85B5887F892B85BDC0E0D801AA0FA5
:1007B000BB1FA50194010E948B1A28EE33E040E094
:1007C00050E00E94961AC13061F1C230E1F1C111CE
:1007D0000ACFC7BC2093EF013093F0014093F101A1
:1007E0005093F20180916E00826080936E00FBCE88
:1007F000980150E040E060E072E18AE790E00E94FA
:100800006C1A69017A0181E0C81AD108E108F1087F
:10081000C13061F680918100887F81608093810082
:10082000C5CFD0928900C09288002093EB0130930D
:10083000EC014093ED015093EE0180916F008260D6
:1008400080936F00D0CEC092B3002093E701309325
:10085000E8014093E9015093EA01809170008260C1
:1008600080937000C0CE3FB7F8948091DE019091E4
:10087000DF01A091E001B091E10126B5A89B05C080
:100880002F3F19F00196A11DB11D3FBFBA2FA92F0F
:10089000982F8827BC01CD01620F711D811D911D0C
:1008A00042E0660F771F881F991F4A95D1F7089578
:1008B0008F929F92AF92BF92CF92DF92EF92FF9270
:1008C0004B015C010E9433046B017C010E943304E4
:1008D0006C197D098E099F09683E73408105910559
:1008E000A8F321E0821A9108A108B10888EEC80E89
:1008F00083E0D81EE11CF11C81149104A104B10411
:1009000029F7FF90EF90DF90CF90BF90AF909F902E
:100910008F9008952FB7F8946091DA017091DB0100
:100920008091DC019091DD012FBF08950F931F93FB
:10093000CF93DF93C82FD62F86E0C89FF0011124F4
:10094000EC5EFC4F11A2878D90A181309105F1F0F2
:1009500058F082309105F1F1039709F440C0DF911E
:10096000CF911F910F9108956623C9F361E070E064
:100970008C2F0E94C3010E948A0460936C037093C1
:100980006D0380936E0390936F03E9CF0E948A04F6
:1009900000916C0310916D0320916E0330916F03F1
:1009A000AB01BC01401B510B620B730B80917E03AA
:1009B00090917F03B0E0A0E084179507A607B707E2
:1009C00048F462E070E08C2FDF91CF911F910F917E
:1009D0000C94C30163E070E0D111C1CFF4CF70E09B
:1009E00060E0F1CFCF92DF92EF92FF920F931F93CF
:1009F000CF93DF93CDB7DEB7C054D1400FB6F89494
:100A0000DEBF0FBECDBF0E948A0400918C031091FF
:100A10008D0320918E0330918F036B017C01C01AEE
:100A2000D10AE20AF30A97018601003D1740210529
:100A3000310590F480919403C05CDE4F0FB6F894BA
:100A4000DEBF0FBECDBFDF91CF911F910F91FF9001
:100A5000EF90DF90CF90089560938C0370938D0397
:100A600080938E0390938F031092870310928603D6
:100A700010928503109284031092830362E08091A8
:100A800088030E949E0261E070E080E090E00E9496
:100A9000580461E0809188030E949E0260E080918A
:100AA00088030E947002809189038551823020F56D
:100AB0008BE291E10197F1F762E0809188030E9457
:100AC0009E028091950390E08230910538F0880F66
:100AD000991F880F991F05970197F1F7F89480E007
:100AE0000E94E6016F3F7F4F8F4F9F4F61F410923E
:100AF0009403789480E0A0CF64E170E080E090E01F
:100B00000E945804D9CF81E00E94E6016F3F7F4FD9
:100B10008F4F9F4F61F38E010F5F1F4F6E012FEBC1
:100B2000C21A2EEFD20A780180E00E94E601F70196
:100B3000608371838283938381E00E94E601F701E1
:100B40006483758386839783F8E0EF0EF11CEC14C1
:100B5000FD0451F7789430E020E0F801C080D180A6
:100B6000E280F3804481558166817781FFEFCF1663
:100B7000DF06EF06FF0631F04F3F8FEF580768079B
:100B8000780719F410929403B5CFF90183E0F59535
:100B9000E7958A95E1F7ED57FC4F8081880FC416E1
:100BA000D506E606F70610F180832F5F3F4F085FFA
:100BB0001F4F2832310589F6409187032091830326
:100BC00080918403280F3327331F80918503280FDA
:100BD000311D80918603820F932F911D992748170D
:100BE000190681F681E08093940326CF8160DCCFE3
:100BF000862F642F0C949E02862F642F0C94700213
:100C0000862F0C944702DC01ED91FC910190F0815C
:100C1000E02D0994EF92FF920F931F93CF93DF93F0
:100C20008C017B01D0E0C0E0F701EC0FFD1F649167
:100C3000662361F0D801ED91FC910190F081E02DE7
:100C4000C8010995892B11F02196EECFCE01DF91D5
:100C5000CF911F910F91FF90EF900895AF92BF92A7
:100C6000CF92DF92EF92FF920F931F93CF93DF9378
:100C70006C017B018B01040F151FEB015E01AE18A7
:100C8000BF08C017D10759F06991D601ED91FC91C9
:100C90000190F081E02DC6010995892B79F7C501F6
:100CA000DF91CF911F910F91FF90EF90DF90CF9048
:100CB000BF90AF900895FC01538D448D252F30E0F7
:100CC000842F90E0821B930B541710F0CF96089559
:100CD00001970895FC01918D828D981761F0A28D86
:100CE000AE0FBF2FB11D5D968C91928D9F5F9F734C
:100CF000928F90E008958FEF9FEF0895FC01918D02
:100D0000828D981731F0828DE80FF11D858D90E06E
:100D100008958FEF9FEF0895FC01918D228D892F0B
:100D200090E0805C9F4F821B91098F7399270895F3
:100D30008BE692E00E948C0621E0892B09F420E0EA
:100D4000822F089580E090E0892B29F00E94980678
:100D500081110C9400000895FC01A48DA80FB92FF7
:100D6000B11DA35ABF4F2C91848D90E001968F73D3
:100D70009927848FA689B7892C93A089B1898C91F2
:100D8000837080648C93938D848D981306C0028841
:100D9000F389E02D80818F7D80830895EF92FF920B
:100DA0000F931F93CF93DF93EC0181E0888F9B8D8E
:100DB0008C8D98131AC0E889F989808185FF15C048
:100DC0009FB7F894EE89FF896083E889F98980816B
:100DD0008370806480839FBF81E090E0DF91CF913A
:100DE0001F910F91FF90EF900895F62E0B8D10E05C
:100DF0000F5F1F4F0F731127E02E8C8D8E110CC0CB
:100E00000FB607FCFACFE889F989808185FFF5CF15
:100E1000CE010E94AC06F1CFEB8DEC0FFD2FF11D42
:100E2000E35AFF4FF0829FB7F8940B8FEA89FB8952
:100E300080818062CFCFCF93DF93EC01888D8823B0
:100E4000B9F0AA89BB89E889F9898C9185FD03C02D
:100E5000808186FD0DC00FB607FCF7CF8C9185FF12
:100E6000F2CF808185FFEDCFCE010E94AC06E9CFA5
:100E7000DF91CF9108950895EF92FF920F931F9302
:100E8000CF93DF93EC0169813881432F50E02A81B1
:100E9000822F90E0E7EAF0E021E0261730F4749129
:100EA000870F911D2F5F3196F8CF633018F03370A4
:100EB00009F401966DE671E0469F9001479F300D61
:100EC000569F300D1124215031094D5F5F4F5695CB
:100ED000479556954795240F351F280F391FA8E1D0
:100EE000B0E00E94B81A2B817B018C01E20EF11C4C
:100EF000011D111DA8019701ACE3B0E00E948B1AFF
:100F00002C817B018C01E20EF11C011D111DA80139
:100F100097010E948B1AAB01BC019D81892F90E043
:100F2000B0E0A0E080589C4BA249B74C8A019B01DD
:100F3000080F191F2A1F3B1FC901B801DF91CF916C
:100F40001F910F91FF90EF9008958F929F92AF9213
:100F5000BF92CF92DF92EF92FF92CF93DF93EC019B
:100F60006A017B0180E8C81A83E4D80A8DE6E80AA2
:100F700088E3F80A8CE3882E912CA12CB12CC701B0
:100F8000B601A50194010E94961A6D83CA01B901A8
:100F9000A50194010E94961A6C83C701B60120E155
:100FA0003EE040E050E00E94961ACA01B90128E1F3
:100FB00030E040E050E00E94961A6B83C701B60112
:100FC00020E831E541E050E00E94961A188263E97A
:100FD0007EEF8881982F937041E050E011F050E04F
:100FE00040E0FA01E359FE4F2E173F0740F0FB01A6
:100FF000E41BF50B2E0F3F1F8F5F8883EACF81E044
:10100000898389818C30A0F4482F4150550BFA0117
:10101000E955FF4FE491911103C0823009F4EF5F6D
:10102000F0E02E173F0720F02E1B3F0B8F5FE8CF1D
:101030002F5F2A83DF91CF91FF90EF90DF90CF90C9
:10104000BF90AF909F908F90089520919101260FAF
:101050003327331F21323105ECF420914102FC018A
:1010600090E080E0243069F082E00895A091910141
:101070002191AC014F585E4FA40FB52FB11D2C9399
:101080000196861798F380919101680F6093910102
:1010900080E0089581E008951092410281E08093FC
:1010A000400210921B0261E082E10E94700261E046
:1010B00083E10E947002E9EBF0E080818E7F808303
:1010C00080818D7F808388E48093B80085E480935D
:1010D000BC00089510921A02109219021092480250
:1010E00010926A020E944C0881EC91E090931802E1
:1010F0008093170282EC91E0909316028093150280
:101100000895CF93DF9391E0909370018823B9F015
:10111000C091B800D091BA008091BC008A7B8093C6
:10112000BC0060E082E10E94700260E083E10E9406
:1011300070020E944C08D093BA00C093B800DF91AF
:10114000CF9108958F929F92AF92BF92CF92DF92EC
:10115000EF92FF920F931F93CF93DF93D0916A0288
:10116000D13208F0D7C0182FC09169020E94330411
:101170006B017C018091410281116BC082E0809300
:101180004102109340028FEF80933F0210923E0283
:10119000D0933D02A9E4B2E0EDE1F2E080E0D813A3
:1011A00091C010921C0280911C02CC0FC82BC093DE
:1011B0001C0280911B02813009F088C010921B0232
:1011C0000E9433046B017C0180911C028093BB0060
:1011D0008091430290914402A0914502B091460251
:1011E000892B8A2B8B2BA1F00E94330400914302A0
:1011F0001091440220914502309146026C197D09FC
:101200008E099F09061717072807390708F442C0F7
:101210008091BC0083FDD8CF85EC8093BC000E94F8
:1012200033046B017C0180914102823009F450C08B
:1012300080913F028F3F09F46FC080913F0280325E
:1012400009F46CC080913F02803309F469C084E0E6
:1012500026C08091430290914402A0914502B09132
:101260004602892B8A2B8B2B09F484CF0E943304EE
:101270008090430290904402A0904502B0904602B4
:101280006C197D098E099F0986169706A806B9066E
:1012900008F070CF809142020E94810885E0109290
:1012A000480210926A0210924702DF91CF911F917B
:1012B0000F91FF90EF90DF90CF90BF90AF909F90F5
:1012C0008F9008959D9191938F5F69CF85EEA5CF03
:1012D0008091430290914402A0914502B091460250
:1012E000892B8A2B8B2B09F49ECF0E94330400910B
:1012F00043021091440220914502309146026C193C
:101300007D098E099F09061717072807390708F076
:101310008ACFC0CF81E0C3CF80E0C1CF82E0BFCF12
:1013200083E0BDCFCF93DF93EC018B818823A1F0C5
:10133000888191E09093470280936902109248025D
:1013400010926A0281E00E94A20891E0811190E06F
:10135000892FDF91CF9108950E946A0881E08B83E5
:10136000CE010E949209982F8111E2CFF1CF08950A
:10137000E0911A0280911902E81730F4F0E0ED5084
:10138000FE4F808190E008958FEF9FEF0895909138
:101390001A02809119022FEF3FEF981748F4E92FB6
:1013A000F0E0ED50FE4F208130E09F5F90931A02F5
:1013B000C90108958091190290911A02891B990B15
:1013C0000895CF92DF92EF92FF920F931F93CF93E6
:1013D000DF937C01CB018A0120914702222389F00F
:1013E000EB016B01C40ED51ECC15DD0569F06991CA
:1013F000D701ED91FC910190F081E02DC701099595
:10140000F3CF642F0E942508C801DF91CF911F916F
:101410000F91FF90EF90DF90CF900895CF93DF93DF
:101420001F92CDB7DEB76983209147022223F9F0DE
:1014300020916A02203258F021E030E0FC01338331
:10144000228390E080E00F90DF91CF91089580910A
:101450004802E82FF0E0E75BFD4F998190838F5FB2
:101460008093480280936A0281E090E0ECCF61E0D3
:10147000CE0101960E942508F7CFFC01248131E0BE
:1014800030934702209369021092480210926A0238
:101490008485682B88E093E00E940E0A81E00C941A
:1014A000A20890E080E008952F923F924F925F92C1
:1014B0006F927F928F929F92AF92BF92CF92DF9264
:1014C000EF92FF920F931F93CF93DF9300D000D042
:1014D00000D01F92CDB7DEB78C011982A090130205
:1014E000B0901402D50114968D919C911597892B7B
:1014F00009F427C111968D919C9112972C9131E09E
:1015000030934702209369021092480210926A02B7
:10151000DC01ED91FC910280F381E02D41E050E08F
:10152000BE016F5F7F4F0995019709F00AC180E006
:101530000E94A208811105C1D12CC12C87E0282E60
:10154000312CF501848195817101EC18FD088E150F
:101550009F0508F47C01D5018C900E9433042B0177
:101560003C0180914102811175C09E2CB0E2BE15F4
:1015700010F4B0E29B2EE1E0E093410221E0C101D2
:101580008E199F09C816D90608F420E0209340025E
:10159000FFEFF0933F0210923E028FEF890D809390
:1015A0003D0281E080931C0280911C02880C882AF5
:1015B00080921C0280911B02813009F095C010922C
:1015C0001B020E9433042B013C0180911C0280937A
:1015D000BB008091430290914402A0914502B091DA
:1015E0004602892B8A2B8B2BA1F00E943304209179
:1015F00043023091440240914502509146026419E1
:10160000750986099709261737074807590708F407
:1016100042C08091BC0083FDD8CFA5ECA093BC0054
:101620000E9433042B013C0180914102813009F476
:101630005FC080913E02891510F490903E02ADE1AA
:10164000B2E0E3EFF1E080E0891551F19D919193D3
:101650008F5FFACF8091430290914402A09145029E
:10166000B0914602892B8A2B8B2B09F47ACF0E94EA
:10167000330420914302309144024091450250913D
:10168000460264197509860997092617370748071E
:10169000590708F066CF809142020E948108912C80
:1016A00010921A02909219029E141F0409F049C068
:1016B00088248394912C8C0E9D1E8C0C9D1C3401CF
:1016C000C401861997098E159F05A0F5F501818142
:1016D0009281DC01ED91FC910284F385E02D099566
:1016E000F40181934F01ECCFB5EEB093BC0098CFDD
:1016F0008091430290914402A0914502B09146022C
:10170000892B8A2B8B2B09F48FCF0E9433042091D5
:1017100043023091440240914502509146026419BF
:10172000750986099709261737074807590708F0EA
:101730007BCFB1CFCE0CDF1CF7E0CF16D10408F47D
:1017400000CFE981EF77FA81FB804D815E818F8147
:10175000282F30E094E0359527959A95E1F7922F60
:10176000990F990F291B220F280FD8012C93852F31
:1017700090E024E0959587952A95E1F7982F990FA9
:10178000990F891B880F850F11968C931197642FE1
:1017900070E034E0759567953A95E1F7862F880FEC
:1017A000880F681B660F640F12966C9312974F2D6B
:1017B00050E064E0559547956A95E1F7842F880FCE
:1017C000880F481B440F4F0D13964C9313972F2FE0
:1017D00030E074E0359527957A95E1F7822F880FF0
:1017E000880F281B220F2F0F14962C9314978E2FDF
:1017F00090E0F4E095958795FA95E1F7982F990F89
:10180000990F891B880F8E0F15968C93C801279608
:101810000FB6F894DEBF0FBECDBFDF91CF911F9101
:101820000F91FF90EF90DF90CF90BF90AF909F907F
:101830008F907F906F905F904F903F902F90089582
:101840000F931F93CF938C01C62F0E943D0A6C2FDC
:101850006460C8010E943D0A6C2F6B7FC8010E9422
:101860003D0A83EC90E00197F1F7CF911F910F9122
:1018700008950F931F93CF93DF938C01D62FC42F1E
:10188000607F642B0E94200C80E1D89FB00111245E
:101890006C2BC801DF91CF911F910F910C94200CFC
:1018A000CF93DF93CDB7DEB728970FB6F894DEBF9E
:1018B0000FBECDBF98E0EFE1F1E0DE01119601909F
:1018C0000D929A95E1F790919E03981710F48FEF7F
:1018D000890F90E0880F991F21E030E02C0F3D1F09
:1018E000820F931FFC016081606840E086E993E00D
:1018F00028960FB6F894DEBF0FBECDBFDF91CF9113
:101900000C94390C40E061E086E993E00E94390CC8
:101910008BE39FE10197F1F780919F03882319F0F2
:1019200080E00C94500C08950E94820C80E00E948C
:10193000500C62E970E086E993E00E940A0681E0BB
:101940000E94500C61E870E086E993E00E940A066C
:1019500082E00E94500C64E770E086E993E00E9408
:101960000A0683E00E94500C68E670E086E993E086
:101970000C940A0641E00E94390C81E090E0089541
:10198000FB0101900020E9F73197AF01461B570B8F
:10199000DC01ED91FC910280F381E02D0994CF935D
:1019A000DF93BC018BE692E00E940A06EC0161E63F
:1019B00071E08BE692E00E94C00C8C0F9D1FDF91BE
:1019C000CF9108958F929F92AF92BF92EF92FF9224
:1019D0000F931F93CF93DF93CDB7DEB7A1970FB6C9
:1019E000F894DEBF0FBECDBF7C01FA01CB0119A276
:1019F000223008F42AE08E010F5D1F4F822E912CB9
:101A0000B12CA12CBF01A50194010E94961AF901E5
:101A1000CA016A300CF5605DD8016E938D01232BED
:101A2000242B252B79F790E080E0109721F0BD0161
:101A3000C7010E94C00CA1960FB6F894DEBF0FBE7E
:101A4000CDBFDF91CF911F910F91FF90EF90BF908D
:101A5000AF909F908F900895695CDECF462F50E045
:101A600070E060E02AE00C94E20C4F925F926F927B
:101A70007F928F929F92AF92BF92EF92FF920F93BD
:101A80001F93CF93DF938C014A015B01E22EAB01E0
:101A90009401CB01B4010E94DA1B64E671E081116C
:101AA00026C024013501E89477F82FEF3FEF4FE788
:101AB0005FE7C301B2010E94DA1B81110CC02FEF56
:101AC0003FEF4FE75FE7C301B2010E94481968E6A4
:101AD00071E0181664F02FEF3FEF4FE75FE4C501A8
:101AE000B4010E94D51B18169CF46CE671E0C80185
:101AF000DF91CF911F910F91FF90EF90BF90AF902A
:101B00009F908F907F906F905F904F900C94C00C3F
:101B10002FEF3FEF4FE75FECC501B4010E9448197A
:101B200087FDE3CF20E030E0A901C501B4010E94A8
:101B30004819D0E0C0E087FF09C06DE2C8010E94EB
:101B40000306EC01B7FAB094B7F8B094FE2C712CF0
:101B500060E070E080E09FE37E1440F420E030E03D
:101B600040E251E40E94341B7394F6CFA501940126
:101B70000E94C81A4B015C010E94A61B2B013C016C
:101B80002AE0BC01A201C8010E94E20CC80FD91FC3
:101B9000EE20D1F1C301B2010E944D199B01AC01AD
:101BA000C501B4010E94C71A4B015C016EE2C80175
:101BB0000E940306C80FD91FFA948FEFF81621F17F
:101BC00020E030E040E251E4C501B4010E94AE19CA
:101BD0002B013C010E94A61B4B01B12CA12C2AE039
:101BE000B501A401C8010E94E20CC80FD91FC501AC
:101BF000B4010E944D199B01AC01C301B2010E94C6
:101C0000C71A4B015C01D8CFCE01DF91CF911F9154
:101C10000F91FF90EF90BF90AF909F908F907F902B
:101C20006F905F904F90089585ED8093BC008091F8
:101C3000430290914402A0914502B091460207965A
:101C4000A11DB11D23E0B695A795979587952A9577
:101C5000D1F72091BC0024FD03C0109241020895E9
:101C600040914302509144026091450270914602B6
:101C7000452B462B472B69F30097A105B10541F091
:101C80002AE22A95F1F700C00197A109B109E1CF35
:101C9000809142020C9481081F920F920FB60F920E
:101CA00011242F933F938F939F93AF93BF93809172
:101CB000DA019091DB01A091DC01B091DD0130915E
:101CC000D90123E0230F2D3758F50196A11DB11D31
:101CD0002093D9018093DA019093DB01A093DC017A
:101CE000B093DD018091DE019091DF01A091E001D0
:101CF000B091E1010196A11DB11D8093DE01909389
:101D0000DF01A093E001B093E101BF91AF919F91FA
:101D10008F913F912F910F900FBE0F901F901895AC
:101D200026E8230F0296A11DB11DD2CF1F920F925C
:101D30000FB60F9211242F933F934F935F936F939E
:101D40007F938F939F93AF93BF93EF93FF93809174
:101D5000E7019091E801A091E901B091EA01892B96
:101D60008A2B8B2BD1F19091E201E091E301F0916C
:101D7000E4018081892780838091E7019091E801C7
:101D8000A091E901B091EA01181619061A061B067E
:101D90009CF48091E7019091E801A091E901B09154
:101DA000EA010197A109B1098093E7019093E80145
:101DB000A093E901B093EA01FF91EF91BF91AF9138
:101DC0009F918F917F916F915F914F913F912F9153
:101DD0000F900FBE0F901F90189580910001E2E0C8
:101DE000F3E0E4919FEF90930001E13051F030F087
:101DF000E23069F060E00E947002DECF10926E0067
:101E0000F9CF90916F009D7F90936F00F3CF9091E9
:101E100070009D7F9093700091E09093B00090913E
:101E2000B100987F94609093B1001092B300E2CF1C
:101E30001F920F920FB60F9211242F933F934F933F
:101E40005F936F937F938F939F93AF93BF93EF9322
:101E5000FF938BE692E00E94AC06FF91EF91BF9159
:101E6000AF919F918F917F916F915F914F913F9132
:101E70002F910F900FBE0F901F9018951F920F92E9
:101E80000FB60F9211242F938F939F93EF93FF938D
:101E9000E0917B02F0917C028081E0918102F091DF
:101EA000820282FD1BC09081809184028F5F8F73BC
:101EB00020918502821741F0E0918402F0E0E5591B
:101EC000FD4F958F80938402FF91EF919F918F91A9
:101ED0002F910F900FBE0F901F9018958081F4CF17
:101EE0001F920F920FB60F9211242F933F934F938F
:101EF0005F936F937F938F939F93AF93BF93EF9372
:101F0000FF938091B900887F803609F44AC0F0F5CC
:101F1000883209F4A7C018F5803109F49BC0B8F4E1
:101F2000882309F4F9C0883009F494C0FF91EF9137
:101F3000BF91AF919F918F917F916F915F914F91E1
:101F40003F912F910F900FBE0F901F9018958831E1
:101F500009F488C0803251F780933F0214C0803466
:101F600009F49DC040F48033B9F38833F9F68093C7
:101F70003F0285ECB0C0803509F485C0883509F48E
:101F800096C0883499F60E94140ED0CF883909F48F
:101F90008CC038F5883729F050F4883611F0803736
:101FA00029F683E0809341021092B30157C088382C
:101FB00009F47BC0803919F0803809F0B7CF8091DF
:101FC000B301803208F071C0E091B30181E08E0F5F
:101FD0008093B3018091BB00F0E0ED56FE4F80830B
:101FE0003DC0803B39F0E0F4803A09F479C0883A8A
:101FF00009F09CCF84E080934102109292011092EC
:102000009101E0911702F0911802099580919101D8
:1020100081110FC081E0809391011092710109C07C
:10202000803C09F4A6CF883C09F4A3CF883B09F093
:102030007DCFE091920181E08E0F80939201F0E0DC
:10204000EF58FE4F80818093BB0090919201809168
:10205000910129C080911C028093BB0085EC809384
:10206000BC0064CF90913E0280913D02981758F5D4
:10207000E0913E0281E08E0F80933E02F0E0E35E4D
:10208000FD4F8081E9CFE0913E0281E08E0F809389
:102090003E028091BB00F0E0E35EFD4F80839091B3
:1020A0003E0280913D029817C8F285E8D8CFE091B2
:1020B0003E0281E08E0F80933E028091BB00F0E0F3
:1020C000E35EFD4F80838091400281115CCF81E00F
:1020D00080931B0284EA8093BC001092410226CFB9
:1020E00085EC8093BC00109241028091B301803254
:1020F00030F4E091B301F0E0ED56FE4F10826091B4
:10210000B30170E0E0911502F091160283E991E0CD
:1021100009951092B3010ACF10923F0234CF10926A
:102120006E0210926D0288EE93E0A0E0B0E0809322
:102130006F0290937002A0937102B09372022BE22F
:1021400031E030936C0220936B0225EC30E0309349
:1021500078022093770224EC30E030937A022093C7
:10216000790220EC30E030937C0220937B0221EC5A
:1021700030E030937E0220937D0222EC30E03093F9
:10218000800220937F0226EC30E03093820220937D
:10219000810210928402109285021092860210929F
:1021A000870210920B0310920A0380930C03909302
:1021B0000D03A0930E03B0930F038DE391E0909372
:1021C000090380930803109299031092980389E5FC
:1021D00091E0909397038093960310929F0387E278
:1021E00080939A0384E18093A00384E08093A10309
:1021F0001092A20382E08093880386E18093890392
:10220000E9E1F3E0E491E0938A03E5E0F3E0E491AF
:10221000E0938B0380E89EE3A0E0B0E0809390031E
:1022200090939103A0939203B0939303109216039B
:1022300010921A031092190310921B038FE491E07D
:102240009093150380931403E0E3F3E0108214826B
:1022500013821582369683E0EC36F807B9F785E0ED
:1022600091E0909377038093760381E091E09093DF
:1022700079038093780384E080937A0380937B03CF
:1022800089E091E090937503809374038AE090E075
:1022900090937D0380937C0384EF91E090937F0380
:1022A00080937E0310928203109281031092700338
:1022B00010927103109272031092730310928003B4
:1022C0000895CF93DF93CDB7DEB76C970FB6F89430
:1022D000DEBF0FBECDBF789484B5826084BD84B567
:1022E000816084BD85B5826085BD85B5816085BD11
:1022F00080916E00816080936E00109281008091C9
:102300008100826080938100809181008160809350
:102310008100809180008160809380008091B10075
:1023200084608093B1008091B00081608093B000A0
:1023300080917A00846080937A0080917A00826034
:1023400080937A0080917A00816080937A008091F6
:102350007A00806880937A001092C100E0917B023D
:10236000F0917C0282E08083E0917702F091780224
:102370001082E0917902F0917A028FEC80831092C2
:102380008302E0917F02F091800286E08083E091F9
:102390007D02F0917E02808180618083E0917D02E8
:1023A000F0917E02808188608083E0917D02F091CF
:1023B0007E02808180688083E0917D02F0917E02C0
:1023C00080818F7D80830E946A08809113029091A2
:1023D0001402009711F00E94901C86E090E00E9489
:1023E000F41B8C0188E6D8018C9388E093E0129668
:1023F0009C938E93119713961C92139780E290E012
:1024000015969C938E9314971093140200931302C5
:102410000E946A0881E0F8018383C8010E94920942
:1024200062E0809188030E949E020E948A04605D9F
:1024300077408109910960938C0370938D03809399
:102440008E0390938F0387E3809395030E946A081D
:1024500010929B038091A103823018F098E0909332
:102460009B0380939E0362E370E080E090E00E9413
:1024700058046091A20386E993E00E943D0A68EE49
:1024800073E080E090E00E94580460E386E993E006
:102490000E94200C0BE416E4C8010197F1F760E3F9
:1024A00086E993E00E94200CC8010197F1F760E3F0
:1024B00086E993E00E94200C83E592E00197F1F712
:1024C00060E286E993E00E94200C60919B036062C9
:1024D00040E086E993E00E94390C84E080939C03FD
:1024E00040E06CE086E993E00E94390C0E94820C87
:1024F00082E080939D0340E066E086E993E00E94DD
:10250000390C40E062E086E993E00E94390C8BE3ED
:102510009FE10197F1F788E08093A20360E086E9EC
:1025200093E00E943D0A0E94820C61ED70E086E912
:1025300093E00E940A0660E273E080E090E00E946F
:10254000580461E083E00E949E0261E084E00E9402
:102550009E0261E085E00E949E0261E08FE00E94A1
:102560009E0260E08FE00E94700216E062E0812F20
:102570000E949E021F5F1E30C9F70E94940C82EBDE
:1025800090E00E94CF0C0E94F204882349F08091D1
:1025900089038B3028F08D3050F085518230C0F1A6
:1025A000812C912CF0ECAF2EFFE7BF2E1EC0609166
:1025B000840370E090E080E00E944F192DEC3CEC29
:1025C0004CEC5DE30E94AE196B017C0160918303CA
:1025D00070E090E080E00E944F199B01AC01C701C0
:1025E000B6010E94C81A4B015C010E94F2048823C4
:1025F00041F0809189038C3009F44BC1D8F48B30C1
:1026000091F1412C512C50EC652E5FE7752E55C091
:10261000609183037091840376276727762790E083
:1026200080E00E944D192DEC3CEC4CEC5DE30E94E7
:10263000AE19D9CF8551823020F710918503612FD3
:1026400070E0762F662766277F7780918603682B58
:1026500090E080E00E944D192DEC3CEC4CEC5DE3E9
:102660000E94AE1932C16091850370E090E080E075
:102670000E944D196B017C011091860317FF0AC05F
:10268000AC019B0160E070E080E89FEB0E94C71AFC
:102690006B017C011F70612F70E090E080E00E9470
:1026A0004F192DEC3CEC4CEC5DE30E94AE19A701F8
:1026B00096010E94C81A2B013C0180E480937C00A3
:1026C00080917A00806480937A0080917A0086FD00
:1026D000FCCF2091780030917900ACE9BFEF0E94E7
:1026E000DF1B2FEF33E040E050E00E946C1A2C59C2
:1026F0003F4F4F4F5F4F19012536310514F024E647
:1027000030E037FF02C030E020E06901330FEE080F
:10271000FF08CD8ADE8AEF8AF88EC701B6010E94D3
:102720004F192091D5013091D6014091D701509198
:10273000D8010E94C81A6D877E878F87988B609317
:10274000D5017093D6018093D7019093D801209141
:10275000D1013091D2014091D3015091D401C301F4
:10276000B2010E94C81A698B7A8B8B8B9C8B609309
:10277000D1017093D2018093D3019093D401209121
:10278000CD013091CE014091CF015091D001C501D2
:10279000B4010E94C81A698F7A8F8B8F9C8F6093C7
:1027A000CD017093CE018093CF019093D0016091C1
:1027B000CB017091CC016F5F7F4F7093CC01609320
:1027C000CB01072E000C880B990B0E944F196B014F
:1027D0007C01AC019B016D857E858F8598890E9467
:1027E000341B6093C7017093C8018093C901909313
:1027F000CA01A701960169897A898B899C890E94FF
:10280000341B6093C3017093C4018093C5019093FE
:10281000C601A7019601698D7A8D8B8D9C8D0E94D2
:10282000341B6093BF017093C0018093C1019093EA
:10283000C20181E0809380030E948A0400917003AA
:10284000109171032091720330917303AB01BC01AD
:10285000401B510B620B730B80917C0390917D03A5
:10286000B0E0A0E084179507A607B70708F047C1B6
:1028700010E080917A03181788F5E0917603F091C3
:102880007703E10FF11D62E080810E949E021F5FCD
:10289000F0CF10918503612F70E090E080E00E94FE
:1028A0004D196B017C01609186036F7070E090E0C0
:1028B00080E00E944F192DEC3CEC4CEC5DE30E9453
:1028C000AE19A70196010E94C81A2B013C0117FFFF
:1028D000F4CE77FA709477F87094EFCEF12C809163
:1028E0007B03F81608F06AC0CF2CD12CE091780356
:1028F000F0917903EC0DFD1D61E080810E949E0244
:10290000E0917803F0917903EC0DFD1D60E080818A
:102910000E94700281E090E0A0E0B0E00F2C04C0C3
:10292000880F991FAA1FBB1F0A94D2F79E878D8715
:102930009C01209530953A8B298BE12C80917A036C
:10294000E81628F50E2D10E0E0917603F09177035C
:10295000E00FF11F80810E9447020C5F1F4F000FA4
:10296000111FF801EC5EFC4F892B51F4808191819D
:102970004D855E85842B952B91838083E394DECFF8
:1029800080819181A989BA898A239B23F5CFE0911F
:102990007803F0917903EC0DFD1D61E080810E94C8
:1029A00070028091780390917903C80ED91E60E07F
:1029B000F60180810E949E02F39491CF34E1C32EF0
:1029C00033E0D32E8601D8015F968D919C9190972C
:1029D000892B59F45C961C925C97EFEFFFEF5E96A3
:1029E000FC93EE935D9791961C920A5F1F4FF3E064
:1029F00000351F0741F7F12C80917A03F81608F093
:102A000055C0E12C8F2D90E0880F991F9C01245E0A
:102A10003C4F3E872D8720917B03E21608F044C08F
:102A2000AD85BE856D917C910E2C02C07695679523
:102A30000A94E2F7F29E900111242E0D311DE4E17B
:102A4000F3E080E0458D568D2417350709F41EC448
:102A50008F5F36968A30B1F760FF24C0E4E1F3E07F
:102A600090E080E0448D411118C0E0917403F09132
:102A70007503E20FF31F4081B6E0B89FF001B99FE4
:102A8000F00D1124EC5EFC4F448F368F258F10A281
:102A9000178E61E00E94960405C0019636968A3032
:102AA000910501F7E394B7CFF394A6CFF12CF6018B
:102AB00081A18111F82EF6E0CF0ED11C0C151D0559
:102AC000B1F70E948A04609370037093710380933E
:102AD000720390937303FF2091F080913503882354
:102AE00071F0E0903303F090340321E0E216F1043A
:102AF00031F410913003111105C010E023C0109281
:102B00008003FBCF61E08FE00E94700260E570E01F
:102B100080E090E00E94580460E08FE00E94700224
:102B2000113309F047C1F092BE01E092BD010E944D
:102B3000820C80E00E94500C62EC72E086E993E027
:102B40000E940A060E948A042091BD013091BE01B4
:102B50002130310509F00EC20091B9011091BA017E
:102B60002091BB013091BC016B017C01C01AD10ADC
:102B7000E20AF30A97018601083E13402105310558
:102B800008F40BC16093B9017093BA018093BB0143
:102B90009093BC0181E00E94500C68E872E086E9E5
:102BA00093E00E940A0621E030E0B301A20186E929
:102BB00093E00E94350D63E872E086E993E00E949D
:102BC0000A0630E020E0B501A40186E993E00E9406
:102BD000350D60E872E086E993E00E940A0682E023
:102BE0000E94500C6DE772E086E993E00E940A06AD
:102BF0002AE04D895E896F89788D86E993E00E948D
:102C0000E20C62E772E086E993E00E940A0683E044
:102C10000E94500C69E672E086E993E00E940A0681
:102C200011E020E030E040EF51E4C301B2010E9426
:102C3000D51B87FD10E01093B80111E020E030E0D3
:102C4000A901C301B2010E94481918160CF410E042
:102C50001093B70111E020E030E044EB52E4C501ED
:102C6000B4010E94D51B87FD10E01093B60111E05E
:102C700020E030E040EA51E4C501B4010E94481967
:102C800018160CF410E01093B50181E05AE52516F2
:102C900031040CF480E08093B40120E030E040EF98
:102CA00051E4C301B2010E94D51B87FF22C020E07E
:102CB00030E0A901C301B2010E9448191816CCF4F2
:102CC00020E030E044EB52E4C501B4010E94D51B82
:102CD00087FF0FC020E030E040EA51E4C501B401B5
:102CE0000E94481918162CF48AE5281631040CF4B1
:102CF0009DC06EE572E08BE692E00E940A0680912C
:102D0000B501882331F068E472E08BE692E00E941E
:102D10000A068091B601882331F063E372E08BE606
:102D200092E00E940A068091B401882331F06AE1A2
:102D300072E08BE692E00E940A068091B801882337
:102D400031F067E072E08BE692E00E940A06809123
:102D5000B701882331F06DEE71E08BE692E00E94BE
:102D60000A0661E671E08BE692E00E94C00C61E029
:102D700085E00E9470024CE251E060E070E080EA81
:102D80009FE00E94DA0264E670E080E090E00E943A
:102D9000580460E085E00E94700280E090E0892B9A
:102DA00009F4F1CB0E949806882309F4ECCB0E9429
:102DB0000000E9CB1233B9F482E090E09093BE01B9
:102DC0008093BD010E94820C80E00E94500C6FEA4B
:102DD00072E086E993E00E940A0683E00E94500CAC
:102DE00064EA72E0ABCE1333B9F483E090E09093E1
:102DF000BE018093BD010E94820C80E00E94500CB5
:102E000066E972E086E993E00E940A0683E00E9488
:102E1000500C6BE872E092CE143309F093CE10920E
:102E2000BE011092BD010E94940C8CCE20E030E0D7
:102E300040E752E4C501B4010E94481987FD22C051
:102E400020E030E040EA52E4C501B4010E94D51B05
:102E50001816C4F09DE329163104A4F420E030E0F4
:102E600040EA51E4C301B2010E94D51B181654F088
:102E700020E030E040E251E4C301B2010E94481971
:102E800087FF6BC063EE71E08BE692E00E940A065A
:102E900020E030E040E752E4C501B4010E94481947
:102EA00087FF06C06AEC71E08BE692E00E940A069A
:102EB00020E030E040EA52E4C501B4010E94D51B95
:102EC000181634F462EB71E08BE692E00E940A0679
:102ED000ADE32A16310434F060E971E08BE692E04C
:102EE0000E940A0620E030E040EA51E4C301B2014A
:102EF0000E94D51B181634F463E771E08BE692E06C
:102F00000E940A0620E030E040E251E4C301B20131
:102F10000E94481987FF06C065E571E08BE692E0E4
:102F20000E940A0661E671E08BE692E00E94C00C06
:102F300061E084E00E94700248EC50E060E070E0E4
:102F400080ED97E00E94DA0264E670E080E090E0B5
:102F50000E94580460E084E01ECF61E083E00E949C
:102F6000700264E670E080E090E00E94580460E047
:102F700083E011CF2230310509F0DBC0123309F0B4
:102F80000CCFCE0107960E94540ACE0107960E94EC
:102F90003C07AB01BC0140535A4261097109CE01A3
:102FA00001960E94A5078EE391E00E94CF0C67E393
:102FB00071E08BE692E00E940A066B818BE692E05C
:102FC0000E942E0D6FE28BE692E00E9403066A815A
:102FD0008BE692E00E942E0D6FE28BE692E00E945B
:102FE0000306498150E04053584F70E060E02AE00A
:102FF0008BE692E00E94E20C61E671E08BE692E0E3
:103000000E94C00C60E371E08BE692E00E940A0629
:103010006C818BE692E00E942E0D6AE38BE692E0D3
:103020000E9403066D818BE692E00E942E0D6AE3FA
:103030008BE692E00E9403066E818BE692E00E948E
:103040002E0D61E671E08BE692E00E94C00C6CE20E
:1030500071E08BE692E00E940A064091C301509114
:10306000C4016091C5017091C60122E030E08BE699
:1030700092E00E94350D8AE291E00E94CF0C66E258
:1030800071E08BE692E00E940A064091BF015091E8
:10309000C0016091C1017091C20122E030E08BE675
:1030A00092E00E94350D84E291E00E94CF0C60E234
:1030B00071E08BE692E00E940A064091C7015091B0
:1030C000C8016091C9017091CA0122E030E08BE62D
:1030D00092E00E94350D8EE191E00E94CF0C86E0D7
:1030E00091E00E94CF0C82E00E94500C64EF70E0EF
:1030F00086E993E00E940A061092CC011092CB015F
:103100001092D5011092D6011092D7011092D801D9
:103110001092CD011092CE011092CF011092D001E9
:103120001092D1011092D2011092D3011092D401C9
:1031300034CE2330310509F030CE0091B901109121
:10314000BA012091BB013091BC016B017C01C01A16
:10315000D10AE20AF30A97018601083E13402105CD
:10316000310508F41ACE6093B9017093BA018093C7
:10317000BB019093BC01CE0107960E94540ACE0178
:1031800007960E943C07AB01BC0140535A426109BB
:103190007109CE0101960E94A50781E00E94500CA2
:1031A0006DEE70E086E993E00E940A068B818A301A
:1031B00028F460E386E993E00E9403066B8186E9C8
:1031C00093E00E942E0D6FE286E993E00E940306D1
:1031D0008A818A3028F460E386E993E00E9403063E
:1031E0006A8186E993E00E942E0D6FE286E993E002
:1031F0000E940306498150E04053584F70E060E060
:103200002AE086E993E00E94E20C82E00E94500CE2
:1032100066EE70E086E993E00E940A068C818A30AF
:1032200028F460E386E993E00E9403066C8186E956
:1032300093E00E942E0D6AE386E993E00E94030664
:103240008D818A3028F460E386E993E00E940306CA
:103250006D8186E993E00E942E0D6AE386E993E092
:103260000E9403068E818A3028F460E386E993E0A9
:103270000E9403066E8186E993E00E942E0D62EEA5
:1032800070E086E993E00E940A0687CD617002CC67
:103290000E948A1908F481E00895E89409C097FB18
:1032A0003EF490958095709561957F4F8F4F9F4F1D
:1032B0009923A9F0F92F96E9BB279395F695879561
:1032C00077956795B795F111F8CFFAF4BB0F11F424
:1032D00060FF1BC06F5F7F4F8F4F9F4F16C08823CB
:1032E00011F096E911C0772321F09EE8872F762F01
:1032F00005C0662371F096E8862F70E060E02AF042
:103300009A95660F771F881FDAF7880F969587952D
:1033100097F90895990F0008550FAA0BE0E8FEEF02
:1033200016161706E807F907C0F012161306E40789
:10333000F50798F0621B730B840B950B39F40A2682
:1033400061F0232B242B252B21F408950A2609F460
:10335000A140A6958FEF811D811D08950E94C1197E
:103360000C94321A0E94241A38F00E942B1A20F072
:10337000952311F00C941B1A0C94211A11240C940F
:10338000661A0E94431A70F3959FC1F3950F50E09F
:10339000551F629FF001729FBB27F00DB11D639F07
:1033A000AA27F00DB11DAA1F649F6627B00DA11DAD
:1033B000661F829F2227B00DA11D621F739FB00D53
:1033C000A11D621F839FA00D611D221F749F3327C3
:1033D000A00D611D231F849F600D211D822F762F5C
:1033E0006A2F11249F5750409AF0F1F088234AF039
:1033F000EE0FFF1FBB1F661F771F881F91505040A5
:10340000A9F79E3F510580F00C941B1A0C94661A84
:103410005F3FE4F3983ED4F3869577956795B7952B
:10342000F795E7959F5FC1F7FE2B880F911D969545
:10343000879597F9089597F99F6780E870E060E0B5
:1034400008959FEF80EC089500240A94161617063D
:1034500018060906089500240A9412161306140685
:1034600005060895092E0394000C11F4882352F0E8
:10347000BB0F40F4BF2B11F460FF04C06F5F7F4FA0
:103480008F4F9F4F089557FD9058440F551F59F087
:103490005F3F71F04795880F97FB991F61F09F3F41
:1034A00079F087950895121613061406551FF2CF6A
:1034B0004695F1DF08C0161617061806991FF1CFBA
:1034C00086957105610508940895E894BB276627E1
:1034D0007727CB0197F90895052E97FB1EF40094EA
:1034E0000E94831A57FD07D00E94961A07FC03D04A
:1034F0004EF40C94831A50954095309521953F4F8A
:103500004F4F5F4F089590958095709561957F4FCF
:103510008F4F9F4F08950E94B81AA59F900DB49F9A
:10352000900DA49F800D911D11240895A1E21A2EE3
:10353000AA1BBB1BFD010DC0AA1FBB1FEE1FFF1F57
:10354000A217B307E407F50720F0A21BB30BE40BA7
:10355000F50B661F771F881F991F1A9469F76095EE
:103560007095809590959B01AC01BD01CF010895A8
:10357000A29FB001B39FC001A39F700D811D1124B4
:10358000911DB29F700D811D1124911D08955058F9
:10359000BB27AA270E94DF1A0C94321A0E94241A11
:1035A00038F00E942B1A20F039F49F3F19F426F4CA
:1035B0000C94211A0EF4E095E7FB0C941B1AE92FEA
:1035C0000E94431A58F3BA176207730784079507D6
:1035D00020F079F4A6F50C94651A0EF4E0950B2E04
:1035E000BA2FA02D0B01B90190010C01CA01A00155
:1035F0001124FF27591B99F0593F50F4503E68F1B0
:103600001A16F040A22F232F342F4427585FF3CFF0
:10361000469537952795A795F0405395C9F77EF4C1
:103620001F16BA0B620B730B840BBAF09150A1F00A
:10363000FF0FBB1F661F771F881FC2F70EC0BA0F90
:10364000621F731F841F48F4879577956795B79518
:10365000F7959E3F08F0B0CF9395880F08F0992713
:10366000EE0F9795879508950E94481B0C94321A87
:103670000E942B1A58F00E94241A40F029F45F3F50
:1036800029F00C941B1A51110C94661A0C94211AEF
:103690000E94431A68F39923B1F3552391F3951BC4
:1036A000550BBB27AA2762177307840738F09F5F63
:1036B0005F4F220F331F441FAA1FA9F335D00E2ED0
:1036C0003AF0E0E832D091505040E695001CCAF73D
:1036D0002BD0FE2F29D0660F771F881FBB1F261700
:1036E00037074807AB07B0E809F0BB0B802DBF01D7
:1036F000FF2793585F4F3AF09E3F510578F00C94A6
:103700001B1A0C94661A5F3FE4F3983ED4F3869537
:1037100077956795B795F7959F5FC9F7880F911DC6
:103720009695879597F90895E1E0660F771F881FB2
:10373000BB1F621773078407BA0720F0621B730B65
:10374000840BBA0BEE1F88F7E09508950E944B1A80
:1037500088F09F5798F0B92F9927B751B0F0E1F052
:10376000660F771F881F991F1AF0BA95C9F714C002
:10377000B13091F00E94651AB1E008950C94651A79
:10378000672F782F8827B85F39F0B93FCCF386953B
:1037900077956795B395D9F73EF490958095709598
:1037A00061957F4F8F4F9F4F08950E948A1908F4AB
:1037B0008FEF08950E948A19880B990B08950E9433
:1037C000B81A332312F48A1B9B0B0C94E91B0E943A
:1037D000B81AB7FF0895821B930B0895EE0FFF1FD1
:1037E0000590F491E02D09940F931F93CF93DF93ED
:1037F0008230910510F482E090E0E091A503F09111
:10380000A60330E020E0B0E0A0E0309799F4211565
:10381000310509F44AC0281B390B24303105D8F58D
:103820008A819B816115710589F1FB0193838283F4
:10383000FE0111C04081518102811381481759074F
:10384000E0F04817590799F4109761F012960C931D
:10385000129713961C933296CF01DF91CF911F914F
:103860000F9108950093A5031093A603F4CF21159B
:10387000310551F04217530738F0A901DB019A01D5
:10388000BD01DF01F801C1CFEF01F9CF9093A6038D
:103890008093A503CDCFFE01E20FF31F8193919397
:1038A0002250310939832883D7CF2091A303309147
:1038B000A403232B41F420911B0130911C01309370
:1038C000A4032093A3032091190130911A0121151B
:1038D000310541F42DB73EB740911D0150911E01B5
:1038E000241B350BE091A303F091A403E217F30727
:1038F000A0F42E1B3F0B2817390778F0AC014E5F60
:103900005F4F2417350748F04E0F5F1F5093A403F5
:103910004093A303819391939FCFF0E0E0E09CCF8D
:10392000CF93DF930097E9F0FC0132971382128264
:10393000A091A503B091A603ED0130E020E010971F
:10394000A1F420813181820F931F2091A303309134
:10395000A4032817390709F061C0F093A403E0938A
:10396000A303DF91CF910895EA01CE17DF07E8F5B1
:103970004A815B819E0141155105B1F7E901FB8345
:10398000EA8349915991C40FD51FEC17FD0761F4E3
:10399000808191810296840F951FE9019983888324
:1039A000828193819B838A83F0E0E0E012968D917F
:1039B0009C9113970097B9F52D913C911197CD01EA
:1039C0000296820F931F2091A3033091A40328171E
:1039D000390739F6309751F51092A6031092A503D6
:1039E000B093A403A093A303BCCFD383C28340812D
:1039F0005181840F951FC817D90761F44E5F5F4F3F
:103A000088819981480F591F518340838A819B8106
:103A1000938382832115310509F0B0CFF093A6037B
:103A2000E093A5039ECFFD01DC01C0CF138212827B
:063A3000D7CFF894FFCF90
:103A3600FF090807060D0C0B0A31323341343536BF
:103A460042373839432A3023440000A70380000058
:103A56000040001400540000000000CE062E065B55
:103A6600061B078C066A067E06000000000E0AE1A9
:103A760009510AB709DA09C709B80900000000F8B0
:103A860005FC05000600000000BA0C2E06510A3B94
:103A9600070D0A006E616E00696E66006F7666003D
:00000001FF
