:100000000C9497010C94BF010C94BF010C94BF0198
:100010000C94BF010C94BF010C94BF010C94B60E5C
:100020000C94BF010C94BF010C94BF010C94BF0150
:100030000C94BF010C94BF010C94BF010C94BF0140
:100040000C946C0E0C94BF010C945E0F0C94380F42
:100050000C94BF010C94BF010C94BF010C94BF0120
:100060000C94900F0C94BF0133202D2052656C6FBF
:1000700067696F0032202D204D61726361646F7279
:100080000031202D20457374617469737469636154
:10009000730053656C6563696F6E6520756D6120D3
:1000A0006F7063616F3A001F1C1F1E1F1E1F1F1EF3
:1000B0001F1E496E696369616E646F2067726176A5
:1000C0006163616F206465206461646F732E2E2EFE
:1000D0000053697374656D6120696E696369616459
:1000E0006F0020202000486F72613A200044617444
:1000F000613A20004D61726361646F722073616CBC
:10010000766F212020003D3D3D3D3D3D3D3D3D3D47
:100110003D3D3D3D3D3D3D3D3D3D3D3D3D002500A1
:100120004C3A20002500553A20004300543A200064
:10013000486F72613A2000446174613A20003D3D8D
:100140003D204D41524341444F522053414C564F64
:10015000203D3D3D0054656D70657261747572613E
:100160002061626169786F20646F20696465616CE9
:1001700021200054656D7065726174757261206133
:1001800063696D6120646F20696465616C21200082
:100190004C756D696E6F7369646164652061636934
:1001A0006D6120646F20746F6C65726176656C217F
:1001B0002000556D696461646520756D20706F75F0
:1001C000636F20616C7461212000556D6964616406
:1001D0006520756D20706F75636F2062616978614D
:1001E0002120005761726E696E673A200054656D78
:1001F0007065726174757261206D7569746F2062CB
:100200006169786121200054656D70657261747553
:10021000726120616C74612120004C756D696E6F94
:100220007369646164652065786365737369766179
:10023000212000556D6964616465206D7569746F76
:1002400020616C7461212000556D696461646520D2
:100250006D7569746F2062616978612120005B436C
:1002600052495449434F5D2000342D566F6C7461E0
:10027000720025202020202020202020004C3A0041
:100280002520004320553A00543A0034202D2056B2
:100290006F6C7461720052454C4F47494F20415476
:1002A00055414C0034202D20566F6C746172004310
:1002B0006C69717565203220702F206D61726361E9
:1002C00072004553544154495354494341533A00F1
:1002D00000000000240027002A000000000800029F
:1002E00001000003040700000000000000000000FF
:1002F000000023002600290000000000250028003F
:100300002B00020404040404040404020202020296
:1003100002030303030303010204081020408001C9
:10032000020408102001020408102000AF1011245C
:100330001FBECFEFD8E0DEBFCDBF11E0A0E0B1E03F
:10034000E2E5F9E302C005900D92A037B107D9F7B5
:1003500023E0A0E7B1E001C01D92AB39B207E1F79D
:1003600011E0C7E9D1E004C02197FE010E947C1B87
:10037000C639D107C9F70E9481110C94A71C0C94AF
:1003800000000895089596E0899FD0011124A85F88
:10039000BC4F90967C936E935F9791E091969C935F
:1003A0009197E0917503F0917603909174039923EE
:1003B00039F0309751F0811108C0809124030994DD
:1003C000309719F05C968C91FACF0895CF92DF9216
:1003D000EF92FF92CF93DF93B0917E03A0E0811163
:1003E000AB2F80917F0390E0880F991FAC014251A1
:1003F0005D4FC0908403D0908503E0908603F09019
:10040000870330E020E0FA01C591D491E881B90179
:1004100090E080E0EB23EA130AC02F5F3F4F6C159A
:100420007D058E059F0578F36FEF7FEFCB01DF91A0
:10043000CF91FF90EF90DF90CF900895833081F0BF
:1004400028F4813099F08230A9F008958730A9F01E
:100450008830C9F08430B1F4809180008F7D03C072
:10046000809180008F7780938000089584B58F7786
:1004700084BD089584B58F7DFBCF8091B0008F77C8
:100480008093B00008958091B0008F7DF9CFCF9315
:10049000DF93282F30E0F901E652FD4F8491F901F6
:1004A000E95EFC4FD491F901ED5FFC4FC491CC2380
:1004B000A1F081110E941E02EC2FF0E0EE0FFF1F51
:1004C000E251FD4FA591B491EC91ED2381E090E0D4
:1004D00009F480E0DF91CF91089580E090E0FACFB9
:1004E0001F93CF93DF93282F30E0F901E652FD4FA1
:1004F0008491F901E95EFC4FD491F901ED5FFC4F65
:10050000C491CC23A9F0162F81110E941E02EC2F5A
:10051000F0E0EE0FFF1FE850FD4FA591B4918FB7AB
:10052000F894EC91111108C0D095DE23DC938FBFB5
:10053000DF91CF911F910895DE2BF8CFCF93DF93FA
:1005400090E0FC01E95EFC4F24918D5F9C4FFC0123
:1005500084918823C9F090E0880F991FFC01E05333
:10056000FD4FA591B491FC01E850FD4FC591D49188
:1005700061110DC09FB7F8948C91209582238C93C4
:100580008881282328839FBFDF91CF91089562300F
:1005900051F49FB7F8943C91822F809583238C93DC
:1005A000E8812E2BEFCF8FB7F894EC912E2B2C9364
:1005B0008FBFEACF4F925F926F927F928F929F92FE
:1005C000AF92BF92CF92DF92EF92FF920F931F9361
:1005D000CF938C014A015B01809100018F3099F02B
:1005E0008F3F09F451C0CF911F910F91FF90EF9071
:1005F000DF90CF90BF90AF909F908F907F906F9043
:100600005F904F900895E2E0F3E0C491C7FDEBCF17
:1006100061E08FE00E949E02CC2319F0C23009F005
:10062000E7C0712C612C60E472E48FE090E0A301DC
:1006300098010E94CB1969017A0181E0C81AD1089A
:10064000E108F108C23009F08EC092E08FEFC816C1
:10065000D104E104F10489F084F060E970ED83E0F5
:1006600090E0A30198010E94CB1969017A0181E011
:10067000C81AD108E108F10893E08091B100887FA1
:10068000892B8093B10092C08FE080930001E2E05B
:10069000F3E0C491CF3F09F4A6CFC13021F150F06F
:1006A000C23009F43EC0C7FD9ECF61E08FE00E94DA
:1006B0009E02B4CF14BC15BC84B5826084BD85B5E0
:1006C000816085BDE2E1F3E0E491F0E0EE0FFF1F11
:1006D000E850FD4F85919491E6E2F3E0E491E093D8
:1006E000DA01C0E095CF10928000109281008091D5
:1006F0008100886080938100809181008160809377
:100700008100E2E1F3E0E491F0E0EE0FFF1FE8503A
:10071000FD4F85919491E6E2F3E0E491E093D901F5
:1007200077CF1092B0001092B1008091B00082603B
:100730008093B0008091B10081608093B100E2E1CC
:10074000F3E0E491F0E0EE0FFF1FE850FD4F8591DC
:1007500094919093D8018093D701E6E2F3E0E4917D
:10076000E093D60155CF8FEFC816D104E104F10410
:10077000A9F0A4F068E478EE81E090E0A30198018C
:100780000E94CB1969017A0181E0C81AD108E108F9
:10079000F10894E0C11171CF93E003C092E0C11160
:1007A0006CCF85B5887F892B85BDC0E0D801AA0FA5
:1007B000BB1FA50194010E94EA1928EE33E040E036
:1007C00050E00E94F519C13061F1C230E1F1C11170
:1007D0000ACFC7BC2093E3013093E4014093E501C5
:1007E0005093E60180916E00826080936E00FBCE94
:1007F000980150E040E060E072E18AE790E00E94FA
:10080000CB1969017A0181E0C81AD108E108F10821
:10081000C13061F680918100887F81608093810082
:10082000C5CFD0928900C09288002093DF01309319
:10083000E0014093E1015093E20180916F008260FA
:1008400080936F00D0CEC092B3002093DB01309331
:10085000DC014093DD015093DE01809170008260E5
:1008600080937000C0CE3FB7F8948091D2019091F0
:10087000D301A091D401B091D50126B5A89B05C0A4
:100880002F3F19F00196A11DB11D3FBFBA2FA92F0F
:10089000982F8827BC01CD01620F711D811D911D0C
:1008A00042E0660F771F881F991F4A95D1F7089578
:1008B0008F929F92AF92BF92CF92DF92EF92FF9270
:1008C0004B015C010E9433046B017C010E943304E4
:1008D0006C197D098E099F09683E73408105910559
:1008E000A8F321E0821A9108A108B10888EEC80E89
:1008F00083E0D81EE11CF11C81149104A104B10411
:1009000029F7FF90EF90DF90CF90BF90AF909F902E
:100910008F9008952FB7F8946091CE017091CF0118
:100920008091D0019091D1012FBF08950F931F9313
:10093000CF93DF93C82FD62F86E0C89FF0011124F4
:10094000E85FFC4F11A2878D90A181309105F1F0F5
:1009500058F082309105F1F1039709F440C0DF911E
:10096000CF911F910F9108956623C9F361E070E064
:100970008C2F0E94C3010E948A04609360037093CD
:1009800061038093620390936303E9CF0E948A041A
:100990000091600310916103209162033091630321
:1009A000AB01BC01401B510B620B730B80917203B6
:1009B00090917303B0E0A0E084179507A607B707EE
:1009C00048F462E070E08C2FDF91CF911F910F917E
:1009D0000C94C30163E070E0D111C1CFF4CF70E09B
:1009E00060E0F1CFCF92DF92EF92FF920F931F93CF
:1009F000CF93DF93CDB7DEB7C054D1400FB6F89494
:100A0000DEBF0FBECDBF0E948A040091800310910B
:100A1000810320918203309183036B017C01C01A12
:100A2000D10AE20AF30A97018601003D1740210529
:100A3000310590F480918803C05CDE4F0FB6F894C6
:100A4000DEBF0FBECDBFDF91CF911F910F91FF9001
:100A5000EF90DF90CF9008956093800370938103AF
:100A6000809382039093830310927B0310927A0306
:100A700010927903109278031092770362E08091CC
:100A80007C030E949E0261E070E080E090E00E94A2
:100A9000580461E080917C030E949E0260E0809196
:100AA0007C030E94700280917D038551823020F585
:100AB0008BE291E10197F1F762E080917C030E9463
:100AC0009E028091890390E08230910538F0880F72
:100AD000991F880F991F05970197F1F7F89480E007
:100AE0000E94E6016F3F7F4F8F4F9F4F61F410923E
:100AF0008803789480E0A0CF64E170E080E090E02B
:100B00000E945804D9CF81E00E94E6016F3F7F4FD9
:100B10008F4F9F4F61F38E010F5F1F4F6E012FEBC1
:100B2000C21A2EEFD20A780180E00E94E601F70196
:100B3000608371838283938381E00E94E601F701E1
:100B40006483758386839783F8E0EF0EF11CEC14C1
:100B5000FD0451F7789430E020E0F801C080D180A6
:100B6000E280F3804481558166817781FFEFCF1663
:100B7000DF06EF06FF0631F04F3F8FEF580768079B
:100B8000780719F410928803B5CFF90183E0F59541
:100B9000E7958A95E1F7E958FC4F8081880FC416E4
:100BA000D506E606F70610F180832F5F3F4F085FFA
:100BB0001F4F2832310589F640917B03209177033E
:100BC00080917803280F3327331F80917903280FF2
:100BD000311D80917A03820F932F911D9927481719
:100BE000190681F681E08093880326CF8160DCCFEF
:100BF000862F642F0C949E02862F642F0C94700213
:100C0000862F0C944702DC01ED91FC910190F0815C
:100C1000E02D0994EF92FF920F931F93CF93DF93F0
:100C20008C017B01D0E0C0E0F701EC0FFD1F649167
:100C3000662361F0D801ED91FC910190F081E02DE7
:100C4000C8010995892B11F02196EECFCE01DF91D5
:100C5000CF911F910F91FF90EF900895AF92BF92A7
:100C6000CF92DF92EF92FF920F931F93CF93DF9378
:100C70006C017B018B01040F151FEB015E01AE18A7
:100C8000BF08C017D10759F06991D601ED91FC91C9
:100C90000190F081E02DC6010995892B79F7C501F6
:100CA000DF91CF911F910F91FF90EF90DF90CF9048
:100CB000BF90AF900895FC01538D448D252F30E0F7
:100CC000842F90E0821B930B541710F0CF96089559
:100CD00001970895FC01918D828D981761F0A28D86
:100CE000AE0FBF2FB11D5D968C91928D9F5F9F734C
:100CF000928F90E008958FEF9FEF0895FC01918D02
:100D0000828D981731F0828DE80FF11D858D90E06E
:100D100008958FEF9FEF0895FC01918D228D892F0B
:100D200090E0805C9F4F821B91098F7399270895F3
:100D30008FE592E00E948C0621E0892B09F420E0E7
:100D4000822F089580E090E0892B29F00E94980678
:100D500081110C9400000895FC01A48DA80FB92FF7
:100D6000B11DA35ABF4F2C91848D90E001968F73D3
:100D70009927848FA689B7892C93A089B1898C91F2
:100D8000837080648C93938D848D981306C0028841
:100D9000F389E02D80818F7D80830895EF92FF920B
:100DA0000F931F93CF93DF93EC0181E0888F9B8D8E
:100DB0008C8D98131AC0E889F989808185FF15C048
:100DC0009FB7F894EE89FF896083E889F98980816B
:100DD0008370806480839FBF81E090E0DF91CF913A
:100DE0001F910F91FF90EF900895F62E0B8D10E05C
:100DF0000F5F1F4F0F731127E02E8C8D8E110CC0CB
:100E00000FB607FCFACFE889F989808185FFF5CF15
:100E1000CE010E94AC06F1CFEB8DEC0FFD2FF11D42
:100E2000E35AFF4FF0829FB7F8940B8FEA89FB8952
:100E300080818062CFCFCF93DF93EC01888D8823B0
:100E4000B9F0AA89BB89E889F9898C9185FD03C02D
:100E5000808186FD0DC00FB607FCF7CF8C9185FF12
:100E6000F2CF808185FFEDCFCE010E94AC06E9CFA5
:100E7000DF91CF9108950895EF92FF920F931F9302
:100E8000CF93DF93EC0169813881432F50E02A81B1
:100E9000822F90E0E7EAF0E021E0261730F4749129
:100EA000870F911D2F5F3196F8CF633018F03370A4
:100EB00009F401966DE671E0469F9001479F300D61
:100EC000569F300D1124215031094D5F5F4F5695CB
:100ED000479556954795240F351F280F391FA8E1D0
:100EE000B0E00E94171A2B817B018C01E20EF11CED
:100EF000011D111DA8019701ACE3B0E00E94EA19A1
:100F00002C817B018C01E20EF11C011D111DA80139
:100F100097010E94EA19AB01BC019D81892F90E0E5
:100F2000B0E0A0E080589C4BA249B74C8A019B01DD
:100F3000080F191F2A1F3B1FC901B801DF91CF916C
:100F40001F910F91FF90EF9008958F929F92AF9213
:100F5000BF92CF92DF92EF92FF92CF93DF93EC019B
:100F60006A017B0180E8C81A83E4D80A8DE6E80AA2
:100F700088E3F80A8CE3882E912CA12CB12CC701B0
:100F8000B601A50194010E94F5196D83CA01B9014A
:100F9000A50194010E94F5196C83C701B60120E1F7
:100FA0003EE040E050E00E94F519CA01B90128E195
:100FB00030E040E050E00E94F5196B83C701B601B4
:100FC00020E831E541E050E00E94F519188263E91C
:100FD0007EEF8881982F937041E050E011F050E04F
:100FE00040E0FA01E359FE4F2E173F0740F0FB01A6
:100FF000E41BF50B2E0F3F1F8F5F8883EACF81E044
:10100000898389818C30A0F4482F4150550BFA0117
:10101000E955FF4FE491911103C0823009F4EF5F6D
:10102000F0E02E173F0720F02E1B3F0B8F5FE8CF1D
:101030002F5F2A83DF91CF91FF90EF90DF90CF90C9
:10104000BF90AF909F908F90089520919101260FAF
:101050003327331F21323105ECF420913502FC0196
:1010600090E080E0243069F082E00895A091910141
:101070002191AC014F585E4FA40FB52FB11D2C9399
:101080000196861798F380919101680F6093910102
:1010900080E0089581E008951092350281E0809308
:1010A000340210920F0261E082E10E94700261E05E
:1010B00083E10E947002E9EBF0E080818E7F808303
:1010C00080818D7F808388E48093B80085E480935D
:1010D000BC00089510920E0210920D0210923C0274
:1010E00010925E020E944C0881EC91E090930C02F9
:1010F00080930B0282EC91E090930A0280930902A4
:101100000895CF93DF9391E0909370018823B9F015
:10111000C091B800D091BA008091BC008A7B8093C6
:10112000BC0060E082E10E94700260E083E10E9406
:1011300070020E944C08D093BA00C093B800DF91AF
:10114000CF9108958F929F92AF92BF92CF92DF92EC
:10115000EF92FF920F931F93CF93DF93D0915E0294
:10116000D13208F0D7C0182FC0915D020E9433041D
:101170006B017C018091350281116BC082E080930C
:101180003502109334028FEF8093330210923202B3
:10119000D0933102ADE3B2E0E1E1F2E080E0D813B8
:1011A00091C01092100280911002CC0FC82BC093F6
:1011B000100280910F02813009F088C010920F0256
:1011C0000E9433046B017C01809110028093BB006C
:1011D0008091370290913802A0913902B0913A0281
:1011E000892B8A2B8B2BA1F00E94330400913702AC
:1011F000109138022091390230913A026C197D0920
:101200008E099F09061717072807390708F442C0F7
:101210008091BC0083FDD8CF85EC8093BC000E94F8
:1012200033046B017C0180913502823009F450C097
:10123000809133028F3F09F46FC080913302803276
:1012400009F46CC080913302803309F469C084E0F2
:1012500026C08091370290913802A0913902B09156
:101260003A02892B8A2B8B2B09F484CF0E943304FA
:101270008090370290903802A0903902B0903A02E4
:101280006C197D098E099F0986169706A806B9066E
:1012900008F070CF809136020E94810885E010929C
:1012A0003C0210925E0210923B02DF91CF911F919F
:1012B0000F91FF90EF90DF90CF90BF90AF909F90F5
:1012C0008F9008959D9191938F5F69CF85EEA5CF03
:1012D0008091370290913802A0913902B0913A0280
:1012E000892B8A2B8B2B09F49ECF0E94330400910B
:1012F0003702109138022091390230913A026C196C
:101300007D098E099F09061717072807390708F076
:101310008ACFC0CF81E0C3CF80E0C1CF82E0BFCF12
:1013200083E0BDCFCF93DF93EC018B818823A1F0C5
:10133000888191E090933B0280935D0210923C0281
:1013400010925E0281E00E94A20891E0811190E07B
:10135000892FDF91CF9108950E946A0881E08B83E5
:10136000CE010E949209982F8111E2CFF1CF08950A
:10137000E0910E0280910D02E81730F4F0E0E9519F
:10138000FE4F808190E008958FEF9FEF0895909138
:101390000E0280910D022FEF3FEF981748F4E92FCE
:1013A000F0E0E951FE4F208130E09F5F90930E0204
:1013B000C901089580910D0290910E02891B990B2D
:1013C0000895CF92DF92EF92FF920F931F93CF93E6
:1013D000DF937C01CB018A0120913B02222389F01B
:1013E000EB016B01C40ED51ECC15DD0569F06991CA
:1013F000D701ED91FC910190F081E02DC701099595
:10140000F3CF642F0E942508C801DF91CF911F916F
:101410000F91FF90EF90DF90CF900895CF93DF93DF
:101420001F92CDB7DEB7698320913B022223F9F0EA
:1014300020915E02203258F021E030E0FC0133833D
:10144000228390E080E00F90DF91CF91089580910A
:101450003C02E82FF0E0E35CFD4F998190838F5FC1
:1014600080933C0280935E0281E090E0ECCF61E0EB
:10147000CE0101960E942508F7CFFC01248131E0BE
:1014800030933B0220935D0210923C0210925E0268
:101490008485682B8CEF92E00E940E0A81E00C9408
:1014A000A20890E080E008952F923F924F925F92C1
:1014B0006F927F928F929F92AF92BF92CF92DF9264
:1014C000EF92FF920F931F93CF93DF9300D000D042
:1014D00000D01F92CDB7DEB78C011982A090070211
:1014E000B0900802D50114968D919C911597892B87
:1014F00009F427C111968D919C9112972C9131E09E
:1015000030933B0220935D0210923C0210925E02E7
:10151000DC01ED91FC910280F381E02D41E050E08F
:10152000BE016F5F7F4F0995019709F00AC180E006
:101530000E94A208811105C1D12CC12C87E0282E60
:10154000312CF501848195817101EC18FD088E150F
:101550009F0508F47C01D5018C900E9433042B0177
:101560003C0180913502811175C09E2CB0E2BE1500
:1015700010F4B0E29B2EE1E0E093350221E0C101DE
:101580008E199F09C816D90608F420E0209334026A
:10159000FFEFF0933302109232028FEF890D8093A8
:1015A000310281E08093100280911002880C882A19
:1015B0008092100280910F02813009F095C0109244
:1015C0000F020E9433042B013C0180911002809392
:1015D000BB008091370290913802A0913902B091FE
:1015E0003A02892B8A2B8B2BA1F00E943304209185
:1015F0003702309138024091390250913A02641911
:10160000750986099709261737074807590708F407
:1016100042C08091BC0083FDD8CFA5ECA093BC0054
:101620000E9433042B013C0180913502813009F482
:101630005FC080913202891510F490903202A1E1CE
:10164000B2E0E7EEF1E080E0891551F19D919193D0
:101650008F5FFACF8091370290913802A0913902C2
:10166000B0913A02892B8A2B8B2B09F47ACF0E94F6
:101670003304209137023091380240913902509161
:101680003A0264197509860997092617370748072A
:10169000590708F066CF809136020E948108912C8C
:1016A00010920E0290920D029E141F0409F049C080
:1016B00088248394912C8C0E9D1E8C0C9D1C3401CF
:1016C000C401861997098E159F05A0F5F501818142
:1016D0009281DC01ED91FC910284F385E02D099566
:1016E000F40181934F01ECCFB5EEB093BC0098CFDD
:1016F0008091370290913802A0913902B0913A025C
:10170000892B8A2B8B2B09F48FCF0E9433042091D5
:101710003702309138024091390250913A026419EF
:10172000750986099709261737074807590708F0EA
:101730007BCFB1CFCE0CDF1CF7E0CF16D10408F47D
:1017400000CFE981EF77FA81FB804D815E818F8147
:10175000282F30E094E0359527959A95E1F7922F60
:10176000990F990F291B220F280FD8012C93852F31
:1017700090E024E0959587952A95E1F7982F990FA9
:10178000990F891B880F850F11968C931197642FE1
:1017900070E034E0759567953A95E1F7862F880FEC
:1017A000880F681B660F640F12966C9312974F2D6B
:1017B00050E064E0559547956A95E1F7842F880FCE
:1017C000880F481B440F4F0D13964C9313972F2FE0
:1017D00030E074E0359527957A95E1F7822F880FF0
:1017E000880F281B220F2F0F14962C9314978E2FDF
:1017F00090E0F4E095958795FA95E1F7982F990F89
:10180000990F891B880F8E0F15968C93C801279608
:101810000FB6F894DEBF0FBECDBFDF91CF911F9101
:101820000F91FF90EF90DF90CF90BF90AF909F907F
:101830008F907F906F905F904F903F902F90089582
:101840000F931F93CF938C01C62F0E943D0A6C2FDC
:101850006460C8010E943D0A6C2F6B7FC8010E9422
:101860003D0A83EC90E00197F1F7CF911F910F9122
:1018700008950F931F93CF93DF938C01D62FC42F1E
:10188000607F642B0E94200C80E1D89FB00111245E
:101890006C2BC801DF91CF911F910F910C94200CFC
:1018A000CF93DF93CDB7DEB728970FB6F894DEBF9E
:1018B0000FBECDBF98E0EFE1F1E0DE01119601909F
:1018C0000D929A95E1F790919203981710F48FEF8B
:1018D000890F90E0880F991F21E030E02C0F3D1F09
:1018E000820F931FFC016081606840E08AE893E00A
:1018F00028960FB6F894DEBF0FBECDBFDF91CF9113
:101900000C94390C40E061E08AE893E00E94390CC5
:101910008BE39FE10197F1F780919303882319F0FE
:1019200080E00C94500C08950E94820C80E00E948C
:10193000500C62E970E08AE893E00E940A0681E0B8
:101940000E94500C61E870E08AE893E00E940A0669
:1019500082E00E94500C64E770E08AE893E00E9405
:101960000A0683E00E94500C68E670E08AE893E083
:101970000C940A0641E00E94390C81E090E0089541
:10198000FB0101900020E9F73197AF01461B570B8F
:10199000DC01ED91FC910280F381E02D0994CF935D
:1019A000DF93BC018FE592E00E940A06EC0161E63C
:1019B00071E08FE592E00E94C00C8C0F9D1FDF91BB
:1019C000CF9108958F929F92AF92BF92EF92FF9224
:1019D0000F931F93CF93DF93CDB7DEB7A1970FB6C9
:1019E000F894DEBF0FBECDBF7C01FA01CB0119A276
:1019F000223008F42AE08E010F5D1F4F822E912CB9
:101A0000B12CA12CBF01A50194010E94F519F90187
:101A1000CA016A300CF5605DD8016E938D01232BED
:101A2000242B252B79F790E080E0109721F0BD0161
:101A3000C7010E94C00CA1960FB6F894DEBF0FBE7E
:101A4000CDBFDF91CF911F910F91FF90EF90BF908D
:101A5000AF909F908F900895695CDECF462F50E045
:101A600070E060E02AE00C94E20CCF92DF92EF92FB
:101A7000FF92CF93DF936C01990FEE08FF08F7FEFA
:101A80001BC06DE28FE592E00E940306EC01442743
:101A90005527BA014C195D096E097F092AE08FE5C7
:101AA00092E00E94E20C8C0F9D1FDF91CF91FF907E
:101AB000EF90DF90CF9008952AE0B701A6018FE55F
:101AC00092E0DF91CF91FF90EF90DF90CF900C9458
:101AD000E20C4F925F926F927F928F929F92AF92A1
:101AE000BF92CF92DF92EF92FF921F93CF93DF933B
:101AF0006B017C01142FAC019B010E94401B64E62A
:101B000071E0811126C046015701E894B7F82FEF24
:101B10003FEF4FE75FE7C501B4010E94401B811111
:101B20000CC02FEF3FEF4FE75FE7C501B4010E9404
:101B3000A71868E671E0181664F02FEF3FEF4FE743
:101B40005FE4C701B6010E943B1B1816ACF46CE6BB
:101B500071E08AE893E0DF91CF911F91FF90EF90C1
:101B6000DF90CF90BF90AF909F908F907F906F90BD
:101B70005F904F900C94C00C2FEF3FEF4FE75FEC5E
:101B8000C701B6010E94A71887FDE1CF20E030E031
:101B9000A901C701B6010E94A718D0E0C0E087FFE5
:101BA0000AC06DE28AE893E00E940306EC01F7FAAE
:101BB000F094F7F8F09420E060E070E080E09FE3BC
:101BC000211740F420E030E040E251E40E94931AF3
:101BD00021E0F6CFA70196010E94271A4B015C0174
:101BE0000E940C1B2B013C012AE0BC01A2018AE8E7
:101BF00093E00E94E20CC80FD91F112321F16EE27D
:101C00008AE893E00E9403066C01C301B2010E94BE
:101C1000AC189B01AC01C501B4010E94261A20E05A
:101C200030E040E251E40E940D190E940C1BAB0110
:101C300070E060E02AE08AE893E00E94E20C8C0DFC
:101C40009D1DC80FD91FCE01DF91CF911F91FF902D
:101C5000EF90DF90CF90BF90AF909F908F907F904C
:101C60006F905F904F90089585ED8093BC008091B8
:101C7000370290913802A0913902B0913A0207964A
:101C8000A11DB11D23E0B695A795979587952A9537
:101C9000D1F72091BC0024FD03C0109235020895B5
:101CA00040913702509138026091390270913A02A6
:101CB000452B462B472B69F30097A105B10541F051
:101CC0002AE22A95F1F700C00197A109B109E1CFF5
:101CD000809136020C9481081F920F920FB60F92DA
:101CE00011242F933F938F939F93AF93BF93809132
:101CF000CE019091CF01A091D001B091D10130914E
:101D0000CD0123E0230F2D3758F50196A11DB11DFC
:101D10002093CD018093CE019093CF01A093D00169
:101D2000B093D1018091D2019091D301A091D401BF
:101D3000B091D5010196A11DB11D8093D201909360
:101D4000D301A093D401B093D501BF91AF919F91DE
:101D50008F913F912F910F900FBE0F901F9018956C
:101D600026E8230F0296A11DB11DD2CF1F920F921C
:101D70000FB60F9211242F933F934F935F936F935E
:101D80007F938F939F93AF93BF93EF93FF93809134
:101D9000DB019091DC01A091DD01B091DE01892B86
:101DA0008A2B8B2BD1F19091D601E091D701F09144
:101DB000D8018081892780838091DB019091DC01AB
:101DC000A091DD01B091DE01181619061A061B0656
:101DD0009CF48091DB019091DC01A091DD01B09138
:101DE000DE010197A109B1098093DB019093DC0129
:101DF000A093DD01B093DE01FF91EF91BF91AF9110
:101E00009F918F917F916F915F914F913F912F9112
:101E10000F900FBE0F901F90189580910001E2E087
:101E2000F3E0E4919FEF90930001E13051F030F046
:101E3000E23069F060E00E947002DECF10926E0026
:101E4000F9CF90916F009D7F90936F00F3CF9091A9
:101E500070009D7F9093700091E09093B0009091FE
:101E6000B100987F94609093B1001092B300E2CFDC
:101E70001F920F920FB60F9211242F933F934F93FF
:101E80005F936F937F938F939F93AF93BF93EF93E2
:101E9000FF938FE592E00E94AC06FF91EF91BF9116
:101EA000AF919F918F917F916F915F914F913F91F2
:101EB0002F910F900FBE0F901F9018951F920F92A9
:101EC0000FB60F9211242F938F939F93EF93FF934D
:101ED000E0916F02F09170028081E0917502F091C3
:101EE000760282FD1BC09081809178028F5F8F7394
:101EF00020917902821741F0E0917802F0E0E15AF6
:101F0000FD4F958F80937802FF91EF919F918F9174
:101F10002F910F900FBE0F901F9018958081F4CFD6
:101F20001F920F920FB60F9211242F933F934F934E
:101F30005F936F937F938F939F93AF93BF93EF9331
:101F4000FF938091B900887F803609F44AC0F0F58C
:101F5000883209F4A7C018F5803109F49BC0B8F4A1
:101F6000882309F4F9C0883009F494C0FF91EF91F7
:101F7000BF91AF919F918F917F916F915F914F91A1
:101F80003F912F910F900FBE0F901F9018958831A1
:101F900009F488C0803251F78093330214C0803432
:101FA00009F49DC040F48033B9F38833F9F6809387
:101FB000330285ECB0C0803509F485C0883509F45A
:101FC00096C0883499F60E94340ED0CF883909F42F
:101FD0008CC038F5883729F050F4883611F08037F6
:101FE00029F683E0809335021092B30157C08838F8
:101FF00009F47BC0803919F0803809F0B7CF80919F
:10200000B301803208F071C0E091B30181E08E0F1E
:102010008093B3018091BB00F0E0ED56FE4F8083CA
:102020003DC0803B39F0E0F4803A09F479C0883A49
:1020300009F09CCF84E080933502109292011092B7
:102040009101E0910B02F0910C02099580919101B0
:1020500081110FC081E0809391011092710109C03C
:10206000803C09F4A6CF883C09F4A3CF883B09F053
:102070007DCFE091920181E08E0F80939201F0E09C
:10208000EF58FE4F80818093BB0090919201809128
:10209000910129C0809110028093BB0085EC809350
:1020A000BC0064CF9091320280913102981758F5AC
:1020B000E091320281E08E0F80933202F0E0EF5E19
:1020C000FD4F8081E9CFE091320281E08E0F809355
:1020D00032028091BB00F0E0EF5EFD4F8083909173
:1020E0003202809131029817C8F285E8D8CFE0918A
:1020F000320281E08E0F809332028091BB00F0E0CB
:10210000EF5EFD4F80838091340281115CCF81E0CE
:1021100080930F0284EA8093BC001092350226CF90
:1021200085EC8093BC00109235028091B30180321F
:1021300030F4E091B301F0E0ED56FE4F1082609173
:10214000B30170E0E0910902F0910A0283E991E0A5
:1021500009951092B3010ACF1092330234CF109236
:1021600062021092610288EE93E0A0E0B0E08093FA
:10217000630290936402A0936502B09366022BE21F
:1021800031E03093600220935F0225EC30E0309321
:102190006C0220936B0224EC30E030936E022093AB
:1021A0006D0220EC30E03093700220936F0221EC3E
:1021B00030E0309372022093710222EC30E03093D1
:1021C00074022093730226EC30E030937602209361
:1021D0007502109278021092790210927A0210928F
:1021E0007B021092FF021092FE02809300039093F4
:1021F0000103A0930203B09303038DE391E0909356
:10220000FD028093FC0210928D0310928C0389E5ED
:1022100091E090938B0380938A031092930387E25B
:1022200080938E0384E18093940384E080939503EC
:102230001092960382E080937C0386E180937D0375
:10224000E9E1F3E0E491E0937E03E5E0F3E0E4917B
:10225000E0937F0380E89EE3A0E0B0E080938403F6
:1022600090938503A0938603B093870310920A038B
:1022700010920E0310920D0310920F038FE491E061
:102280009093090380930803E4E2F3E01082148240
:1022900013821582369683E0E036F807B9F785E0B9
:1022A00091E090936B0380936A0381E091E09093B7
:1022B0006D0380936C0384E080936E0380936F03BF
:1022C00089E091E090936903809368038AE090E04D
:1022D000909371038093700384EF91E09093730364
:1022E0008093720310927603109275031092640328
:1022F00010926503109266031092670310927403A4
:102300000895CF93DF93CDB7DEB764970FB6F894F7
:10231000DEBF0FBECDBF789484B5826084BD84B526
:10232000816084BD85B5826085BD85B5816085BDD0
:1023300080916E00816080936E0010928100809188
:102340008100826080938100809181008160809310
:102350008100809180008160809380008091B10035
:1023600084608093B1008091B00081608093B00060
:1023700080917A00846080937A0080917A008260F4
:1023800080937A0080917A00816080937A008091B6
:102390007A00806880937A001092C100E0916F0209
:1023A000F091700282E08083E0916B02F0916C0208
:1023B0001082E0916D02F0916E028FEC808310929A
:1023C0007702E0917302F091740286E08083E091DD
:1023D0007102F0917202808180618083E0917102CC
:1023E000F0917202808188608083E0917102F091A7
:1023F0007202808180688083E0917102F0917202A4
:1024000080818F7D80830E946A088091070290916D
:102410000802009711F00E941E1C86E090E00E94C6
:10242000821B8C0188E6F80180838CEF92E0928316
:102430008183138280E290E0958384831093080265
:10244000009307020E946A0881E0F8018383C801B3
:102450000E94920962E080917C030E949E020E9489
:102460008A04605D774081099109609380037093CD
:102470008103809382039093830387E3809389038E
:102480000E946A0810928F0380919503823018F0A1
:1024900098E090938F038093920362E370E080E072
:1024A00090E00E945804609196038AE893E00E94AD
:1024B0003D0A68EE73E080E090E00E94580460E31B
:1024C0008AE893E00E94200C0BE416E4C80101970F
:1024D000F1F760E38AE893E00E94200CC8010197BD
:1024E000F1F760E38AE893E00E94200C83E592E034
:1024F0000197F1F760E28AE893E00E94200C609176
:102500008F03606240E08AE893E00E94390C84E027
:102510008093900340E06CE08AE893E00E94390CDD
:102520000E94820C82E08093910340E066E08AE89A
:1025300093E00E94390C40E062E08AE893E00E9458
:10254000390C8BE39FE10197F1F788E080939603C4
:1025500060E08AE893E00E943D0A0E94820C61EDEF
:1025600070E08AE893E00E940A0660E273E080E08F
:1025700090E00E94580461E083E00E949E0261E0C6
:1025800084E00E949E0261E085E00E949E0261E07C
:102590008FE00E949E0260E08FE00E94700216E0D1
:1025A00062E0812F0E949E021F5F1E30C9F70E94C9
:1025B000940C82EB90E00E94CF0C0E94F2048823DE
:1025C00049F080917D038B3028F08D3040F08551AB
:1025D0008230E8F160E070E080EC9FE71CC0609121
:1025E000780370E090E080E00E94AE182DEC3CECA7
:1025F0004CEC5DE30E940D196B017C016091770347
:1026000070E090E080E00E94AE189B01AC01C70131
:10261000B6010E94271A20E030E040E251E40E9417
:102620000D190E94051B2B017E876D870E94F20405
:10263000882341F080917D038C3009F409C1C8F4EE
:102640008B3081F160E070E080EC9FE753C06091D7
:1026500077037091780376276727762790E080E0EC
:102660000E94AC182DEC3CEC4CEC5DE30E940D1983
:10267000D2CF8551823030F710917903612F70E00D
:10268000762F662766277F7780917A03682B90E004
:1026900080E00E94AC182DEC3CEC4CEC5DE30E9419
:1026A0000D19F2C06091790370E090E080E00E9423
:1026B000AC186B017C0110917A0317FF0AC0AC01C2
:1026C0009B0160E070E080E89FEB0E94261A6B019E
:1026D0007C011F70612F70E090E080E00E94AE18D6
:1026E0002DEC3CEC4CEC5DE30E940D19A70196012A
:1026F0000E94271A20E030E040E251E40E940D19C8
:102700000E94051B6B01788B6F8780E480937C00AF
:1027100080917A00806480937A0080917A0086FDAF
:10272000FCCF2091780030917900ACE9BFEF0E9496
:10273000591B2FEF33E040E050E00E94CB19DA0143
:10274000C9018C599F4FAF4FBF4F898B8A8B8536FC
:1027500010F0F4E6FA8BA090CB01B090CC018A88FF
:10276000A80CB11CB092CC01A092CB018F859889A6
:102770006AE070E00E94451B0091C9011091CA01F6
:10278000060F171F1093CA010093C9018D859E85FE
:102790006AE070E00E94451BE091C701F091C8011A
:1027A000E60FF71FF093C801E093C7012091C50120
:1027B0003091C6012F5F3F4F3093C6012093C50172
:1027C000C501B9010E94451B7093C4016093C30108
:1027D000C801B9010E94451B7093C2016093C101F9
:1027E000CF01B9010E94451B7093C0016093BF01E6
:1027F00081E0809374030E948A0400916403109125
:1028000065032091660330916703AB01BC01401B57
:10281000510B620B730B8091700390917103B0E0C8
:10282000A0E084179507A607B70708F035C110E0A8
:1028300080916E03181760F5E0916A03F0916B03C5
:10284000E10FF11D62E080810E949E021F5FF0CFC8
:1028500010917903612F70E090E080E00E94AC1845
:102860006B017C0160917A036F7070E090E080E012
:102870000E94AE182DEC3CEC4CEC5DE30E940D196F
:10288000A70196010E94271A17FF34CF905832CF24
:10289000312C80916F03381608F066C0A32CB12C40
:1028A000E0916C03F0916D03EA0DFB1D61E0808106
:1028B0000E949E02E0916C03F0916D03EA0DFB1DF6
:1028C00060E080810E94700281E090E0A0E0B0E0D2
:1028D000032C04C0880F991FAA1FBB1F0A94D2F7AC
:1028E0009C8B8B8B4C0180949094212C80916E0357
:1028F000281618F5022D10E0E0916A03F0916B03A1
:10290000E00FF11F80810E9447020C5F1F4F000FF4
:10291000111FF801E85FFC4F892B51F480819181F0
:102920002B893C89822B932B918380832394DECF48
:102930008081918188219921F7CFE0916C03F091FA
:102940006D03EA0DFB1D61E080810E9470028091A1
:102950006C0390916D03A80EB91E60E0F5018081B3
:102960000E949E02339495CF58E0A52E53E0B52ED9
:102970008501F801878D90A1892B39F4148E882464
:102980008A94982C968E858E11A20A5F1F4F23E0A1
:102990000434120771F7912C80916E03981608F099
:1029A00053C0812C292C312C220C331CA101405FF7
:1029B0005C4F1A0120916F03821608F043C0F101A9
:1029C00060817181082C02C0769567950A94E2F7C0
:1029D000929E90011124280D311DE8E0F3E080E083
:1029E000458D568D2417350709F4AFC38F5F369692
:1029F0008A30B1F760FF24C0E8E0F3E090E080E0C7
:102A0000448D411118C0E0916803F0916903E20F11
:102A1000F31F408156E0589FF001599FF00D11249B
:102A2000E85FFC4F448F368F258F10A2178E61E030
:102A30000E94960405C0019636968A30910501F7EA
:102A40008394B8CF9394A8CF912CF50181A18111E3
:102A5000982EF6E0AF0EB11C0A151B05B1F70E94C7
:102A60008A04609364037093650380936603909374
:102A70006703992089F080912903882369F00091E8
:102A80002703109128030130110531F4B09024037D
:102A9000B11005C0B12C24C010927403FBCF61E0CB
:102AA0008FE00E94700260E570E080E090E00E949C
:102AB000580460E08FE00E94700221E3822EB8107B
:102AC0002AC11093BE010093BD010E94820C80E0D8
:102AD0000E94500C62EC72E08AE893E00E940A06C1
:102AE0000E948A042091BD013091BE012130310540
:102AF00009F0C3C10091B9011091BA012091BB0145
:102B00003091BC014B015C01801A910AA20AB30A00
:102B100095018401083E13402105310508F4EEC0FB
:102B20006093B9017093BA018093BB019093BC018B
:102B300081E00E94500C68E872E08AE893E00E940D
:102B40000A06B6010D2C000C880B990B0E94AE18DA
:102B500020E030E040E251E40E94931A41E050E06E
:102B60000E94690D63E872E08AE893E00E940A0619
:102B7000B201052C000C880B990B0E94AE1820E0C6
:102B800030E040E251E40E94931A50E040E00E949D
:102B9000690D60E872E08AE893E00E940A0682E02C
:102BA0000E94500C6DE772E08AE893E00E940A06EA
:102BB0006A898AE893E00E942E0D62E772E08AE853
:102BC00093E00E940A0683E00E94500C69E672E0DE
:102BD0008AE893E00E940A0681E08F8498882CE2BC
:102BE000821621E092060CF480E08093B80181E027
:102BF0004F8558894A3051050CF080E08093B70129
:102C000081E08D849E8424E8821623E092060CF4F1
:102C100080E08093B60181E04D855E85423D51059F
:102C20000CF080E08093B50181E059895A3508F4B1
:102C300080E08093B401C6010A978232914050F43B
:102C4000C201825D9109823B924020F429892A3594
:102C500008F4A1C06EE572E08FE592E00E940A06DA
:102C60008091B501882331F068E472E08FE592E04D
:102C70000E940A068091B601882331F063E372E076
:102C80008FE592E00E940A068091B401882331F01A
:102C90006AE172E08FE592E00E940A068091B80135
:102CA000882331F067E072E08FE592E00E940A0627
:102CB0008091B701882331F06DEE71E08FE592E0ED
:102CC0000E940A0661E671E08FE592E00E94C00C66
:102CD00061E085E00E9470024CE251E060E070E04B
:102CE00080EA9FE00E94DA0264E670E080E090E013
:102CF0000E94580460E085E00E94700280E090E04D
:102D0000892B09F45ACC0E949806882309F455CCE3
:102D10000E94000052CC92E3992EB91017C082E0B5
:102D200090E09093BE018093BD010E94820C80E0F0
:102D30000E94500C6FEA72E08AE893E00E940A0653
:102D400083E00E94500C64EA72E0C6CE83E3A82EB2
:102D5000BA1017C023E030E03093BE012093BD01CC
:102D60000E94820C80E00E94500C66E972E08AE8C2
:102D700093E00E940A0683E00E94500C6BE872E028
:102D8000ABCE34E3B312ACCE1092BE011092BD01B3
:102D90000E94940CA5CE38E5431A32E0530A42ED66
:102DA0004416510458F459895D3340F484E6C81A36
:102DB000D1089EE6C916D10408F452C063EE71E052
:102DC0008FE592E00E940A068D849E846AEC71E091
:102DD00028E5821622E092064CF08D849E842AE239
:102DE000821623E0920634F062EB71E08FE592E008
:102DF0000E940A0639893D3330F060E971E08FE5C1
:102E000092E00E940A064F85588963E771E0423DCF
:102E100051053CF48F8598898436910534F465E535
:102E200071E08FE592E00E940A0661E671E08FE5AD
:102E300092E00E94C00C61E084E00E94700248ECC5
:102E400050E060E070E080ED97E00E94DA0264E616
:102E500070E080E090E00E94580460E084E04CCF95
:102E600061E083E00E94700264E670E080E090E040
:102E70000E94580460E083E03FCF2230310509F022
:102E8000B7C092E3B9123ACFCE0107960E94540A16
:102E9000CE0107960E943C07AB01BC0140535A4249
:102EA00061097109CE0101960E94A5078EE391E0A8
:102EB0000E94CF0C67E371E08FE592E00E940A0662
:102EC0006B818FE592E00E942E0D6FE28FE592E01C
:102ED0000E9403066A818FE592E00E942E0D6FE248
:102EE0008FE592E00E940306498150E04053584F1D
:102EF00070E060E02AE08FE592E00E94E20C61E67B
:102F000071E08FE592E00E94C00C60E371E08FE514
:102F100092E00E940A066C818FE592E00E942E0DDD
:102F20006AE38FE592E00E9403066D818FE592E0EF
:102F30000E942E0D6AE38FE592E00E9403066E81E7
:102F40008FE592E00E942E0D61E671E08FE592E040
:102F50000E94C00C6CE271E08FE592E00E940A06CC
:102F60008091C1019091C2010E94350D8AE291E0E9
:102F70000E94CF0C66E271E08FE592E00E940A06A3
:102F80008091BF019091C0010E94350D84E291E0D3
:102F90000E94CF0C60E271E08FE592E00E940A0689
:102FA0008091C3019091C4010E94350D8EE191E0A2
:102FB0000E94CF0C86E091E00E94CF0C82E00E943C
:102FC000500C64EF70E08AE893E00E940A061092C9
:102FD000C6011092C5011092CC011092CB01109243
:102FE000C8011092C7011092CA011092C90186CE81
:102FF0002330310509F082CE0091B9011091BA0158
:103000002091BB013091BC014B015C01801A910AF7
:10301000A20AB30A95018401083E13402105310537
:1030200008F46CCE6093B9017093BA018093BB0130
:103030009093BC01CE0107960E94540ACE010796D8
:103040000E943C07AB01BC0140535A42610971091F
:10305000CE0101960E94A50781E00E94500C6DEE02
:1030600070E08AE893E00E940A068B818A3028F497
:1030700060E38AE893E00E9403066B818AE893E0AC
:103080000E942E0D6FE28AE893E00E9403068A8177
:103090008A3028F460E38AE893E00E9403066A819C
:1030A0008AE893E00E942E0D6FE28AE893E00E9486
:1030B0000306498150E04053584F70E060E02AE039
:1030C0008AE893E00E94E20C82E00E94500C66EED7
:1030D00070E08AE893E00E940A068C818A3028F426
:1030E00060E38AE893E00E9403066C818AE893E03B
:1030F0000E942E0D6AE38AE893E00E9403068D8108
:103100008A3028F460E38AE893E00E9403066D8128
:103110008AE893E00E942E0D6AE38AE893E00E9419
:1031200003068E818A3028F460E38AE893E00E94E7
:1031300003066E818AE893E00E942E0D62EE70E035
:103140008AE893E00E940A06D9CD617071CC0E9492
:10315000E91808F481E00895E89409C097FB3EF46B
:1031600090958095709561957F4F8F4F9F4F9923D4
:10317000A9F0F92F96E9BB279395F6958795779552
:103180006795B795F111F8CFFAF4BB0F11F460FF12
:103190001BC06F5F7F4F8F4F9F4F16C0882311F06A
:1031A00096E911C0772321F09EE8872F762F05C07E
:1031B000662371F096E8862F70E060E02AF09A9519
:1031C000660F771F881FDAF7880F9695879597F90E
:1031D0000895990F0008550FAA0BE0E8FEEF1616A8
:1031E0001706E807F907C0F012161306E407F507FB
:1031F00098F0621B730B840B950B39F40A2661F06F
:10320000232B242B252B21F408950A2609F4A14011
:10321000A6958FEF811D811D08950E9420190C94A1
:1032200091190E94831938F00E948A1920F0952381
:1032300011F00C947A190C94801911240C94C5196E
:103240000E94A21970F3959FC1F3950F50E0551F8E
:10325000629FF001729FBB27F00DB11D639FAA27EB
:10326000F00DB11DAA1F649F6627B00DA11D661F3A
:10327000829F2227B00DA11D621F739FB00DA11D5B
:10328000621F839FA00D611D221F749F3327A00D15
:10329000611D231F849F600D211D822F762F6A2FB1
:1032A00011249F5750409AF0F1F088234AF0EE0F16
:1032B000FF1FBB1F661F771F881F91505040A9F743
:1032C0009E3F510580F00C947A190C94C5195F3F0C
:1032D000E4F3983ED4F3869577956795B795F7957F
:1032E000E7959F5FC1F7FE2B880F911D96958795F7
:1032F00097F9089597F99F6780E870E060E0089576
:103300009FEF80EC089500240A94161617061806FD
:103310000906089500240A941216130614060506D9
:103320000895092E0394000C11F4882352F0BB0F6A
:1033300040F4BF2B11F460FF04C06F5F7F4F8F4FCD
:103340009F4F089557FD9058440F551F59F05F3F08
:1033500071F04795880F97FB991F61F09F3F79F0B7
:1033600087950895121613061406551FF2CF469539
:10337000F1DF08C0161617061806991FF1CF8695BB
:103380007105610508940895E894BB27662777279F
:10339000CB0197F90895052E97FB1EF400940E9427
:1033A000E21957FD07D00E94F51907FC03D04EF42F
:1033B0000C94E21950954095309521953F4F4F4F11
:1033C0005F4F089590958095709561957F4F8F4FD1
:1033D0009F4F08950E94171AA59F900DB49F900DBE
:1033E000A49F800D911D11240895A1E21A2EAA1BFD
:1033F000BB1BFD010DC0AA1FBB1FEE1FFF1FA217A5
:10340000B307E407F50720F0A21BB30BE40BF50BA1
:10341000661F771F881F991F1A9469F7609570952A
:10342000809590959B01AC01BD01CF010895A29FAD
:10343000B001B39FC001A39F700D811D1124911D88
:10344000B29F700D811D1124911D08955058BB2706
:10345000AA270E943E1A0C9491190E94831938F0F1
:103460000E948A1920F039F49F3F19F426F40C9435
:1034700080190EF4E095E7FB0C947A19E92F0E946D
:10348000A21958F3BA17620773078407950720F04B
:1034900079F4A6F50C94C4190EF4E0950B2EBA2F0E
:1034A000A02D0B01B90190010C01CA01A00111244A
:1034B000FF27591B99F0593F50F4503E68F11A16F6
:1034C000F040A22F232F342F4427585FF3CF469587
:1034D00037952795A795F0405395C9F77EF41F16A9
:1034E000BA0B620B730B840BBAF09150A1F0FF0F73
:1034F000BB1F661F771F881FC2F70EC0BA0F621F5F
:10350000731F841F48F4879577956795B795F7954E
:103510009E3F08F0B0CF9395880F08F09927EE0FE3
:103520009795879508950E94A71A0C9491190E9467
:103530008A1958F00E94831940F029F45F3F29F05E
:103540000C947A1951110C94C5190C9480190E948D
:10355000A21968F39923B1F3552391F3951B550BE9
:10356000BB27AA2762177307840738F09F5F5F4F56
:10357000220F331F441FAA1FA9F335D00E2E3AF095
:10358000E0E832D091505040E695001CCAF72BD0AD
:10359000FE2F29D0660F771F881FBB1F26173707FE
:1035A0004807AB07B0E809F0BB0B802DBF01FF2730
:1035B00093585F4F3AF09E3F510578F00C947A197A
:1035C0000C94C5195F3FE4F3983ED4F38695779544
:1035D0006795B795F7959F5FC9F7880F911D9695E9
:1035E000879597F90895E1E0660F771F881FBB1F45
:1035F000621773078407BA0720F0621B730B840BF2
:10360000BA0BEE1F88F7E09508950E940C1B689492
:10361000B1110C94C51908950E94AA1988F09F57FA
:1036200098F0B92F9927B751B0F0E1F0660F771FE6
:10363000881F991F1AF0BA95C9F714C0B13091F0DC
:103640000E94C419B1E008950C94C419672F782F13
:103650008827B85F39F0B93FCCF3869577956795A1
:10366000B395D9F73EF490958095709561957F4F0D
:103670008F4F9F4F08950E94E91808F48FEF089527
:103680000E94E918880B990B089597FB072E16F4F2
:10369000009407D077FD09D00E94681B07FC05D075
:1036A0003EF4909581959F4F0895709561957F4F59
:1036B00008950E94171A332312F48A1B9B0B0C9453
:1036C000631B0E94171AB7FF0895821B930B08957E
:1036D000AA1BBB1B51E107C0AA1FBB1FA617B70738
:1036E00010F0A61BB70B881F991F5A95A9F7809554
:1036F0009095BC01CD010895EE0FFF1F0590F49148
:10370000E02D09940F931F93CF93DF93823091059F
:1037100010F482E090E0E0919903F0919A0330E098
:1037200020E0B0E0A0E0309799F42115310509F4CC
:103730004AC0281B390B24303105D8F58A819B817A
:103740006115710589F1FB0193838283FE0111C02C
:10375000408151810281138148175907E0F04817D1
:10376000590799F4109761F012960C9312971396DB
:103770001C933296CF01DF91CF911F910F91089545
:103780000093990310939A03F4CF2115310551F05A
:103790004217530738F0A901DB019A01BD01DF018F
:1037A000F801C1CFEF01F9CF90939A038093990369
:1037B000CDCFFE01E20FF31F819391932250310987
:1037C00039832883D7CF2091970330919803232BF7
:1037D00041F420911B0130911C01309398032093F8
:1037E00097032091190130911A012115310541F4F7
:1037F0002DB73EB740911D0150911E01241B350B82
:10380000E0919703F0919803E217F307A0F42E1BC1
:103810003F0B2817390778F0AC014E5F5F4F241734
:10382000350748F04E0F5F1F50939803409397035E
:10383000819391939FCFF0E0E0E09CCFCF93DF9313
:103840000097E9F0FC01329713821282A09199034C
:10385000B0919A03ED0130E020E01097A1F42081AF
:103860003181820F931F209197033091980328177D
:10387000390709F061C0F0939803E0939703DF9153
:10388000CF910895EA01CE17DF07E8F54A815B8101
:103890009E0141155105B1F7E901FB83EA83499186
:1038A0005991C40FD51FEC17FD0761F480819181F8
:1038B0000296840F951FE901998388838281938101
:1038C0009B838A83F0E0E0E012968D919C911397A0
:1038D0000097B9F52D913C911197CD010296820F79
:1038E000931F20919703309198032817390739F6D1
:1038F000309751F510929A0310929903B093980360
:10390000A0939703BCCFD383C28340815181840F9E
:10391000951FC817D90761F44E5F5F4F8881998161
:10392000480F591F518340838A819B8193838283EF
:103930002115310509F0B0CFF0939A03E093990374
:103940009ECFFD01DC01C0CF13821282D7CFF89445
:02395000FFCFA7
:10395200FF090807060D0C0B0A31323341343536A4
:1039620042373839432A30234400009B0380000049
:103972000040001400540000000000CE062E065B3A
:10398200061B078C066A067E06000000000E0AE18E
:1039920009510AB709DA09C709B80900000000F895
:1039A20005FC05000600000000BA0C2E06510A3B79
:1039B200070D0A006E616E00696E66006F76660022
:00000001FF
