:100000000C94CC010C94F4010C94F4010C94F401C4
:100010000C94F4010C94F4010C94F4010C94C10FB1
:100020000C94F4010C94F4010C94F4010C94F4017C
:100030000C94F4010C94F4010C94F4010C94F4016C
:100040000C94770F0C94F4010C9469100C944310E9
:100050000C94F4010C94F4010C94F4010C94F4014C
:100060000C949B100C94F40143202D2052656C6F6E
:1000700067696F0042202D204D61726361646F7269
:100080000041202D20457374617469737469636144
:10009000730053656C6563696F6E6520756D6120D3
:1000A0006F7063616F3A00496E696369616E646F76
:1000B00020677261766163616F20646520646164AA
:1000C0006F732E2E2E0053697374656D6120696EF7
:1000D00069636961646F001F1C1F1E1F1E1F1F1EA6
:1000E0001F1E4F7063616F20696E76616C69646179
:1000F00000436F6E636C7569646F21004C696D70AD
:10010000616E646F20454550524F4D2E2E2E004893
:100110006F72613A2000446174613A200046696D53
:1001200020646F7320726567697374726F730073F4
:100130006567757265202A20702F20766F6C746158
:1001400072002500204C3A002500432020553A003B
:10015000543A004D41524341444F5245532053417C
:100160004C564F53004D61726361646F722073612E
:100170006C766F212020003D3D3D3D3D3D3D3D3DA8
:100180003D3D3D3D3D3D3D3D3D3D3D3D3D3D0025F4
:10019000004C3A20002500553A20004300543A20F4
:1001A00000486F72613A2000446174613A20003D5A
:1001B0003D3D204D41524341444F522053414C5606
:1001C0004F203D3D3D0054656D702E206162616998
:1001D000786F20646F20696465616C21200054652C
:1001E0006D702E206163696D6120646F20696465A4
:1001F000616C2120004C757A206163696D61206417
:100200006F20696465616C212000556D69646164CB
:100210006520756D20706F75636F20616C7461214E
:100220002000556D696461646520756D20706F757F
:10023000636F2062616978612120005761726E6985
:100240006E673A200054656D7065726174757261F5
:10025000206D7569746F2062616978612120005496
:10026000656D706572617475726120616C74612175
:1002700020004C756D696E6F7369646164652065FB
:100280007863657373697661212000556D696461D7
:100290006465206D7569746F20616C746121200044
:1002A000556D6964616465206D7569746F20626164
:1002B0006978612120005B4352495449434F5D20D6
:1002C000002520202A2D566F6C746172202020009A
:1002D000553A0025202020004C3A004320202000E1
:1002E000543A0045535441544953544943415320CF
:1002F00020202020002A202D20566F6C746172006F
:1003000052454C4F47494F20415455414C002A20FB
:100310002D20566F6C7461720023202D2041706176
:1003200067617200436C697175653A0045535441C9
:1003300054495354494341533A00000000002400FB
:1003400027002A0000000008000201000003040743
:100350000000000000000000000000002300260054
:10036000290000000000250028002B0002040404DE
:10037000040404040402020202020203030303034E
:10038000030102040810204080010204081020012B
:10039000020408102000BA1111241FBECFEFD8E0CC
:1003A000DEBFCDBF12E0A0E0B1E0E8EDFAE402C0AC
:1003B00005900D92A033B107D9F724E0A0E3B2E095
:1003C00001C01D92AF35B207E1F711E0CCECD1E0EE
:1003D00004C02197FE010E94D120CB3CD107C9F770
:1003E0000E948C120C946A250C94000096E0899F60
:1003F000D0011124A453BC4F90967C936E935F97C9
:1004000091E091969C939197E0913904F0913A0490
:1004100090913804992339F0309751F0811108C038
:100420008091E8030994309719F05C968C91FACF8B
:100430000895CF92DF92EF92FF92CF93DF93B09126
:100440004204A0E08111AB2F8091430490E0880F1B
:10045000991FAC01485A5C4FC0904804D0904904A1
:10046000E0904A04F0904B0430E020E0FA01C5919E
:10047000D491E881B90190E080E0EB23EA130AC04F
:100480002F5F3F4F6C157D058E059F0578F36FEF4D
:100490007FEFCB01DF91CF91FF90EF90DF90CF9076
:1004A000089508950895833081F028F4813099F0FB
:1004B0008230A9F008958730A9F08830C9F08430DF
:1004C000B1F4809180008F7D03C0809180008F7790
:1004D00080938000089584B58F7784BD089584B596
:1004E0008F7DFBCF8091B0008F778093B00008950F
:1004F0008091B0008F7DF9CFCF93DF93282F30E02C
:10050000F901EC5BFC4F8491F901EF57FC4FD4915A
:10051000F901E359FC4FC491CC23A1F081110E9451
:100520005302EC2FF0E0EE0FFF1FE85AFC4FA591AD
:10053000B491EC91ED2381E090E009F480E0DF914B
:10054000CF91089580E090E0FACF862F0C947C0242
:100550001F93CF93DF93282F30E0F901EC5BFC4F22
:100560008491F901EF57FC4FD491F901E359FC4F05
:10057000C491CC23A9F0162F81110E945302EC2FB5
:10058000F0E0EE0FFF1FEE59FC4FA591B4918FB72D
:10059000F894EC91111108C0D095DE23DC938FBF45
:1005A000DF91CF911F910895DE2BF8CF862F642F16
:1005B0000C94A802CF93DF9390E0FC01EF57FC4F1F
:1005C000249183599C4FFC0184918823C9F090E0C9
:1005D000880F991FFC01E65CFC4FA591B491FC01CA
:1005E000EE59FC4FC591D49161110DC09FB7F8949D
:1005F0008C91209582238C938881282328839FBF08
:10060000DF91CF910895623051F49FB7F8943C91F7
:10061000822F809583238C93E8812E2BEFCF8FB789
:10062000F894EC912E2B2C938FBFEACF862F642F5A
:100630000C94DA024F925F926F927F928F929F9208
:10064000AF92BF92CF92DF92EF92FF920F931F93E0
:10065000CF938C014A015B01809140018F3099F06A
:100660008F3F09F451C0CF911F910F91FF90EF90F0
:10067000DF90CF90BF90AF909F908F907F906F90C2
:100680005F904F900895ECE6F3E0C491C7FDEBCF87
:1006900061E08FE00E94DA02CC2319F0C23009F049
:1006A000E7C0712C612C60E472E48FE090E0A3015C
:1006B00098010E94E91E69017A0181E0C81AD108F7
:1006C000E108F108C23009F08EC092E08FEFC81641
:1006D000D104E104F10489F084F060E970ED83E075
:1006E00090E0A30198010E94E91E69017A0181E06E
:1006F000C81AD108E108F10893E08091B100887F21
:10070000892B8093B10092C08FE080934001ECE68A
:10071000F3E0C491CF3F09F4A6CFC13021F150F0EE
:10072000C23009F43EC0C7FD9ECF61E08FE00E9459
:10073000DA02B4CF14BC15BC84B5826084BD85B523
:10074000816085BDECE7F3E0E491F0E0EE0FFF1F80
:10075000EE59FC4F85919491E0E9F3E0E491E09348
:10076000C602C0E095CF1092800010928100809167
:1007700081008860809381008091810081608093F6
:100780008100ECE7F3E0E491F0E0EE0FFF1FEE599B
:10079000FC4F85919491E0E9F3E0E491E093C50288
:1007A00077CF1092B0001092B1008091B0008260BB
:1007B0008093B0008091B10081608093B100ECE73C
:1007C000F3E0E491F0E0EE0FFF1FEE59FC4F85914E
:1007D00094919093C4028093C302E0E9F3E0E49122
:1007E000E093C20255CF8FEFC816D104E104F104A3
:1007F000A9F0A4F068E478EE81E090E0A30198010C
:100800000E94E91E69017A0181E0C81AD108E10855
:10081000F10894E0C11171CF93E003C092E0C111DF
:100820006CCF85B5887F892B85BDC0E0D801AA0F24
:10083000BB1FA50194010E94081F28EE33E040E091
:1008400050E00E944A1FC13061F1C230E1F1C11194
:100850000ACFC7BC2093CF023093D0024093D1027D
:100860005093D20280916E00826080936E00FBCE26
:10087000980150E040E060E072E18AE790E00E9479
:10088000E91E69017A0181E0C81AD108E108F1087E
:10089000C13061F680918100887F81608093810002
:1008A000C5CFD0928900C09288002093CB023093AC
:1008B000CC024093CD025093CE0280916F008260B3
:1008C00080936F00D0CEC092B3002093C7023093C4
:1008D000C8024093C9025093CA028091700082609E
:1008E00080937000C0CE3FB7F8948091B802909189
:1008F000B902A091BA02B091BB0226B5A89B05C06F
:100900002F3F19F00196A11DB11D3FBFBA2FA92F8E
:10091000982F8827BC01CD01620F711D811D911D8B
:1009200042E0660F771F881F991F4A95D1F70895F7
:100930008F929F92AF92BF92CF92DF92EF92FF92EF
:100940004B015C010E9473046B017C010E947304E3
:100950006C197D098E099F09683E734081059105D8
:10096000A8F321E0821A9108A108B10888EEC80E08
:1009700083E0D81EE11CF11C81149104A104B10490
:1009800029F7FF90EF90DF90CF90BF90AF909F90AE
:100990008F9008952FB7F8946091B4027091B502CA
:1009A0008091B6029091B7022FBF08950F931F93C5
:1009B000CF93DF93C82FD62F86E0C89FF001112474
:1009C000E453FC4F11A2878D90A181309105F1F085
:1009D00058F082309105F1F1039709F440C0DF919E
:1009E000CF911F910F9108956623C9F361E070E0E4
:1009F0008C2F0E94F6010E94CA0460932404709315
:100A000025048093260490932704E9CF0E94CA040A
:100A1000009124041091250420912604309127048C
:100A2000AB01BC01401B510B620B730B8091360470
:100A300090913704B0E0A0E084179507A607B707A8
:100A400048F462E070E08C2FDF91CF911F910F91FD
:100A50000C94F60163E070E0D111C1CFF4CF70E0E7
:100A600060E0F1CF6F927F928F929F92AF92BF9290
:100A7000CF92DF92EF92FF920F931F93CF93DF936A
:100A800081E0809338040E94CA04009128041091E8
:100A9000290420912A0430912B04AB01BC01401B96
:100AA000510B620B730B8091340490913504B0E0CC
:100AB000A0E084179507A607B70708F014C1C0E0A7
:100AC00080913204C81760F4E0912E04F0912F0455
:100AD000EC0FF11D62E080810E94DA02CF5FF0CF5F
:100AE000712C812C912C54018394809133047816BD
:100AF00008F05FC0072D10E0E0913004F091310460
:100B0000E00FF11F61E080810E94DA02E091300481
:100B1000F0913104E00FF11F60E080810E94A80293
:100B2000D501C401072C04C0880F991FAA1FBB1F41
:100B30000A94D2F76C017C01E094F094612C8091CE
:100B400032046816F8F4C62DD0E0E0912E04F0913E
:100B50002F04EC0FFD1F80810E947C022496CC0F95
:100B6000DD1FC453DC4F892B41F4888199818C2986
:100B70009D29998388836394E2CF888199818E210E
:100B80009F21F7CFE0913004F0913104E00FF11F85
:100B900061E080810E94A80280913004909131042C
:100BA000080F191F60E0F80180810E94DA02739437
:100BB0009CCFCCECD3E0FE018FEF9FEF278D30A1CF
:100BC000232B21F4148E968F858F11A2369624E064
:100BD000E830F20799F7F12C96E0D92E8091320493
:100BE000F81608F050C0E12C0F2D10E0000F111F77
:100BF0000C521C4F20913304E21608F042C0F80159
:100C0000608171810E2C02C0769567950A94E2F797
:100C1000F29E900111242E0D311DECECF3E080E0EA
:100C2000458D568D2417350709F461C08F5F3696C0
:100C30008A30B1F760FF23C0ECECF3E090E080E095
:100C4000448D411117C0E0912C04F0912D04E20F66
:100C5000F31F4081D89EF001D99EF00D1124E4537A
:100C6000FC4F448F368F258F10A2178E61E00E94B3
:100C7000D60405C0019636968A30910509F7E394AB
:100C8000B9CFF394ABCF10E089A18111182F26962C
:100C9000F4E0C830DF07C1F70E94CA04609328045B
:100CA0007093290480932A0490932B041123D9F084
:100CB0008091ED038823B9F08091EB039091EC03D0
:100CC000019789F48091E803DF91CF911F910F91F3
:100CD000FF90EF90DF90CF90BF90AF909F908F905C
:100CE0007F906F9008951092380480E0EDCF61708E
:100CF000BECFCF92DF92EF92FF920F931F93CF93CD
:100D0000DF93CDB7DEB7C054D1400FB6F894DEBF45
:100D10000FBECDBF0E94CA04009144041091450447
:100D200020914604309147046B017C01C01AD10A1E
:100D3000E20AF30A97018601003D174021053105BB
:100D400090F480914C04C05CDE4F0FB6F894DEBF87
:100D50000FBECDBFDF91CF911F910F91FF90EF900C
:100D6000DF90CF900895609344047093450480937E
:100D700046049093470410923F0410923E04109250
:100D80003D0410923C0410923B0462E080914004C8
:100D90000E94DA0261E070E080E090E00E94980436
:100DA00061E0809140040E94DA0260E0809140049A
:100DB0000E94A802809141048551823020F58BE287
:100DC00091E10197F1F762E0809140040E94DA021C
:100DD00080914D0490E08230910538F0880F991F82
:100DE000880F991F05970197F1F7F89480E00E940A
:100DF00019026F3F7F4F8F4F9F4F61F410924C0449
:100E0000789480E0A0CF64E170E080E090E00E9400
:100E10009804D9CF81E00E9419026F3F7F4F8F4F16
:100E20009F4F61F38E010F5F1F4F6E012FEBC21AB0
:100E30002EEFD20A780180E00E941902F701608348
:100E400071838283938381E00E941902F701648396
:100E5000758386839783F8E0EF0EF11CEC14FD0494
:100E600051F7789430E020E0F801C080D180E28032
:100E7000F3804481558166817781FFEFCF16DF06CD
:100E8000EF06FF0631F04F3F8FEF580768077807EE
:100E900019F410924C04B5CFF90183E0F595E7956C
:100EA0008A95E1F7E55CFB4F8081880FC416D50673
:100EB000E606F70610F180832F5F3F4F085F1F4F54
:100EC0002832310589F640913F0420913B048091FE
:100ED0003C04280F3327331F80913D04280F311D18
:100EE00080913E04820F932F911D99274817190670
:100EF00081F681E080934C0426CF8160DCCFDC0159
:100F0000ED91FC910190F081E02D0994EF92FF9218
:100F10000F931F93CF93DF938C017B01D0E0C0E050
:100F2000F701EC0FFD1F6491662361F0D801ED918C
:100F3000FC910190F081E02DC8010995892B11F0F9
:100F40002196EECFCE01DF91CF911F910F91FF90AF
:100F5000EF900895AF92BF92CF92DF92EF92FF92FF
:100F60000F931F93CF93DF936C017B018B01040FD1
:100F7000151FEB015E01AE18BF08C017D10759F06D
:100F80006991D601ED91FC910190F081E02DC601AF
:100F90000995892B79F7C501DF91CF911F910F91A9
:100FA000FF90EF90DF90CF90BF90AF900895FC013D
:100FB000538D448D252F30E0842F90E0821B930BBE
:100FC000541710F0CF96089501970895FC01918D64
:100FD000828D981761F0A28DAE0FBF2FB11D5D9667
:100FE0008C91928D9F5F9F73928F90E008958FEF09
:100FF0009FEF0895FC01918D828D981731F0828DBD
:10100000E80FF11D858D90E008958FEF9FEF089513
:10101000FC01918D228D892F90E0805C9F4F821B77
:1010200091098F739927089583E293E00E9408083D
:1010300021E0892B09F420E0822F089580E090E0E0
:10104000892B29F00E94140881110C940000089546
:10105000FC01A48DA80FB92FB11DA35ABF4F2C912D
:10106000848D90E001968F739927848FA689B78924
:101070002C93A089B1898C91837080648C93938D1B
:10108000848D981306C00288F389E02D80818F7DBE
:1010900080830895EF92FF920F931F93CF93DF9376
:1010A000EC0181E0888F9B8D8C8D98131AC0E889A4
:1010B000F989808185FF15C09FB7F894EE89FF8973
:1010C0006083E889F98980818370806480839FBF11
:1010D00081E090E0DF91CF911F910F91FF90EF9011
:1010E0000895F62E0B8D10E00F5F1F4F0F73112721
:1010F000E02E8C8D8E110CC00FB607FCFACFE8895C
:10110000F989808185FFF5CFCE010E942808F1CFB3
:10111000EB8DEC0FFD2FF11DE35AFF4FF0829FB7CF
:10112000F8940B8FEA89FB8980818062CFCFCF93BF
:10113000DF93EC01888D8823B9F0AA89BB89E889FF
:10114000F9898C9185FD03C0808186FD0DC00FB6A5
:1011500007FCF7CF8C9185FFF2CF808185FFEDCF23
:10116000CE010E942808E9CFDF91CF91089508951C
:101170008F929F92AF92BF92CF92DF92EF92FF92A7
:10118000CF93DF93EC016A017B0180E8C81A83E406
:10119000D80A8DE6E80A88E3F80A8CE3882E912CB9
:1011A000A12CB12CC701B601A50194010E944A1FD0
:1011B0006D83CA01B901A50194010E944A1F6C8385
:1011C000C701B60120E13EE040E050E00E944A1F26
:1011D000CA01B90128E130E040E050E00E944A1F16
:1011E0006B83C701B60120E831E541E050E00E9481
:1011F0004A1F188263E97EEF8881982F937041E03F
:1012000050E011F050E040E0FA01E359FE4F2E1794
:101210003F0740F0FB01E41BF50B2E0F3F1F8F5FD4
:101220008883EACF81E0898389818C30A0F4482FBC
:101230004150550BFA01E952FF4FE491911103C05F
:10124000823009F4EF5FF0E02E173F0720F02E1BED
:101250003F0B8F5FE8CF2F5F2A83DF91CF91FF9005
:10126000EF90DF90CF90BF90AF909F908F900895B8
:1012700020915102260F3327331F21323105ECF420
:101280002091F902FC0190E080E0243069F082E0D6
:101290000895A09151022191AC014F5C5D4FA40FC4
:1012A000B52FB11D2C930196861798F380915102AA
:1012B000680F6093510280E0089581E008951092D4
:1012C000F90281E08093F8021092D30261E082E19A
:1012D0000E94A80261E083E10E94A802E9EBF0E02D
:1012E00080818E7F808380818D7F808388E480935E
:1012F000B80085E48093BC0008951092C10210925A
:10130000C00210920003109222030E945F0981E53F
:1013100092E09093BF028093BE0282E592E09093A8
:10132000BD028093BC020895CF93DF9391E0909328
:1013300030028823B9F0C091B800D091BA008091F2
:10134000BC008A7B8093BC0060E082E10E94A8021E
:1013500060E083E10E94A8020E945F09D093BA0076
:10136000C093B800DF91CF9108958F929F92AF9272
:10137000BF92CF92DF92EF92FF920F931F93CF9382
:10138000DF93D0912203D13208F0D7C0182FC0913B
:1013900021030E9473046B017C018091F902811189
:1013A0006BC082E08093F9021093F8028FEF809374
:1013B000F7021092F602D093F502A1E0B3E0E5ED5A
:1013C000F2E080E0D81391C01092D4028091D40250
:1013D000CC0FC82BC093D4028091D302813009F086
:1013E00088C01092D3020E9473046B017C0180912B
:1013F000D4028093BB008091FB029091FC02A091EB
:10140000FD02B091FE02892B8A2B8B2BA1F00E944A
:1014100073040091FB021091FC022091FD023091B7
:10142000FE026C197D098E099F0906171707280708
:10143000390708F442C08091BC0083FDD8CF85EC09
:101440008093BC000E9473046B017C018091F902BF
:10145000823009F450C08091F7028F3F09F46FC0C9
:101460008091F702803209F46CC08091F7028033DA
:1014700009F469C084E026C08091FB029091FC02CF
:10148000A091FD02B091FE02892B8A2B8B2B09F4CF
:1014900084CF0E9473048090FB029090FC02A09085
:1014A000FD02B090FE026C197D098E099F09861617
:1014B0009706A806B90608F070CF8091FA020E943C
:1014C000940985E010920003109222031092FF020B
:1014D000DF91CF911F910F91FF90EF90DF90CF9010
:1014E000BF90AF909F908F9008959D9191938F5F43
:1014F00069CF85EEA5CF8091FB029091FC02A0916F
:10150000FD02B091FE02892B8A2B8B2B09F49ECF12
:101510000E9473040091FB021091FC022091FD02D5
:101520003091FE026C197D098E099F090617170775
:101530002807390708F08ACFC0CF81E0C3CF80E009
:10154000C1CF82E0BFCF83E0BDCFCF93DF93EC016B
:101550008B818823A1F0888191E09093FF02809392
:101560002103109200031092220381E00E94B5092A
:1015700091E0811190E0892FDF91CF9108950E9431
:101580007D0981E08B83CE010E94A50A982F8111ED
:10159000E2CFF1CF0895E091C1028091C002E81737
:1015A00030F4F0E0EC58FD4F808190E008958FEF2B
:1015B0009FEF08959091C1028091C0022FEF3FEFFD
:1015C000981748F4E92FF0E0EC58FD4F208130E007
:1015D0009F5F9093C102C90108958091C0029091CC
:1015E000C102891B990B0895CF92DF92EF92FF926F
:1015F0000F931F93CF93DF937C01CB018A0120913E
:10160000FF02222389F0EB016B01C40ED51ECC151D
:10161000DD0569F06991D701ED91FC910190F081B0
:10162000E02DC7010995F3CF642F0E943809C80146
:10163000DF91CF911F910F91FF90EF90DF90CF90AE
:101640000895CF93DF931F92CDB7DEB769832091C2
:10165000FF022223F9F020912203203258F021E0EA
:1016600030E0FC013383228390E080E00F90DF9133
:10167000CF91089580910003E82FF0E0EF5FFC4FD9
:10168000998190838F5F809300038093220381E090
:1016900090E0ECCF61E0CE0101960E943809F7CFCF
:1016A000FC01248131E03093FF022093210310924A
:1016B0000003109222038485682B80EC93E00E9443
:1016C000210B81E00C94B50990E080E008950F9320
:1016D0001F93CF938C01C62F0E94500B6C2F646018
:1016E000C8010E94500B6C2F6B7FC8010E94500BE9
:1016F00083EC90E00197F1F7CF911F910F9108953E
:101700000F931F93CF93DF938C01D62FC42F607F4D
:10171000642B0E94670B80E1D89FB00111246C2BD1
:10172000C801DF91CF911F910F910C94670BCF935C
:10173000DF93CDB7DEB728970FB6F894DEBF0FBEA4
:10174000CDBF98E0EFE5F1E0DE01119601900D923A
:101750009A95E1F790915604961710F46FEF690F80
:10176000262F30E0220F331F41E050E04C0F5D1F69
:10177000240F351FF9016081680F606840E08EE436
:1017800094E028960FB6F894DEBF0FBECDBFDF9170
:10179000CF910C94800B40E061E08EE494E00E94D5
:1017A000800B8BE39FE10197F1F780915704882329
:1017B00021F060E080E00C94970B08950E94CB0B21
:1017C00060E080E00E94970B62E970E08EE494E0B4
:1017D0000E94860761E080E00E94970B61E870E05C
:1017E0008EE494E00E94860762E080E00E94970BFE
:1017F00064E770E08EE494E00E94860763E080E096
:101800000E94970B68E670E08EE494E00C948607E3
:10181000CF93DF93823028F0909153049860909397
:1018200053048093560462E370E080E090E00E94ED
:10183000980460915A048EE494E00E94500B68EE84
:1018400073E080E090E00E94980460E38EE494E00E
:101850000E94670BCBE4D6E4CE010197F1F760E379
:101860008EE494E00E94670B2197F1F760E38EE429
:1018700094E00E94670B83E592E00197F1F760E244
:101880008EE494E00E94670B60915304606240E034
:101890008EE494E00E94800B84E08093540440E046
:1018A0006CE08EE494E00E94800B0E94CB0B82E0FF
:1018B0008093550440E066E08EE494E00E94800B43
:1018C00040E062E08EE494E00E94800B8BE39FE1B5
:1018D0000197F1F7DF91CF91089541E00E94800BCD
:1018E00081E090E008950F931F93CF93DF938B01D6
:1018F00098E0899FB0011124606440E08EE494E098
:101900000E94800BE801085F1F4F69918EE494E00C
:101910000E946D0CC017D107C1F7DF91CF911F91C5
:101920000F910895FC0180819181009711F00C9432
:1019300073210895FB0101900020E9F73197AF0171
:10194000461B570BDC01ED91FC910280F381E02DE9
:101950000994CF93DF93BC0183E293E00E94860752
:10196000EC0161EB71E083E293E00E949A0C8C0F32
:101970009D1FDF91CF910895CF93DF93FC014481A8
:1019800055816081718183E293E00E94AA07EC0196
:1019900061EB71E083E293E00E949A0C8C0F9D1F33
:1019A000DF91CF9108958F929F92AF92BF92EF9265
:1019B000FF920F931F93CF93DF93CDB7DEB7A1971D
:1019C0000FB6F894DEBF0FBECDBF7C01FA01CB018C
:1019D00019A2223008F42AE08E010F5D1F4F822EDB
:1019E000912CB12CA12CBF01A50194010E944A1F8A
:1019F000F901CA016A300CF5605DD8016E938D0162
:101A0000232B242B252B79F790E080E0109721F0F1
:101A1000BD01C7010E949A0CA1960FB6F894DEBFD3
:101A20000FBECDBFDF91CF911F910F91FF90EF902F
:101A3000BF90AF909F908F900895695CDECF462F46
:101A400050E070E060E02AE00C94D30CCF92DF927B
:101A5000EF92FF920F931F93CF93DF936B01770F5A
:101A6000EE08FF08F7FE1BC0EC016DE20E947F0745
:101A70008C0144275527BA014C195D096E097F096D
:101A80002AE0CE010E94D30C800F911FDF91CF91ED
:101A90001F910F91FF90EF90DF90CF9008952AE073
:101AA000B701A601DF91CF911F910F91FF90EF90A9
:101AB000DF90CF900C94D30C4F925F926F927F92F5
:101AC0008F929F92AF92BF92CF92DF92EF92FF924E
:101AD0000F931F93CF93DF93EC016A017B01922E4A
:101AE000AB019601CB01B6010E94952064EB71E039
:101AF000811126C026013701E89477F82FEF3FEFD8
:101B00004FE75FE7C301B2010E94952081110CC02D
:101B10002FEF3FEF4FE75FE7C301B2010E94AF1D18
:101B200068EB71E0181664F02FEF3FEF4FE75FE4CA
:101B3000C701B6010E9490201816ACF46CEB71E05E
:101B4000CE01DF91CF911F910F91FF90EF90DF9029
:101B5000CF90BF90AF909F908F907F906F905F904D
:101B60004F900C949A0C2FEF3FEF4FE75FECC701BB
:101B7000B6010E94AF1D87FDE1CF20E030E0A90152
:101B8000C701B6010E94AF1DB12CA12C87FF09C06F
:101B90006DE2CE010E947F075C01F7FAF094F7F83E
:101BA000F094192D60E070E080E09FE300E020E019
:101BB00030E040E251E40E94E81F21E0200F01E004
:101BC0002915A8F3A70196010E947C1F2B013C0157
:101BD0000E9461206B017C010E94B41D9B01AC013D
:101BE000C301B2010E947B1F2B013C012AE0B70117
:101BF000A601CE010E94D30C7C016EE2CE010E94B0
:101C00007F07E80EF91EEA0CFB1C115020F120E0C2
:101C100030E040E251E4C301B2010E94151E2B01E5
:101C20003C010E9461204B01B12CA12C2AE0B5019E
:101C3000A401CE010E94D30CE80EF91EC501B40127
:101C40000E94B41D9B01AC01C301B2010E947B1F25
:101C50002B013C01DACFC701DF91CF911F910F918A
:101C6000FF90EF90DF90CF90BF90AF909F908F90BC
:101C70007F906F905F904F900895CF92DF92EF9298
:101C8000FF920F931F93CF93DF93CDB7DEB7699782
:101C90000FB6F894DEBF0FBECDBF8C01FB01CE01A5
:101CA00001967C014130510511F1228191818081A1
:101CB0004230510509F45DC035811F923F93348154
:101CC0001F923F9333811F923F931F922F931F9236
:101CD0009F9390E08053984F9F938F938DEC91E06A
:101CE0009F938F93FF92EF920E94C92211C085812A
:101CF0001F928F9384811F928F9383811F928F9362
:101D00008AED91E09F938F93FF92EF920E94C922F8
:101D10000FB6F894DEBF0FBECDBFF801118210825E
:101D20001382128215821482F70101900020E9F7D4
:101D300031976F01CE18DF08B6016F5F7F4F90E0DB
:101D400080E00E94FC21F8010097F9F091838083E4
:101D5000D382C28224813581232B11F4FC011082AD
:101D6000F801D582C482B701808191810E94C2228C
:101D700019C01F922F931F929F9390E08053984F0A
:101D80009F938F9380EC91E0BDCF808191810097EC
:101D900011F00E947321F8011182108215821482C1
:101DA00013821282C80169960FB6F894DEBF0FBE87
:101DB000CDBFDF91CF911F910F91FF90EF90DF90FA
:101DC000CF90089585ED8093BC008091FB029091A7
:101DD000FC02A091FD02B091FE020796A11DB11D6B
:101DE00023E0B695A795979587952A95D1F72091E9
:101DF000BC0024FD03C01092F90208954091FB023B
:101E00005091FC026091FD027091FE02452B462B21
:101E1000472B69F30097A105B10541F02AE22A9505
:101E2000F1F700C00197A109B109E1CF8091FA0251
:101E30000C949409CF93DF93EB010E94D31E888307
:101E4000CE01DF91CF9108950F931F93CF93DF932E
:101E50008C01EB010E94D31E8883C80101960E9469
:101E6000D31E8983CE01DF91CF911F910F910895E9
:101E7000CF92DF92EF92FF920F931F93CF93DF9356
:101E8000EB017B0124E0E20EF11C8B016C01C61A10
:101E9000D70AC601800F911F0E94D31EF8018193BB
:101EA0008F01EE15FF05A9F7CE01DF91CF911F91AC
:101EB0000F91FF90EF90DF90CF900895FF920F93D6
:101EC0001F93CF93DF93EC01F62E08811981C8018F
:101ED0000E94D31EF81621F06F2DC8010E94DB1E50
:101EE000CE01DF91CF911F910F91FF9008951F9226
:101EF0000F920FB60F9211242F933F938F939F93BE
:101F0000AF93BF938091B4029091B502A091B602B5
:101F1000B091B7023091B30223E0230F2D3758F56B
:101F20000196A11DB11D2093B3028093B40290933A
:101F3000B502A093B602B093B7028091B802909117
:101F4000B902A091BA02B091BB020196A11DB11DC8
:101F50008093B8029093B902A093BA02B093BB02E7
:101F6000BF91AF919F918F913F912F910F900FBE95
:101F70000F901F90189526E8230F0296A11DB11D02
:101F8000D2CF1F920F920FB60F9211242F933F932F
:101F90004F935F936F937F938F939F93AF93BF9371
:101FA000EF93FF938091C7029091C802A091C9025C
:101FB000B091CA02892B8A2B8B2BD1F19091C2024E
:101FC000E091C302F091C4028081892780838091CF
:101FD000C7029091C802A091C902B091CA02181616
:101FE00019061A061B069CF48091C7029091C8023C
:101FF000A091C902B091CA020197A109B1098093C9
:10200000C7029093C802A093C902B093CA02FF917D
:10201000EF91BF91AF919F918F917F916F915F9160
:102020004F913F912F910F900FBE0F901F901895D9
:1020300080914001ECE6F3E0E4919FEF9093400142
:10204000E13051F030F0E23069F060E00E94A80227
:10205000DECF10926E00F9CF90916F009D7F90932C
:102060006F00F3CF909170009D7F9093700091E08E
:102070009093B0009091B100987F94609093B100DC
:102080001092B300E2CF1F920F920FB60F9211245D
:102090002F933F934F935F936F937F938F939F9370
:1020A000AF93BF93EF93FF9383E293E00E942808DE
:1020B000FF91EF91BF91AF919F918F917F916F9120
:1020C0005F914F913F912F910F900FBE0F901F90F6
:1020D00018951F920F920FB60F9211242F938F9382
:1020E0009F93EF93FF93E0913303F091340380814A
:1020F000E0913903F0913A0382FD1BC090818091F9
:102100003C038F5F8F7320913D03821741F0E09174
:102110003C03F0E0ED5DFC4F958F80933C03FF9115
:10212000EF919F918F912F910F900FBE0F901F9065
:1021300018958081F4CF1F920F920FB60F92112441
:102140002F933F934F935F936F937F938F939F93BF
:10215000AF93BF93EF93FF938091B900887F803650
:1021600009F44AC0F0F5883209F4A7C018F58031A7
:1021700009F49BC0B8F4882309F4F9C0883009F445
:1021800094C0FF91EF91BF91AF919F918F917F91FB
:102190006F915F914F913F912F910F900FBE0F90D4
:1021A0001F901895883109F488C0803251F78093C8
:1021B000F70214C0803409F49DC040F48033B9F3B1
:1021C0008833F9F68093F70285ECB0C0803509F4C6
:1021D00085C0883509F496C0883499F60E94E20ECD
:1021E000D0CF883909F48CC038F5883729F050F4FD
:1021F000883611F0803729F683E08093F902109237
:10220000730257C0883809F47BC0803919F08038D0
:1022100009F0B7CF80917302803208F071C0E0916D
:10222000730281E08E0F809373028091BB00F0E017
:10223000ED5AFD4F80833DC0803B39F0E0F4803A99
:1022400009F479C0883A09F09CCF84E08093F902C0
:102250001092520210925102E091BE02F091BF0220
:1022600009958091510281110FC081E08093510244
:102270001092310209C0803C09F4A6CF883C09F4D1
:10228000A3CF883B09F07DCFE091520281E08E0F11
:1022900080935202F0E0EF5CFD4F80818093BB00A1
:1022A000909152028091510229C08091D402809372
:1022B000BB0085EC8093BC0064CF9091F6028091C6
:1022C000F502981758F5E091F60281E08E0F8093A1
:1022D000F602F0E0EB52FD4F8081E9CFE091F6028B
:1022E00081E08E0F8093F6028091BB00F0E0EB520C
:1022F000FD4F80839091F6028091F5029817C8F205
:1023000085E8D8CFE091F60281E08E0F8093F60247
:102310008091BB00F0E0EB52FD4F80838091F8028A
:1023200081115CCF81E08093D30284EA8093BC006A
:102330001092F90226CF85EC8093BC001092F9022E
:1023400080917302803230F4E0917302F0E0ED5A34
:10235000FD4F10826091730270E0E091BC02F09139
:10236000BD0283E592E00995109273020ACF1092A4
:10237000F70234CF109226031092250388EE93E0E3
:10238000A0E0B0E08093270390932803A093290353
:10239000B0932A032BE731E03093240320932303E7
:1023A00025EC30E03093300320932F0324EC30E011
:1023B000309332032093310320EC30E03093340328
:1023C0002093330321EC30E0309336032093350320
:1023D00022EC30E0309338032093370326EC30E0D2
:1023E00030933A032093390310923C0310923D033B
:1023F00010923E0310923F031092C3031092C20347
:102400008093C4039093C503A093C603B093C703FE
:102410008DE891E09093C1038093C0031092510422
:102420001092500489EA91E090934F0480934E04F7
:102430001092570487E28093520484E180935804F9
:1024400084E08093590410925A0482E080934004FF
:1024500086E180934104E3E8F3E0E491E0934204F1
:10246000EFE6F3E0E491E093430480E89EE3A0E02C
:10247000B0E08093480490934904A0934A04B09339
:102480004B041092CE031092D2031092D1031092FB
:10249000D3038FE991E09093CD038093CC03E8EED2
:1024A000F3E01082148213821582369684E0E432BF
:1024B000F807B9F785E491E090932F0480932E04F8
:1024C00081E491E0909331048093300484E0809320
:1024D00032048093330489E491E090932D04809337
:1024E0002C048AE090E0909335048093340484EFC8
:1024F00091E0909337048093360410923A0410923E
:102500003904109228041092290410922A0410927F
:102510002B04109238040895CF93DF93CDB7DEB724
:10252000AA970FB6F894DEBF0FBECDBF789484B5DE
:10253000826084BD84B5816084BD85B5826085BDBF
:1025400085B5816085BD80916E00816080936E004D
:10255000109281008091810082608093810080913F
:1025600081008160809381008091800081608093F0
:1025700080008091B10084608093B1008091B000B0
:1025800081608093B00080917A00846080937A00AB
:1025900080917A00826080937A0080917A008160D5
:1025A00080937A0080917A00806880937A001092FC
:1025B000C100E0913303F091340382E08083E09125
:1025C0002F03F09130031082E0913103F091320338
:1025D0008FEC808310923B03E0913703F091380336
:1025E00086E08083E0913503F0913603808180613D
:1025F0008083E0913503F091360380818860808389
:10260000E0913503F0913603808180688083E0910A
:102610003503F091360380818F7D80830E947D0990
:102620008091B1029091B202009711F00E94732143
:1026300086E090E00E94D7208C0188E6D8018C9338
:1026400080EC93E012969C938E93119713961C92B4
:10265000139780E290E015969C938E9314971093B5
:10266000B2020093B1020E947D0981E0F8018383E8
:10267000C8010E94A50A62E0809140040E94DA022B
:102680000E94CA04605D7740810991096093440407
:1026900070934504809346049093470487E38093A6
:1026A0004D040E947D0910925304809159040E94A8
:1026B000080C88E080935A0460E08EE494E00E9465
:1026C000500B0E94CB0B66EC70E08EE494E00E940D
:1026D000860760E273E080E090E00E94980484E066
:1026E0000E94080C68E371E080E00E94730C60E3D4
:1026F00071E081E00E94730C68E271E082E00E9468
:10270000730C60E271E083E00E94730C68E171E099
:1027100084E00E94730C60E171E085E00E94730C1C
:1027200068E071E086E00E94730C60E071E087E091
:102730000E94730C04E110E084E1682E712C98E093
:10274000892E912C61E080E00E94970B69EE71E088
:102750008EE494E00E949A0C62E080E00E94970B65
:1027600069EE71E08EE494E00E949A0CEE24FF245E
:10277000E01AF10A1016110614F4F12CE12CC8012C
:1027800017FF02C090E080E094012E193F09630119
:10279000C81AD90A2C153D050CF46901582E61E0C0
:1027A0000E94970B970121593E4F5901C5018E197F
:1027B0009F098F5691408C159D0544F4D5016D916C
:1027C0005D018EE494E00E946D0CF0CF62E0852DF7
:1027D0000E94970BF701E959FE4F5F01C5018E1961
:1027E0009F09875691408C159D0544F4D5016D9144
:1027F0005D018EE494E00E946D0CF0CF66E970E01C
:1028000080E090E00E94980401501109073FBFEF5B
:102810001B0709F097CF6CED75E080E090E00E9417
:1028200098040E94CB0B61E083E00E94DA0261E031
:1028300084E00E94DA0261E085E00E94DA0261E051
:102840008FE00E94DA0260E08FE00E94A80216E0AA
:1028500062E0812F0E94DA021F5F1E30C9F70E94DA
:10286000DE0B87EA90E00E94A90CFE017C96F9A39A
:10287000E8A39E01285E3F4F3BA32AA31982A090A4
:10288000B102B090B202D50114968D919C9115972A
:10289000892B09F427C111968D919C9112972C9147
:1028A00031E03093FF022093210310920003109235
:1028B0002203DC01ED91FC910280F381E02D41E0E7
:1028C00050E0BE016F5F7F4F0995019709F00AC183
:1028D00080E00E94B509811105C1D12CC12C77245B
:1028E000739499249A9415EE812E05EC602EF501CF
:1028F00084819581B7E0EB2EF12CEC18FD088E1544
:102900009F0508F47C01D5010C910E9473041B0102
:102910002C018091F902811170C01E2D113208F036
:1029200010E27092F90221E087E090E08E199F0991
:10293000C816D90608F420E02093F8029092F70216
:102940001092F6028FEF810F8093F5027092D402FD
:102950008091D402000F082B0093D4028091D302FF
:10296000813009F093C01092D3020E9473041B01BE
:102970002C018091D4028093BB008091FB02909146
:10298000FC02A091FD02B091FE02892B8A2B8B2BB9
:10299000A1F00E9473042091FB023091FC0240914F
:1029A000FD025091FE0262197309840995092617E8
:1029B00037074807590708F441C08091BC0083FDE0
:1029C000D8CF6092BC000E9473041B012C0180913F
:1029D000F902813009F45DC08091F602811710F48C
:1029E0001091F602A5EDB2E0E4E7F2E080E0811795
:1029F00051F19D9191938F5FFACF8091FB0290915D
:102A0000FC02A091FD02B091FE02892B8A2B8B2B38
:102A100009F47FCF0E9473042091FB023091FC02E5
:102A20004091FD025091FE026219730984099509D3
:102A3000261737074807590708F06BCF8091FA022D
:102A40000E94940910E01092C1021093C0021E155A
:102A50001F0409F047C001E010E00C0F1D1F0C0D12
:102A60001D1D2801C801841995098E159F0598F52B
:102A7000F50181819281DC01ED91FC910284F38565
:102A8000E02D0995F80181938F01ECCF8092BC0075
:102A90009ACF8091FB029091FC02A091FD02B0912F
:102AA000FE02892B8A2B8B2B09F491CF0E94730491
:102AB0002091FB023091FC024091FD025091FE02F8
:102AC00062197309840995092617370748075907BA
:102AD00008F07DCFB3CFCE0CDF1CF7E0CF16D104CA
:102AE00008F405CF49811A810B813D812E81822F07
:102AF00090E0F4E095958795FA95E1F7982F990F76
:102B0000990F882E891A982D990F920F5F81E32FC4
:102B1000F0E0A4E0F595E795AA95E1F78E2F880FF0
:102B2000880F2E2F281B220F230F30E0E7EDF0E057
:102B300081E0891730F46491260F311D8F5F319643
:102B4000F8CF652F70E0E4E075956795EA95E1F7B9
:102B5000862F880F880F962E981A892D880F850F3B
:102B6000933028F0982F937011F42F5F3F4FE42F8C
:102B7000EF7790E0AC014D5F5F4F569547955695C6
:102B80004795ADE6B1E08A9FB0018B9F700D9A9F8B
:102B9000700D112461507109460F571F240F351F06
:102BA000A8E1B0E00E946C1F202F30E0A901F4E002
:102BB00055954795FA95E1F7242F220F220FA42E61
:102BC000A21A2A2D220F020F9B01AC01200F311DEA
:102BD000411D511DACE3B0E00E94081F212F30E0E1
:102BE000A90104E0559547950A95E1F7242F220F96
:102BF000220FB42EB21A2B2D220F120F9B01AC0103
:102C0000210F311D411D511D0E94081F8B019C0188
:102C10008E2F90E044E0959587954A95E1F7982F9F
:102C2000990F990F891B482F440F842F8E0F90E026
:102C3000B0E0A0E0AC01BD01405B564E6249774C6C
:102C4000400F511F621F731F488F598F6A8F7B8FF0
:102C5000CE010E960E94B8080E947906882349F09A
:102C6000809141048B3028F08D3050F085518230B6
:102C7000C0F1412C512C50EC652E5FE7752E1EC023
:102C800060913C0470E090E080E00E94B61D2DEC65
:102C90003CEC4CEC5DE30E94151E6B017C016091E5
:102CA0003B0470E090E080E00E94B61D9B01AC0107
:102CB000C701B6010E947C1F2B013C010E947906CE
:102CC000882341F0809141048C3009F412C3D8F478
:102CD0008B3091F1C12CD12C30ECE32E3FE7F32E59
:102CE00055C060913B0470913C0476276727762796
:102CF00090E080E00E94B41D2DEC3CEC4CEC5DE3D8
:102D00000E94151ED9CF8551823020F710913D04C5
:102D1000612F70E0762F662766277F7780913E04CB
:102D2000682B90E080E00E94B41D2DEC3CEC4CEC54
:102D30005DE30E94151EF9C260913D0470E090E0D1
:102D400080E00E94B41D6B017C0110913E0417FFCE
:102D50000AC0AC019B0160E070E080E89FEB0E943C
:102D60007B1F6B017C011F70612F70E090E080E0A1
:102D70000E94B61D2DEC3CEC4CEC5DE30E94151E50
:102D8000A70196010E947C1F6B017C0180E4809367
:102D90007C0080917A00806480937A0080917A0030
:102DA00086FDFCCF2091780030917900ACE9BFEF2F
:102DB0000E94AE202FEF33E040E050E00E94E91E79
:102DC000DA01C9018C599F4FAF4FBF4F9AA789A70E
:102DD0001C01853691051CF024E6222E312C37FE8D
:102DE00002C0312C212CA090AF02B090B002A20CF6
:102DF000B31CB092B002A092AF0220E030E040E2FB
:102E000051E4C701B6010E94151E0E945A2000918C
:102E1000AD021091AE02060F171F1093AE02009381
:102E2000AD0220E030E040E251E4C301B2010E9473
:102E3000151E0E945A20E091AB02F091AC02E60F01
:102E4000F71FF093AC02E093AB022091A9023091FE
:102E5000AA022F5F3F4F3093AA022093A9022A3083
:102E600031059CF1C801B9010E949A204AE0469FB1
:102E7000C001479F900D11249093A8028093A70250
:102E8000CF01B9010E949A20469FC001479F900D33
:102E900011249093A6028093A502C501B9010E9456
:102EA0009A207093A4026093A3021092AA02109237
:102EB000A9021092AE021092AD021092AC021092D2
:102EC000AB021092B0021092AF020E943205982E0F
:102ED000882309F483C28FEB890D8430F0F023E25C
:102EE0009216D9F03AE29316C1F00E94CB0B60E043
:102EF00080E00E94970B62EE70E08EE494E00E9406
:102F0000860764EF71E080E090E00E9498041092E0
:102F1000A2021092A1020E94DE0B61E08FE00E94EB
:102F2000A80260E570E080E090E00E94980460E014
:102F30008FE00E94A80241E4941200C281E090E078
:102F40009093A2028093A1020E94CB0B60E081E0EB
:102F50000E94970B6CE273E08EE494E00E94860777
:102F600068EC70E080E090E00E9498040E94CA043F
:102F70002091A1023091A2022130310509F0C9C38C
:102F800080909D0290909E02A0909F02B090A0021F
:102F90009B01AC01281939094A095B09283E3340D5
:102FA0004105510508F498C160939D0270939E02FB
:102FB00080939F029093A00260E080E00E94970BB4
:102FC00063EE72E08EE494E00E94860761E080E0A8
:102FD0000E94970B60EE72E08EE494E00E948607F8
:102FE0006091A7027091A802072E000C880B990B24
:102FF0000E94B61D20E030E048EC52E40E94E81F39
:10300000AB01BC0121E030E08EE494E00E945C0D55
:103010006BED72E08EE494E00E94860762E080E04F
:103020000E94970B68ED72E08EE494E00E948607A0
:103030006091A3027091A4028EE494E00E94260D98
:1030400063ED72E08EE494E00E94860763E080E026
:103050000E94970B60ED72E08EE494E00E94860778
:103060006091A5027091A602072E000C880B990BA7
:103070000E94B61D20E030E048EC52E40E94E81FB8
:10308000AB01BC0121E030E08EE494E00E945C0DD5
:1030900061EC72E08EE494E00E94860711E020E08B
:1030A00030E040EF51E4C701B6010E94902087FD57
:1030B00010E010939C0211E020E030E0A901C7016C
:1030C000B6010E94AF1D18160CF410E010939B027D
:1030D00011E020E030E044EB52E4C301B2010E9471
:1030E000902087FD10E010939A0211E020E030E07C
:1030F00040EA51E4C301B2010E94AF1D18160CF45E
:1031000010E01093990281E0E9A5FAA5EA35F105EE
:103110000CF480E08093980220E030E040EF51E42E
:10312000C701B6010E94902087FF23C020E030E055
:10313000A901C701B6010E94AF1D1816D4F420E002
:1031400030E044EB52E4C301B2010E94902087FFBB
:1031500010C020E030E040EA51E4C301B2010E9417
:10316000AF1D181634F429A53AA52A3531050CF4FB
:103170002BC266EB72E083E293E00E9486078091A7
:103180009902882331F060EA72E083E293E00E94C2
:10319000860780919A02882331F06BE872E083E21F
:1031A00093E00E94860780919802882331F062E7BD
:1031B00072E083E293E00E94860780919C0288235C
:1031C00031F06FE572E083E293E00E948607809120
:1031D0009B02882331F065E472E083E293E00E9471
:1031E000860761EB71E083E293E00E949A0CA09065
:1031F0009602B09097028E01085E1F4F8AA09BA096
:10320000A818B908C501800F911F9A838983D80136
:103210006D918D01CE0101960E945E0F88A099A04C
:103220008016910679F7C701B6010E945A20F72E41
:103230000091960210919702C80104969A8389839F
:10324000CE0101960E945E0F0B5F1F4F1A83098308
:103250006F2DCE0101960E945E0F80919602909193
:10326000970206969A838983C301B2010E94612066
:10327000CE0101960E945E0F809196029091970276
:1032800007969A838983622DCE0101960E945E0F74
:1032900080919602909197020896803223E09207DF
:1032A0000CF084C1909397028093960261E085E0D0
:1032B0000E94A8024CE251E060E070E080EA9FE0EA
:1032C0000E941A0364E670E080E090E00E94980497
:1032D00060E085E00E94A80280E090E0892B09F47C
:1032E000CDCA0E941408882309F4BFCA0E940000B6
:1032F000BCCA10913D04612F70E090E080E00E9414
:10330000B41D6B017C0160913E046F7070E090E031
:1033100080E00E94B61D2DEC3CEC4CEC5DE30E947D
:10332000151EA70196010E947C1F6B017C0117FFEF
:103330002DCDF7FAF094F7F8F09428CD52E49512D9
:1033400031C082E090E09093A2028093A1020E949B
:10335000CB0B60E080E00E94970B64E273E08EE4A8
:1033600094E00E94860761E080E00E94970B6EEF78
:1033700071E08EE494E00E949A0C62E080E00E948A
:10338000970B69E173E08EE494E00E94860763E0A6
:1033900080E00E94970B6EE073E08EE494E00E9460
:1033A0008607E4CD83E4981219C083E090E09093FF
:1033B000A2028093A1020E94CB0B60E080E00E94F9
:1033C000970B60E073E08EE494E00E94860763E070
:1033D00080E00E94970B65EF72E0DFCF8091A10241
:1033E0009091A202029709F0DDC094E49912A1C065
:1033F0000E94CB0B84E090E09093A2028093A10204
:1034000060E080E00E94970B61E172E08EE494E05E
:103410000E949A0CB12CA12CBE016C5E7F4FC5019D
:103420000E94380FBE01645E7F4FC50104960E9462
:10343000240FBE01615E7F4FC50106960E941A0FE0
:10344000BE01625E7F4FC50107960E941A0F4C892C
:103450005D896E897F89DB01CA010197A109B109E4
:103460008E3F9F4FAF4FBF4F08F059C0CE01089617
:103470000E94B80850E040E0BE01685F7F4FCE0177
:1034800001960E943D0E4D815E8169817A8183E2C1
:1034900093E00E94AA07CE0101960E94920C61E27D
:1034A00072E083E293E00E949A0C6C8D7D8D83E242
:1034B00093E00E94260D6DE172E083E293E00E94AA
:1034C0009A0C6F8D83E293E00E941F0D60E272E020
:1034D00083E293E00E949A0C6E8D83E293E00E9457
:1034E0001F0D63E272E083E293E00E949A0C61EBAD
:1034F00071E083E293E00E949A0C04E110E00E94E4
:1035000032058A3249F40E94CB0B1092A20210922B
:10351000A1020E94DE0B2ACD0150110981F7F8E0CB
:10352000AF0EB11C20E2A21623E0B20609F074CF60
:103530001DCD33E2931236C00E94CB0B61E080E0D8
:103540000E94970B6CEF70E08EE494E00E94860777
:1035500010E000E01A8309836FEFCE0101960E940C
:103560005E0F0F5F1F4F003243E0140799F7109270
:1035700097021092960262E080E00E94970B61EF42
:1035800070E08EE494E00E94860768EE73E080E0CD
:1035900090E00E9498040E94DE0B1092A20210920A
:1035A000A102E4CC5AE29512E1CCAFCF109297027F
:1035B00010929602809194029091950208969093B1
:1035C00095028093940272CE20E030E040E752E40E
:1035D000C301B2010E94AF1D87FD23C020E030E08F
:1035E00040EA52E4C301B2010E9490201816CCF0C8
:1035F00049A55AA54D335105A4F420E030E040EA36
:1036000051E4C701B6010E949020181654F020E042
:1036100030E040E251E4C701B6010E94AF1D87FFD0
:103620006BC06BE372E083E293E00E94860720E0C8
:1036300030E040E752E4C301B2010E94AF1D87FFB2
:1036400006C062E272E083E293E00E94860720E017
:1036500030E040EA52E4C301B2010E949020181603
:1036600034F46AE072E083E293E00E94860789A561
:103670009AA5CD9734F065EF71E083E293E00E9464
:10368000860720E030E040EA51E4C701B6010E941D
:103690009020181634F46EED71E083E293E00E94FE
:1036A000860720E030E040E251E4C701B6010E9405
:1036B000AF1D87FF06C066EC71E083E293E00E94D5
:1036C000860761EB71E083E293E00E949A0C61E06F
:1036D00084E00E94A80248EC50E060E070E080EDD9
:1036E00097E00E941A0364E670E080E090E00E9498
:1036F000980460E084E0EECD61E083E00E94A802DF
:1037000064E670E080E090E00E94980460E083E06E
:10371000E1CD2230310509F077C091E49912DCCD7A
:103720008FEA91E00E94A90C68EA71E083E293E0DD
:103730000E94860742E050E0BE01625F7F4FCE01EB
:1037400001960E943D0ECE0101960E94BC0CCE0156
:1037500001960E94920C61EA71E083E293E00E947C
:10376000860741E050E0BE01625F7F4FCE010196C7
:103770000E943D0ECE0101960E94BC0CCE01019626
:103780000E94920C6DE971E083E293E00E9486074B
:1037900022E030E0B701A60183E293E00E945C0DD5
:1037A0008BE991E00E94A90C67E971E083E293E064
:1037B0000E94860722E030E0B301A20183E293E099
:1037C0000E945C0D85E991E00E94A90C61E971E01D
:1037D00083E293E00E948607B10183E293E00E94B6
:1037E000260D8FE891E00E94A90C87E791E00E94E6
:1037F000A90C62E080E00E94970B65E671E08EE420
:1038000094E00E94860768CD2430310509F010C18C
:103810000E94CB0B60E080E00E94970B63E571E0B3
:103820008EE494E00E94860760E273E080E090E01E
:103830000E949804EE24E394F12C10E000E0BE0115
:10384000685F7F4FC8010E94380FBE016C5E7F4FDA
:10385000C80104960E94240FBE01625E7F4FC8011A
:1038600006960E941A0FBE01645E7F4FC80107963C
:103870000E941A0F488559856A857B85DB01CA013C
:103880000197A109B1098E3F9F4FAF4FBF4F08F07D
:10389000AFC0CE0101960E94B8080E94CB0B60E039
:1038A00080E00E94970B6B818EE494E00E941F0DD4
:1038B0006FE28EE494E00E947F076A818EE494E0D8
:1038C0000E941F0D60E28EE494E00E947F078C81CD
:1038D0008A3028F460E38EE494E00E947F076C81D4
:1038E0008EE494E00E941F0D6AE38EE494E00E944F
:1038F0007F078D818A3028F460E38EE494E00E9493
:103900007F076D818EE494E00E941F0D61E080E0EE
:103910000E94970B65E272E08EE494E00E949A0C9C
:1039200061E08BE00E94970BB7018EE494E00E9467
:10393000260D62E080E00E94970B60E571E08EE466
:1039400094E00E9486076C897D898EE494E00E9451
:10395000260D6AE471E08EE494E00E9486076E8D85
:103960008EE494E00E941F0D68E471E08EE494E020
:103970000E94860764E471E08EE494E00E9486076A
:103980006C8D8EE494E00E941F0D62E471E08EE481
:1039900094E00E94860763E080E00E94970B6FE24C
:1039A00071E08EE494E00E94860785E0C82ED12C59
:1039B0000E9432058A3249F40E94CB0B1092A20277
:1039C0001092A1020E94DE0B87CC62E370E080E0DF
:1039D00090E00E949804F1E0CF1AD10849F72FEF48
:1039E000E21AF20A60ED77E080E090E00E9498042D
:1039F000085F1F4F003233E0130709F020CF0E9409
:103A0000CB0B61E080E00E94970B6DE171E08EE4EA
:103A100094E00E94860768EE73E080E090E00E94E8
:103A200098040E94DE0B1092A2021092A10254CCC4
:103A30002330310509F050CC00919D0210919E0277
:103A400020919F023091A0024B015C01801A910AE3
:103A5000A20AB30A95018401083E134021053105ED
:103A600008F43ACC60939D0270939E0280939F026B
:103A70009093A00261E080E00E94970B66E171E004
:103A80008EE494E00E94860788898A3028F460E3F7
:103A90008EE494E00E947F0768898EE494E00E949F
:103AA0001F0D6FE28EE494E00E947F078F858A30BD
:103AB00028F460E38EE494E00E947F076F858EE433
:103AC00094E00E941F0D6FE28EE494E00E947F0755
:103AD0004E8550E04053584F70E060E02AE08EE49D
:103AE00094E00E94D30C62E080E00E94970B6FE0AC
:103AF00071E08EE494E00E94860789898A3028F478
:103B000060E38EE494E00E947F0769898EE494E08C
:103B10000E941F0D6AE38EE494E00E947F078A8969
:103B20008A3028F460E38EE494E00E947F076A897B
:103B30008EE494E00E941F0D6AE38EE494E00E94FC
:103B40007F078B898A3028F460E38EE494E00E943A
:103B50007F076B898EE494E00E941F0DBDCB0E940D
:103B6000F11D08F481E00895E89409C097FB3EF444
:103B700090958095709561957F4F8F4F9F4F9923BA
:103B8000A9F0F92F96E9BB279395F6958795779538
:103B90006795B795F111F8CFFAF4BB0F11F460FFF8
:103BA0001BC06F5F7F4F8F4F9F4F16C0882311F050
:103BB00096E911C0772321F09EE8872F762F05C064
:103BC000662371F096E8862F70E060E02AF09A95FF
:103BD000660F771F881FDAF7880F9695879597F9F4
:103BE0000895990F0008550FAA0BE0E8FEEF16168E
:103BF0001706E807F907C0F012161306E407F507E1
:103C000098F0621B730B840B950B39F40A2661F054
:103C1000232B242B252B21F408950A2609F4A140F7
:103C2000A6958FEF811D811D08950E94281E0C947A
:103C3000991E0E948B1E38F00E94921E20F0952340
:103C400011F00C94821E0C94881E11240C94CD1E2D
:103C50000E94AA1E70F3959FC1F3950F50E0551F67
:103C6000629FF001729FBB27F00DB11D639FAA27D1
:103C7000F00DB11DAA1F649F6627B00DA11D661F20
:103C8000829F2227B00DA11D621F739FB00DA11D41
:103C9000621F839FA00D611D221F749F3327A00DFB
:103CA000611D231F849F600D211D822F762F6A2F97
:103CB00011249F5750409AF0F1F088234AF0EE0FFC
:103CC000FF1FBB1F661F771F881F91505040A9F729
:103CD0009E3F510580F00C94821E0C94CD1E5F3FD8
:103CE000E4F3983ED4F3869577956795B795F79565
:103CF000E7959F5FC1F7FE2B880F911D96958795DD
:103D000097F9089597F99F6780E870E060E008955B
:103D10009FEF80EC089500240A94161617061806E3
:103D20000906089500240A941216130614060506BF
:103D30000895092E0394000C11F4882352F0BB0F50
:103D400040F4BF2B11F460FF04C06F5F7F4F8F4FB3
:103D50009F4F089557FD9058440F551F59F05F3FEE
:103D600071F04795880F97FB991F61F09F3F79F09D
:103D700087950895121613061406551FF2CF46951F
:103D8000F1DF08C0161617061806991FF1CF8695A1
:103D90007105610508940895E894BB276627772785
:103DA000CB0197F90895F999FECF92BD81BDF89A9C
:103DB000992780B50895262FF999FECF1FBA92BD95
:103DC00081BD20BD0FB6F894FA9AF99A0FBE0196FC
:103DD0000895052E97FB1EF400940E94001F57FDC6
:103DE00007D00E944A1F07FC03D04EF40C94001F1A
:103DF00050954095309521953F4F4F4F5F4F089517
:103E000090958095709561957F4F8F4F9F4F089546
:103E10000E946C1FA59F900DB49F900DA49F800DD4
:103E2000911D112408952F923F924F925F926F92AD
:103E30007F928F929F92AF92BF92CF92DF92EF923A
:103E4000FF920F931F93CF93DF93CDB7DEB7CA1BBB
:103E5000DB0B0FB6F894DEBF0FBECDBF09942A88E6
:103E6000398848885F846E847D848C849B84AA848E
:103E7000B984C884DF80EE80FD800C811B81AA811B
:103E8000B981CE0FD11D0FB6F894DEBF0FBECDBFE6
:103E9000ED010895A1E21A2EAA1BBB1BFD010DC066
:103EA000AA1FBB1FEE1FFF1FA217B307E407F507EA
:103EB00020F0A21BB30BE40BF50B661F771F881FC6
:103EC000991F1A9469F760957095809590959B015C
:103ED000AC01BD01CF010895A29FB001B39FC00105
:103EE000A39F700D811D1124911DB29F700D811D26
:103EF0001124911D08955058BB27AA270E94931F93
:103F00000C94991E0E948B1E38F00E94921E20F085
:103F100039F49F3F19F426F40C94881E0EF4E095B2
:103F2000E7FB0C94821EE92F0E94AA1E58F3BA17D1
:103F3000620773078407950720F079F4A6F50C94BF
:103F4000CC1E0EF4E0950B2EBA2FA02D0B01B9015B
:103F500090010C01CA01A0011124FF27591B99F0FF
:103F6000593F50F4503E68F11A16F040A22F232F0B
:103F7000342F4427585FF3CF469537952795A7955B
:103F8000F0405395C9F77EF41F16BA0B620B730B02
:103F9000840BBAF09150A1F0FF0FBB1F661F771F73
:103FA000881FC2F70EC0BA0F621F731F841F48F428
:103FB000879577956795B795F7959E3F08F0B0CFB1
:103FC0009395880F08F09927EE0F97958795089598
:103FD0000E94FC1F0C94991E0E94921E58F00E9491
:103FE0008B1E40F029F45F3F29F00C94821E511182
:103FF0000C94CD1E0C94881E0E94AA1E68F399236F
:10400000B1F3552391F3951B550BBB27AA276217D4
:104010007307840738F09F5F5F4F220F331F441FE1
:10402000AA1FA9F335D00E2E3AF0E0E832D0915015
:104030005040E695001CCAF72BD0FE2F29D0660F02
:10404000771F881FBB1F261737074807AB07B0E845
:1040500009F0BB0B802DBF01FF2793585F4F3AF04B
:104060009E3F510578F00C94821E0C94CD1E5F3F4C
:10407000E4F3983ED4F3869577956795B795F795D1
:104080009F5FC9F7880F911D9695879597F90895B9
:10409000E1E0660F771F881FBB1F62177307840755
:1040A000BA0720F0621B730B840BBA0BEE1F88F764
:1040B000E09508950E9461206894B1110C94CD1E82
:1040C00008950E94B21E88F09F5798F0B92F992743
:1040D000B751B0F0E1F0660F771F881F991F1AF0F3
:1040E000BA95C9F714C0B13091F00E94CC1EB1E06E
:1040F00008950C94CC1E672F782F8827B85F39F06D
:10410000B93FCCF3869577956795B395D9F73EF48B
:1041100090958095709561957F4F8F4F9F4F089533
:104120000E94F11D08F48FEF08950E94F11D880B85
:10413000990B089597FB072E16F4009407D077FD8E
:1041400009D00E94BD2007FC05D03EF490958195D2
:104150009F4F0895709561957F4F08950E946C1F41
:10416000332312F48A1B9B0B0C94B8200E946C1F03
:10417000B7FF0895821B930B0895AA1BBB1B51E147
:1041800007C0AA1FBB1FA617B70710F0A61BB70BC7
:10419000881F991F5A95A9F780959095BC01CD016C
:1041A0000895EE0FFF1F0590F491E02D09940F93F1
:1041B0001F93CF93DF938230910510F482E090E05B
:1041C000E0915D04F0915E0430E020E0B0E0A0E01A
:1041D000309799F42115310509F44AC0281B390B91
:1041E00024303105D8F58A819B816115710589F1EB
:1041F000FB0193838283FE0111C0408151810281C2
:10420000138148175907E0F04817590799F4109798
:1042100061F012960C93129713961C933296CF016D
:10422000DF91CF911F910F91089500935D0410933A
:104230005E04F4CF2115310551F04217530738F0D1
:10424000A901DB019A01BD01DF01F801C1CFEF0136
:10425000F9CF90935E0480935D04CDCFFE01E20F11
:10426000F31F819391932250310939832883D7CF4B
:1042700020915B0430915C04232B41F420915B017D
:1042800030915C0130935C0420935B0420915901D0
:1042900030915A012115310541F42DB73EB74091B7
:1042A0005D0150915E01241B350BE0915B04F091A0
:1042B0005C04E217F307A0F42E1B3F0B2817390705
:1042C00078F0AC014E5F5F4F2417350748F04E0F72
:1042D0005F1F50935C0440935B04819391939FCF45
:1042E000F0E0E0E09CCFCF93DF930097E9F0FC0192
:1042F000329713821282A0915D04B0915E04ED01A9
:1043000030E020E01097A1F420813181820F931FCB
:1043100020915B0430915C042817390709F061C0D3
:10432000F0935C04E0935B04DF91CF910895EA0180
:10433000CE17DF07E8F54A815B819E0141155105E3
:10434000B1F7E901FB83EA8349915991C40FD51F65
:10435000EC17FD0761F4808191810296840F951F0F
:10436000E90199838883828193819B838A83F0E02A
:10437000E0E012968D919C9113970097B9F52D91DD
:104380003C911197CD010296820F931F20915B04FF
:1043900030915C042817390739F6309751F510929F
:1043A0005E0410925D04B0935C04A0935B04BCCFE8
:1043B000D383C28340815181840F951FC817D907C9
:1043C00061F44E5F5F4F88819981480F591F518377
:1043D00040838A819B81938382832115310509F073
:1043E000B0CFF0935E04E0935D049ECFFD01DC014D
:1043F000C0CF13821282D7CFB0E0A0E0E2E0F2E2B9
:104400000C94151F8C01009751F4CB010E94D7200A
:104410008C01C801CDB7DEB7E0E10C94311FFC017F
:10442000E60FF71F9C0122503109E217F30708F449
:104430009DC0D901CD91DC911197C617D70798F08F
:10444000C530D10530F3CE0104978617970708F3DE
:10445000C61BD70B2297C193D1936D937C93CF0149
:104460000E947321D6CF5B01AC1ABD0A4C018C0EA1
:104470009D1EA0915D04B0915E04512C412CF12C45
:10448000E12C109731F580915B0490915C048815C4
:10449000990509F05CC04616570608F058C080918F
:1044A000590190915A01009741F48DB79EB7409100
:1044B0005D0150915E01841B950BE817F90708F028
:1044C00055C0F0935C04E0935B04F9017183608351
:1044D000A0CF8D919C91119712966C901297139684
:1044E0007C901397A815B90559F56C0142E0C40EEC
:1044F000D11CCA14DB0420F1AC014A195B09DA01B2
:104500001296159780F06282738251834083D9019D
:104510006D937C93E114F10471F0D7011396FC9331
:10452000EE93129776CF22968C0F9D1FF9019183FF
:104530008083F301EFCFF0935E04E0935D0469CFD5
:104540004816590608F42C017D01D3019ACFCB01FE
:104550000E94D7207C01009749F0AE01B8010E946B
:10456000B922C8010E947321870153CF10E000E0F7
:1045700050CFFB01DC0102C001900D924150504030
:10458000D8F70895FB01DC0101900D920020E1F7BE
:104590000895AEE0B0E0EFECF2E20C94211F0D893B
:1045A0001E8986E08C831A8309838FEF9FE79E83A1
:1045B0008D83AE01475E5F4F6F89788DCE01019686
:1045C0000E94EC222F813885020F131FF801108200
:1045D0002E96E4E00C943D1FABE0B0E0E2EFF2E297
:1045E0000C94131F7C013B018A01FC011782168287
:1045F000838181FFC8C1CE0101965C01F7019381DF
:10460000F30193FD859193FF81913F01882309F484
:1046100053C1853239F493FD859193FF81913F0118
:10462000853229F4B70190E00E94DC24E7CF912C79
:10463000212C312CFFE1F31538F08B3211F190F47D
:10464000803209F1833229F137FC3CC020ED280F7C
:104650002A3050F536FE20C08AE0989E200D1124A5
:10466000922E06C08D3291F0803371F7689430F845
:10467000F30193FD859193FF81913F018111DACF81
:1046800021C0689431F8689432F8F2CF689433F816
:10469000EFCF689434F8ECCFEAE02E9E200D112481
:1046A000222E689435F8E4CF8E3229F436FC04C10A
:1046B000689436F8DDCF8C3619F4689437F8D8CF83
:1046C0008836B1F2982F9F7D95549330E0F0833671
:1046D000A1F18337C1F1833509F063C02801F2E00D
:1046E0004F0E511CF801C080D180692D70E036FC5E
:1046F00002C06FEF7FEFC6010E94C6244C01689490
:1047000037F882010AC00C5F1F4FFFE3F98388244A
:104710008394912C6501E89437F833FE2DC0522C18
:104720008114910471F5552009F468CFB70180E236
:1047300090E00E94DC245A94F6CFF80180818983AE
:104740000E5F1F4FE4CF2801F2E04F0E511CF8011D
:10475000C080D180692D70E036FC02C06FEF7FEF22
:10476000C6010E94D1244C018201D5CFB70180E25D
:1047700090E00E94DC242A942814190409F0B0F770
:10478000CECFF60137FC859137FE81916F01B701DD
:1047900090E00E94DC2451105A94F1E08F1A9108A5
:1047A000BFCF843619F0893609F077C0F80137FE9B
:1047B0006BC060817181828193810C5F1F4FF32DEB
:1047C000FF763F2E97FF09C0909580957095619573
:1047D0007F4F8F4F9F4F689437F82AE030E0A50154
:1047E0000E940C25C82ECA188C2C432C36FE0CC0F7
:1047F000E89440F8C91440F434FE05C032FC03C00C
:10480000F32DFE7E4F2E892C44FE95C0FE01EC0D4B
:10481000F11D8081803309F087C0242D297E422E2E
:10482000842D8870582E43FC95C040FE8FC09C2C70
:10483000821418F42C0C922C981844FE91C0B701E5
:1048400080E390E00E94DC2442FE09C088E790E00B
:1048500041FE02C088E590E0B7010E94DC24C91443
:1048600008F48AC0CA94D12C9FEFC91AD90ACA0C7D
:10487000DB1CF60182916F01B70190E00E94DC24FD
:10488000AC14BD04B1F74FCF60817181072E000CCD
:10489000880B990B0E5F1F4F92CFD32CE894D4F85E
:1048A0002AE030E0853739F1232D297FD22E8F364B
:1048B00001F148F48835A9F0F701868197812B969C
:1048C000E2E10C942F1F803749F08837A9F7D4FE16
:1048D00002C06894D2F820E130E00DC06894D4F8AA
:1048E000F6CF34FE03C0822F8660D82E20E132E05E
:1048F00002C028E030E0F801D7FE0FC0608171816E
:10490000828193810C5F1F4FA5010E940C25C82E48
:10491000CA183D2CE89437F867CF6081718190E028
:1049200080E00E5F1F4FF0CF42FC02C0839478CF2F
:104930008394839475CF842D867809F471CFF6CF54
:10494000B70180E290E00E94DC2483948214C0F3DB
:10495000512C73CF522C5818821408F46ECFF8CF14
:10496000842D867809F47BCF8BE241FE80E247FC00
:104970008DE2B70190E071CFB70180E390E00E9433
:10498000DC249A946CCF8FEF9FEF99CFFC010590B8
:10499000615070400110D8F7809590958E0F9F1F41
:1049A0000895FC016150704001900110D8F7809586
:1049B00090958E0F9F1F08950F931F93CF93DF93B2
:1049C000182F092FEB018B8181FD09C01FEF0FEF1D
:1049D000812F902FDF91CF911F910F91089582FF2A
:1049E00014C02E813F818C819D81281739073CF4AA
:1049F000E881F981CF0101969983888310838E81A4
:104A00009F8101969F838E83E3CFE885F985812F6F
:104A10000995892BA1F3DACFFA01AA27283051F1A1
:104A2000203181F1E8946F936E7F6E5F7F4F8F4FDF
:104A30009F4FAF4FB1E03ED0B4E03CD0670F781F3E
:104A4000891F9A1FA11D680F791F8A1F911DA11D23
:104A50006A0F711D811D911DA11D20D009F468945C
:104A60003F912AE0269F11243019305D3193DEF604
:104A7000CF010895462F4770405D4193B3E00FD0BA
:104A8000C9F7F6CF462F4F70405D4A3318F0495DA5
:104A900031FD4052419302D0A9F7EACFB4E0A69588
:104AA0009795879577956795BA95C9F700976105AA
:104AB000710508959B01AC010A2E06945795479500
:104AC00037952795BA95C9F7620F731F841F951FF5
:084AD000A01D0895F894FFCF2A
:104AD8001E1C00000000000000001C1E030303034E
:104AE8001F1F18181818000000001F1F1818181882
:104AF8001F1F0303030300000000181E0303030322
:104B08001F1F1818181800000000030F181818188D
:104B1800FF090807060D0C0B0A31323341343536CC
:104B280042373839432A30234400005F04800000AC
:104B380000400014005400010305070103050700A5
:104B480002040600020406000000004A08AA07D76B
:104B58000797080808E607FA0700000000210BF489
:104B68000A640BCA0AED0ADA0ACB0A00000000162A
:104B780003D602A502000000006D0CAA07640BB75B
:104B8800080D0A006E616E00696E66006F76660039
:104B980025752D253032642D253032640025752D7C
:104BA800253032642D2530326454253032643A255C
:104BB8003032643A25303264002020202020202022
:104BC80020202020202020202020202020004420D9
:104BD8002D20566572206D61726361646F72657312
:104BE800004D41524341444F5245533A0043090056
:104BF80025090025004D61726361646F72202D00E4
:00000001FF
