:100000000C94C4010C94EC010C94EC010C94EC01E4
:100010000C94EC010C94EC010C94EC010C94AF0DDD
:100020000C94EC010C94EC010C94EC010C94EC019C
:100030000C94EC010C94EC010C94EC010C94EC018C
:100040000C94650D0C94EC010C94570E0C94310E2D
:100050000C94EC010C94EC010C94EC010C94EC016C
:100060000C94890E0C94EC0133202D2052656C6F9A
:1000700067696F0032202D204D61726361646F7279
:100080000031202D20457374617469737469636154
:10009000730053656C6563696F6E6520756D6120D3
:1000A0006F7063616F3A00496E696369616E646F76
:1000B00020677261766163616F20646520646164AA
:1000C0006F732E2E2E0053697374656D6120696EF7
:1000D00069636961646F001F1C1F1E1F1E1F1F1EA6
:1000E0001F1E436F6E636C7569646F2100352D565A
:1000F0006F6C746172004C696D70616E646F204545
:100100004550524F4D2E2E2E00486F72613A2000FE
:10011000446174613A200046696D20646F732072F7
:100120006567697374726F730035202D20566F6C8C
:10013000746172002500204C3A00250043202055B0
:100140003A00543A004D41524341444F52455320E6
:1001500053414C564F53004D61726361646F72207E
:1001600073616C766F212020003D3D3D3D3D3D3D5E
:100170003D3D3D3D3D3D3D3D3D3D3D3D3D3D3D3DAF
:100180000025004C3A20002500553A200043005439
:100190003A2000486F72613A2000446174613A204D
:1001A000003D3D3D204D41524341444F522053417B
:1001B0004C564F203D3D3D0054656D702E206162D0
:1001C0006169786F20646F20696465616C2120002B
:1001D00054656D702E206163696D6120646F2069C4
:1001E0006465616C2120004C757A206163696D61E2
:1001F00020646F20696465616C212000556D69641D
:1002000061646520756D20706F75636F20616C741B
:1002100061212000556D696461646520756D2070F1
:100220006F75636F20626169786121200057617288
:100230006E696E673A200054656D70657261747501
:100240007261206D7569746F206261697861212027
:100250000054656D706572617475726120616C74B3
:10026000612120004C756D696E6F7369646164650E
:1002700020657863657373697661212000556D6927
:1002800064616465206D7569746F20616C746121AF
:100290002000556D6964616465206D7569746F2017
:1002A00062616978612120005B4352495449434FA0
:1002B0005D2000352D566F6C746172002520202062
:1002C000202020202020004C3A00252000553A0014
:1002D0004300543A0035202D20566F6C7461720033
:1002E00052454C4F47494F20415455414C00352011
:1002F0002D20566F6C74617200436C697175653A9C
:10030000204120702F206D6172636172206F752013
:100310002320702F20617061676172004553544142
:1003200054495354494341533A000000000024000B
:1003300027002A0000000008000201000003040753
:100340000000000000000000000000002300260064
:10035000290000000000250028002B0002040404EE
:10036000040404040402020202020203030303035E
:10037000030102040810204080010204081020013B
:10038000020408102000A80F11241FBECFEFD8E0F0
:10039000DEBFCDBF11E0A0E0B1E0EEE8F8E402C0BE
:1003A00005900D92AA3CB107D9F723E0AAECB1E081
:1003B00001C01D92A93FB207E1F711E0C4ECD1E002
:1003C00004C02197FE010E94AC1FC33CD107C9F7AE
:1003D0000E947A100C9445240C940000089508950E
:1003E00096E0899FD0011124AA59BC4F90967C9326
:1003F0006E935F9791E091969C939197E091D303D0
:10040000F091D4039091D203992339F0309751F0B1
:10041000811108C0809182030994309719F05C968D
:100420008C91FACF0895CF92DF92EF92FF92CF9303
:10043000DF93B091DC03A0E08111AB2F8091DD034D
:1004400090E0880F991FAC01485B5C4FC090E203BD
:10045000D090E303E090E403F090E50330E020E087
:10046000FA01C591D491E881B90190E080E0EB23D5
:10047000EA130AC02F5F3F4F6C157D058E059F055F
:1004800078F36FEF7FEFCB01DF91CF91FF90EF908B
:10049000DF90CF900895833081F028F4813099F077
:1004A0008230A9F008958730A9F08830C9F08430EF
:1004B000B1F4809180008F7D03C0809180008F77A0
:1004C00080938000089584B58F7784BD089584B5A6
:1004D0008F7DFBCF8091B0008F778093B00008951F
:1004E0008091B0008F7DF9CFCF93DF93282F30E03C
:1004F000F901EC5CFC4F8491F901EF58FC4FD49169
:10050000F901E35AFC4FC491CC23A1F081110E9460
:100510004B02EC2FF0E0EE0FFF1FE85BFC4FA591C4
:10052000B491EC91ED2381E090E009F480E0DF915B
:10053000CF91089580E090E0FACF1F93CF93DF939F
:10054000282F30E0F901EC5CFC4F8491F901EF5861
:10055000FC4FD491F901E35AFC4FC491CC23A9F08C
:10056000162F81110E944B02EC2FF0E0EE0FFF1FBF
:10057000EE5AFC4FA591B4918FB7F894EC911111FC
:1005800008C0D095DE23DC938FBFDF91CF911F9100
:100590000895DE2BF8CFCF93DF9390E0FC01EF5866
:1005A000FC4F2491835A9C4FFC0184918823C9F00D
:1005B00090E0880F991FFC01E65DFC4FA591B49176
:1005C000FC01EE5AFC4FC591D49161110DC09FB74B
:1005D000F8948C91209582238C93888128232883FA
:1005E0009FBFDF91CF910895623051F49FB7F89487
:1005F0003C91822F809583238C93E8812E2BEFCF23
:100600008FB7F894EC912E2B2C938FBFEACF4F929B
:100610005F926F927F928F929F92AF92BF92CF9292
:10062000DF92EF92FF920F931F93CF938C014A01B9
:100630005B01809100018F3099F08F3F09F451C028
:10064000CF911F910F91FF90EF90DF90CF90BF90CF
:10065000AF909F908F907F906F905F904F90089594
:10066000ECE5F3E0C491C7FDEBCF61E08FE00E94C1
:10067000CB02CC2319F0C23009F0E7C0712C612CF9
:1006800060E472E48FE090E0A30198010E94C41D31
:1006900069017A0181E0C81AD108E108F108C23085
:1006A00009F08EC092E08FEFC816D104E104F10486
:1006B00089F084F060E970ED83E090E0A301980197
:1006C0000E94C41D69017A0181E0C81AD108E108BD
:1006D000F10893E08091B100887F892B8093B1006D
:1006E00092C08FE080930001ECE5F3E0C491CF3F2E
:1006F00009F4A6CFC13021F150F0C23009F43EC058
:10070000C7FD9ECF61E08FE00E94CB02B4CF14BC46
:1007100015BC84B5826084BD85B5816085BDECE67D
:10072000F3E0E491F0E0EE0FFF1FEE5AFC4F8591ED
:100730009491E0E8F3E0E491E0935A02C0E095CFB1
:1007400010928000109281008091810088608093D7
:10075000810080918100816080938100ECE6F3E06C
:10076000E491F0E0EE0FFF1FEE5AFC4F859194915B
:10077000E0E8F3E0E491E093590277CF1092B00003
:100780001092B1008091B00082608093B00080919F
:10079000B10081608093B100ECE6F3E0E491F0E019
:1007A000EE0FFF1FEE5AFC4F8591949190935802E3
:1007B00080935702E0E8F3E0E491E093560255CFCE
:1007C0008FEFC816D104E104F104A9F0A4F068E4A5
:1007D00078EE81E090E0A30198010E94C41D6901B8
:1007E0007A0181E0C81AD108E108F10894E0C1114A
:1007F00071CF93E003C092E0C1116CCF85B5887FC3
:10080000892B85BDC0E0D801AA0FBB1FA5019401AB
:100810000E94E31D28EE33E040E050E00E94251ED8
:10082000C13061F1C230E1F1C1110ACFC7BC2093E0
:100830006302309364024093650250936602809194
:100840006E00826080936E00FBCE980150E040E025
:1008500060E072E18AE790E00E94C41D69017A01BC
:1008600081E0C81AD108E108F108C13061F6809131
:100870008100887F816080938100C5CFD0928900FC
:10088000C092880020935F0230936002409361021F
:100890005093620280916F00826080936F00D0CE8F
:1008A000C092B30020935B0230935C0240935D02E0
:1008B00050935E0280917000826080937000C0CE81
:1008C0003FB7F8948091520290915302A091540244
:1008D000B091550226B5A89B05C02F3F19F001968F
:1008E000A11DB11D3FBFBA2FA92F982F8827BC018A
:1008F000CD01620F711D811D911D42E0660F771FB2
:10090000881F991F4A95D1F708958F929F92AF92B1
:10091000BF92CF92DF92EF92FF924B015C010E9457
:1009200060046B017C010E9460046C197D098E09D2
:100930009F09683E734081059105A8F321E0821A62
:100940009108A108B10888EEC80E83E0D81EE11C0A
:10095000F11C81149104A104B10429F7FF90EF90D8
:10096000DF90CF90BF90AF909F908F9008952FB75A
:10097000F89460914E0270914F02809150029091D4
:1009800051022FBF08950F931F93CF93DF93C82F6A
:10099000D62F86E0C89FF0011124EA59FC4F11A21E
:1009A000878D90A181309105F1F058F0823091054A
:1009B000F1F1039709F440C0DF91CF911F910F919E
:1009C00008956623C9F361E070E08C2F0E94F00166
:1009D0000E94B7046093BE037093BF038093C0036B
:1009E0009093C103E9CF0E94B7040091BE03109118
:1009F000BF032091C0033091C103AB01BC01401B78
:100A0000510B620B730B8091D0039091D103B0E036
:100A1000A0E084179507A607B70748F462E070E0E6
:100A20008C2FDF91CF911F910F910C94F00163E017
:100A300070E0D111C1CFF4CF70E060E0F1CFCF9280
:100A4000DF92EF92FF920F931F93CF93DF93CDB777
:100A5000DEB7C054D1400FB6F894DEBF0FBECDBF95
:100A60000E94B7040091DE031091DF032091E003A0
:100A70003091E1036B017C01C01AD10AE20AF30A4A
:100A800097018601003D17402105310590F48091C2
:100A9000E603C05CDE4F0FB6F894DEBF0FBECDBFDD
:100AA000DF91CF911F910F91FF90EF90DF90CF904A
:100AB00008956093DE037093DF038093E0039093C7
:100AC000E1031092D9031092D8031092D703109229
:100AD000D6031092D50362E08091DA030E94CB0224
:100AE00061E070E080E090E00E94850461E0809128
:100AF000DA030E94CB0260E08091DA030E949D023B
:100B00008091DB038551823020F58BE291E10197E2
:100B1000F1F762E08091DA030E94CB028091E70353
:100B200090E08230910538F0880F991F880F991F47
:100B300005970197F1F7F89480E00E9413026F3F48
:100B40007F4F8F4F9F4F61F41092E603789480E0BF
:100B5000A0CF64E170E080E090E00E948504D9CFEE
:100B600081E00E9413026F3F7F4F8F4F9F4F61F3D1
:100B70008E010F5F1F4F6E012FEBC21A2EEFD20AAC
:100B8000780180E00E941302F70160837183828301
:100B9000938381E00E941302F70164837583868347
:100BA0009783F8E0EF0EF11CEC14FD0451F77894F4
:100BB00030E020E0F801C080D180E280F380448101
:100BC000558166817781FFEFCF16DF06EF06FF06BE
:100BD00031F04F3F8FEF58076807780719F41092EC
:100BE000E603B5CFF90183E0F595E7958A95E1F73E
:100BF000EB52FC4F8081880FC416D506E606F70637
:100C000010F180832F5F3F4F085F1F4F283231055F
:100C100089F64091D9032091D5038091D603280FFE
:100C20003327331F8091D703280F311D8091D803BC
:100C3000820F932F911D99274817190681F681E09D
:100C40008093E60326CF8160DCCF862F642F0C943F
:100C5000CB02862F642F0C949D02862F0C94740275
:100C6000DC01ED91FC910190F081E02D0994EF926F
:100C7000FF920F931F93CF93DF938C017B01D0E002
:100C8000C0E0F701EC0FFD1F6491662361F0D8010D
:100C9000ED91FC910190F081E02DC8010995892B1F
:100CA00011F02196EECFCE01DF91CF911F910F91E0
:100CB000FF90EF900895AF92BF92CF92DF92EF92A4
:100CC000FF920F931F93CF93DF936C017B018B01F6
:100CD000040F151FEB015E01AE18BF08C017D10746
:100CE00059F06991D601ED91FC910190F081E02DD0
:100CF000C6010995892B79F7C501DF91CF911F9125
:100D00000F91FF90EF90DF90CF90BF90AF9008953C
:100D1000FC01538D448D252F30E0842F90E0821B01
:100D2000930B541710F0CF96089501970895FC0186
:100D3000918D828D981761F0A28DAE0FBF2FB11DDE
:100D40005D968C91928D9F5F9F73928F90E0089536
:100D50008FEF9FEF0895FC01918D828D981731F0F0
:100D6000828DE80FF11D858D90E008958FEF9FEF44
:100D70000895FC01918D228D892F90E0805C9F4F1A
:100D8000821B91098F73992708958DEB92E00E9441
:100D9000B90621E0892B09F420E0822F089580E034
:100DA00090E0892B29F00E94C50681110C94000067
:100DB0000895FC01A48DA80FB92FB11DA35ABF4FF0
:100DC0002C91848D90E001968F739927848FA6894A
:100DD000B7892C93A089B1898C91837080648C939E
:100DE000938D848D981306C00288F389E02D80814D
:100DF0008F7D80830895EF92FF920F931F93CF937F
:100E0000DF93EC0181E0888F9B8D8C8D98131AC045
:100E1000E889F989808185FF15C09FB7F894EE892C
:100E2000FF896083E889F989808183708064808389
:100E30009FBF81E090E0DF91CF911F910F91FF90D4
:100E4000EF900895F62E0B8D10E00F5F1F4F0F737C
:100E50001127E02E8C8D8E110CC00FB607FCFACF37
:100E6000E889F989808185FFF5CFCE010E94D906F6
:100E7000F1CFEB8DEC0FFD2FF11DE35AFF4FF08208
:100E80009FB7F8940B8FEA89FB8980818062CFCF6E
:100E9000CF93DF93EC01888D8823B9F0AA89BB89B1
:100EA000E889F9898C9185FD03C0808186FD0DC09C
:100EB0000FB607FCF7CF8C9185FFF2CF808185FFBD
:100EC000EDCFCE010E94D906E9CFDF91CF910895F1
:100ED00008958F929F92AF92BF92CF92DF92EF923E
:100EE000FF92CF93DF93EC016A017B0180E8C81A7F
:100EF00083E4D80A8DE6E80A88E3F80A8CE3882EB2
:100F0000912CA12CB12CC701B601A50194010E941E
:100F1000251E6D83CA01B901A50194010E94251EF9
:100F20006C83C701B60120E13EE040E050E00E9442
:100F3000251ECA01B90128E130E040E050E00E94DE
:100F4000251E6B83C701B60120E831E541E050E082
:100F50000E94251E188263E97EEF8881982F937086
:100F600041E050E011F050E040E0FA01E359FE4F5B
:100F70002E173F0740F0FB01E41BF50B2E0F3F1F20
:100F80008F5F8883EACF81E0898389818C30A0F4E8
:100F9000482F4150550BFA01E952FF4FE49191114E
:100FA00003C0823009F4EF5FF0E02E173F0720F016
:100FB0002E1B3F0B8F5FE8CF2F5F2A83DF91CF91EE
:100FC000FF90EF90DF90CF90BF90AF909F908F9069
:100FD00008952091EB01260F3327331F213231056D
:100FE000ECF420919302FC0190E080E0243069F061
:100FF00082E00895A091EB012191AC0145535E4F31
:10100000A40FB52FB11D2C930196861798F38091EC
:10101000EB01680F6093EB0180E0089581E0089593
:101020001092930281E08093920210926D0261E02F
:1010300082E10E949D0261E083E10E949D02E9EB52
:10104000F0E080818E7F808380818D7F808388E443
:101050008093B80085E48093BC00089510926C02E0
:1010600010926B0210929A021092BC020E94100819
:101070008EEE91E090936A02809369028FEE91E088
:1010800090936802809367020895CF93DF9391E075
:101090009093CA018823B9F0C091B800D091BA00EA
:1010A0008091BC008A7B8093BC0060E082E10E945A
:1010B0009D0260E083E10E949D020E941008D0938F
:1010C000BA00C093B800DF91CF9108958F929F929C
:1010D000AF92BF92CF92DF92EF92FF920F931F9346
:1010E000CF93DF93D091BC02D13208F0D7C0182F34
:1010F000C091BB020E9460046B017C01809193024D
:1011000081116BC082E080939302109392028FEF63
:101110008093910210929002D0938F02ABE9B2E0DB
:10112000EFE6F2E080E0D81391C010926E02809159
:101130006E02CC0FC82BC0936E0280916D0281307D
:1011400009F088C010926D020E9460046B017C015E
:1011500080916E028093BB008091950290919602DF
:10116000A0919702B0919802892B8A2B8B2BA1F02A
:101170000E946004009195021091960220919702BE
:10118000309198026C197D098E099F09061717077F
:101190002807390708F442C08091BC0083FDD8CFEE
:1011A00085EC8093BC000E9460046B017C018091FF
:1011B0009302823009F450C0809191028F3F09F46C
:1011C0006FC080919102803209F46CC080919102CD
:1011D000803309F469C084E026C080919502909123
:1011E0009602A0919702B0919802892B8A2B8B2BA3
:1011F00009F484CF0E94600480909502909096023A
:10120000A0909702B09098026C197D098E099F09F1
:1012100086169706A806B90608F070CF809194024A
:101220000E94450885E010929A021092BC0210922A
:101230009902DF91CF911F910F91FF90EF90DF9076
:10124000CF90BF90AF909F908F9008959D91919374
:101250008F5F69CF85EEA5CF809195029091960220
:10126000A0919702B0919802892B8A2B8B2B09F4BD
:101270009ECF0E94600400919502109196022091E9
:101280009702309198026C197D098E099F09061703
:1012900017072807390708F08ACFC0CF81E0C3CFEE
:1012A00080E0C1CF82E0BFCF83E0BDCFCF93DF939B
:1012B000EC018B818823A1F0888191E090939902C1
:1012C0008093BB0210929A021092BC0281E00E94AD
:1012D000660891E0811190E0892FDF91CF91089508
:1012E0000E942E0881E08B83CE010E945609982F20
:1012F0008111E2CFF1CF0895E0916C0280916B02F1
:10130000E81730F4F0E0E25FFD4F808190E008954F
:101310008FEF9FEF089590916C0280916B022FEFF9
:101320003FEF981748F4E92FF0E0E25FFD4F20818E
:1013300030E09F5F90936C02C901089580916B0229
:1013400090916C02891B990B0895CF92DF92EF92D6
:10135000FF920F931F93CF93DF937C01CB018A0100
:1013600020919902222389F0EB016B01C40ED51E56
:10137000CC15DD0569F06991D701ED91FC910190E3
:10138000F081E02DC7010995F3CF642F0E94E90792
:10139000C801DF91CF911F910F91FF90EF90DF90E7
:1013A000CF900895CF93DF931F92CDB7DEB76983B7
:1013B000209199022223F9F02091BC02203258F0AA
:1013C00021E030E0FC013383228390E080E00F9045
:1013D000DF91CF91089580919A02E82FF0E0E556D1
:1013E000FD4F998190838F5F80939A028093BC0216
:1013F00081E090E0ECCF61E0CE0101960E94E90728
:10140000F7CFFC01248131E0309399022093BB0295
:1014100010929A021092BC028485682B8AE593E0B0
:101420000E94D20981E00C94660890E080E0089563
:101430000F931F93CF938C01C62F0E94010A6C2F2C
:101440006460C8010E94010A6C2F6B7FC8010E9472
:10145000010A83EC90E00197F1F7CF911F910F9172
:1014600008950F931F93CF93DF938C01D62FC42F32
:10147000607F642B0E94180A80E1D89FB00111247C
:101480006C2BC801DF91CF911F910F910C94180A1A
:10149000CF93DF93CDB7DEB728970FB6F894DEBFB2
:1014A0000FBECDBF98E0EFE1F1E0DE0111960190B3
:1014B0000D929A95E1F79091F003961710F46FEF63
:1014C000690F262F30E0220F331F41E050E04C0F10
:1014D0005D1F240F351FF9016081680F606840E0CF
:1014E00088EE93E028960FB6F894DEBF0FBECDBF0E
:1014F000DF91CF910C94310A40E061E088EE93E0F7
:101500000E94310A8BE39FE10197F1F78091F1038B
:10151000882321F060E080E00C94480A08950E943E
:101520007C0A60E080E00E94480A62E970E088EE90
:1015300093E00E94370661E080E00E94480A61E87B
:1015400070E088EE93E00E94370662E080E00E943F
:10155000480A64E770E088EE93E00E94370663E093
:1015600080E00E94480A68E670E088EE93E00C9400
:10157000370641E00E94310A81E090E00895FB01C6
:1015800001900020E9F73197AF01461B570BDC01B2
:10159000ED91FC910280F381E02D0994CF93DF93CC
:1015A000BC018DEB92E00E943706EC0161E671E030
:1015B0008DEB92E00E94BF0A8C0F9D1FDF91CF91AF
:1015C0000895CF93DF93FC0144815581608171813F
:1015D0008DEB92E00E945B06EC0161E671E08DEB21
:1015E00092E00E94BF0A8C0F9D1FDF91CF9108955A
:1015F0008F929F92AF92BF92EF92FF920F931F93A1
:10160000CF93DF93CDB7DEB7A1970FB6F894DEBFC7
:101610000FBECDBF7C01FA01CB0119A2223008F424
:101620002AE08E010F5D1F4F822E912CB12CA12C30
:10163000BF01A50194010E94251EF901CA016A306B
:101640000CF5605DD8016E938D01232B242B252B87
:1016500079F790E080E0109721F0BD01C7010E946A
:10166000BF0AA1960FB6F894DEBF0FBECDBFDF91C3
:10167000CF911F910F91FF90EF90BF90AF909F90EF
:101680008F900895695CDECF462F50E070E060E0F7
:101690002AE00C94F80ACF92DF92EF92FF920F9318
:1016A0001F93CF93DF936B01770FEE08FF08F7FED0
:1016B0001BC0EC016DE20E9430068C0144275527C7
:1016C000BA014C195D096E097F092AE0CE010E941A
:1016D000F80A800F911FDF91CF911F910F91FF901A
:1016E000EF90DF90CF9008952AE0B701A601DF9137
:1016F000CF911F910F91FF90EF90DF90CF900C94BE
:10170000F80A4F925F926F927F928F929F92AF9260
:10171000BF92CF92DF92EF92FF920F931F93CF93DE
:10172000DF93EC016A017B01922EAB019601CB01A4
:10173000B6010E94701F64E671E0811126C0260187
:101740003701E89477F82FEF3FEF4FE75FE7C301EA
:10175000B2010E94701F81110CC02FEF3FEF4FE7C5
:101760005FE7C301B2010E948A1C68E671E01816A7
:1017700064F02FEF3FEF4FE75FE4C701B6010E942F
:101780006B1F1816ACF46CE671E0CE01DF91CF91BF
:101790001F910F91FF90EF90DF90CF90BF90AF908F
:1017A0009F908F907F906F905F904F900C94BF0AA6
:1017B0002FEF3FEF4FE75FECC701B6010E948A1C95
:1017C00087FDE1CF20E030E0A901C701B6010E940A
:1017D0008A1CB12CA12C87FF09C06DE2CE010E94AA
:1017E00030065C01F7FAF094F7F8F094192D60E0F8
:1017F00070E080E09FE300E020E030E040E251E470
:101800000E94C31E21E0200F01E02915A8F3A701C3
:1018100096010E94571E2B013C010E943C1F6B0148
:101820007C010E948F1C9B01AC01C301B2010E948C
:10183000561E2B013C012AE0B701A601CE010E94F1
:10184000F80A7C016EE2CE010E943006E80EF91E15
:10185000EA0CFB1C115020F120E030E040E251E4A2
:10186000C301B2010E94F01C2B013C010E943C1FED
:101870004B01B12CA12C2AE0B501A401CE010E949C
:10188000F80AE80EF91EC501B4010E948F1C9B01E5
:10189000AC01C301B2010E94561E2B013C01DACFFC
:1018A000C701DF91CF911F910F91FF90EF90DF90D3
:1018B000CF90BF90AF909F908F907F906F905F90F0
:1018C0004F900895FC0180819181009711F00C9454
:1018D0004E200895EF92FF920F931F93CF93DF93C3
:1018E000EC017B018A0188819981009729F02A8186
:1018F0003B812417350788F4B8016F5F7F4F0E9442
:10190000D720009791F0998388831B830A832C81C9
:101910003D81232B11F4FC0110821D830C83B70140
:10192000888199810E949D210CC0888199810097AE
:1019300011F00E944E20198218821D821C821B8287
:101940001A82CE01DF91CF911F910F91FF90EF90FE
:10195000089585ED8093BC00809195029091960248
:10196000A0919702B09198020796A11DB11D23E0A6
:10197000B695A795979587952A95D1F72091BC00A4
:1019800024FD03C010929302089540919502509156
:1019900096026091970270919802452B462B472B37
:1019A00069F30097A105B10541F02AE22A95F1F704
:1019B00000C00197A109B109E1CF809194020C9474
:1019C0004508CF93DF93EB010E94AE1D8883CE01C3
:1019D000DF91CF9108950F931F93CF93DF938C01E5
:1019E000EB010E94AE1D8883C80101960E94AE1DC6
:1019F0008983CE01DF91CF911F910F910895CF92EE
:101A0000DF92EF92FF920F931F93CF93DF93EB013F
:101A10007B0124E0E20EF11C8B016C01C61AD70A8F
:101A2000C601800F911F0E94AE1DF80181938F01A6
:101A3000EE15FF05A9F7CE01DF91CF911F910F9110
:101A4000FF90EF90DF90CF900895FF920F931F9338
:101A5000CF93DF93EC01F62E08811981C8010E9413
:101A6000AE1DF81621F06F2DC8010E94B61DCE01E3
:101A7000DF91CF911F910F91FF900895EF92FF9208
:101A80000F931F93CF93DF9300D0CDB7DEB78C01B8
:101A90007B019A838983FB016081CE0101960E94BC
:101AA000250D0F5F1F4F1A830983F7016181CE0156
:101AB00001960E94250DC7010F900F90DF91CF91E5
:101AC0001F910F91FF90EF9008951F920F920FB604
:101AD0000F9211242F933F938F939F93AF93BF93B4
:101AE00080914E0290914F02A0915002B09151020C
:101AF00030914D0223E0230F2D3758F50196A11D9B
:101B0000B11D20934D0280934E0290934F02A093FB
:101B10005002B09351028091520290915302A091D1
:101B20005402B09155020196A11DB11D809352023D
:101B300090935302A0935402B0935502BF91AF917A
:101B40009F918F913F912F910F900FBE0F901F90FB
:101B5000189526E8230F0296A11DB11DD2CF1F9222
:101B60000F920FB60F9211242F933F934F935F93D1
:101B70006F937F938F939F93AF93BF93EF93FF9355
:101B800080915B0290915C02A0915D02B0915E0237
:101B9000892B8A2B8B2BD1F190915602E091570221
:101BA000F091580280818927808380915B02909117
:101BB0005C02A0915D02B0915E02181619061A0629
:101BC0001B069CF480915B0290915C02A0915D02E7
:101BD000B0915E020197A109B10980935B029093D5
:101BE0005C02A0935D02B0935E02FF91EF91BF9102
:101BF000AF919F918F917F916F915F914F913F91A5
:101C00002F910F900FBE0F901F901895809100019B
:101C1000ECE5F3E0E4919FEF90930001E13051F0A7
:101C200030F0E23069F060E00E949D02DECF109259
:101C30006E00F9CF90916F009D7F90936F00F3CF6E
:101C4000909170009D7F9093700091E09093B00010
:101C50009091B100987F94609093B1001092B3007E
:101C6000E2CF1F920F920FB60F9211242F933F9342
:101C70004F935F936F937F938F939F93AF93BF9394
:101C8000EF93FF938DEB92E00E94D906FF91EF91C5
:101C9000BF91AF919F918F917F916F915F914F9184
:101CA0003F912F910F900FBE0F901F9018951F928C
:101CB0000F920FB60F9211242F938F939F93EF9350
:101CC000FF93E091CD02F091CE028081E091D302AA
:101CD000F091D40282FD1BC090818091D6028F5F6B
:101CE0008F732091D702821741F0E091D602F0E085
:101CF000E354FD4F958F8093D602FF91EF919F9112
:101D00008F912F910F900FBE0F901F90189580818B
:101D1000F4CF1F920F920FB60F9211242F933F937F
:101D20004F935F936F937F938F939F93AF93BF93E3
:101D3000EF93FF938091B900887F803609F44AC001
:101D4000F0F5883209F4A7C018F5803109F49BC07A
:101D5000B8F4882309F4F9C0883009F494C0FF91DD
:101D6000EF91BF91AF919F918F917F916F915F9113
:101D70004F913F912F910F900FBE0F901F9018958C
:101D8000883109F488C0803251F78093910214C0E1
:101D9000803409F49DC040F48033B9F38833F9F6F8
:101DA0008093910285ECB0C0803509F485C08835F8
:101DB00009F496C0883499F60E94A90CD0CF8839CE
:101DC00009F48CC038F5883729F050F4883611F0C2
:101DD000803729F683E08093930210920D0257C05A
:101DE000883809F47BC0803919F0803809F0B7CF02
:101DF00080910D02803208F071C0E0910D0281E007
:101E00008E0F80930D028091BB00F0E0E351FE4FF6
:101E100080833DC0803B39F0E0F4803A09F479C01A
:101E2000883A09F09CCF84E0809393021092EC01F1
:101E30001092EB01E0916902F0916A02099580919C
:101E4000EB0181110FC081E08093EB011092CB0177
:101E500009C0803C09F4A6CF883C09F4A3CF883B95
:101E600009F07DCFE091EC0181E08E0F8093EC01D1
:101E7000F0E0E553FE4F80818093BB009091EC0130
:101E80008091EB0129C080916E028093BB0085ECAC
:101E90008093BC0064CF9091900280918F0298173C
:101EA00058F5E091900281E08E0F80939002F0E06F
:101EB000E159FD4F8081E9CFE091900281E08E0FE2
:101EC000809390028091BB00F0E0E159FD4F808348
:101ED0009091900280918F029817C8F285E8D8CF30
:101EE000E091900281E08E0F809390028091BB0080
:101EF000F0E0E159FD4F80838091920281115CCF27
:101F000081E080936D0284EA8093BC00109293027A
:101F100026CF85EC8093BC001092930280910D0235
:101F2000803230F4E0910D02F0E0E351FE4F108278
:101F300060910D0270E0E0916702F09168028DEE11
:101F400091E0099510920D020ACF1092910234CFC0
:101F50001092C0021092BF0288EE93E0A0E0B0E0C1
:101F60008093C1029093C202A093C302B093C402B3
:101F70002BE231E03093BE022093BD0225EC30E02D
:101F80003093CA022093C90224EC30E03093CC0293
:101F90002093CB0220EC30E03093CE022093CD0290
:101FA00021EC30E03093D0022093CF0222EC30E0DD
:101FB0003093D2022093D10226EC30E03093D40249
:101FC0002093D3021092D6021092D7021092D80218
:101FD0001092D90210925D0310925C0380935E030D
:101FE00090935F03A0936003B09361038DE391E04E
:101FF00090935B0380935A031092EB031092EA03D1
:1020000089E591E09093E9038093E8031092F1034E
:1020100087E28093EC0384E18093F20384E0809371
:10202000F3031092F40382E08093DA0386E1809355
:10203000DB03E3E7F3E0E491E093DC03EFE5F3E0B7
:10204000E491E093DD0380E89EE3A0E0B0E08093BC
:10205000E2039093E303A093E403B093E5031092AB
:10206000680310926C0310926B0310926D038FE45F
:1020700091E09093670380936603E2E8F3E01082B7
:10208000148213821582369683E0EE3BF807B9F787
:1020900085E091E09093C9038093C80381E091E0CB
:1020A0009093CB038093CA0384E08093CC03809306
:1020B000CD0389E091E09093C7038093C6038AE043
:1020C00090E09093CF038093CE0384EF91E09093C0
:1020D000D1038093D0031092D4031092D3031092B3
:1020E000C2031092C3031092C4031092C50310924E
:1020F000D2030895CF93DF93CDB7DEB7ED970FB638
:10210000F894DEBF0FBECDBF789484B5826084BDE5
:1021100084B5816084BD85B5826085BD85B58160EB
:1021200085BD80916E00816080936E001092810069
:102130008091810082608093810080918100816024
:1021400080938100809180008160809380008091E5
:10215000B10084608093B1008091B0008160809371
:10216000B00080917A00846080937A0080917A0038
:10217000826080937A0080917A00816080937A00F7
:1021800080917A00806880937A001092C100E0917B
:10219000CD02F091CE0282E08083E091C902F091FD
:1021A000CA021082E091CB02F091CC028FEC8083C6
:1021B0001092D502E091D102F091D20286E08083A4
:1021C000E091CF02F091D002808180618083E09124
:1021D000CF02F091D002808188608083E091CF02AD
:1021E000F091D002808180688083E091CF02F091ED
:1021F000D00280818F7D80830E942E0880914B02C7
:1022000090914C02009711F00E944E2086E090E0E1
:102210000E94B21F8C0188E6D8018C938AE593E076
:1022200012969C938E93119713961C92139780E2AB
:1022300090E015969C938E93149710934C02009304
:102240004B020E942E0881E0F8018383C8010E949E
:10225000560962E08091DA030E94CB020E94B70423
:10226000605D7740810991096093DE037093DF031D
:102270008093E0039093E10387E38093E7030E9458
:102280002E081092ED038091F303823018F098E04D
:102290009093ED038093F00362E370E080E090E0C0
:1022A0000E9485046091F40388EE93E00E94010A85
:1022B00068EE73E080E090E00E94850460E388EEC1
:1022C00093E00E94180A0BE416E4C8010197F1F7A5
:1022D00060E388EE93E00E94180AC8010197F1F7C5
:1022E00060E388EE93E00E94180A83E592E001978C
:1022F000F1F760E288EE93E00E94180A6091ED0326
:10230000606240E088EE93E00E94310A84E08093AE
:10231000EE0340E06CE088EE93E00E94310A0E94F8
:102320007C0A82E08093EF0340E066E088EE93E071
:102330000E94310A40E062E088EE93E00E94310A98
:102340008BE39FE10197F1F788E08093F40360E06D
:1023500088EE93E00E94010A0E947C0A66EC70E01D
:1023600088EE93E00E94370660E273E080E090E040
:102370000E94850461E083E00E94CB0261E084E07A
:102380000E94CB0261E085E00E94CB0261E08FE019
:102390000E94CB0260E08FE00E949D0216E062E0A6
:1023A000812F0E94CB021F5F1E30C9F70E948F0A47
:1023B00087EA90E00E94CE0A9E012F5F3F4F1901ED
:1023C0001982A0904B02B0904C02D50114968D91C9
:1023D0009C911597892B09F422C111968D919C919E
:1023E00012972C9131E0309399022093BB02109206
:1023F0009A021092BC02DC01ED91FC910280F38103
:10240000E02D41E050E0B1010995019709F007C1C5
:1024100080E00E946608811102C1D12CC12C552494
:102420005A9435EE432EF5018481958127E0E22E02
:10243000F12CEC18FD088E159F0508F47C01D501E0
:102440000C910E9460043B014C0180919302811128
:1024500073C01E2D113208F010E2B1E0B093930268
:1024600021E087E090E08E199F09C816D90608F48C
:1024700020E02093920250929102109290028FEFEE
:10248000810F80938F02E1E0E0936E0280916E02F3
:10249000000F082B00936E0280916D02813009F0CD
:1024A00092C010926D020E9460043B014C01809129
:1024B0006E028093BB008091950290919602A0914C
:1024C0009702B0919802892B8A2B8B2BA1F00E9446
:1024D00060042091950230919602409197025091AC
:1024E0009802661977098809990926173707480756
:1024F000590708F442C08091BC0083FDD8CFF5ECA9
:10250000F093BC000E9460043B014C018091930257
:10251000813009F45BC080919002811710F4109112
:102520009002AFE6B2E0EEE0F2E080E0811751F118
:102530009D9191938F5FFACF809195029091960231
:10254000A0919702B0919802892B8A2B8B2B09F4CA
:102550007CCF0E94600420919502309196024091B8
:1025600097025091980266197709880999092617E8
:1025700037074807590708F068CF809194020E94F6
:10258000450810E010926C0210936B021E151F0498
:1025900009F045C081010C0D1D1D4801C8018819B5
:1025A00099098E159F05A0F5D50111968D919C91E5
:1025B000DC01ED91FC910284F385E02D0995F80191
:1025C00081938F01EBCF4092BC009CCF809195020C
:1025D00090919602A0919702B0919802892B8A2B34
:1025E0008B2B09F493CF0E946004209195023091C7
:1025F00096024091970250919802661977098809CE
:102600009909261737074807590708F07FCFB5CF34
:10261000CE0CDF1CF7E0CF16D10408F404CF4981BB
:102620001A810B813D812E81822F90E0B4E0959537
:102630008795BA95E1F7982F990F990F882E891AE7
:10264000982D990F920F5F81E32FF0E084E0F595CC
:10265000E7958A95E1F78E2F880F880F2E2F281B7C
:10266000220F230F30E0E7EDF0E081E0891730F42E
:102670006491260F311D8F5F3196F8CF652F70E082
:10268000A4E075956795AA95E1F7862F880F880FC6
:10269000962E981A892D880F850F933028F0982F41
:1026A000937011F42F5F3F4FE42FEF7790E06DE6CA
:1026B00071E0869FA001879F500D969F500D1124B9
:1026C0004150510903969695879596958795480FA1
:1026D000591F240F351FA8E1B0E00E94471E202F8C
:1026E00030E0A90124E0559547952A95E1F7242F7C
:1026F000220F220FA42EA21A2A2D220F020F9B01B5
:10270000AC01200F311D411D511DACE3B0E00E9412
:10271000E31D212F30E0A90134E0559547953A9506
:10272000E1F7242F220F220FB42EB21A2B2D220FE5
:10273000120F9B01AC01210F311D411D511D0E9443
:10274000E31D4E2F50E0F4E055954795FA95E1F7DB
:10275000242F220F220F421B440FE40F0E2F10E0F4
:1027600030E020E0005B164E2249374CAB01BC0143
:10277000400F511F621F731F48AB59AB6AAB7BAB55
:10278000CE0186960E9469070E941F05882349F0A2
:102790008091DB038B3028F08D3050F085518230F2
:1027A000C0F1412C512CA0EC6A2EAFE77A2E1EC04E
:1027B0006091D60370E090E080E00E94911C2DECC7
:1027C0003CEC4CEC5DE30E94F01C6B017C016091E1
:1027D000D50370E090E080E00E94911C9B01AC0169
:1027E000C701B6010E94571E2B013C010E941F0524
:1027F000882341F08091DB038C3009F42AC1D8F49E
:102800008B3091F1C12CD12CE0ECEE2EEFE7FE2EB7
:1028100055C06091D5037091D60376276727762738
:1028200090E080E00E948F1C2DEC3CEC4CEC5DE3D2
:102830000E94F01CD9CF8551823020F71091D70328
:10284000612F70E0762F662766277F778091D80307
:10285000682B90E080E00E948F1C2DEC3CEC4CEC4F
:102860005DE30E94F01C11C16091D70370E090E01D
:1028700080E00E948F1C6B017C011091D80317FF30
:102880000AC0AC019B0160E070E080E89FEB0E9411
:10289000561E6B017C011F70612F70E090E080E09C
:1028A0000E94911C2DEC3CEC4CEC5DE30E94F01C72
:1028B000A70196010E94571E6B017C0180E4809362
:1028C0007C0080917A00806480937A0080917A0005
:1028D00086FDFCCF2091780030917900ACE9BFEF04
:1028E0000E94891F2FEF33E040E050E00E94C41D9A
:1028F0002C593F4F4F4F5F4F2536310514F024E6DA
:1029000030E037FF02C030E020E03FAB2EABA090BC
:102910004902B0904A02A20EB31EB0924A02A0929F
:10292000490220E030E040E251E4C701B6010E94D4
:10293000F01C0E94351F0091470210914802060FBB
:10294000171F109348020093470220E030E040E256
:1029500051E4C301B2010E94F01C0E94351FE091B6
:102960004502F0914602E60FF71FF0934602E0930E
:10297000450220914302309144022F5F3F4F309334
:102980004402209343022A3031059CF1C801B90169
:102990000E94751F4AE0469FC001479F900D112479
:1029A0009093420280934102CF01B9010E94751FAA
:1029B000469FC001479F900D112490934002809341
:1029C0003F02C501B9010E94751F70933E026093DA
:1029D0003D0210924402109243021092480210925B
:1029E0004702109246021092450210924A0210923B
:1029F000490281E08093D2030E94B7040091C20390
:102A00001091C3032091C4033091C503AB01BC01F5
:102A1000401B510B620B730B8091CE039091CF033F
:102A2000B0E0A0E084179507A607B70708F00CC22E
:102A300010E08091CC03181788F5E091C803F0915D
:102A4000C903E10FF11D62E080810E94CB021F5F8C
:102A5000F0CF1091D703612F70E090E080E00E94EA
:102A60008F1C6B017C016091D8036F7070E090E067
:102A700080E00E94911C2DEC3CEC4CEC5DE30E944C
:102A8000F01CA70196010E94571E6B017C0117FFE5
:102A900015CFF7FAF094F7F8F09410CF912C8091BD
:102AA000CD03981608F06AC0A92CB12CE091CA0396
:102AB000F091CB03EA0DFB1D61E080810E94CB0207
:102AC000E091CA03F091CB03EA0DFB1D60E0808129
:102AD0000E949D0281E090E0A0E0B0E0092C04C0DB
:102AE000880F991FAA1FBB1F0A94D2F79BAF8AAF0A
:102AF0009C01209530953DAF2CAF812C8091CC036B
:102B0000881628F5082D10E0E091C803F091C9035C
:102B1000E00FF11F80810E9474020C5F1F4F000FB5
:102B2000111FF801EA59FC4F892B51F480819181E2
:102B30004AAD5BAD842B952B918380838394DECF4C
:102B400080819181ACADBDAD8A239B23F5CFE0910F
:102B5000CA03F091CB03EA0DFB1D61E080810E9466
:102B60009D028091CA039091CB03A80EB91E60E02C
:102B7000F50180810E94CB02939491CF66E6A62E48
:102B800063E0B62E82EA93E085012FEF3FEFD80194
:102B90005F964D915C919097452B49F45C961C9201
:102BA0005C975E963C932E935D9791961C920A5F7C
:102BB0001F4F8017910759F7912C8091CC039816DD
:102BC00008F055C0812C892D90E0880F991FFC01D9
:102BD000E259FC4FFBAFEAAF2091CD03821608F01B
:102BE00044C0AAADBBAD6D917C91082C02C0769516
:102BF00067950A94E2F7929E90011124280D311DE9
:102C0000E6E6F3E080E0458D568D2417350709F49C
:102C10007FC68F5F36968A30B1F760FF24C0E6E644
:102C2000F3E090E080E0448D411118C0E091C603CC
:102C3000F091C703E20FF31F4081B6E0B89FF001A7
:102C4000B99FF00D1124EA59FC4F448F368F258F20
:102C500010A2178E61E00E94C30405C0019636964B
:102C60008A30910501F78394B7CF9394A6CF912C26
:102C7000F50181A18111982EF6E0AF0EB11C0A1565
:102C80001B05B1F70E94B7046093C2037093C3039E
:102C90008093C4039093C503992009F4D5C0809113
:102CA0008703882309F4D0C000918503109186031F
:102CB0000130110509F0C8C0B0908203B110C7C03F
:102CC000B12C80913B0290913C02029709F01AC30B
:102CD00024E3B212D5C20E947C0A84E090E0909373
:102CE0003C0280933B0260E080E00E94480A62E878
:102CF00071E088EE93E00E94BF0A10E000E0BE01A0
:102D0000645D7F4FC8010E94FF0CBE016C5C7F4F69
:102D1000C80104960E94EB0CBE01675C7F4FC8019E
:102D200006960E94E10CBE01685C7F4FC8010796C1
:102D30000E94E10C4CA55DA56EA57FA5DB01CA0133
:102D40000197A109B1098E3F9F4FAF4FBF4F08F0C8
:102D500073C0CE0180960E9469078DA11F928F9348
:102D60008CA11F928F938BA11F928F938AA11F9288
:102D70008F9389A11F928F9388A190E08053984FE1
:102D80009F938F934EE851E05F934F933F922F9222
:102D90000E94A4211B8E1A8E1D8E1C8E1F8E1E8ECD
:102DA000F10101900020E9F73197AF014219530971
:102DB000B101CE014A960E946A0C4E8D5F8D6A8DDC
:102DC0007B8D8DEB92E00E945B06CE014A960E94BD
:102DD000620C6EEA71E08DEB92E00E94BF0A6CA972
:102DE0007DA98DEB92E00E944B0B6AEA71E08DEBBE
:102DF00092E00E94BF0A69AD8DEB92E00E94440B05
:102E00006DEA71E08DEB92E00E94BF0A68AD8DEB38
:102E100092E00E94440B60EB71E08DEB92E00E9427
:102E2000BF0A61E671E08DEB92E00E94BF0A0FB627
:102E3000F894DEBF0FBECDBF085F1F4F0032B3E076
:102E40001B0709F05CCF25C01092D20339CF61E097
:102E50008FE00E949D0260E570E080E090E00E94BB
:102E6000850460E08FE00E949D0241E3842EB8104B
:102E7000C3C110933C0200933B020E947C0A60E0B5
:102E800080E00E94480A6CE173E088EE93E00E94C3
:102E900037060E94B70420913B0230913C0221305A
:102EA000310509F0EBC200913702109138022091F0
:102EB000390230913A024B015C01801A910AA20A50
:102EC000B30A95018401083E13402105310508F439
:102ED00086C16093370270933802809339029093D1
:102EE0003A0261E080E00E94480A62ED72E088EEFA
:102EF00093E00E9437066091410270914202072ED2
:102F0000000C880B990B0E94911C20E030E048ECEB
:102F100052E40E94C31EAB01BC0121E030E088EE08
:102F200093E00E94810B60ED72E088EE93E00E94D6
:102F3000370663E080E00E94480A6DEC72E088EE9C
:102F400093E00E94370660913F0270914002072E85
:102F5000000C880B990B0E94911C20E030E048EC9B
:102F600052E40E94C31EAB01BC0121E030E088EEB8
:102F700093E00E94810B6AEC72E088EE93E00E947D
:102F8000370662E080E00E94480A67EC72E088EE53
:102F900093E00E94370660913D0270913E0288EEF8
:102FA00093E00E944B0B6CEB72E088EE93E00E9482
:102FB000370663E08CE00E94480A63EB72E088EE1B
:102FC00093E00E94370611E020E030E040EF51E44A
:102FD000C701B6010E946B1F87FD10E010933602F7
:102FE00011E020E030E0A901C701B6010E948A1C6F
:102FF00018160CF410E01093350211E020E030E0D8
:1030000044EB52E4C301B2010E946B1F87FD10E044
:103010001093340211E020E030E040EA51E4C301B3
:10302000B2010E948A1C18160CF410E010933302AF
:103030000EA91FA981E00A3511050CF480E08093E8
:10304000320220E030E040EF51E4C701B6010E94B7
:103050006B1F87FF21C020E030E0A901C701B60146
:103060000E948A1C1816C4F420E030E044EB52E4BD
:10307000C301B2010E946B1F87FF0EC020E030E049
:1030800040EA51E4C301B2010E948A1C181624F4DC
:103090000A3511050CF44FC168EA72E08DEB92E03D
:1030A0000E94370680913302882331F062E972E092
:1030B0008DEB92E00E94370680913402882331F034
:1030C0006DE772E08DEB92E00E943706809132024C
:1030D000882331F064E672E08DEB92E00E943706BF
:1030E00080913602882331F061E572E08DEB92E049
:1030F0000E94370680913502882331F067E372E041
:103100008DEB92E00E94370661E671E08DEB92E074
:103110000E94BF0A00913002109131025E0154E317
:10312000A50EB11CCE01C0964C01081B190BC8019D
:10313000880D991D9A838983D4016D914D01C10138
:103140000E94250DA814B90491F7C701B6010E9489
:10315000351F7A8369838091300290913102B101E9
:1031600004960E943E0D80913002909131020696A5
:103170009A838983C301B2010E943C1FC1010E944E
:10318000250D8091300290913102BE016A5C7F4F23
:1031900007960E943E0D8091300290913102089670
:1031A0008032B3E09B070CF0B8C09093310280935B
:1031B000300261E085E00E949D024CE251E060E057
:1031C00070E080EA9FE00E94070364E670E080E020
:1031D00090E00E94850460E085E00E949D0280E00E
:1031E00090E0892B09F4ECC80E94C506882309F4F5
:1031F000E7C80E940000E0C832E3932EB91023C054
:1032000082E090E090933C0280933B020E947C0A13
:1032100060E080E00E94480A69EF72E088EE93E087
:103220000E94370661E080E00E94480A60E771E092
:1032300088EE93E00E94BF0A63E080E00E94480AA3
:103240006EEE72E022CE23E3A22EBA103ACD83E0D6
:1032500090E090933C0280933B020E947C0A60E0E5
:1032600080E00E94480A60EE72E088EE93E00E94DF
:10327000370663E080E00E94480A65ED72E005CE03
:10328000E3E2BE123FC00E947C0A61E080E00E943F
:10329000480A66EF70E088EE93E00E94370663E02C
:1032A0008CE00E94480A6DEE70E088EE93E00E9488
:1032B000370610E000E01A8309836FEFC1010E9416
:1032C000250D0F5F1F4F0032F3E01F07A1F710928B
:1032D00031021092300262E080E00E94480A62EE01
:1032E00070E088EE93E00E94370668EE73E080E0BD
:1032F00090E00E9485040E948F0A10923C02109276
:103300003B02C7CD95E3892EB810C3CD10923C0285
:1033100010923B020E948F0ABCCD10923102109293
:10332000300280912E0290912F02089690932F02E6
:1033300080932E023ECF20E030E040E752E4C3010C
:10334000B2010E948A1C87FD21C020E030E040EAE3
:1033500052E4C301B2010E946B1F1816BCF00D337A
:103360001105A4F420E030E040EA51E4C701B601C1
:103370000E946B1F181654F020E030E040E251E448
:10338000C701B6010E948A1C87FF6BC06DE272E024
:103390008DEB92E00E94370620E030E040E752E4F7
:1033A000C301B2010E948A1C87FF06C064E172E07B
:1033B0008DEB92E00E94370620E030E040EA52E4D4
:1033C000C301B2010E946B1F181634F46CEF71E058
:1033D0008DEB92E00E9437068EA99FA9CD9734F01D
:1033E00067EE71E08DEB92E00E94370620E030E05E
:1033F00040EA51E4C701B6010E946B1F181634F46D
:1034000060ED71E08DEB92E00E94370620E030E045
:1034100040E251E4C701B6010E948A1C87FF06C042
:1034200068EB71E08DEB92E00E94370661E671E097
:103430008DEB92E00E94BF0A61E084E00E949D0251
:1034400048EC50E060E070E080ED97E00E940703F8
:1034500064E670E080E090E00E94850460E084E033
:10346000BCCE61E083E00E949D0264E670E080E0F3
:1034700090E00E94850460E083E0AFCE2230310509
:1034800009F0B6C0E1E4BE12AACE81EA91E00E9442
:10349000CE0A6AE971E08DEB92E00E94370688A5BA
:1034A0001F928F938FA11F928F938EA190E08053D4
:1034B000984F9F938F9382EB91E09F938F933F92CE
:1034C0002F920E94A4211B8E1A8E1D8E1C8E1F8E81
:1034D0001E8EF10101900020E9F73197AF014219EA
:1034E0005309B101CE014A960E946A0CCE014A9658
:1034F0000E94E10ACE014A960E94620C63E971E0E3
:103500008DEB92E00E9437068BA51F928F938AA5C0
:103510001F928F9389A51F928F938BE991E09F93C0
:103520008F933F922F920E94A4211B8E1A8E1D8E84
:103530001C8E1F8E1E8EF10101900020E9F731973D
:10354000AF0142195309B101CE014A960E946A0C9B
:10355000CE014A960E94E10ACE014A960E94620C70
:103560006FE871E08DEB92E00E94370622E030E0D8
:10357000B701A6018DEB92E00E94810B8DE891E0EE
:103580000E94CE0A69E871E08DEB92E00E94370656
:1035900022E030E0B301A2018DEB92E00E94810BAA
:1035A00087E891E00E94CE0A63E871E08DEB92E03B
:1035B0000E9437066EA97FA98DEB92E00E944B0B0B
:1035C00081E891E00E94CE0A89E691E00E94CE0A4D
:1035D00062E080E00E94480A67E571E088EE93E0CF
:1035E0000E9437060FB6F894DEBF0FBECDBFF7CDF1
:1035F0002430310509F0F5C00E947C0A60E080E0CB
:103600000E94480A65E471E088EE93E00E94370664
:1036100060E273E080E090E00E948504EE24E39491
:10362000F12C10E000E0BE01665E7F4FC8010E94F1
:10363000FF0CBE01605E7F4FC80104960E94EB0C38
:10364000BE016C5C7F4FC80106960E94E10CBE0172
:10365000645D7F4FC80107960E94E10C4A8D5B8D27
:103660006C8D7D8DDB01CA010197A109B1098E3FE7
:103670009F4FAF4FBF4F08F094C0C1010E94690730
:103680000E947C0A60E080E00E94480A6B8188EE1C
:1036900093E00E94440B6FE288EE93E00E943006B4
:1036A0006A8188EE93E00E94440B60E288EE93E02A
:1036B0000E9430068C818A3028F460E388EE93E023
:1036C0000E9430066C8188EE93E00E94440B6AE30E
:1036D00088EE93E00E9430068D818A3028F460E302
:1036E00088EE93E00E9430066D8188EE93E00E94A0
:1036F000440B61E080E00E94480A6FEB71E088EEC5
:1037000093E00E94BF0A61E08BE00E94480AB70183
:1037100088EE93E00E944B0B62E080E00E94480A32
:1037200062E471E088EE93E00E94370668A179A117
:1037300088EE93E00E944B0B6CE371E088EE93E01F
:103740000E9437066CA988EE93E00E94440B6AE35E
:1037500071E088EE93E00E94370666E371E088EE40
:1037600093E00E9437066CA588EE93E00E94440B1C
:1037700064E371E088EE93E00E94370663E080E046
:103780000E94480A69E271E088EE93E00E943706E1
:103790004FEFE41AF40A60ED77E080E090E00E94D9
:1037A0008504085F1F4F003253E0150709F03BCF37
:1037B0000E947C0A61E080E00E94480A67E171E0B3
:1037C00088EE93E00E94370668EE73E080E090E0B8
:1037D0000E9485040E948F0A10923C0210923B02C4
:1037E000FECC2330310509F0FACC0091370210915C
:1037F00038022091390230913A024B015C01801A63
:10380000910AA20AB30A95018401083E13402105DA
:10381000310508F4E4CC609337027093380280934A
:10382000390290933A0261E080E00E94480A60E128
:1038300071E088EE93E00E94370688A58A3028F46C
:1038400060E388EE93E00E94300668A588EE93E07E
:103850000E94440B6FE288EE93E00E9430068FA135
:103860008A3028F460E388EE93E00E9430066FA16E
:1038700088EE93E00E94440B6FE288EE93E00E9492
:1038800030064EA150E04053584F70E060E02AE00F
:1038900088EE93E00E94F80A62E080E00E94480A05
:1038A00069E071E088EE93E00E94370689A58A30CE
:1038B00028F460E388EE93E00E94300669A588EE64
:1038C00093E00E94440B6AE388EE93E00E94300686
:1038D0008AA58A3028F460E388EE93E00E943006DF
:1038E0006AA588EE93E00E94440B6AE388EE93E0B9
:1038F0000E9430068BA58A3028F460E388EE93E0BE
:103900000E9430066BA588EE93E00E94440B67CCC2
:103910006170A1C90E94CC1C08F481E00895E8946C
:1039200009C097FB3EF490958095709561957F4F07
:103930008F4F9F4F9923A9F0F92F96E9BB279395B5
:10394000F695879577956795B795F111F8CFFAF4C5
:10395000BB0F11F460FF1BC06F5F7F4F8F4F9F4FF6
:1039600016C0882311F096E911C0772321F09EE854
:10397000872F762F05C0662371F096E8862F70E0BA
:1039800060E02AF09A95660F771F881FDAF7880F94
:103990009695879597F90895990F0008550FAA0BEA
:1039A000E0E8FEEF16161706E807F907C0F0121652
:1039B0001306E407F50798F0621B730B840B950B55
:1039C00039F40A2661F0232B242B252B21F40895AA
:1039D0000A2609F4A140A6958FEF811D811D089547
:1039E0000E94031D0C94741D0E94661D38F00E94F5
:1039F0006D1D20F0952311F00C945D1D0C94631D3A
:103A000011240C94A81D0E94851D70F3959FC1F38D
:103A1000950F50E0551F629FF001729FBB27F00D7C
:103A2000B11D639FAA27F00DB11DAA1F649F6627D1
:103A3000B00DA11D661F829F2227B00DA11D621F20
:103A4000739FB00DA11D621F839FA00D611D221FDA
:103A5000749F3327A00D611D231F849F600D211DBE
:103A6000822F762F6A2F11249F5750409AF0F1F041
:103A700088234AF0EE0FFF1FBB1F661F771F881FAA
:103A800091505040A9F79E3F510580F00C945D1D68
:103A90000C94A81D5F3FE4F3983ED4F38695779588
:103AA0006795B795F795E7959F5FC1F7FE2B880F50
:103AB000911D9695879597F9089597F99F6780E8E6
:103AC00070E060E008959FEF80EC089500240A9470
:103AD0001616170618060906089500240A941216E9
:103AE0001306140605060895092E0394000C11F41C
:103AF000882352F0BB0F40F4BF2B11F460FF04C0C9
:103B00006F5F7F4F8F4F9F4F089557FD9058440F21
:103B1000551F59F05F3F71F04795880F97FB991F2C
:103B200061F09F3F79F087950895121613061406E9
:103B3000551FF2CF4695F1DF08C016161706180676
:103B4000991FF1CF86957105610508940895E89451
:103B5000BB2766277727CB0197F90895F999FECF00
:103B600092BD81BDF89A992780B50895262FF999BD
:103B7000FECF1FBA92BD81BD20BD0FB6F894FA9A50
:103B8000F99A0FBE01960895052E97FB1EF4009436
:103B90000E94DB1D57FD07D00E94251E07FC03D0A5
:103BA0004EF40C94DB1D50954095309521953F4F78
:103BB0004F4F5F4F089590958095709561957F4F19
:103BC0008F4F9F4F08950E94471EA59F900DB49F51
:103BD000900DA49F800D911D112408952F923F9266
:103BE0004F925F926F927F928F929F92AF92BF920D
:103BF000CF92DF92EF92FF920F931F93CF93DF93B9
:103C0000CDB7DEB7CA1BDB0B0FB6F894DEBF0FBE15
:103C1000CDBF09942A88398848885F846E847D8462
:103C20008C849B84AA84B984C884DF80EE80FD8064
:103C30000C811B81AA81B981CE0FD11D0FB6F894DA
:103C4000DEBF0FBECDBFED010895A1E21A2EAA1B63
:103C5000BB1BFD010DC0AA1FBB1FEE1FFF1FA2173C
:103C6000B307E407F50720F0A21BB30BE40BF50B39
:103C7000661F771F881F991F1A9469F760957095C2
:103C8000809590959B01AC01BD01CF010895A29F45
:103C9000B001B39FC001A39F700D811D1124911D20
:103CA000B29F700D811D1124911D08955058BB279E
:103CB000AA270E946E1E0C94741D0E94661D38F087
:103CC0000E946D1D20F039F49F3F19F426F40C94E6
:103CD000631D0EF4E095E7FB0C945D1DE92F0E9437
:103CE000851D58F3BA17620773078407950720F0FC
:103CF00079F4A6F50C94A71D0EF4E0950B2EBA2FBF
:103D0000A02D0B01B90190010C01CA01A0011124E1
:103D1000FF27591B99F0593F50F4503E68F11A168D
:103D2000F040A22F232F342F4427585FF3CF46951E
:103D300037952795A795F0405395C9F77EF41F1640
:103D4000BA0B620B730B840BBAF09150A1F0FF0F0A
:103D5000BB1F661F771F881FC2F70EC0BA0F621FF6
:103D6000731F841F48F4879577956795B795F795E6
:103D70009E3F08F0B0CF9395880F08F09927EE0F7B
:103D80009795879508950E94D71E0C94741D0E94E4
:103D90006D1D58F00E94661D40F029F45F3F29F028
:103DA0000C945D1D51110C94A81D0C94631D0E9470
:103DB000851D68F39923B1F3552391F3951B550B9A
:103DC000BB27AA2762177307840738F09F5F5F4FEE
:103DD000220F331F441FAA1FA9F335D00E2E3AF02D
:103DE000E0E832D091505040E695001CCAF72BD045
:103DF000FE2F29D0660F771F881FBB1F2617370796
:103E00004807AB07B0E809F0BB0B802DBF01FF27C7
:103E100093585F4F3AF09E3F510578F00C945D1D2A
:103E20000C94A81D5F3FE4F3983ED4F386957795F4
:103E30006795B795F7959F5FC9F7880F911D969580
:103E4000879597F90895E1E0660F771F881FBB1FDC
:103E5000621773078407BA0720F0621B730B840B89
:103E6000BA0BEE1F88F7E09508950E943C1F6894F6
:103E7000B1110C94A81D08950E948D1D88F09F57C4
:103E800098F0B92F9927B751B0F0E1F0660F771F7E
:103E9000881F991F1AF0BA95C9F714C0B13091F074
:103EA0000E94A71DB1E008950C94A71D672F782FDD
:103EB0008827B85F39F0B93FCCF386957795679539
:103EC000B395D9F73EF490958095709561957F4FA5
:103ED0008F4F9F4F08950E94CC1C08F48FEF0895D8
:103EE0000E94CC1C880B990B089597FB072E16F4A3
:103EF000009407D077FD09D00E94981F07FC05D0D9
:103F00003EF4909581959F4F0895709561957F4FF0
:103F100008950E94471E332312F48A1B9B0B0C94B6
:103F2000931F0E94471EB7FF0895821B930B0895AD
:103F3000AA1BBB1B51E107C0AA1FBB1FA617B707CF
:103F400010F0A61BB70B881F991F5A95A9F78095EB
:103F50009095BC01CD010895EE0FFF1F0590F491DF
:103F6000E02D09940F931F93CF93DF938230910537
:103F700010F482E090E0E091F703F091F80330E074
:103F800020E0B0E0A0E0309799F42115310509F464
:103F90004AC0281B390B24303105D8F58A819B8112
:103FA0006115710589F1FB0193838283FE0111C0C4
:103FB000408151810281138148175907E0F0481769
:103FC000590799F4109761F012960C931297139673
:103FD0001C933296CF01DF91CF911F910F910895DD
:103FE0000093F7031093F803F4CF2115310551F036
:103FF0004217530738F0A901DB019A01BD01DF0127
:10400000F801C1CFEF01F9CF9093F8038093F70344
:10401000CDCFFE01E20FF31F81939193225031091E
:1040200039832883D7CF2091F5033091F603232BD2
:1040300041F420911B0130911C013093F603209331
:10404000F5032091190130911A012115310541F430
:104050002DB73EB740911D0150911E01241B350B19
:10406000E091F503F091F603E217F307A0F42E1B9D
:104070003F0B2817390778F0AC014E5F5F4F2417CC
:10408000350748F04E0F5F1F5093F6034093F5033A
:10409000819391939FCFF0E0E0E09CCFCF93DF93AB
:1040A0000097E9F0FC01329713821282A091F70386
:1040B000B091F803ED0130E020E01097A1F42081E9
:1040C0003181820F931F2091F5033091F603281759
:1040D000390709F061C0F093F603E093F503DF912F
:1040E000CF910895EA01CE17DF07E8F54A815B8199
:1040F0009E0141155105B1F7E901FB83EA8349911E
:104100005991C40FD51FEC17FD0761F4808191818F
:104110000296840F951FE901998388838281938198
:104120009B838A83F0E0E0E012968D919C91139737
:104130000097B9F52D913C911197CD010296820F10
:10414000931F2091F5033091F6032817390739F6AC
:10415000309751F51092F8031092F703B093F603DD
:10416000A093F503BCCFD383C28340815181840FD8
:10417000951FC817D90761F44E5F5F4F88819981F9
:10418000480F591F518340838A819B819383828387
:104190002115310509F0B0CFF093F803E093F70350
:1041A0009ECFFD01DC01C0CF13821282D7CFB0E0D9
:1041B000A0E0EDEDF0E20C94F01D8C01009751F4BD
:1041C000CB010E94B21F8C01C801CDB7DEB7E0E180
:1041D0000C940C1EFC01E60FF71F9C0122503109C4
:1041E000E217F30708F49DC0D901CD91DC91119736
:1041F000C617D70798F0C530D10530F3CE01049724
:104200008617970708F3C61BD70B2297C193D19344
:104210006D937C93CF010E944E20D6CF5B01AC1AE8
:10422000BD0A4C018C0E9D1EA091F703B091F803BE
:10423000512C412CF12CE12C109731F58091F50394
:104240009091F6038815990509F05CC0461657064B
:1042500008F058C08091190190911A01009741F41B
:104260008DB79EB740911D0150911E01841B950B87
:10427000E817F90708F055C0F093F603E093F5034B
:10428000F90171836083A0CF8D919C911197129653
:104290006C90129713967C901397A815B90559F551
:1042A0006C0142E0C40ED11CCA14DB0420F1AC0145
:1042B0004A195B09DA011296159780F062827382BF
:1042C00051834083D9016D937C93E114F10471F023
:1042D000D7011396FC93EE93129776CF22968C0F0C
:1042E0009D1FF90191838083F301EFCFF093F803D1
:1042F000E093F70369CF4816590608F42C017D01B5
:10430000D3019ACFCB010E94B21F7C01009749F0E4
:10431000AE01B8010E949421C8010E944E2087017D
:1043200053CF10E000E050CFFB01DC0102C0019050
:104330000D9241505040D8F70895FB01DC010190E7
:104340000D920020E1F70895AEE0B0E0EAEAF1E274
:104350000C94FC1D0D891E8986E08C831A830983C9
:104360008FEF9FE79E838D83AE01475E5F4F6F891E
:10437000788DCE0101960E94C7212F813885020FCA
:10438000131FF80110822E96E4E00C94181EABE087
:10439000B0E0EDECF1E20C94EE1D7C013B018A01F2
:1043A000FC0117821682838181FFC8C1CE0101966C
:1043B0005C01F7019381F30193FD859193FF819156
:1043C0003F01882309F453C1853239F493FD859167
:1043D00093FF81913F01853229F4B70190E00E945B
:1043E000B723E7CF912C212C312CFFE1F31538F0C6
:1043F0008B3211F190F4803209F1833229F137FCCC
:104400003CC020ED280F2A3050F536FE20C08AE04F
:10441000989E200D1124922E06C08D3291F080338B
:1044200071F7689430F8F30193FD859193FF8191C2
:104430003F018111DACF21C0689431F8689432F8D5
:10444000F2CF689433F8EFCF689434F8ECCFEAE019
:104450002E9E200D1124222E689435F8E4CF8E3242
:1044600029F436FC04C1689436F8DDCF8C3619F493
:10447000689437F8D8CF8836B1F2982F9F7D95543D
:104480009330E0F08336A1F18337C1F1833509F031
:1044900063C02801F2E04F0E511CF801C080D180AA
:1044A000692D70E036FC02C06FEF7FEFC6010E94FD
:1044B000A1234C01689437F882010AC00C5F1F4F9A
:1044C000FFE3F98388248394912C6501E89437F8FD
:1044D00033FE2DC0522C8114910471F5552009F43E
:1044E00068CFB70180E290E00E94B7235A94F6CFDC
:1044F000F801808189830E5F1F4FE4CF2801F2E02D
:104500004F0E511CF801C080D180692D70E036FC3F
:1045100002C06FEF7FEFC6010E94AC234C01820105
:10452000D5CFB70180E290E00E94B7232A942814E7
:10453000190409F0B0F7CECFF60137FC859137FEAC
:1045400081916F01B70190E00E94B72351105A94F6
:10455000F1E08F1A9108BFCF843619F0893609F03F
:1045600077C0F80137FE6BC06081718182819381D1
:104570000C5F1F4FF32DFF763F2E97FF09C09095DC
:104580008095709561957F4F8F4F9F4F689437F856
:104590002AE030E0A5010E94E723C82ECA188C2C1F
:1045A000432C36FE0CC0E89440F8C91440F434FEA5
:1045B00005C032FC03C0F32DFE7E4F2E892C44FE35
:1045C00095C0FE01EC0DF11D8081803309F087C09C
:1045D000242D297E422E842D8870582E43FC95C0B0
:1045E00040FE8FC09C2C821418F42C0C922C98182E
:1045F00044FE91C0B70180E390E00E94B72342FEE1
:1046000009C088E790E041FE02C088E590E0B7016C
:104610000E94B723C91408F48AC0CA94D12C9FEF12
:10462000C91AD90ACA0CDB1CF60182916F01B701C5
:1046300090E00E94B723AC14BD04B1F74FCF608166
:104640007181072E000C880B990B0E5F1F4F92CFC4
:10465000D32CE894D4F82AE030E0853739F1232DC3
:10466000297FD22E8F3601F148F48835A9F0F70161
:10467000868197812B96E2E10C940A1E803749F0DF
:104680008837A9F7D4FE02C06894D2F820E130E060
:104690000DC06894D4F8F6CF34FE03C0822F866034
:1046A000D82E20E132E002C028E030E0F801D7FE49
:1046B0000FC060817181828193810C5F1F4FA501C2
:1046C0000E94E723C82ECA183D2CE89437F867CF1C
:1046D0006081718190E080E00E5F1F4FF0CF42FC5F
:1046E00002C0839478CF8394839475CF842D867889
:1046F00009F471CFF6CFB70180E290E00E94B723B2
:1047000083948214C0F3512C73CF522C5818821406
:1047100008F46ECFF8CF842D867809F47BCF8BE236
:1047200041FE80E247FC8DE2B70190E071CFB70116
:1047300080E390E00E94B7239A946CCF8FEF9FEFB5
:1047400099CFFC010590615070400110D8F7809519
:1047500090958E0F9F1F0895FC016150704001904D
:104760000110D8F7809590958E0F9F1F08950F9395
:104770001F93CF93DF93182F092FEB018B8181FDBE
:1047800009C01FEF0FEF812F902FDF91CF911F9165
:104790000F91089582FF14C02E813F818C819D81ED
:1047A000281739073CF4E881F981CF0101969983F4
:1047B000888310838E819F8101969F838E83E3CFB0
:1047C000E885F985812F0995892BA1F3DACFFA01C4
:1047D000AA27283051F1203181F1E8946F936E7F40
:1047E0006E5F7F4F8F4F9F4FAF4FB1E03ED0B4E031
:1047F0003CD0670F781F891F9A1FA11D680F791F72
:104800008A1F911DA11D6A0F711D811D911DA11D82
:1048100020D009F468943F912AE0269F1124301992
:10482000305D3193DEF6CF010895462F4770405D2D
:104830004193B3E00FD0C9F7F6CF462F4F70405DDC
:104840004A3318F0495D31FD4052419302D0A9F737
:10485000EACFB4E0A6959795879577956795BA9531
:10486000C9F700976105710508959B01AC010A2EF7
:1048700006945795479537952795BA95C9F7620FCE
:0E488000731F841F951FA01D0895F894FFCF8D
:10488E00FF090807060D0C0B0A3132334134353659
:10489E0042373839432A3023440000F903800000A0
:1048AE000040001400540000000000FB065B068868
:1048BE00064807B9069706AB0600000000D209A508
:1048CE0009150A7B099E098B097C09000000002549
:1048DE000629062D0600000000B90A5B06150A68B7
:1048EE00070D0A006E616E00696E66006F766600D7
:1048FE00342D20566572206D61726361646F72652E
:10490E0073004D41524341444F5245533A00257571
:10491E002D253032642D2530326454253032643AE0
:10492E00253032643A2530326400430900250900EF
:10493E00250025752D253032642D25303264004D2D
:0A494E0061726361646F72202D0036
:00000001FF
