:100000000C94BF010C94E7010C94E7010C94E701F8
:100010000C94E7010C94E7010C94E7010C94830D18
:100020000C94E7010C94E7010C94E7010C94E701B0
:100030000C94E7010C94E7010C94E7010C94E701A0
:100040000C94390D0C94E7010C942B0E0C94050EB6
:100050000C94E7010C94E7010C94E7010C94E70180
:100060000C945D0E0C94E70133202D2052656C6FCB
:1000700067696F0032202D204D61726361646F7279
:100080000031202D20457374617469737469636154
:10009000730053656C6563696F6E6520756D6120D3
:1000A0006F7063616F3A00496E696369616E646F76
:1000B00020677261766163616F20646520646164AA
:1000C0006F732E2E2E0053697374656D6120696EF7
:1000D00069636961646F001F1C1F1E1F1E1F1F1EA6
:1000E0001F1E436F6E636C7569646F21004C696DF0
:1000F00070616E646F20454550524F4D2E2E2E007C
:10010000486F72613A2000446174613A2000466988
:100110006D20646F7320726567697374726F73000A
:1001200035202D20566F6C746172002500204C3AEA
:10013000002500432020553A00543A004D415243D7
:1001400041444F5245532053414C564F53004D614B
:10015000726361646F722073616C766F212020007E
:100160003D3D3D3D3D3D3D3D3D3D3D3D3D3D3D3DBF
:100170003D3D3D3D3D3D3D0025004C3A20002500E4
:10018000553A20004300543A2000486F72613A20EB
:1001900000446174613A20003D3D3D204D41524391
:1001A00041444F522053414C564F203D3D3D005459
:1001B000656D702E2061626169786F20646F2069BF
:1001C0006465616C21200054656D702E2061636947
:1001D0006D6120646F20696465616C2120004C753D
:1001E0007A206163696D6120646F20696465616C68
:1001F000212000556D696461646520756D20706F04
:1002000075636F20616C7461212000556D696461B4
:10021000646520756D20706F75636F206261697809
:10022000612120005761726E696E673A2000546543
:100230006D7065726174757261206D7569746F207F
:10024000626169786121200054656D706572617426
:1002500075726120616C74612120004C756D696E4E
:100260006F7369646164652065786365737369762B
:1002700061212000556D6964616465206D75697444
:100280006F20616C7461212000556D696461646543
:10029000206D7569746F2062616978612120005B4F
:1002A0004352495449434F5D2000352D566F6C74BD
:1002B00061720025202020202020202020004C3AA0
:1002C00000252000553A004300543A0035202D20E7
:1002D000566F6C7461720052454C4F47494F204134
:1002E0005455414C0035202D20566F6C74617200BE
:1002F000436C697175653A204120702F206D6172E1
:10030000636172206F75202320702F2061706167F8
:100310006172004553544154495354494341533A3F
:100320000000000000240027002A00000000080050
:1003300002010000030407000000000000000000AC
:1003400000000023002600290000000000250028EE
:10035000002B000204040404040404040202020248
:100360000202030303030303010204081020408078
:100370000102040810200102040810207C0F11243F
:100380001FBECFEFD8E0DEBFCDBF11E0A0E0B1E0EF
:10039000E8E9F8E402C005900D92AA3CB107D9F74C
:1003A00023E0AAECB1E001C01D92A93FB207E1F73A
:1003B00011E0CFEBD1E004C02197FE010E94B11FF4
:1003C000CE3BD107C9F70E944E100C944A240C94DE
:1003D00000000895089596E0899FD0011124AA593C
:1003E000BC4F90967C936E935F9791E091969C930F
:1003F0009197E091D303F091D4039091D203992384
:1004000039F0309751F0811108C08091820309942E
:10041000309719F05C968C91FACF0895CF92DF92C5
:10042000EF92FF92CF93DF93B091DC03A0E08111B4
:10043000AB2F8091DD0390E0880F991FAC01415CE8
:100440005C4FC090E203D090E303E090E403F090AF
:10045000E50330E020E0FA01C591D491E881B901CB
:1004600090E080E0EB23EA130AC02F5F3F4F6C154A
:100470007D058E059F0578F36FEF7FEFCB01DF9150
:10048000CF91FF90EF90DF90CF900895833081F06F
:1004900028F4813099F08230A9F008958730A9F0CE
:1004A0008830C9F08430B1F4809180008F7D03C022
:1004B000809180008F7780938000089584B58F7736
:1004C00084BD089584B58F7DFBCF8091B0008F7778
:1004D0008093B00008958091B0008F7DF9CFCF93C5
:1004E000DF93282F30E0F901E55DFC4F8491F9019D
:1004F000E859FC4FD491F901EC5AFC4FC491CC233C
:10050000A1F081110E944602EC2FF0E0EE0FFF1FD8
:10051000E15CFC4FA591B491EC91ED2381E090E07A
:1005200009F480E0DF91CF91089580E090E0FACF68
:100530001F93CF93DF93282F30E0F901E55DFC4F47
:100540008491F901E859FC4FD491F901EC5AFC4F20
:10055000C491CC23A9F0162F81110E944602EC2FE2
:10056000F0E0EE0FFF1FE75BFC4FA591B4918FB752
:10057000F894EC91111108C0D095DE23DC938FBF65
:10058000DF91CF911F910895DE2BF8CFCF93DF93AA
:1005900090E0FC01E859FC4F24918C5A9C4FFC01DF
:1005A00084918823C9F090E0880F991FFC01EF5DCA
:1005B000FC4FA591B491FC01E75BFC4FC591D49130
:1005C00061110DC09FB7F8948C91209582238C9374
:1005D0008881282328839FBFDF91CF9108956230BF
:1005E00051F49FB7F8943C91822F809583238C938C
:1005F000E8812E2BEFCF8FB7F894EC912E2B2C9314
:100600008FBFEACF4F925F926F927F928F929F92AD
:10061000AF92BF92CF92DF92EF92FF920F931F9310
:10062000CF938C014A015B01809100018F3099F0DA
:100630008F3F09F451C0CF911F910F91FF90EF9020
:10064000DF90CF90BF90AF909F908F907F906F90F2
:100650005F904F900895E3E5F3E0C491C7FDEBCFC1
:1006600061E08FE00E94C602CC2319F0C23009F08D
:10067000E7C0712C612C60E472E48FE090E0A3018C
:1006800098010E94C91D69017A0181E0C81AD10848
:10069000E108F108C23009F08EC092E08FEFC81671
:1006A000D104E104F10489F084F060E970ED83E0A5
:1006B00090E0A30198010E94C91D69017A0181E0BF
:1006C000C81AD108E108F10893E08091B100887F51
:1006D000892B8093B10092C08FE080930001E3E505
:1006E000F3E0C491CF3F09F4A6CFC13021F150F01F
:1006F000C23009F43EC0C7FD9ECF61E08FE00E948A
:10070000C602B4CF14BC15BC84B5826084BD85B567
:10071000816085BDE3E6F3E0E491F0E0EE0FFF1FBA
:10072000E75BFC4F85919491E7E7F3E0E491E09378
:100730005A02C0E095CF1092800010928100809103
:100740008100886080938100809181008160809326
:100750008100E3E6F3E0E491F0E0EE0FFF1FE75BDA
:10076000FC4F85919491E7E7F3E0E491E09359021F
:1007700077CF1092B0001092B1008091B0008260EB
:100780008093B0008091B10081608093B100E3E676
:10079000F3E0E491F0E0EE0FFF1FE75BFC4F859183
:1007A00094919093580280935702E7E7F3E0E49125
:1007B000E093560255CF8FEFC816D104E104F1043F
:1007C000A9F0A4F068E478EE81E090E0A30198013C
:1007D0000E94C91D69017A0181E0C81AD108E108A7
:1007E000F10894E0C11171CF93E003C092E0C11110
:1007F0006CCF85B5887F892B85BDC0E0D801AA0F55
:10080000BB1FA50194010E94E81D28EE33E040E0E3
:1008100050E00E942A1EC13061F1C230E1F1C111E5
:100820000ACFC7BC209363023093640240936502F1
:100830005093660280916E00826080936E00FBCEC2
:10084000980150E040E060E072E18AE790E00E94A9
:10085000C91D69017A0181E0C81AD108E108F108CF
:10086000C13061F680918100887F81608093810032
:10087000C5CFD0928900C092880020935F02309348
:100880006002409361025093620280916F00826027
:1008900080936F00D0CEC092B30020935B02309360
:1008A0005C0240935D0250935E0280917000826012
:1008B00080937000C0CE3FB7F8948091520290911F
:1008C0005302A0915402B091550226B5A89B05C0D1
:1008D0002F3F19F00196A11DB11D3FBFBA2FA92FBF
:1008E000982F8827BC01CD01620F711D811D911DBC
:1008F00042E0660F771F881F991F4A95D1F7089528
:100900008F929F92AF92BF92CF92DF92EF92FF921F
:100910004B015C010E945B046B017C010E945B0443
:100920006C197D098E099F09683E73408105910508
:10093000A8F321E0821A9108A108B10888EEC80E38
:1009400083E0D81EE11CF11C81149104A104B104C0
:1009500029F7FF90EF90DF90CF90BF90AF909F90DE
:100960008F9008952FB7F89460914E0270914F02C6
:1009700080915002909151022FBF08950F931F93C1
:10098000CF93DF93C82FD62F86E0C89FF0011124A4
:10099000EA59FC4F11A2878D90A181309105F1F0A9
:1009A00058F082309105F1F1039709F440C0DF91CE
:1009B000CF911F910F9108956623C9F361E070E014
:1009C0008C2F0E94EB010E94B2046093BE037093CF
:1009D000BF038093C0039093C103E9CF0E94B20488
:1009E0000091BE031091BF032091C0033091C10359
:1009F000AB01BC01401B510B620B730B8091D00308
:100A00009091D103B0E0A0E084179507A607B7073F
:100A100048F462E070E08C2FDF91CF911F910F912D
:100A20000C94EB0163E070E0D111C1CFF4CF70E022
:100A300060E0F1CFCF92DF92EF92FF920F931F937E
:100A4000CF93DF93CDB7DEB7C054D1400FB6F89443
:100A5000DEBF0FBECDBF0E94B2040091DE03109135
:100A6000DF032091E0033091E1036B017C01C01AA8
:100A7000D10AE20AF30A97018601003D17402105D9
:100A8000310590F48091E603C05CDE4F0FB6F89418
:100A9000DEBF0FBECDBFDF91CF911F910F91FF90B1
:100AA000EF90DF90CF9008956093DE037093DF03A3
:100AB0008093E0039093E1031092D9031092D8033E
:100AC0001092D7031092D6031092D50362E0809162
:100AD000DA030E94C60261E070E080E090E00E94CC
:100AE000800461E08091DA030E94C60260E0809198
:100AF000DA030E9498028091DB038551823020F551
:100B00008BE291E10197F1F762E08091DA030E94B4
:100B1000C6028091E70390E08230910538F0880F9B
:100B2000991F880F991F05970197F1F7F89480E0B6
:100B30000E940E026F3F7F4F8F4F9F4F61F41092C4
:100B4000E603789480E0A0CF64E170E080E090E07C
:100B50000E948004D9CF81E00E940E026F3F7F4F38
:100B60008F4F9F4F61F38E010F5F1F4F6E012FEB71
:100B7000C21A2EEFD20A780180E00E940E02F7011D
:100B8000608371838283938381E00E940E02F70168
:100B90006483758386839783F8E0EF0EF11CEC1471
:100BA000FD0451F7789430E020E0F801C080D18056
:100BB000E280F3804481558166817781FFEFCF1613
:100BC000DF06EF06FF0631F04F3F8FEF580768074B
:100BD000780719F41092E603B5CFF90183E0F59593
:100BE000E7958A95E1F7EB52FC4F8081880FC41698
:100BF000D506E606F70610F180832F5F3F4F085FAA
:100C00001F4F2832310589F64091D9032091D50331
:100C10008091D603280F3327331F8091D703280FE5
:100C2000311D8091D803820F932F911D992748176A
:100C3000190681F681E08093E60326CF8160DCCF40
:100C4000862F642F0C94C602862F642F0C94980272
:100C5000862F0C946F02DC01ED91FC910190F081E4
:100C6000E02D0994EF92FF920F931F93CF93DF93A0
:100C70008C017B01D0E0C0E0F701EC0FFD1F649117
:100C8000662361F0D801ED91FC910190F081E02D97
:100C9000C8010995892B11F02196EECFCE01DF9185
:100CA000CF911F910F91FF90EF900895AF92BF9257
:100CB000CF92DF92EF92FF920F931F93CF93DF9328
:100CC0006C017B018B01040F151FEB015E01AE1857
:100CD000BF08C017D10759F06991D601ED91FC9179
:100CE0000190F081E02DC6010995892B79F7C501A6
:100CF000DF91CF911F910F91FF90EF90DF90CF90F8
:100D0000BF90AF900895FC01538D448D252F30E0A6
:100D1000842F90E0821B930B541710F0CF96089508
:100D200001970895FC01918D828D981761F0A28D35
:100D3000AE0FBF2FB11D5D968C91928D9F5F9F73FB
:100D4000928F90E008958FEF9FEF0895FC01918DB1
:100D5000828D981731F0828DE80FF11D858D90E01E
:100D600008958FEF9FEF0895FC01918D228D892FBB
:100D700090E0805C9F4F821B91098F7399270895A3
:100D80008DEB92E00E94B40621E0892B09F420E06B
:100D9000822F089580E090E0892B29F00E94C00600
:100DA00081110C9400000895FC01A48DA80FB92FA7
:100DB000B11DA35ABF4F2C91848D90E001968F7383
:100DC0009927848FA689B7892C93A089B1898C91A2
:100DD000837080648C93938D848D981306C00288F1
:100DE000F389E02D80818F7D80830895EF92FF92BB
:100DF0000F931F93CF93DF93EC0181E0888F9B8D3E
:100E00008C8D98131AC0E889F989808185FF15C0F7
:100E10009FB7F894EE89FF896083E889F98980811A
:100E20008370806480839FBF81E090E0DF91CF91E9
:100E30001F910F91FF90EF900895F62E0B8D10E00B
:100E40000F5F1F4F0F731127E02E8C8D8E110CC07A
:100E50000FB607FCFACFE889F989808185FFF5CFC5
:100E6000CE010E94D406F1CFEB8DEC0FFD2FF11DCA
:100E7000E35AFF4FF0829FB7F8940B8FEA89FB8902
:100E800080818062CFCFCF93DF93EC01888D882360
:100E9000B9F0AA89BB89E889F9898C9185FD03C0DD
:100EA000808186FD0DC00FB607FCF7CF8C9185FFC2
:100EB000F2CF808185FFEDCFCE010E94D406E9CF2D
:100EC000DF91CF91089508958F929F92AF92BF9234
:100ED000CF92DF92EF92FF92CF93DF93EC016A0102
:100EE0007B0180E8C81A83E4D80A8DE6E80A88E323
:100EF000F80A8CE3882E912CA12CB12CC701B601E5
:100F0000A50194010E942A1E6D83CA01B901A501A1
:100F100094010E942A1E6C83C701B60120E13EE0C5
:100F200040E050E00E942A1ECA01B90128E130E0E9
:100F300040E050E00E942A1E6B83C701B60120E802
:100F400031E541E050E00E942A1E188263E97EEFFD
:100F50008881982F937041E050E011F050E040E01C
:100F6000FA01E359FE4F2E173F0740F0FB01E41B47
:100F7000F50B2E0F3F1F8F5F8883EACF81E08983B7
:100F800089818C30A0F4482F4150550BFA01E95269
:100F9000FF4FE491911103C0823009F4EF5FF0E05C
:100FA0002E173F0720F02E1B3F0B8F5FE8CF2F5FE0
:100FB0002A83DF91CF91FF90EF90DF90CF90BF9089
:100FC000AF909F908F9008952091EB01260F3327CB
:100FD000331F21323105ECF420919302FC0190E0A3
:100FE00080E0243069F082E00895A091EB01219126
:100FF000AC0145535E4FA40FB52FB11D2C93019644
:10100000861798F38091EB01680F6093EB0180E005
:10101000089581E008951092930281E080939202F6
:1010200010926D0261E082E10E94980261E083E12A
:101030000E949802E9EBF0E080818E7F80838081BE
:101040008D7F808388E48093B80085E48093BC0022
:10105000089510926C0210926B0210929A021092F4
:10106000BC020E940B0889EE91E090936A02809383
:1010700069028AEE91E09093680280936702089576
:10108000CF93DF9391E09093CA018823B9F0C09188
:10109000B800D091BA008091BC008A7B8093BC00DC
:1010A00060E082E10E94980260E083E10E94980281
:1010B0000E940B08D093BA00C093B800DF91CF9183
:1010C00008958F929F92AF92BF92CF92DF92EF924C
:1010D000FF920F931F93CF93DF93D091BC02D13235
:1010E00008F0D7C0182FC091BB020E945B046B01AF
:1010F0007C018091930281116BC082E08093930206
:10110000109392028FEF8093910210929002D093ED
:101110008F02ABE9B2E0EFE6F2E080E0D81391C0D5
:1011200010926E0280916E02CC0FC82BC0936E029B
:1011300080916D02813009F088C010926D020E948A
:101140005B046B017C0180916E028093BB008091F7
:10115000950290919602A0919702B0919802892BE6
:101160008A2B8B2BA1F00E945B04009195021091B9
:10117000960220919702309198026C197D098E0990
:101180009F09061717072807390708F442C08091FE
:10119000BC0083FDD8CF85EC8093BC000E945B042B
:1011A0006B017C0180919302823009F450C08091E0
:1011B00091028F3F09F46FC080919102803209F44F
:1011C0006CC080919102803309F469C084E026C02C
:1011D0008091950290919602A0919702B091980209
:1011E000892B8A2B8B2B09F484CF0E945B0480907F
:1011F000950290909602A0909702B09098026C1978
:101200007D098E099F0986169706A806B90608F07B
:1012100070CF809194020E94400885E010929A025B
:101220001092BC0210929902DF91CF911F910F9101
:10123000FF90EF90DF90CF90BF90AF909F908F90F6
:1012400008959D9191938F5F69CF85EEA5CF809191
:10125000950290919602A0919702B0919802892BE5
:101260008A2B8B2B09F49ECF0E945B040091950280
:101270001091960220919702309198026C197D0985
:101280008E099F09061717072807390708F08ACF24
:10129000C0CF81E0C3CF80E0C1CF82E0BFCF83E089
:1012A000BDCFCF93DF93EC018B818823A1F08881A0
:1012B00091E0909399028093BB0210929A0210924F
:1012C000BC0281E00E94610891E0811190E0892FC9
:1012D000DF91CF9108950E94290881E08B83CE0190
:1012E0000E945109982F8111E2CFF1CF0895E0912A
:1012F0006C0280916B02E81730F4F0E0E25FFD4F82
:10130000808190E008958FEF9FEF089590916C0297
:1013100080916B022FEF3FEF981748F4E92FF0E030
:10132000E25FFD4F208130E09F5F90936C02C90126
:10133000089580916B0290916C02891B990B08951E
:10134000CF92DF92EF92FF920F931F93CF93DF9391
:101350007C01CB018A0120919902222389F0EB01C3
:101360006B01C40ED51ECC15DD0569F06991D7015E
:10137000ED91FC910190F081E02DC7010995F3CF2B
:10138000642F0E94E407C801DF91CF911F910F9154
:10139000FF90EF90DF90CF900895CF93DF931F924F
:1013A000CDB7DEB76983209199022223F9F020910D
:1013B000BC02203258F021E030E0FC01338322836C
:1013C00090E080E00F90DF91CF91089580919A0294
:1013D000E82FF0E0E556FD4F998190838F5F809371
:1013E0009A028093BC0281E090E0ECCF61E0CE01F4
:1013F00001960E94E407F7CFFC01248131E030938D
:1014000099022093BB0210929A021092BC0284852A
:10141000682B8AE593E00E94CD0981E00C94610875
:1014200090E080E008950F931F93CF938C01C62F17
:101430000E94FC096C2F6460C8010E94FC096C2F9B
:101440006B7FC8010E94FC0983EC90E00197F1F7E3
:10145000CF911F910F9108950F931F93CF93DF9317
:101460008C01D62FC42F607F642B0E94130A80E169
:10147000D89FB00111246C2BC801DF91CF911F912F
:101480000F910C94130ACF93DF93CDB7DEB7289753
:101490000FB6F894DEBF0FBECDBF98E0EFE1F1E0EC
:1014A000DE01119601900D929A95E1F79091F0036B
:1014B000961710F46FEF690F262F30E0220F331FBD
:1014C00041E050E04C0F5D1F240F351FF901608192
:1014D000680F606840E088EE93E028960FB6F894B5
:1014E000DEBF0FBECDBFDF91CF910C942C0A40E040
:1014F00061E088EE93E00E942C0A8BE39FE1019764
:10150000F1F78091F103882321F060E080E00C94F2
:10151000430A08950E94770A60E080E00E94430A2F
:1015200062E970E088EE93E00E94320661E080E0BC
:101530000E94430A61E870E088EE93E00E94320660
:1015400062E080E00E94430A64E770E088EE93E086
:101550000E94320663E080E00E94430A68E670E081
:1015600088EE93E00C94320641E00E942C0A81E060
:1015700090E00895FB0101900020E9F73197AF0159
:10158000461B570BDC01ED91FC910280F381E02DAD
:101590000994CF93DF93BC018DEB92E00E94320659
:1015A000EC0161E671E08DEB92E00E94BA0A8C0FCB
:1015B0009D1FDF91CF910895CF93DF93FC0144816C
:1015C0005581608171818DEB92E00E945606EC019D
:1015D00061E671E08DEB92E00E94BA0A8C0F9D1FCC
:1015E000DF91CF9108958F929F92AF92BF92EF9229
:1015F000FF920F931F93CF93DF93CDB7DEB7A197E1
:101600000FB6F894DEBF0FBECDBF7C01FA01CB014F
:1016100019A2223008F42AE08E010F5D1F4F822E9E
:10162000912CB12CA12CBF01A50194010E942A1E6E
:10163000F901CA016A300CF5605DD8016E938D0125
:10164000232B242B252B79F790E080E0109721F0B5
:10165000BD01C7010E94BA0AA1960FB6F894DEBF79
:101660000FBECDBFDF91CF911F910F91FF90EF90F3
:10167000BF90AF909F908F900895695CDECF462F0A
:1016800050E070E060E02AE00C94F30ACF92DF9221
:10169000EF92FF920F931F93CF93DF936B01770F1E
:1016A000EE08FF08F7FE1BC0EC016DE20E942B065E
:1016B0008C0144275527BA014C195D096E097F0931
:1016C0002AE0CE010E94F30A800F911FDF91CF9193
:1016D0001F910F91FF90EF90DF90CF9008952AE037
:1016E000B701A601DF91CF911F910F91FF90EF906D
:1016F000DF90CF900C94F30A4F925F926F927F929B
:101700008F929F92AF92BF92CF92DF92EF92FF9211
:101710000F931F93CF93DF93EC016A017B01922E0D
:10172000AB019601CB01B6010E94751F64E671E022
:10173000811126C026013701E89477F82FEF3FEF9B
:101740004FE75FE7C301B2010E94751F81110CC012
:101750002FEF3FEF4FE75FE7C301B2010E948F1CFD
:1017600068E671E0181664F02FEF3FEF4FE75FE493
:10177000C701B6010E94701F1816ACF46CE671E048
:10178000CE01DF91CF911F910F91FF90EF90DF90ED
:10179000CF90BF90AF909F908F907F906F905F9011
:1017A0004F900C94BA0A2FEF3FEF4FE75FECC70161
:1017B000B6010E948F1C87FDE1CF20E030E0A90137
:1017C000C701B6010E948F1CB12CA12C87FF09C054
:1017D0006DE2CE010E942B065C01F7FAF094F7F857
:1017E000F094192D60E070E080E09FE300E020E0DD
:1017F00030E040E251E40E94C81E21E0200F01E0E9
:101800002915A8F3A70196010E945C1E2B013C013B
:101810000E94411F6B017C010E94941C9B01AC0142
:10182000C301B2010E945B1E2B013C012AE0B701FB
:10183000A601CE010E94F30A7C016EE2CE010E9455
:101840002B06E80EF91EEA0CFB1C115020F120E0DB
:1018500030E040E251E4C301B2010E94F51C2B01CB
:101860003C010E94411F4B01B12CA12C2AE0B50183
:10187000A401CE010E94F30AE80EF91EC501B401CD
:101880000E94941C9B01AC01C301B2010E945B1E2B
:101890002B013C01DACFC701DF91CF911F910F914E
:1018A000FF90EF90DF90CF90BF90AF909F908F9080
:1018B0007F906F905F904F900895FC01808191819F
:1018C000009711F00C9453200895EF92FF920F931C
:1018D0001F93CF93DF93EC017B018A01888199816B
:1018E000009729F02A813B812417350788F4B80135
:1018F0006F5F7F4F0E94DC20009791F0998388836F
:101900001B830A832C813D81232B11F4FC0110825F
:101910001D830C83B701888199810E94A2210CC08C
:1019200088819981009711F00E94532019821882B2
:101930001D821C821B821A82CE01DF91CF911F91E2
:101940000F91FF90EF90089585ED8093BC008091FA
:10195000950290919602A0919702B09198020796F5
:10196000A11DB11D23E0B695A795979587952A955A
:10197000D1F72091BC0024FD03C01092930208957A
:101980004091950250919602609197027091980251
:10199000452B462B472B69F30097A105B10541F074
:1019A0002AE22A95F1F700C00197A109B109E1CF18
:1019B000809194020C944008CF93DF93EB010E9436
:1019C000B31D8883CE01DF91CF9108950F931F93AC
:1019D000CF93DF938C01EB010E94B31D8883C80174
:1019E00001960E94B31D8983CE01DF91CF911F9193
:1019F0000F910895CF92DF92EF92FF920F931F9372
:101A0000CF93DF93EB017B0124E0E20EF11C8B010D
:101A10006C01C61AD70AC601800F911F0E94B31D20
:101A2000F80181938F01EE15FF05A9F7CE01DF9133
:101A3000CF911F910F91FF90EF90DF90CF9008957D
:101A4000FF920F931F93CF93DF93EC01F62E088143
:101A50001981C8010E94B31DF81621F06F2DC8012D
:101A60000E94BB1DCE01DF91CF911F910F91FF907E
:101A700008951F920F920FB60F9211242F933F9348
:101A80008F939F93AF93BF9380914E0290914F029B
:101A9000A0915002B091510230914D0223E0230FEA
:101AA0002D3758F50196A11DB11D20934D0280934D
:101AB0004E0290934F02A0935002B0935102809136
:101AC000520290915302A0915402B0915502019696
:101AD000A11DB11D8093520290935302A093540212
:101AE000B0935502BF91AF919F918F913F912F91EC
:101AF0000F900FBE0F901F90189526E8230F0296A7
:101B0000A11DB11DD2CF1F920F920FB60F921124BB
:101B10002F933F934F935F936F937F938F939F93F5
:101B2000AF93BF93EF93FF9380915B0290915C0220
:101B3000A0915D02B0915E02892B8A2B8B2BD1F193
:101B400090915602E0915702F091580280818927C6
:101B5000808380915B0290915C02A0915D02B091C4
:101B60005E02181619061A061B069CF480915B0289
:101B700090915C02A0915D02B0915E020197A10973
:101B8000B10980935B0290935C02A0935D02B093D5
:101B90005E02FF91EF91BF91AF919F918F917F91E5
:101BA0006F915F914F913F912F910F900FBE0F90CA
:101BB0001F90189580910001E3E5F3E0E4919FEF19
:101BC00090930001E13051F030F0E23069F060E0D4
:101BD0000E949802DECF10926E00F9CF90916F00B4
:101BE0009D7F90936F00F3CF909170009D7F9093B5
:101BF000700091E09093B0009091B100987F946054
:101C00009093B1001092B300E2CF1F920F920FB6E3
:101C10000F9211242F933F934F935F936F937F9372
:101C20008F939F93AF93BF93EF93FF938DEB92E0CE
:101C30000E94D406FF91EF91BF91AF919F918F9138
:101C40007F916F915F914F913F912F910F900FBEB8
:101C50000F901F9018951F920F920FB60F9211249C
:101C60002F938F939F93EF93FF93E091CD02F09189
:101C7000CE028081E091D302F091D40282FD1BC09C
:101C800090818091D6028F5F8F732091D702821747
:101C900041F0E091D602F0E0E354FD4F958F809340
:101CA000D602FF91EF919F918F912F910F900FBED0
:101CB0000F901F9018958081F4CF1F920F920FB64E
:101CC0000F9211242F933F934F935F936F937F93C2
:101CD0008F939F93AF93BF93EF93FF938091B9003E
:101CE000887F803609F44AC0F0F5883209F4A7C02D
:101CF00018F5803109F49BC0B8F4882309F4F9C0C1
:101D0000883009F494C0FF91EF91BF91AF919F91FA
:101D10008F917F916F915F914F913F912F910F9094
:101D20000FBE0F901F901895883109F488C080323B
:101D300051F78093910214C0803409F49DC040F49F
:101D40008033B9F38833F9F68093910285ECB0C003
:101D5000803509F485C0883509F496C0883499F631
:101D60000E94A40CD0CF883909F48CC038F588378C
:101D700029F050F4883611F0803729F683E08093FB
:101D8000930210920D0257C0883809F47BC0803945
:101D900019F0803809F0B7CF80910D02803208F039
:101DA00071C0E0910D0281E08E0F80930D02809151
:101DB000BB00F0E0E351FE4F80833DC0803B39F033
:101DC000E0F4803A09F479C0883A09F09CCF84E0C5
:101DD000809393021092EC011092EB01E091690262
:101DE000F0916A0209958091EB0181110FC081E0A9
:101DF0008093EB011092CB0109C0803C09F4A6CF7F
:101E0000883C09F4A3CF883B09F07DCFE091EC0139
:101E100081E08E0F8093EC01F0E0E553FE4F80816E
:101E20008093BB009091EC018091EB0129C08091DF
:101E30006E028093BB0085EC8093BC0064CF9091D0
:101E4000900280918F02981758F5E091900281E0FE
:101E50008E0F80939002F0E0E159FD4F8081E9CF31
:101E6000E091900281E08E0F809390028091BB0000
:101E7000F0E0E159FD4F80839091900280918F02B4
:101E80009817C8F285E8D8CFE091900281E08E0FD4
:101E9000809390028091BB00F0E0E159FD4F808378
:101EA0008091920281115CCF81E080936D0284EA7F
:101EB0008093BC001092930226CF85EC8093BC00E7
:101EC0001092930280910D02803230F4E0910D0265
:101ED000F0E0E351FE4F108260910D0270E0E0915E
:101EE0006702F09168028DEE91E0099510920D0263
:101EF0000ACF1092910234CF1092C0021092BF020A
:101F000088EE93E0A0E0B0E08093C1029093C2021B
:101F1000A093C302B093C4022BE231E03093BE021F
:101F20002093BD0225EC30E03093CA022093C90211
:101F300024EC30E03093CC022093CB0220EC30E054
:101F40003093CE022093CD0221EC30E03093D002CA
:101F50002093CF0222EC30E03093D2022093D102C2
:101F600026EC30E03093D4022093D3021092D602B4
:101F70001092D7021092D8021092D90210925D03EB
:101F800010925C0380935E0390935F03A0936003C1
:101F9000B09361038DE391E090935B0380935A03C8
:101FA0001092EB031092EA0389E591E09093E90324
:101FB0008093E8031092F10387E28093EC0384E1BD
:101FC0008093F20384E08093F3031092F40382E0A1
:101FD0008093DA0386E18093DB03EAE6F3E0E491A1
:101FE000E093DC03E6E5F3E0E491E093DD0380E8D1
:101FF0009EE3A0E0B0E08093E2039093E303A0931C
:10200000E403B093E5031092680310926C031092FE
:102010006B0310926D038FE491E0909367038093BC
:102020006603E2E8F3E0108214821382158236968A
:1020300083E0EE3BF807B9F785E091E09093C903A0
:102040008093C80381E091E09093CB038093CA030F
:1020500084E08093CC038093CD0389E091E090935A
:10206000C7038093C6038AE090E09093CF038093E8
:10207000CE0384EF91E09093D1038093D00310922C
:10208000D4031092D3031092C2031092C303109290
:10209000C4031092C5031092D2030895CF93DF9327
:1020A000CDB7DEB7C554D1090FB6F894DEBF0FBE69
:1020B000CDBF789484B5826084BD84B5816084BDD1
:1020C00085B5826085BD85B5816085BD80916E00D6
:1020D000816080936E001092810080918100826007
:1020E0008093810080918100816080938100809144
:1020F00080008160809380008091B1008460809333
:10210000B1008091B00081608093B00080917A002E
:10211000846080937A0080917A00826080937A0054
:1021200080917A00816080937A0080917A00806843
:1021300080937A001092C100E091CD02F091CE021E
:1021400082E08083E091C902F091CA021082E0919E
:10215000CB02F091CC028FEC80831092D502E091FB
:10216000D102F091D20286E08083E091CF02F0911B
:10217000D002808180618083E091CF02F091D00213
:10218000808188608083E091CF02F091D0028081CD
:1021900080688083E091CF02F091D00280818F7DB2
:1021A00080830E94290880914B0290914C020097F5
:1021B00011F00E94532086E090E00E94B71F8C012E
:1021C00088E6D8018C938AE593E012969C938E93CF
:1021D000119713961C92139780E290E015969C93AA
:1021E0008E93149710934C0200934B020E9429087F
:1021F00081E0F8018383C8010E94510962E0809167
:10220000DA030E94C6020E94B204605D7740810931
:1022100091096093DE037093DF038093E003909352
:10222000E10387E38093E7030E9429081092ED03FE
:102230008091F303823018F098E09093ED0380933F
:10224000F00362E370E080E090E00E94800460911F
:10225000F40388EE93E00E94FC0968EE73E080E0EE
:1022600090E00E94800460E388EE93E00E94130AED
:102270000BE416E4C8010197F1F760E388EE93E000
:102280000E94130AC8010197F1F760E388EE93E01A
:102290000E94130A83E592E00197F1F760E288EE6D
:1022A00093E00E94130A6091ED03606240E088EEC3
:1022B00093E00E942C0A84E08093EE0340E06CE0FF
:1022C00088EE93E00E942C0A0E94770A82E08093B5
:1022D000EF0340E066E088EE93E00E942C0A40E0C5
:1022E00062E088EE93E00E942C0A8BE39FE1019765
:1022F000F1F788E08093F40360E088EE93E00E94B9
:10230000FC090E94770A66EC70E088EE93E00E9478
:10231000320660E273E080E090E00E94800461E0B9
:1023200083E00E94C60261E084E00E94C60261E090
:1023300085E00E94C60261E08FE00E94C60260E074
:102340008FE00E94980216E062E0812F0E94C60290
:102350001F5F1E30C9F70E948A0A87EA90E00E9438
:10236000C90A9E012F5F3F4F26963FAF2EAF26979B
:102370001982A0904B02B0904C02D50114968D9119
:102380009C911597892B09F427C111968D919C91E9
:1023900012972C9131E0309399022093BB02109256
:1023A0009A021092BC02DC01ED91FC910280F38153
:1023B000E02D41E050E0BE016F5F7F4F099501972E
:1023C00009F00AC180E00E946108811105C1D12C89
:1023D000C12C5524539433243A9435EE232E45ECE6
:1023E000442EF5018481958127E0E22EF12CEC1832
:1023F000FD088E159F0508F47C01D5010C910E9403
:102400005B043B014C0180919302811170C01E2D31
:10241000113208F010E25092930221E087E090E040
:102420008E199F09C816D90608F420E0209392025D
:1024300030929102109290028FEF810F80938F0261
:1024400050926E0280916E02000F082B00936E0274
:1024500080916D02813009F093C010926D020E944C
:102460005B043B014C0180916E028093BB00809124
:10247000950290919602A0919702B0919802892BB3
:102480008A2B8B2BA1F00E945B0420919502309146
:10249000960240919702509198026619770988092F
:1024A0009909261737074807590708F441C0809152
:1024B000BC0083FDD8CF4092BC000E945B043B016E
:1024C0004C0180919302813009F45DC080919002AB
:1024D000811710F410919002AFE6B2E0EEE0F2E066
:1024E00080E0811751F19D9191938F5FFACF809198
:1024F000950290919602A0919702B0919802892B33
:102500008A2B8B2B09F47FCF0E945B0420919502CC
:10251000309196024091970250919802661977097E
:1025200088099909261737074807590708F06BCF1C
:10253000809194020E94400810E010926C02109367
:102540006B021E151F0409F047C001E010E00C0FDC
:102550001D1F0C0D1D1D4801C801881999098E15F4
:102560009F0598F5F50181819281DC01ED91FC9147
:102570000284F385E02D0995F80181938F01ECCF5A
:102580002092BC009ACF8091950290919602A091E2
:102590009702B0919802892B8A2B8B2B09F491CF4B
:1025A0000E945B042091950230919602409197021F
:1025B00050919802661977098809990926173707F3
:1025C0004807590708F07DCFB3CFCE0CDF1CF7E0EA
:1025D000CF16D10408F405CF49811A810B813D81C2
:1025E0002E81822F90E0B4E095958795BA95E1F71A
:1025F000982F990F990F482E491A942D990F920FE1
:102600005F81E32FF0E084E0F595E7958A95E1F7A7
:102610008E2F880F880F2E2F281B220F230F30E0BC
:10262000E7EDF0E081E0891730F46491260F311D69
:102630008F5F3196F8CF652F70E0A4E075956795B0
:10264000AA95E1F7862F880F880F562E581A852DE8
:10265000880F850F933028F0982F937011F42F5F17
:102660003F4FE42FEF7790E0AC014D5F5F4F569501
:10267000479556954795ADE6B1E08A9FB0018B9F8F
:10268000700D9A9F700D112461507109460F571FEC
:10269000240F351FA8E1B0E00E944C1E202F30E02F
:1026A000A90124E0559547952A95E1F7242F220F9B
:1026B000220F642E621A262D220F020F9B01AC01FD
:1026C000200F311D411D511DACE3B0E00E94E81DFB
:1026D000212F30E0A90134E0559547953A95E1F76F
:1026E000242F220F220F742E721A272D220F120F61
:1026F0009B01AC01210F311D411D511D0E94E81DA0
:102700004E2F50E0F4E055954795FA95E1F7242FC8
:10271000220F220F421B440FE40F0E2F10E030E077
:1027200020E0005B164E2249374CAB01BC01400F44
:10273000511F621F731F48AB59AB6AAB7BABCE0115
:1027400086960E9464070E941A05882349F08091AA
:10275000DB038B3028F08D3050F085518230C0F192
:10276000812C912CA0ECAA2EAFE7BA2E1EC060914E
:10277000D60370E090E080E00E94961C2DEC3CECCB
:102780004CEC5DE30E94F51C6B017C016091D5036C
:1027900070E090E080E00E94961C9B01AC01C701B4
:1027A000B6010E945C1E4B015C010E941A05882341
:1027B00041F08091DB038C3009F434C1D8F48B30C4
:1027C00091F1C12CD12CE0ECEE2EEFE7FE2E55C09E
:1027D0006091D5037091D60376276727762790E01E
:1027E00080E00E94941C2DEC3CEC4CEC5DE30E94DC
:1027F000F51CD9CF8551823020F71091D703612F76
:1028000070E0762F662766277F778091D803682B44
:1028100090E080E00E94941C2DEC3CEC4CEC5DE3DD
:102820000E94F51C1BC16091D70370E090E080E02E
:102830000E94941C6B017C011091D80317FF0AC001
:10284000AC019B0160E070E080E89FEB0E945B1EA2
:102850006B017C011F70612F70E090E080E00E94AE
:10286000961C2DEC3CEC4CEC5DE30E94F51CA701A2
:1028700096010E945C1E6B017C0180E480937C00C9
:1028800080917A00806480937A0080917A0086FD3E
:10289000FCCF2091780030917900ACE9BFEF0E9425
:1028A0008E1F2FEF33E040E050E00E94C91DDA0197
:1028B000C9018C599F4FAF4FBF4F9BAF8AAF99AFA4
:1028C00088AF8536910524F024E630E039AF28AF93
:1028D00048AC59AC57FE02C019AE18AE6090490220
:1028E00070904A0248AC59AC640C751C70924A0254
:1028F0006092490220E030E040E251E4C701B601B5
:102900000E94F51C0E943A1F009147021091480254
:10291000060F171F109348020093470220E030E093
:1029200040E251E4C501B4010E94F51C0E943A1F27
:10293000E0914502F0914602E60FF71FF093460240
:10294000E093450220914302309144022F5F3F4FB4
:1029500030934402209343022A3031059CF1C80190
:10296000B9010E947A1F4AE0469FC001479F900D1F
:1029700011249093420280934102CF01B9010E9439
:102980007A1F469FC001479F900D112490934002EB
:1029900080933F02C301B9010E947A1F70933E02E7
:1029A00060933D021092440210924302109248023A
:1029B00010924702109246021092450210924A026B
:1029C0001092490281E08093D2030E94B2040091E8
:1029D000C2031091C3032091C4033091C503AB011E
:1029E000BC01401B510B620B730B8091CE03909185
:1029F000CF03B0E0A0E084179507A607B70708F05B
:102A00000DC210E08091CC03181788F5E091C8033F
:102A1000F091C903E10FF11D62E080810E94C602BE
:102A20001F5FF0CF1091D703612F70E090E080E03E
:102A30000E94941C6B017C016091D8036F7070E060
:102A400090E080E00E94961C2DEC3CEC4CEC5DE3A9
:102A50000E94F51CA70196010E945C1E6B017C017F
:102A600017FF0BCFF7FAF094F7F8F09406CF312C5C
:102A70008091CD03381608F067C0632C712CE0916B
:102A8000CA03F091CB03E60DF71D61E080810E943F
:102A9000C602E091CA03F091CB03E60DF71D60E09A
:102AA00080810E94980281E090E0A0E0B0E0032CD9
:102AB00004C0880F991FAA1FBB1F0A94D2F72C01CC
:102AC0009C01209530953FAF2EAF212C8091CC03F7
:102AD000281618F5022D10E0E091C803F091C90303
:102AE000E00FF11F80810E946F020C5F1F4F000FEB
:102AF000111FF801EA59FC4F892B41F48081918123
:102B000084299529918380832394E0CF80819181CA
:102B10004EAD5FAD84239523F5CFE091CA03F091CC
:102B2000CB03E60DF71D61E080810E949802809141
:102B3000CA039091CB03680E791E60E0D3018C919B
:102B40000E94C602339494CF66E6262E63E0362EAA
:102B500082EA93E081012FEF3FEFF801478D50A10A
:102B6000452B21F4148E368F258F11A20A5F1F4F3B
:102B70008017910791F7712C8091CC03781608F09B
:102B800053C0612C872D90E0880F991F9C0122591A
:102B90003C4F29012091CD03621608F043C0D201B9
:102BA0006D917C91062C02C0769567950A94E2F7A8
:102BB000729E90011124260D311DE6E6F3E080E0BF
:102BC000458D568D2417350709F4A7C68F5F3696B5
:102BD0008A30B1F760FF24C0E6E6F3E090E080E0E1
:102BE000448D411118C0E091C603F091C703E20F74
:102BF000F31F4081B6E0B89FF001B99FF00D11249A
:102C0000EA59FC4F448F368F258F10A2178E61E052
:102C10000E94BE0405C0019636968A30910501F7E0
:102C20006394B8CF7394A8CF712CF10181A1811165
:102C3000782EF6E02F0E311C02151305B1F70E9415
:102C4000B2046093C2037093C3038093C403909350
:102C5000C503772009F4E2C080918703882309F433
:102C6000DDC000918503109186030130110509F044
:102C7000D5C0709082037110D4C0712C80913B023A
:102C800090913C02029709F02EC324E37212F2C223
:102C90000E94770A84E090E090933C0280933B028C
:102CA00060E080E00E94430A62E871E088EE93E011
:102CB0000E94BA0A10E000E0BE01645D7F4FC801C7
:102CC0000E94FA0CBE016C5C7F4FC80104960E9402
:102CD000E60CBE01695C7F4FC80106960E94DC0CC1
:102CE000BE016A5C7F4FC80107960E94DC0C4CA5B0
:102CF0005DA56EA57FA5DB01CA010197A109B109F8
:102D00008E3F9F4FAF4FBF4F08F080C0CE018096DF
:102D10000E9464078DA11F928F938CA11F928F93A5
:102D20008BA11F928F938AA11F928F9389A11F92CB
:102D30008F9388A190E08053984F9F938F934EE894
:102D400051E05F934F93A1E0B0E0AC0FBD1FBF9384
:102D5000AF930E94A9211B8E1A8E1D8E1C8E1F8E72
:102D60001E8E2696EEADFFAD269701900020E9F766
:102D70003197AF0126964EAC5FAC269744195509A2
:102D8000BE016F5F7F4FCE014A960E94650C4E8D4B
:102D90005F8D6A8D7B8D8DEB92E00E945606CE0191
:102DA0004A960E945D0C6EEA71E08DEB92E00E9403
:102DB000BA0A6CA97DA98DEB92E00E94460B6AEAE3
:102DC00071E08DEB92E00E94BA0A6FA98DEB92E060
:102DD0000E943F0B6DEA71E08DEB92E00E94BA0A0F
:102DE0006EA98DEB92E00E943F0B60EB71E08DEBE2
:102DF00092E00E94BA0A61E671E08DEB92E00E94D7
:102E0000BA0A0FB6F894DEBF0FBECDBF085F1F4FE2
:102E1000003233E0130709F04FCF25C01092D203E0
:102E20002CCF61E08FE00E94980260E570E080E0C6
:102E300090E00E94800460E08FE00E94980241E3ED
:102E4000442E7410D3C110933C0200933B020E94A5
:102E5000770A60E080E00E94430A63E173E088EE55
:102E600093E00E9432060E94B20420913B0230910E
:102E70003C022130310509F0F3C2409037025090F6
:102E800038026090390270903A029B01AC0124191B
:102E9000350946095709283E33404105510508F4D4
:102EA00098C16093370270933802809339029093EF
:102EB0003A0261E080E00E94430A69EC72E088EE29
:102EC00093E00E9432066091410270914202072E07
:102ED000000C880B990B0E94961C20E030E048EC17
:102EE00052E40E94C81EAB01BC0121E030E088EE34
:102EF00093E00E947C0B67EC72E088EE93E00E9406
:102F0000320663E080E00E94430A64EC72E088EEDF
:102F100093E00E94320660913F0270914002072EBA
:102F2000000C880B990B0E94961C20E030E048ECC6
:102F300052E40E94C81EAB01BC0121E030E088EEE3
:102F400093E00E947C0B61EC72E088EE93E00E94BB
:102F5000320662E080E00E94430A6EEB72E088EE87
:102F600093E00E94320660913D0270913E0288EE2D
:102F700093E00E94460B63EB72E088EE93E00E94C0
:102F8000320663E08CE00E94430A6AEA72E088EE4F
:102F900093E00E94320611E020E030E040EF51E47F
:102FA000C701B6010E94701F87FD10E01093360222
:102FB00011E020E030E0A901C701B6010E948F1C9A
:102FC00018160CF410E01093350211E020E030E008
:102FD00044EB52E4C501B4010E94701F87FD10E06C
:102FE0001093340211E020E030E040EA51E4C501E2
:102FF000B4010E948F1C18160CF410E010933302D9
:1030000081E0EAADFBADEA35F1050CF480E0809398
:10301000320220E030E040EF51E4C701B6010E94E7
:10302000701F87FF23C020E030E0A901C701B6016F
:103030000E948F1C1816D4F420E030E044EB52E4D8
:10304000C501B4010E94701F87FF10C020E030E06E
:1030500040EA51E4C501B4010E948F1C181634F4F3
:103060002AAD3BAD2A3531050CF455C16FE972E04C
:103070008DEB92E00E94320680913302882331F07A
:1030800069E872E08DEB92E00E9432068091340292
:10309000882331F064E772E08DEB92E00E94320603
:1030A00080913202882331F06BE572E08DEB92E083
:1030B0000E94320680913602882331F068E472E083
:1030C0008DEB92E00E94320680913502882331F028
:1030D0006EE272E08DEB92E00E94320661E671E0F2
:1030E0008DEB92E00E94BA0A60903002709031023B
:1030F0001E0134E3230E311C8E01005D1F4F601A48
:10310000710AC301800F911F9A838983D8016D9141
:103110008D01CE0101960E94200D2016310689F7FF
:10312000C701B6010E943A1FF72E0091300210919C
:103130003102C80104969A838983CE0101960E94C8
:10314000200D0B5F1F4F1A8309836F2DCE0101964F
:103150000E94200D809130029091310206969A8350
:103160008983C501B4010E94411FCE0101960E94CE
:10317000200D809130029091310207969A838983C5
:1031800068ADCE0101960E94200D80913002909191
:10319000310208968032B3E09B070CF0AEC09093EA
:1031A00031028093300261E085E00E9498024CE297
:1031B00051E060E070E080EA9FE00E94020364E674
:1031C00070E080E090E00E94800460E085E00E9472
:1031D000980280E090E0892B09F4CAC80E94C006DA
:1031E000882309F4C5C80E940000BBC832E3532EEF
:1031F000751023C082E090E090933C0280933B02E4
:103200000E94770A60E080E00E94430A60EF72E06B
:1032100088EE93E00E94320661E080E00E94430A5B
:1032200060E771E088EE93E00E94BA0A63E080E014
:103230000E94430A65EE72E012CE23E3622E7610FE
:103240001DCD83E090E090933C0280933B020E946E
:10325000770A60E080E00E94430A67ED72E088EE42
:1032600093E00E94320663E080E00E94430A6CEC27
:1032700072E0F5CD43E2741236C00E94770A61E035
:1032800080E00E94430A6DEE70E088EE93E00E94B9
:10329000320610E000E01A8309836FEFCE01019639
:1032A0000E94200D0F5F1F4F003253E0150799F762
:1032B000109231021092300262E080E00E94430AD4
:1032C00062EE70E088EE93E00E94320668EE73E0F2
:1032D00080E090E00E9480040E948A0A10923C02E2
:1032E00010923B02C0CD85E37812BDCD10923C0216
:1032F00010923B020E948A0AB6CD109231021092BF
:10330000300280912E0290912F02089690932F0206
:1033100080932E0248CF20E030E040E752E4C50120
:10332000B4010E948F1C87FD22C020E030E040EAFB
:1033300052E4C501B4010E94701F1816C4F0EAAD32
:10334000FBADFD97A4F420E030E040EA51E4C70172
:10335000B6010E94701F181654F020E030E040E2E1
:1033600051E4C701B6010E948F1C87FF6CC064E264
:1033700072E08DEB92E00E94320620E030E040E700
:1033800052E4C501B4010E948F1C87FF06C06BE0A8
:1033900072E08DEB92E00E94320620E030E040EADD
:1033A00052E4C501B4010E94701F181634F463EF93
:1033B00071E08DEB92E00E9432062AAD3BAD2D33D9
:1033C000310534F06EED71E08DEB92E00E94320633
:1033D00020E030E040EA51E4C701B6010E94701FCE
:1033E000181634F467EC71E08DEB92E00E9432061F
:1033F00020E030E040E251E4C701B6010E948F1C9A
:1034000087FF06C06FEA71E08DEB92E00E94320602
:1034100061E671E08DEB92E00E94BA0A61E084E01F
:103420000E94980248EC50E060E070E080ED97E088
:103430000E94020364E670E080E090E00E94800455
:1034400060E084E0C4CE61E083E00E94980264E61C
:1034500070E080E090E00E94800460E083E0B7CEFE
:103460002230310509F0C8C031E47312B2CE88E9C8
:1034700091E00E94C90A61E971E08DEB92E00E943F
:10348000320688A51F928F938FA11F928F938EA1D2
:1034900090E08053984F9F938F9382EB91E09F939E
:1034A0008F9341E050E04C0F5D1F5F934F930E945C
:1034B000A9211B8E1A8E1D8E1C8E1F8E1E8E269687
:1034C000EEADFFAD269701900020E9F73197AF01EF
:1034D00026964EAC5FAC269744195509BE016F5F26
:1034E0007F4FCE014A960E94650CCE014A960E94FB
:1034F000DC0ACE014A960E945D0C6AE871E08DEB11
:1035000092E00E9432068BA51F928F938AA51F928C
:103510008F9389A51F928F938BE991E09F938F934F
:1035200066246394712C6C0E7D1E7F926F920E94B4
:10353000A9211B8E1A8E1D8E1C8E1F8E1E8EF201CF
:1035400001900020E9F73197AF0144195509B30103
:10355000CE014A960E94650CCE014A960E94DC0A72
:10356000CE014A960E945D0C66E871E08DEB92E018
:103570000E94320622E030E0B701A6018DEB92E016
:103580000E947C0B84E891E00E94C90A60E871E027
:103590008DEB92E00E94320622E030E0B501A401FA
:1035A0008DEB92E00E947C0B8EE791E00E94C90AAD
:1035B0006AE771E08DEB92E00E94320668AD79AD6A
:1035C0008DEB92E00E94460B88E791E00E94C90AC9
:1035D00080E691E00E94C90A62E080E00E94430A0E
:1035E0006EE471E088EE93E00E9432060FB6F89424
:1035F000DEBF0FBECDBFEDCD2430310509F0F6C0E2
:103600000E94770A60E080E00E94430A6CE371E068
:1036100088EE93E00E94320660E273E080E090E082
:103620000E948004EE24E394F12C10E000E0BE013F
:10363000665E7F4FC8010E94FA0CBE01605E7F4F3C
:10364000C80104960E94E60CBE016C5C7F4FC80165
:1036500006960E94DC0CBE01645D7F4FC801079690
:103660000E94DC0C4A8D5B8D6C8D7D8DDB01CA0167
:103670000197A109B1098E3F9F4FAF4FBF4F08F08F
:1036800095C0CE0101960E9464070E94770A60E00F
:1036900080E00E94430A6B8188EE93E00E943F0B1A
:1036A0006FE288EE93E00E942B066A8188EE93E039
:1036B0000E943F0B60E288EE93E00E942B068C8113
:1036C0008A3028F460E388EE93E00E942B066C8138
:1036D00088EE93E00E943F0B6AE388EE93E00E943D
:1036E0002B068D818A3028F460E388EE93E00E94F7
:1036F0002B066D8188EE93E00E943F0B61E080E035
:103700000E94430A6FEB71E088EE93E00E94BA0AD0
:1037100061E08BE00E94430AB70188EE93E00E94CB
:10372000460B62E080E00E94430A69E371E088EEA4
:1037300093E00E94320668A179A188EE93E00E948E
:10374000460B63E371E088EE93E00E9432066CA9B9
:1037500088EE93E00E943F0B61E371E088EE93E016
:103760000E9432066DE271E088EE93E00E9432061C
:103770006CA588EE93E00E943F0B6BE271E088EE4F
:1037800093E00E94320663E080E00E94430A60E218
:1037900071E088EE93E00E9432064FEFE41AF40ADB
:1037A00060ED77E080E090E00E948004085F1F4FAA
:1037B000003253E0150709F03ACF0E94770A61E022
:1037C00080E00E94430A6EE071E088EE93E00E9480
:1037D000320668EE73E080E090E00E9480040E9470
:1037E0008A0A10923C0210923B02F3CC233031053E
:1037F00009F0EFCC00913702109138022091390284
:1038000030913A022B013C01401A510A620A730AB4
:1038100093018201083E13402105310508F4D9CCFB
:1038200060933702709338028093390290933A0282
:1038300061E080E00E94430A67E071E088EE93E077
:103840000E94320688A58A3028F460E388EE93E06F
:103850000E942B0668A588EE93E00E943F0B6FE262
:1038600088EE93E00E942B068FA18A3028F460E353
:1038700088EE93E00E942B066FA188EE93E00E94F1
:103880003F0B6FE288EE93E00E942B064EA150E0C2
:103890004053584F70E060E02AE088EE93E00E94C9
:1038A000F30A62E080E00E94430A60E071E088EE83
:1038B00093E00E94320689A58A3028F460E388EEFE
:1038C00093E00E942B0669A588EE93E00E943F0BCF
:1038D0006AE388EE93E00E942B068AA58A3028F4DA
:1038E00060E388EE93E00E942B066AA588EE93E0E1
:1038F0000E943F0B6AE388EE93E00E942B068BA5A3
:103900008A3028F460E388EE93E00E942B066BA5D2
:1039100088EE93E00E943F0B5CCC617079C90E94F5
:10392000D11C08F481E00895E89409C097FB3EF4A7
:1039300090958095709561957F4F8F4F9F4F9923FC
:10394000A9F0F92F96E9BB279395F695879577957A
:103950006795B795F111F8CFFAF4BB0F11F460FF3A
:103960001BC06F5F7F4F8F4F9F4F16C0882311F092
:1039700096E911C0772321F09EE8872F762F05C0A6
:10398000662371F096E8862F70E060E02AF09A9541
:10399000660F771F881FDAF7880F9695879597F936
:1039A0000895990F0008550FAA0BE0E8FEEF1616D0
:1039B0001706E807F907C0F012161306E407F50723
:1039C00098F0621B730B840B950B39F40A2661F097
:1039D000232B242B252B21F408950A2609F4A1403A
:1039E000A6958FEF811D811D08950E94081D0C94DE
:1039F000791D0E946B1D38F00E94721D20F09523E6
:103A000011F00C94621D0C94681D11240C94AD1DD2
:103A10000E948A1D70F3959FC1F3950F50E0551FCA
:103A2000629FF001729FBB27F00DB11D639FAA2713
:103A3000F00DB11DAA1F649F6627B00DA11D661F62
:103A4000829F2227B00DA11D621F739FB00DA11D83
:103A5000621F839FA00D611D221F749F3327A00D3D
:103A6000611D231F849F600D211D822F762F6A2FD9
:103A700011249F5750409AF0F1F088234AF0EE0F3E
:103A8000FF1FBB1F661F771F881F91505040A9F76B
:103A90009E3F510580F00C94621D0C94AD1D5F3F5C
:103AA000E4F3983ED4F3869577956795B795F795A7
:103AB000E7959F5FC1F7FE2B880F911D969587951F
:103AC00097F9089597F99F6780E870E060E008959E
:103AD0009FEF80EC089500240A9416161706180626
:103AE0000906089500240A94121613061406050602
:103AF0000895092E0394000C11F4882352F0BB0F93
:103B000040F4BF2B11F460FF04C06F5F7F4F8F4FF5
:103B10009F4F089557FD9058440F551F59F05F3F30
:103B200071F04795880F97FB991F61F09F3F79F0DF
:103B300087950895121613061406551FF2CF469561
:103B4000F1DF08C0161617061806991FF1CF8695E3
:103B50007105610508940895E894BB2766277727C7
:103B6000CB0197F90895F999FECF92BD81BDF89ADE
:103B7000992780B50895262FF999FECF1FBA92BDD7
:103B800081BD20BD0FB6F894FA9AF99A0FBE01963E
:103B90000895052E97FB1EF400940E94E01D57FD2A
:103BA00007D00E942A1E07FC03D04EF40C94E01D9F
:103BB00050954095309521953F4F4F4F5F4F089559
:103BC00090958095709561957F4F8F4F9F4F089589
:103BD0000E944C1EA59F900DB49F900DA49F800D38
:103BE000911D112408952F923F924F925F926F92F0
:103BF0007F928F929F92AF92BF92CF92DF92EF927D
:103C0000FF920F931F93CF93DF93CDB7DEB7CA1BFD
:103C1000DB0B0FB6F894DEBF0FBECDBF09942A8828
:103C2000398848885F846E847D848C849B84AA84D0
:103C3000B984C884DF80EE80FD800C811B81AA815D
:103C4000B981CE0FD11D0FB6F894DEBF0FBECDBF28
:103C5000ED010895A1E21A2EAA1BBB1BFD010DC0A8
:103C6000AA1FBB1FEE1FFF1FA217B307E407F5072C
:103C700020F0A21BB30BE40BF50B661F771F881F08
:103C8000991F1A9469F760957095809590959B019E
:103C9000AC01BD01CF010895A29FB001B39FC00147
:103CA000A39F700D811D1124911DB29F700D811D68
:103CB0001124911D08955058BB27AA270E94731EF6
:103CC0000C94791D0E946B1D38F00E94721D20F02B
:103CD00039F49F3F19F426F40C94681D0EF4E09516
:103CE000E7FB0C94621DE92F0E948A1D58F3BA1756
:103CF000620773078407950720F079F4A6F50C9402
:103D0000AC1D0EF4E0950B2EBA2FA02D0B01B901BE
:103D100090010C01CA01A0011124FF27591B99F041
:103D2000593F50F4503E68F11A16F040A22F232F4D
:103D3000342F4427585FF3CF469537952795A7959D
:103D4000F0405395C9F77EF41F16BA0B620B730B44
:103D5000840BBAF09150A1F0FF0FBB1F661F771FB5
:103D6000881FC2F70EC0BA0F621F731F841F48F46A
:103D7000879577956795B795F7959E3F08F0B0CFF3
:103D80009395880F08F09927EE0F979587950895DA
:103D90000E94DC1E0C94791D0E94721D58F00E9436
:103DA0006B1D40F029F45F3F29F00C94621D511106
:103DB0000C94AD1D0C94681D0E948A1D68F3992314
:103DC000B1F3552391F3951B550BBB27AA27621717
:103DD0007307840738F09F5F5F4F220F331F441F24
:103DE000AA1FA9F335D00E2E3AF0E0E832D0915058
:103DF0005040E695001CCAF72BD0FE2F29D0660F45
:103E0000771F881FBB1F261737074807AB07B0E887
:103E100009F0BB0B802DBF01FF2793585F4F3AF08D
:103E20009E3F510578F00C94621D0C94AD1D5F3FD0
:103E3000E4F3983ED4F3869577956795B795F79513
:103E40009F5FC9F7880F911D9695879597F90895FB
:103E5000E1E0660F771F881FBB1F62177307840797
:103E6000BA0720F0621B730B840BBA0BEE1F88F7A6
:103E7000E09508950E94411F6894B1110C94AD1D06
:103E800008950E94921D88F09F5798F0B92F9927A6
:103E9000B751B0F0E1F0660F771F881F991F1AF035
:103EA000BA95C9F714C0B13091F00E94AC1DB1E0D1
:103EB00008950C94AC1D672F782F8827B85F39F0D0
:103EC000B93FCCF3869577956795B395D9F73EF4CE
:103ED00090958095709561957F4F8F4F9F4F089576
:103EE0000E94D11C08F48FEF08950E94D11C880B0A
:103EF000990B089597FB072E16F4009407D077FDD1
:103F000009D00E949D1F07FC05D03EF49095819535
:103F10009F4F0895709561957F4F08950E944C1EA4
:103F2000332312F48A1B9B0B0C94981F0E944C1E87
:103F3000B7FF0895821B930B0895AA1BBB1B51E189
:103F400007C0AA1FBB1FA617B70710F0A61BB70B09
:103F5000881F991F5A95A9F780959095BC01CD01AE
:103F60000895EE0FFF1F0590F491E02D09940F9333
:103F70001F93CF93DF938230910510F482E090E09D
:103F8000E091F703F091F80330E020E0B0E0A0E02A
:103F9000309799F42115310509F44AC0281B390BD3
:103FA00024303105D8F58A819B816115710589F12D
:103FB000FB0193838283FE0111C040815181028104
:103FC000138148175907E0F04817590799F41097DB
:103FD00061F012960C93129713961C933296CF01B0
:103FE000DF91CF911F910F9108950093F7031093E4
:103FF000F803F4CF2115310551F04217530738F07B
:10400000A901DB019A01BD01DF01F801C1CFEF0178
:10401000F9CF9093F8038093F703CDCFFE01E20F21
:10402000F31F819391932250310939832883D7CF8D
:104030002091F5033091F603232B41F420911B01CD
:1040400030911C013093F6032093F5032091190160
:1040500030911A012115310541F42DB73EB7409139
:104060001D0150911E01241B350BE091F503F091C9
:10407000F603E217F307A0F42E1B3F0B28173907AE
:1040800078F0AC014E5F5F4F2417350748F04E0FB4
:104090005F1F5093F6034093F503819391939FCF55
:1040A000F0E0E0E09CCFCF93DF930097E9F0FC01D4
:1040B000329713821282A091F703B091F803ED01B9
:1040C00030E020E01097A1F420813181820F931F0E
:1040D0002091F5033091F6032817390709F061C0E4
:1040E000F093F603E093F503DF91CF910895EA0191
:1040F000CE17DF07E8F54A815B819E014115510526
:10410000B1F7E901FB83EA8349915991C40FD51FA7
:10411000EC17FD0761F4808191810296840F951F51
:10412000E90199838883828193819B838A83F0E06C
:10413000E0E012968D919C9113970097B9F52D911F
:104140003C911197CD010296820F931F2091F503A8
:104150003091F6032817390739F6309751F5109248
:10416000F8031092F703B093F603A093F503BCCFC6
:10417000D383C28340815181840F951FC817D9070B
:1041800061F44E5F5F4F88819981480F591F5183B9
:1041900040838A819B81938382832115310509F0B5
:1041A000B0CFF093F803E093F7039ECFFD01DC015D
:1041B000C0CF13821282D7CFB0E0A0E0E2EEF0E2EF
:1041C0000C94F51D8C01009751F4CB010E94B71F90
:1041D0008C01C801CDB7DEB7E0E10C94111EFC01E3
:1041E000E60FF71F9C0122503109E217F30708F48C
:1041F0009DC0D901CD91DC911197C617D70798F0D2
:10420000C530D10530F3CE0104978617970708F320
:10421000C61BD70B2297C193D1936D937C93CF018B
:104220000E945320D6CF5B01AC1ABD0A4C018C0E04
:104230009D1EA091F703B091F803512C412CF12C55
:10424000E12C109731F58091F5039091F6038815D4
:10425000990509F05CC04616570608F058C08091D1
:10426000190190911A01009741F48DB79EB74091C2
:104270001D0150911E01841B950BE817F90708F0EA
:1042800055C0F093F603E093F503F9017183608361
:10429000A0CF8D919C91119712966C9012971396C6
:1042A0007C901397A815B90559F56C0142E0C40E2E
:1042B000D11CCA14DB0420F1AC014A195B09DA01F4
:1042C0001296159780F06282738251834083D901E0
:1042D0006D937C93E114F10471F0D7011396FC9374
:1042E000EE93129776CF22968C0F9D1FF901918342
:1042F0008083F301EFCFF093F803E093F70369CFE6
:104300004816590608F42C017D01D3019ACFCB0140
:104310000E94B71F7C01009749F0AE01B8010E94CE
:104320009921C8010E945320870153CF10E000E07B
:1043300050CFFB01DC0102C001900D924150504072
:10434000D8F70895FB01DC0101900D920020E1F700
:104350000895AEE0B0E0EFEAF1E20C94011E0D89A1
:104360001E8986E08C831A8309838FEF9FE79E83E3
:104370008D83AE01475E5F4F6F89788DCE010196C8
:104380000E94CC212F813885020F131FF801108263
:104390002E96E4E00C941D1EABE0B0E0E2EDF1E2FD
:1043A0000C94F31D7C013B018A01FC0117821682EB
:1043B000838181FFC8C1CE0101965C01F701938121
:1043C000F30193FD859193FF81913F01882309F4C7
:1043D00053C1853239F493FD859193FF81913F015B
:1043E000853229F4B70190E00E94BC23E7CF912CDD
:1043F000212C312CFFE1F31538F08B3211F190F4C0
:10440000803209F1833229F137FC3CC020ED280FBE
:104410002A3050F536FE20C08AE0989E200D1124E7
:10442000922E06C08D3291F0803371F7689430F887
:10443000F30193FD859193FF81913F018111DACFC3
:1044400021C0689431F8689432F8F2CF689433F858
:10445000EFCF689434F8ECCFEAE02E9E200D1124C3
:10446000222E689435F8E4CF8E3229F436FC04C14C
:10447000689436F8DDCF8C3619F4689437F8D8CFC5
:104480008836B1F2982F9F7D95549330E0F08336B3
:10449000A1F18337C1F1833509F063C02801F2E04F
:1044A0004F0E511CF801C080D180692D70E036FCA0
:1044B00002C06FEF7FEFC6010E94A6234C016894F3
:1044C00037F882010AC00C5F1F4FFFE3F98388248D
:1044D0008394912C6501E89437F833FE2DC0522C5B
:1044E0008114910471F5552009F468CFB70180E279
:1044F00090E00E94BC235A94F6CFF8018081898312
:104500000E5F1F4FE4CF2801F2E04F0E511CF8015F
:10451000C080D180692D70E036FC02C06FEF7FEF64
:10452000C6010E94B1234C018201D5CFB70180E2C0
:1045300090E00E94BC232A942814190409F0B0F7D3
:10454000CECFF60137FC859137FE81916F01B7011F
:1045500090E00E94BC2351105A94F1E08F1A910808
:10456000BFCF843619F0893609F077C0F80137FEDD
:104570006BC060817181828193810C5F1F4FF32D2D
:10458000FF763F2E97FF09C09095809570956195B5
:104590007F4F8F4F9F4F689437F82AE030E0A50196
:1045A0000E94EC23C82ECA188C2C432C36FE0CC05B
:1045B000E89440F8C91440F434FE05C032FC03C04E
:1045C000F32DFE7E4F2E892C44FE95C0FE01EC0D8E
:1045D000F11D8081803309F087C0242D297E422E71
:1045E000842D8870582E43FC95C040FE8FC09C2CB3
:1045F000821418F42C0C922C981844FE91C0B70128
:1046000080E390E00E94BC2342FE09C088E790E06E
:1046100041FE02C088E590E0B7010E94BC23C914A6
:1046200008F48AC0CA94D12C9FEFC91AD90ACA0CBF
:10463000DB1CF60182916F01B70190E00E94BC2360
:10464000AC14BD04B1F74FCF60817181072E000C0F
:10465000880B990B0E5F1F4F92CFD32CE894D4F8A0
:104660002AE030E0853739F1232D297FD22E8F368D
:1046700001F148F48835A9F0F701868197812B96DE
:10468000E2E10C940F1E803749F08837A9F7D4FE79
:1046900002C06894D2F820E130E00DC06894D4F8EC
:1046A000F6CF34FE03C0822F8660D82E20E132E0A0
:1046B00002C028E030E0F801D7FE0FC060817181B0
:1046C000828193810C5F1F4FA5010E94EC23C82EAD
:1046D000CA183D2CE89437F867CF6081718190E06B
:1046E00080E00E5F1F4FF0CF42FC02C0839478CF72
:1046F0008394839475CF842D867809F471CFF6CF97
:10470000B70180E290E00E94BC2383948214C0F33E
:10471000512C73CF522C5818821408F46ECFF8CF56
:10472000842D867809F47BCF8BE241FE80E247FC42
:104730008DE2B70190E071CFB70180E390E00E9475
:10474000BC239A946CCF8FEF9FEF99CFFC0105901B
:10475000615070400110D8F7809590958E0F9F1F83
:104760000895FC016150704001900110D8F78095C8
:1047700090958E0F9F1F08950F931F93CF93DF93F4
:10478000182F092FEB018B8181FD09C01FEF0FEF5F
:10479000812F902FDF91CF911F910F91089582FF6C
:1047A00014C02E813F818C819D81281739073CF4EC
:1047B000E881F981CF0101969983888310838E81E6
:1047C0009F8101969F838E83E3CFE885F985812FB2
:1047D0000995892BA1F3DACFFA01AA27283051F1E4
:1047E000203181F1E8946F936E7F6E5F7F4F8F4F22
:1047F0009F4FAF4FB1E03ED0B4E03CD0670F781F81
:10480000891F9A1FA11D680F791F8A1F911DA11D65
:104810006A0F711D811D911DA11D20D009F468949E
:104820003F912AE0269F11243019305D3193DEF646
:10483000CF010895462F4770405D4193B3E00FD0FC
:10484000C9F7F6CF462F4F70405D4A3318F0495DE7
:1048500031FD4052419302D0A9F7EACFB4E0A695CA
:104860009795879577956795BA95C9F700976105EC
:10487000710508959B01AC010A2E06945795479542
:1048800037952795BA95C9F7620F731F841F951F37
:08489000A01D0895F894FFCF6C
:10489800FF090807060D0C0B0A313233413435364F
:1048A80042373839432A3023440000F90380000096
:1048B8000040001400540000000000F6065606836D
:1048C800064307B4069206A60600000000CD09A01C
:1048D80009100A760999098609770900000000205D
:1048E800062406280600000000B40A5606100A63CB
:1048F800070D0A006E616E00696E66006F766600CD
:10490800342D20566572206D61726361646F726523
:1049180073004D41524341444F5245533A00257567
:104928002D253032642D2530326454253032643AD6
:10493800253032643A2530326400430900250900E5
:10494800250025752D253032642D25303264004D23
:0A49580061726361646F72202D002C
:00000001FF
