:100000000C94B7010C94DF010C94DF010C94DF0118
:100010000C94DF010C94DF010C94DF010C94AC0F05
:100020000C94DF010C94DF010C94DF010C94DF01D0
:100030000C94DF010C94DF010C94DF010C94DF01C0
:100040000C94620F0C94DF010C9454100C942E103D
:100050000C94DF010C94DF010C94DF010C94DF01A0
:100060000C9486100C94DF0143202D2052656C6F98
:1000700067696F0042202D204D61726361646F7269
:100080000041202D20457374617469737469636144
:10009000730053656C6563696F6E6520756D6120D3
:1000A0006F7063616F3A00496E696369616E646F76
:1000B00020677261766163616F20646520646164AA
:1000C0006F732E2E2E0053697374656D6120696EF7
:1000D00069636961646F001F1C1F1E1F1E1F1F1EA6
:1000E0001F1E436F6E636C7569646F21004C696DF0
:1000F00070616E646F20454550524F4D2E2E2E007C
:10010000486F72613A2000446174613A2000466988
:100110006D20646F7320726567697374726F73000A
:100120002A202D20566F6C746172002500204C3AF5
:10013000002500432020553A00543A004D415243D7
:1001400041444F5245532053414C564F53004D614B
:10015000726361646F722073616C766F212020007E
:100160003D3D3D3D3D3D3D3D3D3D3D3D3D3D3D3DBF
:100170003D3D3D3D3D3D3D0025004C3A20002500E4
:10018000553A20004300543A2000486F72613A20EB
:1001900000446174613A20003D3D3D204D41524391
:1001A00041444F522053414C564F203D3D3D005459
:1001B000656D702E2061626169786F20646F2069BF
:1001C0006465616C21200054656D702E2061636947
:1001D0006D6120646F20696465616C2120004C753D
:1001E0007A206163696D6120646F20696465616C68
:1001F000212000556D696461646520756D20706F04
:1002000075636F20616C7461212000556D696461B4
:10021000646520756D20706F75636F206261697809
:10022000612120005761726E696E673A2000546543
:100230006D7065726174757261206D7569746F207F
:10024000626169786121200054656D706572617426
:1002500075726120616C74612120004C756D696E4E
:100260006F7369646164652065786365737369762B
:1002700061212000556D6964616465206D75697444
:100280006F20616C7461212000556D696461646543
:10029000206D7569746F2062616978612120005B4F
:1002A0004352495449434F5D20002A2D566F6C74C8
:1002B00061720025202020202020202020004C3AA0
:1002C00000252000553A004300543A002A202D20F2
:1002D000566F6C7461720052454C4F47494F204134
:1002E0005455414C002A202D20566F6C74617200C9
:1002F00023202D2041706167617200436C69717524
:10030000653A004553544154495354494341533A83
:100310000000000000240027002A00000000080060
:1003200002010000030407000000000000000000BC
:1003300000000023002600290000000000250028FE
:10034000002B000204040404040404040202020258
:100350000202030303030303010204081020408088
:10036000010204081020010204081020A511112424
:100370001FBECFEFD8E0DEBFCDBF12E0A0E0B1E0FE
:10038000EAE2FAE402C005900D92AC30B107D9F769
:1003900024E0ACE0B2E001C01D92AB33B207E1F75C
:1003A00011E0C7EBD1E004C02197FE010E947A2042
:1003B000C63BD107C9F70E9477120C9413250C9401
:1003C000000096E0899FD0011124A855BC4F90965B
:1003D0007C936E935F9791E091969C939197E091B7
:1003E0001504F091160490911404992339F0309774
:1003F00051F0811108C08091C4030994309719F01D
:100400005C968C91FACF0895CF92DF92EF92FF9293
:10041000CF93DF93B0911E04A0E08111AB2F8091A8
:100420001F0490E0880F991FAC01415D5C4FC090A4
:100430002404D0902504E0902604F090270430E0B6
:1004400020E0FA01C591D491E881B90190E080E003
:10045000EB23EA130AC02F5F3F4F6C157D058E0515
:100460009F0578F36FEF7FEFCB01DF91CF91FF9086
:10047000EF90DF90CF90089508950895833081F034
:1004800028F4813099F08230A9F008958730A9F0DE
:100490008830C9F08430B1F4809180008F7D03C032
:1004A000809180008F7780938000089584B58F7746
:1004B00084BD089584B58F7DFBCF8091B0008F7788
:1004C0008093B00008958091B0008F7DF9CFCF93D5
:1004D000DF93282F30E0F901E55EFC4F8491F901AC
:1004E000E85AFC4FD491F901EC5BFC4FC491CC234A
:1004F000A1F081110E943E02EC2FF0E0EE0FFF1FF1
:10050000E15DFC4FA591B491EC91ED2381E090E089
:1005100009F480E0DF91CF91089580E090E0FACF78
:10052000862F0C9467021F93CF93DF93282F30E020
:10053000F901E55EFC4F8491F901E85AFC4FD49132
:10054000F901EC5BFC4FC491CC23A9F0162F81116B
:100550000E943E02EC2FF0E0EE0FFF1FE75CFC4F25
:10056000A591B4918FB7F894EC91111108C0D09572
:10057000DE23DC938FBFDF91CF911F910895DE2B97
:10058000F8CF862F642F0C949302CF93DF9390E0E3
:10059000FC01E85AFC4F24918C5B9C4FFC01849138
:1005A0008823C9F090E0880F991FFC01EF5EFC4F93
:1005B000A591B491FC01E75CFC4FC591D491611108
:1005C0000DC09FB7F8948C91209582238C938881DD
:1005D000282328839FBFDF91CF910895623051F483
:1005E0009FB7F8943C91822F809583238C93E88168
:1005F0002E2BEFCF8FB7F894EC912E2B2C938FBF2F
:10060000EACF862F642F0C94C5024F925F926F92AF
:100610007F928F929F92AF92BF92CF92DF92EF9292
:10062000FF920F931F93CF938C014A015B0180913E
:1006300040018F3099F08F3F09F451C0CF911F9145
:100640000F91FF90EF90DF90CF90BF90AF909F9071
:100650008F907F906F905F904F900895E3E4F3E068
:10066000C491C7FDEBCF61E08FE00E94C502CC23AF
:1006700019F0C23009F0E7C0712C612C60E472E41B
:100680008FE090E0A30198010E94921E69017A0117
:1006900081E0C81AD108E108F108C23009F08EC023
:1006A00092E08FEFC816D104E104F10489F084F0E0
:1006B00060E970ED83E090E0A30198010E94921E32
:1006C00069017A0181E0C81AD108E108F10893E0D4
:1006D0008091B100887F892B8093B10092C08FE018
:1006E00080934001E3E4F3E0C491CF3F09F4A6CF47
:1006F000C13021F150F0C23009F43EC0C7FD9ECF99
:1007000061E08FE00E94C502B4CF14BC15BC84B573
:10071000826084BD85B5816085BDE3E5F3E0E49149
:10072000F0E0EE0FFF1FE75CFC4F85919491E7E648
:10073000F3E0E491E093A202C0E095CF1092800034
:100740001092810080918100886080938100809167
:100750008100816080938100E3E5F3E0E491F0E0C3
:10076000EE0FFF1FE75CFC4F85919491E7E6F3E005
:10077000E491E093A10277CF1092B0001092B10003
:100780008091B00082608093B0008091B100816060
:100790008093B100E3E5F3E0E491F0E0EE0FFF1F9A
:1007A000E75CFC4F859194919093A00280939F0207
:1007B000E7E6F3E0E491E0939E0255CF8FEFC81691
:1007C000D104E104F104A9F0A4F068E478EE81E03A
:1007D00090E0A30198010E94921E69017A0181E0D4
:1007E000C81AD108E108F10894E0C11171CF93E073
:1007F00003C092E0C1116CCF85B5887F892B85BD80
:10080000C0E0D801AA0FBB1FA50194010E94B11E30
:1008100028EE33E040E050E00E94F31EC13061F169
:10082000C230E1F1C1110ACFC7BC2093AB023093B3
:10083000AC024093AD025093AE0280916E00826094
:1008400080936E00FBCE980150E040E060E072E1E2
:100850008AE790E00E94921E69017A0181E0C81A3D
:10086000D108E108F108C13061F680918100887FEC
:10087000816080938100C5CFD0928900C0928800AA
:100880002093A7023093A8024093A9025093AA0292
:1008900080916F00826080936F00D0CEC092B300D1
:1008A0002093A3023093A4024093A5025093A60282
:1008B00080917000826080937000C0CE3FB7F89442
:1008C0008091940290919502A0919602B091970226
:1008D00026B5A89B05C02F3F19F00196A11DB11D9B
:1008E0003FBFBA2FA92F982F8827BC01CD01620FD7
:1008F000711D811D911D42E0660F771F881F991F92
:100900004A95D1F708958F929F92AF92BF92CF925E
:10091000DF92EF92FF924B015C010E945E046B013B
:100920007C010E945E046C197D098E099F09683E56
:10093000734081059105A8F321E0821A9108A1086E
:10094000B10888EEC80E83E0D81EE11CF11C8114AA
:100950009104A104B10429F7FF90EF90DF90CF90AC
:10096000BF90AF909F908F9008952FB7F8946091AB
:1009700090027091910280919202909193022FBF08
:1009800008950F931F93CF93DF93C82FD62F86E040
:10099000C89FF0011124E855FC4F11A2878D90A14A
:1009A00081309105F1F058F082309105F1F1039713
:1009B00009F440C0DF91CF911F910F9108956623F4
:1009C000C9F361E070E08C2F0E94E1010E94B50440
:1009D00060930004709301048093020490930304D5
:1009E000E9CF0E94B5040091000410910104209108
:1009F000020430910304AB01BC01401B510B620B9C
:100A0000730B8091120490911304B0E0A0E084175E
:100A10009507A607B70748F462E070E08C2FDF91D6
:100A2000CF911F910F910C94E10163E070E0D1111F
:100A3000C1CFF4CF70E060E0F1CF6F927F928F92E0
:100A40009F92AF92BF92CF92DF92EF92FF920F935D
:100A50001F93CF93DF9381E0809314040E94B50429
:100A600000910404109105042091060430910704BC
:100A7000AB01BC01401B510B620B730B8091100446
:100A800090911104B0E0A0E084179507A607B7077E
:100A900008F014C1C0E080910E04C81760F4E09122
:100AA0000A04F0910B04EC0FF11D62E080810E94BA
:100AB000C502CF5FF0CF712C812C912C540183940F
:100AC00080910F04781608F05FC0072D10E0E091C8
:100AD0000C04F0910D04E00FF11F61E080810E9491
:100AE000C502E0910C04F0910D04E00FF11F60E0ED
:100AF00080810E949302D501C401072C04C0880F95
:100B0000991FAA1FBB1F0A94D2F76C017C01E094C5
:100B1000F094612C80910E046816F8F4C62DD0E094
:100B2000E0910A04F0910B04EC0FFD1F80810E94FC
:100B300067022496CC0FDD1FC855DC4F892B41F48A
:100B4000888199818C299D29998388836394E2CF38
:100B5000888199818E219F21F7CFE0910C04F0913B
:100B60000D04E00FF11F61E080810E9493028091EB
:100B70000C0490910D04080F191F60E0F8018081AA
:100B80000E94C50273949CCFC8EAD3E0FE018FEFA8
:100B90009FEF278D30A1232B21F4148E968F858F04
:100BA00011A2369623E0E43EF20799F7F12C96E085
:100BB000D92E80910E04F81608F050C0E12C0F2DAC
:100BC00010E0000F111F00551C4F20910F04E2167A
:100BD00008F042C0F801608171810E2C02C0769548
:100BE00067950A94E2F7F29E900111242E0D311DB3
:100BF000E8EAF3E080E0458D568D2417350709F4C7
:100C000061C08F5F36968A30B1F760FF23C0E8EA93
:100C1000F3E090E080E0448D411117C0E0910804BA
:100C2000F0910904E20FF31F4081D89EF001D99E94
:100C3000F00D1124E855FC4F448F368F258F10A2FC
:100C4000178E61E00E94C10405C0019636968A3075
:100C5000910509F7E394B9CFF394ABCF10E089A1E4
:100C60008111182F2696F3E0C43EDF07C1F70E94DA
:100C7000B504609304047093050480930604909374
:100C800007041123D9F08091C9038823B9F080911A
:100C9000C7039091C803019789F48091C403DF9141
:100CA000CF911F910F91FF90EF90DF90CF90BF9069
:100CB000AF909F908F907F906F9008951092140442
:100CC00080E0EDCF6170BECFCF92DF92EF92FF92C6
:100CD0000F931F93CF93DF93CDB7DEB7C054D140AE
:100CE0000FB6F894DEBF0FBECDBF0E94B5040091D1
:100CF00020041091210420912204309123046B01DF
:100D00007C01C01AD10AE20AF30A97018601003D6C
:100D100017402105310590F480912804C05CDE4F16
:100D20000FB6F894DEBF0FBECDBFDF91CF911F91FC
:100D30000F91FF90EF90DF90CF9008956093200483
:100D400070932104809322049093230410921B0437
:100D500010921A0410921904109218041092170499
:100D600062E080911C040E94C50261E070E080E0B6
:100D700090E00E94830461E080911C040E94C502FF
:100D800060E080911C040E94930280911D048551B3
:100D9000823020F58BE291E10197F1F762E08091DA
:100DA0001C040E94C5028091290490E082309105C4
:100DB00038F0880F991F880F991F05970197F1F751
:100DC000F89480E00E9404026F3F7F4F8F4F9F4F47
:100DD00061F410922804789480E0A0CF64E170E080
:100DE00080E090E00E948304D9CF81E00E94040259
:100DF0006F3F7F4F8F4F9F4F61F38E010F5F1F4FEC
:100E00006E012FEBC21A2EEFD20A780180E00E9409
:100E10000402F701608371838283938381E00E94DF
:100E20000402F7016483758386839783F8E0EF0EED
:100E3000F11CEC14FD0451F7789430E020E0F80147
:100E4000C080D180E280F3804481558166817781C2
:100E5000FFEFCF16DF06EF06FF0631F04F3F8FEFB3
:100E600058076807780719F410922804B5CFF901DC
:100E700083E0F595E7958A95E1F7E95EFB4F808180
:100E8000880FC416D506E606F70610F180832F5F9B
:100E90003F4F085F1F4F2832310589F640911B04F0
:100EA0002091170480911804280F3327331F809155
:100EB0001904280F311D80911A04820F932F911D60
:100EC00099274817190681F681E08093280426CFD8
:100ED0008160DCCFDC01ED91FC910190F081E02D8F
:100EE0000994EF92FF920F931F93CF93DF938C019E
:100EF0007B01D0E0C0E0F701EC0FFD1F6491662399
:100F000061F0D801ED91FC910190F081E02DC801D4
:100F10000995892B11F02196EECFCE01DF91CF916B
:100F20001F910F91FF90EF900895AF92BF92CF92D3
:100F3000DF92EF92FF920F931F93CF93DF936C0199
:100F40007B018B01040F151FEB015E01AE18BF087A
:100F5000C017D10759F06991D601ED91FC9101902C
:100F6000F081E02DC6010995892B79F7C501DF9144
:100F7000CF911F910F91FF90EF90DF90CF90BF9096
:100F8000AF900895FC01538D448D252F30E0842FC0
:100F900090E0821B930B541710F0CF9608950197A1
:100FA0000895FC01918D828D981761F0A28DAE0F8E
:100FB000BF2FB11D5D968C91928D9F5F9F73928F15
:100FC00090E008958FEF9FEF0895FC01918D828D41
:100FD000981731F0828DE80FF11D858D90E008950E
:100FE0008FEF9FEF0895FC01918D228D892F90E066
:100FF000805C9F4F821B91098F73992708958FEF13
:1010000092E00E94F30721E0892B09F420E0822F6F
:10101000089580E090E0892B29F00E94FF0781115C
:101020000C9400000895FC01A48DA80FB92FB11DE8
:10103000A35ABF4F2C91848D90E001968F7399270E
:10104000848FA689B7892C93A089B1898C918370EC
:1010500080648C93938D848D981306C00288F389E5
:10106000E02D80818F7D80830895EF92FF920F9312
:101070001F93CF93DF93EC0181E0888F9B8D8C8D44
:1010800098131AC0E889F989808185FF15C09FB738
:10109000F894EE89FF896083E889F98980818370FB
:1010A000806480839FBF81E090E0DF91CF911F91AA
:1010B0000F91FF90EF900895F62E0B8D10E00F5FCB
:1010C0001F4F0F731127E02E8C8D8E110CC00FB6A1
:1010D00007FCFACFE889F989808185FFF5CFCE0139
:1010E0000E941308F1CFEB8DEC0FFD2FF11DE35A99
:1010F000FF4FF0829FB7F8940B8FEA89FB898081BC
:101100008062CFCFCF93DF93EC01888D8823B9F035
:10111000AA89BB89E889F9898C9185FD03C0808102
:1011200086FD0DC00FB607FCF7CF8C9185FFF2CF7F
:10113000808185FFEDCFCE010E941308E9CFDF91BA
:10114000CF91089508958F929F92AF92BF92CF92C0
:10115000DF92EF92FF92CF93DF93EC016A017B0164
:1011600080E8C81A83E4D80A8DE6E80A88E3F80A1A
:101170008CE3882E912CA12CB12CC701B601A501BE
:1011800094010E94F31E6D83CA01B901A501940167
:101190000E94F31E6C83C701B60120E13EE040E0EF
:1011A00050E00E94F31ECA01B90128E130E040E09E
:1011B00050E00E94F31E6B83C701B60120E831E5C1
:1011C00041E050E00E94F31E188263E97EEF8881BF
:1011D000982F937041E050E011F050E040E0FA01A8
:1011E000E359FE4F2E173F0740F0FB01E41BF50BC0
:1011F0002E0F3F1F8F5F8883EACF81E0898389812B
:101200008C30A0F4482F4150550BFA01E952FF4FA2
:10121000E491911103C0823009F4EF5FF0E02E17E2
:101220003F0720F02E1B3F0B8F5FE8CF2F5F2A83F5
:10123000DF91CF91FF90EF90DF90CF90BF90AF9074
:101240009F908F90089520912D02260F3327331FF2
:1012500021323105ECF42091D502FC0190E080E0D0
:10126000243069F082E00895A0912D022191AC0113
:10127000435F5D4FA40FB52FB11D2C9301968617C8
:1012800098F380912D02680F60932D0280E00895FD
:1012900081E008951092D50281E08093D4021092EB
:1012A000AF0261E082E10E94930261E083E10E946B
:1012B0009302E9EBF0E080818E7F808380818D7FD7
:1012C000808388E48093B80085E48093BC0008950F
:1012D00010929D0210929C021092DC021092FE026B
:1012E0000E944A098CE392E090939B0280939A02B9
:1012F0008DE392E090939902809398020895CF93A2
:10130000DF9391E090930C028823B9F0C091B8006C
:10131000D091BA008091BC008A7B8093BC0060E0D1
:1013200082E10E94930260E083E10E9493020E94A6
:101330004A09D093BA00C093B800DF91CF910895C5
:101340008F929F92AF92BF92CF92DF92EF92FF92D5
:101350000F931F93CF93DF93D091FE02D13208F009
:10136000D7C0182FC091FD020E945E046B017C0162
:101370008091D50281116BC082E08093D5021093D9
:10138000D4028FEF8093D3021092D202D093D10275
:10139000ADEDB2E0E1EBF2E080E0D81391C0109245
:1013A000B0028091B002CC0FC82BC093B0028091E4
:1013B000AF02813009F088C01092AF020E945E0433
:1013C0006B017C018091B0028093BB008091D702B9
:1013D0009091D802A091D902B091DA02892B8A2B80
:1013E0008B2BA1F00E945E040091D7021091D802CD
:1013F0002091D9023091DA026C197D098E099F097A
:10140000061717072807390708F442C08091BC0067
:1014100083FDD8CF85EC8093BC000E945E046B01F5
:101420007C018091D502823009F450C08091D302B2
:101430008F3F09F46FC08091D302803209F46CC0F1
:101440008091D302803309F469C084E026C0809182
:10145000D7029091D802A091D902B091DA02892BDB
:101460008A2B8B2B09F484CF0E945E048090D702D4
:101470009090D802A090D902B090DA026C197D0940
:101480008E099F0986169706A806B90608F070CF40
:101490008091D6020E947F0985E01092DC021092B2
:1014A000FE021092DB02DF91CF911F910F91FF900E
:1014B000EF90DF90CF90BF90AF909F908F90089566
:1014C0009D9191938F5F69CF85EEA5CF8091D702D3
:1014D0009091D802A091D902B091DA02892B8A2B7F
:1014E0008B2B09F49ECF0E945E040091D7021091CD
:1014F000D8022091D9023091DA026C197D098E0947
:101500009F09061717072807390708F08ACFC0CFA9
:1015100081E0C3CF80E0C1CF82E0BFCF83E0BDCF09
:10152000CF93DF93EC018B818823A1F0888191E038
:101530009093DB028093FD021092DC021092FE0277
:1015400081E00E94A00991E0811190E0892FDF9154
:10155000CF9108950E94680981E08B83CE010E949B
:10156000900A982F8111E2CFF1CF0895E0919D026A
:1015700080919C02E81730F4F0E0E05BFD4F808141
:1015800090E008958FEF9FEF089590919D028091D4
:101590009C022FEF3FEF981748F4E92FF0E0E05B53
:1015A000FD4F208130E09F5F90939D02C901089517
:1015B00080919C0290919D02891B990B0895CF9276
:1015C000DF92EF92FF920F931F93CF93DF937C01F3
:1015D000CB018A012091DB02222389F0EB016B0110
:1015E000C40ED51ECC15DD0569F06991D701ED91CA
:1015F000FC910190F081E02DC7010995F3CF642F94
:101600000E942309C801DF91CF911F910F91FF9094
:10161000EF90DF90CF900895CF93DF931F92CDB7D7
:10162000DEB769832091DB022223F9F02091FE02CC
:10163000203258F021E030E0FC013383228390E037
:1016400080E00F90DF91CF9108958091DC02E82F28
:10165000F0E0E352FD4F998190838F5F8093DC022D
:101660008093FE0281E090E0ECCF61E0CE01019634
:101670000E942309F7CFFC01248131E03093DB0283
:101680002093FD021092DC021092FE028485682BEA
:101690008CE993E00E940C0B81E00C94A00990E08F
:1016A00080E008950F931F93CF938C01C62F0E9463
:1016B0003B0B6C2F6460C8010E943B0B6C2F6B7F4F
:1016C000C8010E943B0B83EC90E00197F1F7CF91AA
:1016D0001F910F9108950F931F93CF93DF938C0168
:1016E000D62FC42F607F642B0E94520B80E1D89FBD
:1016F000B00111246C2BC801DF91CF911F910F9184
:101700000C94520BCF93DF93CDB7DEB728970FB66B
:10171000F894DEBF0FBECDBF98E0EFE5F1E0DE014B
:10172000119601900D929A95E1F7909132049617D7
:1017300010F46FEF690F262F30E0220F331F41E0C6
:1017400050E04C0F5D1F240F351FF9016081680FB9
:10175000606840E08AE294E028960FB6F894DEBF15
:101760000FBECDBFDF91CF910C946B0B40E061E0D9
:101770008AE294E00E946B0B8BE39FE10197F1F703
:1017800080913304882321F060E080E00C94820B88
:1017900008950E94B60B60E080E00E94820B62E92F
:1017A00070E08AE294E00E94710761E080E00E94AC
:1017B000820B61E870E08AE294E00E94710762E0C7
:1017C00080E00E94820B64E770E08AE294E00E946D
:1017D000710763E080E00E94820B68E670E08AE2B5
:1017E00094E00C947107CF93DF93823028F09091AE
:1017F0002F04986090932F048093320462E370E08A
:1018000080E090E00E948304609136048AE294E0D4
:101810000E943B0B68EE73E080E090E00E9483043E
:1018200060E38AE294E00E94520BCBE4D6E4CE015E
:101830000197F1F760E38AE294E00E94520B21974E
:10184000F1F760E38AE294E00E94520B83E592E0B4
:101850000197F1F760E28AE294E00E94520B6091F6
:101860002F04606240E08AE294E00E946B0B84E007
:101870008093300440E06CE08AE294E00E946B0BBD
:101880000E94B60B82E08093310440E066E08AE279
:1018900094E00E946B0B40E062E08AE294E00E94D8
:1018A0006B0B8BE39FE10197F1F7DF91CF910895E7
:1018B00041E00E946B0B81E090E008950F931F932D
:1018C000CF93DF938B0198E0899FB001112460646E
:1018D00040E08AE294E00E946B0BE801085F1F4F32
:1018E00069918AE294E00E94580CC017D107C1F7B1
:1018F000DF91CF911F910F910895FC01808191811B
:10190000009711F00C941C210895FB010190002018
:10191000E9F73197AF01461B570BDC01ED91FC91C4
:101920000280F381E02D0994CF93DF93BC018FEF08
:1019300092E00E947107EC0161EA71E08FEF92E0A2
:101940000E94850C8C0F9D1FDF91CF910895CF933E
:10195000DF93FC0144815581608171818FEF92E0BA
:101960000E949507EC0161EA71E08FEF92E00E941E
:10197000850C8C0F9D1FDF91CF9108958F929F92C0
:10198000AF92BF92EF92FF920F931F93CF93DF938B
:10199000CDB7DEB7A1970FB6F894DEBF0FBECDBFAF
:1019A0007C01FA01CB0119A2223008F42AE08E0151
:1019B0000F5D1F4F822E912CB12CA12CBF01A501D0
:1019C00094010E94F31EF901CA016A300CF5605DB2
:1019D000D8016E938D01232B242B252B79F790E0D2
:1019E00080E0109721F0BD01C7010E94850CA196EF
:1019F0000FB6F894DEBF0FBECDBFDF91CF911F9120
:101A00000F91FF90EF90BF90AF909F908F900895AF
:101A1000695CDECF462F50E070E060E02AE00C9475
:101A2000BE0CCF92DF92EF92FF920F931F93CF9352
:101A3000DF936B01770FEE08FF08F7FE1BC0EC0188
:101A40006DE20E946A078C0144275527BA014C19A0
:101A50005D096E097F092AE0CE010E94BE0C800F4D
:101A6000911FDF91CF911F910F91FF90EF90DF9029
:101A7000CF9008952AE0B701A601DF91CF911F9181
:101A80000F91FF90EF90DF90CF900C94BE0C4F928F
:101A90005F926F927F928F929F92AF92BF92CF92FE
:101AA000DF92EF92FF920F931F93CF93DF93EC019E
:101AB0006A017B01922EAB019601CB01B6010E9417
:101AC0003E2064EA71E0811126C026013701E894C6
:101AD00077F82FEF3FEF4FE75FE7C301B2010E94B6
:101AE0003E2081110CC02FEF3FEF4FE75FE7C301AE
:101AF000B2010E94581D68EA71E0181664F02FEFD9
:101B00003FEF4FE75FE4C701B6010E943920181686
:101B1000ACF46CEA71E0CE01DF91CF911F910F918F
:101B2000FF90EF90DF90CF90BF90AF909F908F90FD
:101B30007F906F905F904F900C94850C2FEF3FEF4C
:101B40004FE75FECC701B6010E94581D87FDE1CF4A
:101B500020E030E0A901C701B6010E94581DB12C58
:101B6000A12C87FF09C06DE2CE010E946A075C01CB
:101B7000F7FAF094F7F8F094192D60E070E080E047
:101B80009FE300E020E030E040E251E40E94911F3A
:101B900021E0200F01E02915A8F3A70196010E947A
:101BA000251F2B013C010E940A206B017C010E9431
:101BB0005D1D9B01AC01C301B2010E94241F2B01DA
:101BC0003C012AE0B701A601CE010E94BE0C7C01B7
:101BD0006EE2CE010E946A07E80EF91EEA0CFB1CB9
:101BE000115020F120E030E040E251E4C301B201A5
:101BF0000E94BE1D2B013C010E940A204B01B12C0A
:101C0000A12C2AE0B501A401CE010E94BE0CE80E71
:101C1000F91EC501B4010E945D1D9B01AC01C30109
:101C2000B2010E94241F2B013C01DACFC701DF91D2
:101C3000CF911F910F91FF90EF90DF90CF90BF90C9
:101C4000AF909F908F907F906F905F904F9008958E
:101C5000CF92DF92EF92FF920F931F93CF93DF9378
:101C6000CDB7DEB769970FB6F894DEBF0FBECDBF14
:101C70008C01FB01CE0101967C014130510511F12F
:101C80002281918180814230510509F45DC0358106
:101C90001F923F9334811F923F9333811F923F9352
:101CA0001F922F931F929F9390E08053984F9F9382
:101CB0008F938DEB91E09F938F93FF92EF920E9411
:101CC000722211C085811F928F9384811F928F93FE
:101CD00083811F928F938AEC91E09F938F93FF9261
:101CE000EF920E9472220FB6F894DEBF0FBECDBFF6
:101CF000F801118210821382128215821482F70178
:101D000001900020E9F731976F01CE18DF08B60186
:101D10006F5F7F4F90E080E00E94A521F80100975F
:101D2000F9F091838083D382C28224813581232B71
:101D300011F4FC011082F801D582C482B7018081C0
:101D400091810E946B2219C01F922F931F929F9323
:101D500090E08053984F9F938F9380EB91E0BDCF9D
:101D600080819181009711F00E941C21F80111825D
:101D700010821582148213821282C80169960FB6EE
:101D8000F894DEBF0FBECDBFDF91CF911F910F91B1
:101D9000FF90EF90DF90CF90089585ED8093BC0089
:101DA0008091D7029091D802A091D902B091DA0225
:101DB0000796A11DB11D23E0B695A7959795879528
:101DC0002A95D1F72091BC0024FD03C01092D502C2
:101DD00008954091D7025091D8026091D902709134
:101DE000DA02452B462B472B69F30097A105B10575
:101DF00041F02AE22A95F1F700C00197A109B10943
:101E0000E1CF8091D6020C947F09CF93DF93EB0151
:101E10000E947C1E8883CE01DF91CF9108950F939D
:101E20001F93CF93DF938C01EB010E947C1E88836C
:101E3000C80101960E947C1E8983CE01DF91CF915B
:101E40001F910F910895CF92DF92EF92FF920F931F
:101E50001F93CF93DF93EB017B0124E0E20EF11C93
:101E60008B016C01C61AD70AC601800F911F0E9410
:101E70007C1EF80181938F01EE15FF05A9F7CE01B5
:101E8000DF91CF911F910F91FF90EF90DF90CF9056
:101E90000895FF920F931F93CF93DF93EC01F62EDB
:101EA00008811981C8010E947C1EF81621F06F2D4F
:101EB000C8010E94841ECE01DF91CF911F910F9126
:101EC000FF9008951F920F920FB60F9211242F9337
:101ED0003F938F939F93AF93BF9380919002909184
:101EE0009102A0919202B091930230918F0223E06F
:101EF000230F2D3758F50196A11DB11D20938F0298
:101F00008093900290939102A0939202B0939302D7
:101F10008091940290919502A0919602B0919702BF
:101F20000196A11DB11D8093940290939502A093F8
:101F30009602B0939702BF91AF919F918F913F917D
:101F40002F910F900FBE0F901F90189526E8230F2A
:101F50000296A11DB11DD2CF1F920F920FB60F9204
:101F600011242F933F934F935F936F937F938F939E
:101F70009F93AF93BF93EF93FF938091A3029091B0
:101F8000A402A091A502B091A602892B8A2B8B2BCB
:101F9000D1F190919E02E0919F02F091A002808188
:101FA000892780838091A3029091A402A091A50229
:101FB000B091A602181619061A061B069CF4809109
:101FC000A3029091A402A091A502B091A60201974C
:101FD000A109B1098093A3029093A402A093A50242
:101FE000B093A602FF91EF91BF91AF919F918F9116
:101FF0007F916F915F914F913F912F910F900FBE05
:102000000F901F90189580914001E3E4F3E0E49174
:102010009FEF90934001E13051F030F0E23069F0F1
:1020200060E00E949302DECF10926E00F9CF909193
:102030006F009D7F90936F00F3CF909170009D7F14
:102040009093700091E09093B0009091B100987FD0
:1020500094609093B1001092B300E2CF1F920F9260
:102060000FB60F9211242F933F934F935F936F936B
:102070007F938F939F93AF93BF93EF93FF938FEFD4
:1020800092E00E941308FF91EF91BF91AF919F9151
:102090008F917F916F915F914F913F912F910F9011
:1020A0000FBE0F901F9018951F920F920FB60F92B0
:1020B00011242F938F939F93EF93FF93E0910F033E
:1020C000F09110038081E0911503F091160382FDD9
:1020D0001BC09081809118038F5F8F73209119032B
:1020E000821741F0E0911803F0E0E150FD4F958F29
:1020F00080931803FF91EF919F918F912F910F90F3
:102100000FBE0F901F9018958081F4CF1F920F92F1
:102110000FB60F9211242F933F934F935F936F93BA
:102120007F938F939F93AF93BF93EF93FF93809190
:10213000B900887F803609F44AC0F0F5883209F486
:10214000A7C018F5803109F49BC0B8F4882309F4BE
:10215000F9C0883009F494C0FF91EF91BF91AF911D
:102160009F918F917F916F915F914F913F912F91AF
:102170000F900FBE0F901F901895883109F488C0FA
:10218000803251F78093D30214C0803409F49DC08B
:1021900040F48033B9F38833F9F68093D30285ECA9
:1021A000B0C0803509F485C0883509F496C08834FC
:1021B00099F60E94CD0ED0CF883909F48CC038F53D
:1021C000883729F050F4883611F0803729F683E0FB
:1021D0008093D50210924F0257C0883809F47BC013
:1021E000803919F0803809F0B7CF80914F028032E2
:1021F00008F071C0E0914F0281E08E0F80934F0292
:102200008091BB00F0E0E15DFD4F80833DC0803BED
:1022100039F0E0F4803A09F479C0883A09F09CCFAB
:1022200084E08093D50210922E0210922D02E0914C
:102230009A02F0919B02099580912D0281110FC0A5
:1022400081E080932D0210920D0209C0803C09F4B8
:10225000A6CF883C09F4A3CF883B09F07DCFE0915D
:102260002E0281E08E0F80932E02F0E0E35FFD4F9F
:1022700080818093BB0090912E0280912D0229C015
:102280008091B0028093BB0085EC8093BC0064CF4A
:102290009091D2028091D102981758F5E091D20224
:1022A00081E08E0F8093D202F0E0EF54FD4F8081E9
:1022B000E9CFE091D20281E08E0F8093D20280912B
:1022C000BB00F0E0EF54FD4F80839091D2028091EB
:1022D000D1029817C8F285E8D8CFE091D20281E008
:1022E0008E0F8093D2028091BB00F0E0EF54FD4F3F
:1022F00080838091D40281115CCF81E08093AF0212
:1023000084EA8093BC001092D50226CF85EC80939E
:10231000BC001092D50280914F02803230F4E091DF
:102320004F02F0E0E15DFD4F108260914F0270E0DE
:10233000E0919802F09199028FE292E00995109253
:102340004F020ACF1092D30234CF109202031092A0
:10235000010388EE93E0A0E0B0E080930303909344
:102360000403A0930503B09306032BE631E03093FA
:1023700000032093FF0225EC30E030930C03209300
:102380000B0324EC30E030930E0320930D0320EC7C
:1023900030E03093100320930F0321EC30E03093B2
:1023A00012032093110322EC30E0309314032093A6
:1023B000130326EC30E0309316032093150310929C
:1023C00018031092190310921A0310921B03109213
:1023D0009F0310929E038093A0039093A103A09368
:1023E000A203B093A3038DE791E090939D038093A4
:1023F0009C0310922D0410922C0489E991E0909393
:102400002B0480932A041092330487E280932E04D5
:1024100084E18093340484E0809335041092360480
:1024200082E080931C0486E180931D04EAE5F3E0DA
:10243000E491E0931E04E6E4F3E0E491E0931F04EA
:1024400080E89EE3A0E0B0E080932404909325040C
:10245000A0932604B09327041092AA031092AE030F
:102460001092AD031092AF038FE891E09093A9030F
:102470008093A803E4ECF3E01082148213821582A7
:10248000369684E0E030F807B9F785E491E0909360
:102490000B0480930A0481E491E090930D048093EF
:1024A0000C0484E080930E0480930F0489E491E08F
:1024B00090930904809308048AE090E090931104BB
:1024C0008093100484EF91E090931304809312049E
:1024D0001092160410921504109204041092050430
:1024E0001092060410920704109214040895CF93DA
:1024F000DF93CDB7DEB7AA970FB6F894DEBF0FBE55
:10250000CDBF789484B5826084BD84B5816084BD7C
:1025100085B5826085BD85B5816085BD80916E0081
:10252000816080936E0010928100809181008260B2
:1025300080938100809181008160809381008091EF
:1025400080008160809380008091B10084608093DE
:10255000B1008091B00081608093B00080917A00DA
:10256000846080937A0080917A00826080937A0000
:1025700080917A00816080937A0080917A008068EF
:1025800080937A001092C100E0910F03F091100344
:1025900082E08083E0910B03F0910C031082E091C4
:1025A0000D03F0910E038FEC808310921703E091DE
:1025B0001303F091140386E08083E0911103F091FE
:1025C0001203808180618083E0911103F0911203F6
:1025D000808188608083E0911103F09112038081F3
:1025E00080688083E0911103F091120380818F7DD8
:1025F00080830E94680980918D0290918E020097DD
:1026000011F00E941C2186E090E00E9480208C0145
:1026100088E6D8018C938CE993E012969C938E9374
:10262000119713961C92139780E290E015969C9355
:102630008E93149710938E0200938D020E94680966
:1026400081E0F8018383C8010E94900A62E08091D2
:102650001C040E94C5020E94B504605D7740810998
:102660009109609320047093210480932204909335
:10267000230487E3809329040E94680910922F04A1
:10268000809135040E94F30B88E08093360460E06B
:102690008AE294E00E943B0B0E94B60B66EC70E06D
:1026A0008AE294E00E94710760E273E080E090E0CB
:1026B0000E94830484E00E94F30B68E371E080E0F1
:1026C0000E945E0C60E371E081E00E945E0C68E2B3
:1026D00071E082E00E945E0C60E271E083E00E94A3
:1026E0005E0C68E171E084E00E945E0C60E171E0E4
:1026F00085E00E945E0C68E071E086E00E945E0C5E
:1027000060E071E087E00E945E0C1CE062E0812FD7
:102710000E94820B0E94B60B61E0812F0E94820B07
:1027200060E08AE294E00E94580C62E08AE294E061
:102730000E94580C64E08AE294E00E94580C66E023
:102740008AE294E00E94580C60E08AE294E00E94E1
:10275000580C62E08AE294E00E94580C64E08AE23D
:1027600094E00E94580C66E08AE294E00E94580CC3
:1027700062E0812F0E94820B61E08AE294E00E9475
:10278000580C63E08AE294E00E94580C65E08AE20B
:1027900094E00E94580C67E08AE294E00E94580C92
:1027A00061E08AE294E00E94580C63E08AE294E0DF
:1027B0000E94580C65E08AE294E00E94580C67E0A1
:1027C0008AE294E00E94580C6AEF70E080E090E0AA
:1027D0000E948304115008F099CF6CED75E080E001
:1027E00090E00E9483040E94B60B61E083E00E94A7
:1027F000C50261E084E00E94C50261E085E00E94BC
:10280000C50261E08FE00E94C50260E08FE00E9497
:10281000930216E062E0812F0E94C5021F5F1E3006
:10282000C9F70E94C90B87EA90E00E94940C9E01B0
:10283000245E3F4F39A328A3AE01485E5F4F5BA3E0
:102840004AA31982A0908D02B0908E02D5011496F1
:102850008D919C911597892B09F427C111968D9123
:102860009C9112972C9131E03093DB022093FD0272
:102870001092DC021092FE02DC01ED91FC910280CC
:10288000F381E02D41E050E0BE016F5F7F4F09957D
:10289000019709F00AC180E00E94A009811105C1D9
:1028A000D12CC12C5524539422242A9415EE312E78
:1028B00005EC402EF50184819581B7E0EB2EF12CDB
:1028C000EC18FD088E159F0508F47C01D5010C91CC
:1028D0000E945E043B014C018091D502811170C0C1
:1028E0001E2D113208F010E25092D50221E087E04F
:1028F00090E08E199F09C816D90608F420E02093AD
:10290000D4022092D3021092D2028FEF810F8093D3
:10291000D1025092B0028091B002000F082B0093B8
:10292000B0028091AF02813009F093C01092AF02E3
:102930000E945E043B014C018091B0028093BB0079
:102940008091D7029091D802A091D902B091DA0279
:10295000892B8A2B8B2BA1F00E945E042091D70239
:102960003091D8024091D9025091DA026619770964
:1029700088099909261737074807590708F441C0FD
:102980008091BC0083FDD8CF4092BC000E945E04C1
:102990003B014C018091D502813009F45DC08091EA
:1029A000D202811710F41091D202A1EBB2E0E0E55F
:1029B000F2E080E0811751F19D9191938F5FFACF02
:1029C0008091D7029091D802A091D902B091DA02F9
:1029D000892B8A2B8B2B09F47FCF0E945E042091D8
:1029E000D7023091D8024091D9025091DA0266198B
:1029F000770988099909261737074807590708F002
:102A00006BCF8091D6020E947F0910E010929D0248
:102A100010939C021E151F0409F047C001E010E04E
:102A20000C0F1D1F0C0D1D1D3801C80186199709BB
:102A30008E159F0598F5F50181819281DC01ED915C
:102A4000FC910284F385E02D0995F80181938F01B3
:102A5000ECCF3092BC009ACF8091D7029091D802EF
:102A6000A091D902B091DA02892B8A2B8B2B09F421
:102A700091CF0E945E042091D7023091D8024091FC
:102A8000D9025091DA02661977098809990926173F
:102A900037074807590708F07DCFB3CFCE0CDF1CAE
:102AA000F7E0CF16D10408F405CF49811A810B81D4
:102AB0003D812E81822F90E0F4E095958795FA95DF
:102AC000E1F7982F990F990F882E891A982D990F51
:102AD000920F5F81E32FF0E0A4E0F595E795AA95CA
:102AE000E1F78E2F880F880F2E2F281B220F230F20
:102AF00030E0E7EDF0E081E0891730F46491260FD3
:102B0000311D8F5F3196F8CF652F70E0E4E0759549
:102B10006795EA95E1F7862F880F880F962E981A09
:102B2000892D880F850F933028F0982F937011F41A
:102B30002F5F3F4FE42FEF7790E0AC014D5F5F4F89
:102B40005695479556954795ADE6B1E08A9FB001F9
:102B50008B9F700D9A9F700D112461507109460F63
:102B6000571F240F351FA8E1B0E00E94151F202F2A
:102B700030E0A901F4E055954795FA95E1F7242F47
:102B8000220F220FA42EA21A2A2D220F020F9B0120
:102B9000AC01200F311D411D511DACE3B0E00E947E
:102BA000B11E212F30E0A90104E0559547950A9503
:102BB000E1F7242F220F220FB42EB21A2B2D220F51
:102BC000120F9B01AC01210F311D411D511D0E94AF
:102BD000B11E8B019C018E2F90E044E09595879566
:102BE0004A95E1F7982F990F990F891B482F440FA9
:102BF000842F8E0F90E0B0E0A0E0AC01BD01405BFF
:102C0000564E6249774C400F511F621F731F488F09
:102C1000598F6A8F7B8FCE010E960E94A3080E9467
:102C20006406882349F080911D048B3028F08D3094
:102C300050F085518230C0F1412C512C40EC642E73
:102C40004FE7742E1EC06091180470E090E080E0A1
:102C50000E945F1D2DEC3CEC4CEC5DE30E94BE1D20
:102C60006B017C016091170470E090E080E00E94AD
:102C70005F1D9B01AC01C701B6010E94251F2B01FE
:102C80003C010E946406882341F080911D048C3031
:102C900009F4EAC2D8F48B3091F1C12CD12C20EC8C
:102CA000E22E2FE7F22E55C06091170470911804A0
:102CB00076276727762790E080E00E945D1D2DEC47
:102CC0003CEC4CEC5DE30E94BE1DD9CF85518230B7
:102CD00020F710911904612F70E0762F6627662780
:102CE0007F7780911A04682B90E080E00E945D1D40
:102CF0002DEC3CEC4CEC5DE30E94BE1DD1C260911A
:102D0000190470E090E080E00E945D1D6B017C0181
:102D100010911A0417FF0AC0AC019B0160E070E03B
:102D200080E89FEB0E94241F6B017C011F70612FC4
:102D300070E090E080E00E945F1D2DEC3CEC4CECDC
:102D40005DE30E94BE1DA70196010E94251F6B0135
:102D50007C0180E480937C0080917A008064809381
:102D60007A0080917A0086FDFCCF20917800309126
:102D70007900ACE9BFEF0E9457202FEF33E040E02D
:102D800050E00E94921EDA01C9018C599F4FAF4F4B
:102D9000BF4F9AA789A71C01853691051CF094E6C0
:102DA000292E312C37FE02C0312C212CA0908B0211
:102DB000B0908C02A20CB31CB0928C02A0928B0239
:102DC00020E030E040E251E4C701B6010E94BE1DA0
:102DD0000E9403200091890210918A02060F171F9A
:102DE00010938A020093890220E030E040E251E42F
:102DF000C301B2010E94BE1D0E940320E091870220
:102E0000F0918802E60FF71FF0938802E0938702A3
:102E100020918502309186022F5F3F4F30938602CA
:102E2000209385022A3031059CF1C801B9010E9426
:102E300043204AE0469FC001479F900D1124909384
:102E4000840280938302CF01B9010E944320469FF0
:102E5000C001479F900D11249093820280938102BC
:102E6000C501B9010E9443207093800260937F02E4
:102E7000109286021092850210928A0210928902A4
:102E8000109288021092870210928C0210928B028C
:102E90000E941D05982E882309F457C261E08FE037
:102EA0000E94930260E570E080E090E00E9483045D
:102EB00060E08FE00E94930221E49212FAC181E067
:102EC00090E090937E0280937D020E94B60B60E0BA
:102ED00080E00E94820B63E073E08AE294E00E944B
:102EE00071070E94B50420917D0230917E0221304D
:102EF000310509F0D1C38090790290907A02A090B8
:102F00007B02B0907C029B01AC01281939094A0967
:102F10005B09283E33404105510508F498C1609390
:102F2000790270937A0280937B0290937C0261E035
:102F300080E00E94820B69EC72E08AE294E00E94D9
:102F400071076091830270918402072E000C880B38
:102F5000990B0E945F1D20E030E048EC52E40E9493
:102F6000911FAB01BC0121E030E08AE294E00E94B5
:102F7000470D67EC72E08AE294E00E94710763E01B
:102F800080E00E94820B64EC72E08AE294E00E948E
:102F900071076091810270918202072E000C880BEC
:102FA000990B0E945F1D20E030E048EC52E40E9443
:102FB000911FAB01BC0121E030E08AE294E00E9465
:102FC000470D61EC72E08AE294E00E94710762E0D2
:102FD00080E00E94820B6EEB72E08AE294E00E9435
:102FE000710760917F02709180028AE294E00E94F2
:102FF000110D63EB72E08AE294E00E94710763E0D6
:103000008CE00E94820B6AEA72E08AE294E00E94FD
:10301000710711E020E030E040EF51E4C701B60154
:103020000E94392087FD10E01093780211E020E023
:1030300030E0A901C701B6010E94581D18160CF412
:1030400010E01093770211E020E030E044EB52E40E
:10305000C301B2010E94392087FD10E0109376026F
:1030600011E020E030E040EA51E4C301B2010E94E7
:10307000581D18160CF410E01093750281E0E9A5B4
:10308000FAA5EA35F1050CF480E08093740220E0A3
:1030900030E040EF51E4C701B6010E94392087FFBC
:1030A00023C020E030E0A901C701B6010E94581DED
:1030B0001816D4F420E030E044EB52E4C301B2012E
:1030C0000E94392087FF10C020E030E040EA51E440
:1030D000C301B2010E94581D181634F429A53AA55F
:1030E0002A3531050CF433C26FE972E08FEF92E0BC
:1030F0000E94710780917502882331F069E872E0BF
:103100008FEF92E00E94710780917602882331F060
:1031100064E772E08FEF92E00E9471078091740281
:10312000882331F06BE572E08FEF92E00E94710727
:1031300080917802882331F068E472E08FEF92E0AA
:103140000E94710780917702882331F06EE272E06D
:103150008FEF92E00E94710761EA71E08FEF92E0D9
:103160000E94850CA0907202B09073028E01085EDE
:103170001F4F8AA09BA0A818B908C501800F911FF6
:103180009A838983D8016D918D01CE0101960E94A9
:10319000490F88A099A08016910679F7C701B6015A
:1031A0000E940320F72E0091720210917302C80151
:1031B00004969A838983CE0101960E94490F0B5F82
:1031C0001F4F1A8309836F2DCE0101960E94490F6C
:1031D000809172029091730206969A838983C3014B
:1031E000B2010E940A20CE0101960E94490F8091EF
:1031F00072029091730207969A838983622DCE01A1
:1032000001960E94490F8091720290917302089674
:10321000803223E092070CF08CC19093730280936C
:10322000720261E085E00E9493024CE251E060E0AE
:1032300070E080EA9FE00E94050364E670E080E0B1
:1032400090E00E94830460E085E00E94930280E0A9
:1032500090E0892B09F4F5CA0E94FF07882309F43E
:10326000E6CA0E940000E3CA10911904612F70E0C1
:1032700090E080E00E945D1D6B017C0160911A046A
:103280006F7070E090E080E00E945F1D2DEC3CECE0
:103290004CEC5DE30E94BE1DA70196010E94251F14
:1032A0006B017C0117FF55CDF7FAF094F7F8F09415
:1032B00050CD32E493122DC082E090E090937E02D4
:1032C00080937D020E94B60B60E080E00E94820B3A
:1032D0006BEF72E08AE294E00E94710761E080E0A7
:1032E0000E94820B69ED71E08AE294E00E94850CF5
:1032F00062E080E00E94820B60EF72E08AE294E07C
:103300000E94710763E080E00E94820B65EE72E02C
:10331000E4CD43E4941219C083E090E090937E02E0
:1033200080937D020E94B60B60E080E00E94820BD9
:1033300067ED72E08AE294E00E94710763E080E04A
:103340000E94820B6CEC72E0C8CD80917D0290915E
:103350007E02029709F0E9C054E49512ADC00E94C4
:10336000B60B84E090E090937E0280937D0260E053
:1033700080E00E94820B6CEE71E08AE294E00E9491
:10338000850CB12CA12CBE016C5E7F4FC5010E9443
:10339000230FBE01645E7F4FC50104960E940F0F8C
:1033A000BE01615E7F4FC50106960E94050FBE01FA
:1033B000625E7F4FC50107960E94050F4C895D89AB
:1033C0006E897F89DB01CA010197A109B1098E3F8E
:1033D0009F4FAF4FBF4F08F05FC0CE0108960E94CD
:1033E000A30850E040E0BE01685F7F4FCE01019628
:1033F0000E94280E4D815E8169817A818FEF92E073
:103400000E949507CE0101960E947D0C6CEF71E041
:103410008FEF92E00E94850C6C8D7D8D8FEF92E096
:103420000E94110D68EF71E08FEF92E00E94850C11
:103430006F8D8FEF92E00E940A0D6BEF71E08FEFBE
:1034400092E00E94850C6E8D8FEF92E00E940A0D33
:103450006EEF71E08FEF92E00E94850C61EA71E0FF
:103460008FEF92E00E94850C04E110E00E941D05A0
:103470008A3249F40E94B60B10927E0210927D02AD
:103480000E94C90B2ECD62E370E080E090E00E94C4
:1034900083040150110951F764E670E080E090E088
:1034A0000E948304F8E0AF0EB11C20E2A21623E0D4
:1034B000B20609F068CF15CD33E2931236C00E94F0
:1034C000B60B61E080E00E94820B6DEE70E08AE254
:1034D00094E00E94710710E000E01A8309836FEF07
:1034E000CE0101960E94490F0F5F1F4F003243E04B
:1034F000140799F7109273021092720262E080E052
:103500000E94820B62EE70E08AE294E00E947107F2
:1035100068EE73E080E090E00E9483040E94C90B93
:1035200010927E0210927D02DCCC5AE29512D9CC28
:10353000A3CF109273021092720280917002909148
:103540007102089690937102809370026ACE20E017
:1035500030E040E752E4C301B2010E94581D87FDEC
:1035600023C020E030E040EA52E4C301B2010E94EF
:1035700039201816CCF049A55AA54D335105A4F4AD
:1035800020E030E040EA51E4C701B6010E94392052
:10359000181654F020E030E040E251E4C701B601D3
:1035A0000E94581D87FF6BC064E272E08FEF92E0CB
:1035B0000E94710720E030E040E752E4C301B2010D
:1035C0000E94581D87FF06C06BE072E08FEF92E00B
:1035D0000E94710720E030E040EA52E4C301B201EA
:1035E0000E943920181634F463EF71E08FEF92E0F7
:1035F0000E94710789A59AA5CD9734F06EED71E010
:103600008FEF92E00E94710720E030E040EA51E441
:10361000C701B6010E943920181634F467EC71E036
:103620008FEF92E00E94710720E030E040E251E429
:10363000C701B6010E94581D87FF06C06FEA71E0FE
:103640008FEF92E00E94710761EA71E08FEF92E0E4
:103650000E94850C61E084E00E94930248EC50E0F7
:1036600060E070E080ED97E00E94050364E670E0A2
:1036700080E090E00E94830460E084E0E6CD61E0B9
:1036800083E00E94930264E670E080E090E00E9494
:10369000830460E083E0D9CD2230310509F077C0A2
:1036A00091E49912D4CD88E991E00E94940C61E9EB
:1036B00071E08FEF92E00E94710742E050E0BE019E
:1036C000625F7F4FCE0101960E94280ECE010196C7
:1036D0000E94A70CCE0101960E947D0C6AE871E061
:1036E0008FEF92E00E94710741E050E0BE01625FFF
:1036F0007F4FCE0101960E94280ECE0101960E94B6
:10370000A70CCE0101960E947D0C66E871E08FEF58
:1037100092E00E94710722E030E0B701A6018FEF2E
:1037200092E00E94470D84E891E00E94940C60E8CA
:1037300071E08FEF92E00E94710722E030E0B30168
:10374000A2018FEF92E00E94470D8EE791E00E9468
:10375000940C6AE771E08FEF92E00E947107B1016B
:103760008FEF92E00E94110D88E791E00E94940C87
:1037700080E691E00E94940C62E080E00E94820B5F
:103780006EE471E08AE294E00E94710760CD24301B
:10379000310509F0F6C00E94B60B60E080E00E949F
:1037A000820B6CE371E08AE294E00E94710760E2B0
:1037B00073E080E090E00E948304EE24E394F12C17
:1037C00010E000E0BE01685F7F4FC8010E94230F38
:1037D000BE016C5E7F4FC80104960E940F0FBE01B0
:1037E000625E7F4FC80106960E94050FBE01645EAF
:1037F0007F4FC80107960E94050F488559856A8545
:103800007B85DB01CA010197A109B1098E3F9F4F5A
:10381000AF4FBF4F08F095C0CE0101960E94A3089C
:103820000E94B60B60E080E00E94820B6B818AE20E
:1038300094E00E940A0D6FE28AE294E00E946A0717
:103840006A818AE294E00E940A0D60E28AE294E0D2
:103850000E946A078C818A3028F460E38AE294E04F
:103860000E946A076C818AE294E00E940A0D6AE372
:103870008AE294E00E946A078D818A3028F460E32E
:103880008AE294E00E946A076D818AE294E00E94D5
:103890000A0D61E080E00E94820B60E072E08AE243
:1038A00094E00E94850C61E08BE00E94820BB701DE
:1038B0008AE294E00E94110D62E080E00E94820B97
:1038C00069E371E08AE294E00E9471076C897D8966
:1038D0008AE294E00E94110D63E371E08AE294E0D1
:1038E0000E9471076E8D8AE294E00E940A0D61E3E6
:1038F00071E08AE294E00E9471076DE271E08AE271
:1039000094E00E9471076C8D8AE294E00E940A0D97
:103910006BE271E08AE294E00E94710763E080E06C
:103920000E94820B60E271E08AE294E00E947107DB
:10393000FFEFEF1AFF0A60ED77E080E090E00E9471
:103940008304085F1F4F003223E0120709F03ACFCB
:103950000E94B60B61E080E00E94820B6EE071E095
:103960008AE294E00E94710768EE73E080E090E0E4
:103970000E9483040E94C90B10927E0210927D0265
:1039800066CC2330310509F062CC009179021091A8
:103990007A0220917B0230917C024B015C01801AFB
:1039A000910AA20AB30A95018401083E1340210539
:1039B000310508F44CCC6093790270937A028093BD
:1039C0007B0290937C0261E080E00E94820B67E0C2
:1039D00071E08AE294E00E94710788898A3028F4B5
:1039E00060E38AE294E00E946A0768898AE294E0D0
:1039F0000E940A0D6FE28AE294E00E946A078F85B6
:103A00008A3028F460E38AE294E00E946A076F85B6
:103A10008AE294E00E940A0D6FE28AE294E00E943A
:103A20006A074E8550E04053584F70E060E02AE04E
:103A30008AE294E00E94BE0C62E080E00E94820B69
:103A400060E071E08AE294E00E94710789898A301F
:103A500028F460E38AE294E00E946A0769898AE2B6
:103A600094E00E940A0D6AE38AE294E00E946A07E9
:103A70008A898A3028F460E38AE294E00E946A0727
:103A80006A898AE294E00E940A0D6AE38AE294E07D
:103A90000E946A078B898A3028F460E38AE294E006
:103AA0000E946A076B898AE294E00E940A0DCFCBDC
:103AB0000E949A1D08F481E00895E89409C097FBDC
:103AC0003EF490958095709561957F4F8F4F9F4FF5
:103AD0009923A9F0F92F96E9BB279395F695879539
:103AE00077956795B795F111F8CFFAF4BB0F11F4FC
:103AF00060FF1BC06F5F7F4F8F4F9F4F16C08823A3
:103B000011F096E911C0772321F09EE8872F762FD8
:103B100005C0662371F096E8862F70E060E02AF019
:103B20009A95660F771F881FDAF7880F9695879505
:103B300097F90895990F0008550FAA0BE0E8FEEFDA
:103B400016161706E807F907C0F012161306E40761
:103B5000F50798F0621B730B840B950B39F40A265A
:103B600061F0232B242B252B21F408950A2609F438
:103B7000A140A6958FEF811D811D08950E94D11D42
:103B80000C94421E0E94341E38F00E943B1E20F00E
:103B9000952311F00C942B1E0C94311E11240C94BF
:103BA000761E0E94531E70F3959FC1F3950F50E04F
:103BB000551F629FF001729FBB27F00DB11D639FDF
:103BC000AA27F00DB11DAA1F649F6627B00DA11D85
:103BD000661F829F2227B00DA11D621F739FB00D2B
:103BE000A11D621F839FA00D611D221F749F33279B
:103BF000A00D611D231F849F600D211D822F762F34
:103C00006A2F11249F5750409AF0F1F088234AF010
:103C1000EE0FFF1FBB1F661F771F881F915050407C
:103C2000A9F79E3F510580F00C942B1E0C94761E34
:103C30005F3FE4F3983ED4F3869577956795B79503
:103C4000F795E7959F5FC1F7FE2B880F911D96951D
:103C5000879597F9089597F99F6780E870E060E08D
:103C600008959FEF80EC089500240A941616170615
:103C700018060906089500240A941216130614065D
:103C800005060895092E0394000C11F4882352F0C0
:103C9000BB0F40F4BF2B11F460FF04C06F5F7F4F78
:103CA0008F4F9F4F089557FD9058440F551F59F05F
:103CB0005F3F71F04795880F97FB991F61F09F3F19
:103CC00079F087950895121613061406551FF2CF42
:103CD0004695F1DF08C0161617061806991FF1CF92
:103CE00086957105610508940895E894BB276627B9
:103CF0007727CB0197F90895F999FECF92BD81BD41
:103D0000F89A992780B50895262FF999FECF1FBA02
:103D100092BD81BD20BD0FB6F894FA9AF99A0FBEF4
:103D200001960895052E97FB1EF400940E94A91E8B
:103D300057FD07D00E94F31E07FC03D04EF40C94ED
:103D4000A91E50954095309521953F4F4F4F5F4F9D
:103D5000089590958095709561957F4F8F4F9F4FF7
:103D600008950E94151FA59F900DB49F900DA49FCC
:103D7000800D911D112408952F923F924F925F92D2
:103D80006F927F928F929F92AF92BF92CF92DF926B
:103D9000EF92FF920F931F93CF93DF93CDB7DEB7D0
:103DA000CA1BDB0B0FB6F894DEBF0FBECDBF099464
:103DB0002A88398848885F846E847D848C849B84BB
:103DC000AA84B984C884DF80EE80FD800C811B81C9
:103DD000AA81B981CE0FD11D0FB6F894DEBF0FBEF8
:103DE000CDBFED010895A1E21A2EAA1BBB1BFD0158
:103DF0000DC0AA1FBB1FEE1FFF1FA217B307E407CA
:103E0000F50720F0A21BB30BE40BF50B661F771F21
:103E1000881F991F1A9469F7609570958095909501
:103E20009B01AC01BD01CF010895A29FB001B39FDA
:103E3000C001A39F700D811D1124911DB29F700DB3
:103E4000811D1124911D08955058BB27AA270E9457
:103E50003C1F0C94421E0E94341E38F00E943B1EF0
:103E600020F039F49F3F19F426F40C94311E0EF41F
:103E7000E095E7FB0C942B1EE92F0E94531E58F38C
:103E8000BA17620773078407950720F079F4A6F53F
:103E90000C94751E0EF4E0950B2EBA2FA02D0B017D
:103EA000B90190010C01CA01A0011124FF27591B7F
:103EB00099F0593F50F4503E68F11A16F040A22F85
:103EC000232F342F4427585FF3CF469537952795F6
:103ED000A795F0405395C9F77EF41F16BA0B620BF5
:103EE000730B840BBAF09150A1F0FF0FBB1F661F3C
:103EF000771F881FC2F70EC0BA0F621F731F841F7F
:103F000048F4879577956795B795F7959E3F08F0A4
:103F1000B0CF9395880F08F09927EE0F9795879566
:103F200008950E94A51F0C94421E0E943B1E58F04B
:103F30000E94341E40F029F45F3F29F00C942B1EA0
:103F400051110C94761E0C94311E0E94531E68F37E
:103F50009923B1F3552391F3951B550BBB27AA2742
:103F600062177307840738F09F5F5F4F220F331F7C
:103F7000441FAA1FA9F335D00E2E3AF0E0E832D044
:103F800091505040E695001CCAF72BD0FE2F29D047
:103F9000660F771F881FBB1F261737074807AB0719
:103FA000B0E809F0BB0B802DBF01FF2793585F4F8E
:103FB0003AF09E3F510578F00C942B1E0C94761E1F
:103FC0005F3FE4F3983ED4F3869577956795B79570
:103FD000F7959F5FC9F7880F911D9695879597F97B
:103FE0000895E1E0660F771F881FBB1F62177307F4
:103FF0008407BA0720F0621B730B840BBA0BEE1F09
:1040000088F7E09508950E940A206894B1110C94F5
:10401000761E08950E945B1E88F09F5798F0B92F76
:104020009927B751B0F0E1F0660F771F881F991FED
:104030001AF0BA95C9F714C0B13091F00E94751EFC
:10404000B1E008950C94751E672F782F8827B85F0C
:1040500039F0B93FCCF3869577956795B395D9F745
:104060003EF490958095709561957F4F8F4F9F4F4F
:1040700008950E949A1D08F48FEF08950E949A1DDA
:10408000880B990B089597FB072E16F4009407D020
:1040900077FD09D00E94662007FC05D03EF490957C
:1040A00081959F4F0895709561957F4F08950E9467
:1040B000151F332312F48A1B9B0B0C9461200E9462
:1040C000151FB7FF0895821B930B0895AA1BBB1BF6
:1040D00051E107C0AA1FBB1FA617B70710F0A61B08
:1040E000B70B881F991F5A95A9F780959095BC0129
:1040F000CD010895EE0FFF1F0590F491E02D099476
:104100000F931F93CF93DF938230910510F482E0D9
:1041100090E0E0913904F0913A0430E020E0B0E022
:10412000A0E0309799F42115310509F44AC0281B05
:10413000390B24303105D8F58A819B8161157105D1
:1041400089F1FB0193838283FE0111C0408151817B
:104150000281138148175907E0F04817590799F46D
:10416000109761F012960C93129713961C93329647
:10417000CF01DF91CF911F910F91089500933904E2
:1041800010933A04F4CF2115310551F0421753072B
:1041900038F0A901DB019A01BD01DF01F801C1CFAF
:1041A000EF01F9CF90933A0480933904CDCFFE010B
:1041B000E20FF31F819391932250310939832883B1
:1041C000D7CF2091370430913804232B41F420912C
:1041D0005B0130915C0130933804209337042091C7
:1041E000590130915A012115310541F42DB73EB7DF
:1041F00040915D0150915E01241B350BE091370425
:10420000F0913804E217F307A0F42E1B3F0B281798
:10421000390778F0AC014E5F5F4F2417350748F03F
:104220004E0F5F1F5093380440933704819391934E
:104230009FCFF0E0E0E09CCFCF93DF930097E9F0D1
:10424000FC01329713821282A0913904B0913A0492
:10425000ED0130E020E01097A1F420813181820F40
:10426000931F20913704309138042817390709F03B
:1042700061C0F0933804E0933704DF91CF91089543
:10428000EA01CE17DF07E8F54A815B819E014115FF
:104290005105B1F7E901FB83EA8349915991C40FB4
:1042A000D51FEC17FD0761F4808191810296840F80
:1042B000951FE90199838883828193819B838A83F7
:1042C000F0E0E0E012968D919C9113970097B9F57C
:1042D0002D913C911197CD010296820F931F209151
:1042E0003704309138042817390739F6309751F5DB
:1042F00010923A0410923904B0933804A093370412
:10430000BCCFD383C28340815181840F951FC817CE
:10431000D90761F44E5F5F4F88819981480F591F1B
:10432000518340838A819B81938382832115310548
:1043300009F0B0CFF0933A04E09339049ECFFD0129
:10434000DC01C0CF13821282D7CFB0E0A0E0EBEA4D
:10435000F1E20C94BE1E8C01009751F4CB010E9437
:1043600080208C01C801CDB7DEB7E0E10C94DA1EE5
:10437000FC01E60FF71F9C0122503109E217F307F9
:1043800008F49DC0D901CD91DC911197C617D707CC
:1043900098F0C530D10530F3CE0104978617970702
:1043A00008F3C61BD70B2297C193D1936D937C93CF
:1043B000CF010E941C21D6CF5B01AC1ABD0A4C0173
:1043C0008C0E9D1EA0913904B0913A04512C412CC1
:1043D000F12CE12C109731F580913704909138043D
:1043E0008815990509F05CC04616570608F058C0B4
:1043F0008091590190915A01009741F48DB79EB771
:1044000040915D0150915E01841B950BE817F907FF
:1044100008F055C0F0933804E0933704F901718334
:104420006083A0CF8D919C91119712966C901297FA
:1044300013967C901397A815B90559F56C0142E0C5
:10444000C40ED11CCA14DB0420F1AC014A195B096B
:10445000DA011296159780F062827382518340834D
:10446000D9016D937C93E114F10471F0D701139697
:10447000FC93EE93129776CF22968C0F9D1FF90135
:1044800091838083F301EFCFF0933A04E0933904F2
:1044900069CF4816590608F42C017D01D3019ACF43
:1044A000CB010E9480207C01009749F0AE01B80149
:1044B0000E946222C8010E941C21870153CF10E094
:1044C00000E050CFFB01DC0102C001900D92415091
:1044D0005040D8F70895FB01DC0101900D920020B7
:1044E000E1F70895AEE0B0E0E8E7F2E20C94CA1E0E
:1044F0000D891E8986E08C831A8309838FEF9FE7DD
:104500009E838D83AE01475E5F4F6F89788DCE01AC
:1045100001960E9495222F813885020F131FF80102
:1045200010822E96E4E00C94E61EABE0B0E0EBE9DE
:10453000F2E20C94BC1E7C013B018A01FC01178253
:104540001682838181FFC8C1CE0101965C01F7010B
:104550009381F30193FD859193FF81913F0188231E
:1045600009F453C1853239F493FD859193FF81910C
:104570003F01853229F4B70190E00E948524E7CFFE
:10458000912C212C312CFFE1F31538F08B3211F1F5
:1045900090F4803209F1833229F137FC3CC020EDE0
:1045A000280F2A3050F536FE20C08AE0989E200D54
:1045B0001124922E06C08D3291F0803371F76894E9
:1045C00030F8F30193FD859193FF81913F018111B3
:1045D000DACF21C0689431F8689432F8F2CF689449
:1045E00033F8EFCF689434F8ECCFEAE02E9E200D3C
:1045F0001124222E689435F8E4CF8E3229F436FC4B
:1046000004C1689436F8DDCF8C3619F4689437F815
:10461000D8CF8836B1F2982F9F7D95549330E0F033
:104620008336A1F18337C1F1833509F063C02801D6
:10463000F2E04F0E511CF801C080D180692D70E06E
:1046400036FC02C06FEF7FEFC6010E946F244C0161
:10465000689437F882010AC00C5F1F4FFFE3F983AB
:1046600088248394912C6501E89437F833FE2DC09B
:10467000522C8114910471F5552009F468CFB701CB
:1046800080E290E00E9485245A94F6CFF801808160
:1046900089830E5F1F4FE4CF2801F2E04F0E511CBB
:1046A000F801C080D180692D70E036FC02C06FEF48
:1046B0007FEFC6010E947A244C018201D5CFB70159
:1046C00080E290E00E9485242A942814190409F0BD
:1046D000B0F7CECFF60137FC859137FE81916F019F
:1046E000B70190E00E94852451105A94F1E08F1A8E
:1046F0009108BFCF843619F0893609F077C0F801E8
:1047000037FE6BC060817181828193810C5F1F4F86
:10471000F32DFF763F2E97FF09C0909580957095F9
:1047200061957F4F8F4F9F4F689437F82AE030E0B4
:10473000A5010E94B524C82ECA188C2C432C36FE25
:104740000CC0E89440F8C91440F434FE05C032FCB3
:1047500003C0F32DFE7E4F2E892C44FE95C0FE0132
:10476000EC0DF11D8081803309F087C0242D297E56
:10477000422E842D8870582E43FC95C040FE8FC079
:104780009C2C821418F42C0C922C981844FE91C086
:10479000B70180E390E00E94852442FE09C088E7CB
:1047A00090E041FE02C088E590E0B7010E948524B8
:1047B000C91408F48AC0CA94D12C9FEFC91AD90A27
:1047C000CA0CDB1CF60182916F01B70190E00E94D8
:1047D0008524AC14BD04B1F74FCF60817181072EE1
:1047E000000C880B990B0E5F1F4F92CFD32CE894CF
:1047F000D4F82AE030E0853739F1232D297FD22EF5
:104800008F3601F148F48835A9F0F7018681978148
:104810002B96E2E10C94D81E803749F08837A9F72F
:10482000D4FE02C06894D2F820E130E00DC0689454
:10483000D4F8F6CF34FE03C0822F8660D82E20E154
:1048400032E002C028E030E0F801D7FE0FC06081FE
:104850007181828193810C5F1F4FA5010E94B52455
:10486000C82ECA183D2CE89437F867CF6081718153
:1048700090E080E00E5F1F4FF0CF42FC02C08394B7
:1048800078CF8394839475CF842D867809F471CF83
:10489000F6CFB70180E290E00E94852483948214D1
:1048A000C0F3512C73CF522C5818821408F46ECFD9
:1048B000F8CF842D867809F47BCF8BE241FE80E22D
:1048C00047FC8DE2B70190E071CFB70180E390E043
:1048D0000E9485249A946CCF8FEF9FEF99CFFC01B3
:1048E0000590615070400110D8F7809590958E0F1B
:1048F0009F1F0895FC016150704001900110D8F78E
:10490000809590958E0F9F1F08950F931F93CF93BF
:10491000DF93182F092FEB018B8181FD09C01FEF59
:104920000FEF812F902FDF91CF911F910F9108955D
:1049300082FF14C02E813F818C819D812817390709
:104940003CF4E881F981CF01019699838883108333
:104950008E819F8101969F838E83E3CFE885F985C1
:10496000812F0995892BA1F3DACFFA01AA272830E4
:1049700051F1203181F1E8946F936E7F6E5F7F4F2C
:104980008F4F9F4FAF4FB1E03ED0B4E03CD0670FA8
:10499000781F891F9A1FA11D680F791F8A1F911DFB
:1049A000A11D6A0F711D811D911DA11D20D009F44B
:1049B00068943F912AE0269F11243019305D31938D
:1049C000DEF6CF010895462F4770405D4193B3E076
:1049D0000FD0C9F7F6CF462F4F70405D4A3318F01D
:1049E000495D31FD4052419302D0A9F7EACFB4E0CE
:1049F000A6959795879577956795BA95C9F7009786
:104A00006105710508959B01AC010A2E0694579526
:104A1000479537952795BA95C9F7620F731F841F7D
:0A4A2000951FA01D0895F894FFCF24
:104A2A001E1C00000000000000001C1E03030303FC
:104A3A001F1F18181818000000001F1F1818181830
:104A4A001F1F0303030300000000181E03030303D0
:104A5A001F1F1818181800000000030F181818183C
:104A6A00FF090807060D0C0B0A313233413435367B
:104A7A0042373839432A30234400003B048000007F
:104A8A00004000140054000000000035089507C2D9
:104A9A00078208F307D107E507000000000C0BDFC7
:104AAA000A4F0BB50AD80AC50AB60A000000000167
:104ABA0003C102900200000000580C95074F0BA298
:104ACA00080D0A006E616E00696E66006F766600F8
:104ADA0025752D253032642D253032640025752D3B
:104AEA00253032642D2530326454253032643A251B
:104AFA003032643A253032640044202D20566572E3
:104B0A00206D61726361646F726573004D41524337
:104B1A0041444F5245533A004309002509002500F4
:0C4B2A004D61726361646F72202D000009
:00000001FF
